:10000000EEEF06F00000000000EF00F0000000003E
:0A0010000000000000000000F3D71C
:06001C00000000001200CC
:100022008280FF0E956E8292030E8314016E015040
:0A003200030A01E0F9D782821200F0
:10003C00086A096A100E0C6E013408360936045031
:10004C00085E0550D8A0053C095ED8B007D0045016
:10005C0008260550D8B0053C0926D8900036013644
:06006C000C2EEAD7120081
:100072000B6A0A6A096A00500402F4CF09F0F3CF4E
:1000820008F001500502F4CF0BF0F3CF0AF0005054
:100092000502F3500926F4500A22E86A0B220150A5
:1000A2000402F3500926F4500A22E86A0B2208C01F
:1000B20000F009C001F00AC002F00BC003F0120008
:1000C200AFDF956A94C083FF8294A7DFA6DFA5DF26
:0400D2008284120012
:1000D6008290956A94C083FF82949DDF9CDF9BDFAC
:0400E60082841200FE
:1000EA000450085E0550D8A0053C095E0650D8A009
:1000FA00063C0A5E0750D8A0073C0B5E0336070E83
:10010A000C6E0334083609360A360B36045003A03F
:10011A000ED0085E0550D8A0053C095E0650D8A04E
:10012A00063C0A5E0750D8A0073C0B5E0DD0082695
:10013A000550D8B0053C09260650D8B0063C0A2618
:10014A000750D8B0073C0B2603360C2EDAD70234F8
:10015A00083609360A360B36045003A00ED0085E5C
:10016A000550D8A0053C095E0650D8A0063C0A5E98
:10017A000750D8A0073C0B5E0DD008260550D8B012
:10018A00053C09260650D8B0063C0A260750D8B0C6
:10019A00073C0B260236070E0C6E02340836093667
:1001AA000A360B36045002A00ED0085E0550D8A0BD
:1001BA00053C095E0650D8A0063C0A5E0750D8A046
:1001CA00073C0B5E0DD008260550D8B0053C092621
:1001DA000650D8B0063C0A260750D8B0073C0B2672
:1001EA0002360C2EDAD70134083609360A360B36AF
:1001FA00045002A00ED0085E0550D8A0053C095E46
:10020A000650D8A0063C0A5E0750D8A0073C0B5EF1
:10021A000DD008260550D8B0053C09260650D8B09E
:10022A00063C0A260750D8B0073C0B260136070EB3
:10023A000C6E0134083609360A360B36045001A012
:10024A000ED0085E0550D8A0053C095E0650D8A01D
:10025A00063C0A5E0750D8A0073C0B5E0DD0082664
:10026A000550D8B0053C09260650D8B0063C0A26E7
:10027A000750D8B0073C0B2601360C2EDAD70034CB
:10028A00083609360A360B36045001A00ED0085E2D
:10029A000550D8A0053C095E0650D8A0063C0A5E67
:1002AA000750D8A0073C0B5E0DD008260550D8B0E1
:1002BA00053C09260650D8B0063C0A260750D8B095
:1002CA00073C0B260036070E0C6E0034083609363A
:1002DA000A360B36045000A00ED0085E0550D8A08E
:1002EA00053C095E0650D8A0063C0A5E0750D8A015
:1002FA00073C0B5E0DD008260550D8B0053C0926F0
:10030A000650D8B0063C0A260750D8B0073C0B2640
:10031A0000360C2EDAD700B00ED00450082605504D
:10032A00D8B0053C09260650D8B0063C0A26075024
:08033A00D8B0073C0B261200AD
:10034200185000018E5D02E117508D5D01E312002D
:100352001650905D02E115508F5D01E31200800E90
:100362008E19006E800E005C02E1000E8D5D01E2CE
:100372001200800E9019006E800E005C02E1000EE9
:100382008F5D01E212001BC004F01CC005F08DC09D
:1003920000F08EC001F051DE00C092F08FC000F07C
:1003A20090C001F019C004F01AC005F061DE92514C
:1003B2000026000E01221F500024036E205001204F
:1003C200046E04C000F0016A00C093F003C094F010
:1003D20081DE93C094F07EDE240E946F71DEF00E07
:1003E20000019111946F1BC004F01CC005F08DC078
:1003F20000F08EC001F021DE08C000F009C001F05B
:1004020000501B5C006E00060050941359DE12006F
:100412008EC000F0016A00C090F08DC094F05ADEE8
:0E04220090C094F057DE8FC094F04ADE1200B6
:10043000680E046E010E056E8DC000F08EC001F0D6
:10044000FDDD08C000F009C001F000C08DF001C062
:100450008EF0000E026E0150025C02E10050B40802
:1004600008E2010E00018F6FB40E8D5F000E8E5BEF
:1004700002D000018F6B000E006E8E51005C02E115
:100480008D515A0806E28D51B4088D6F8E51000EC1
:100490008E578DC000F08EC001F0000E026E036E0C
:1004A00000360090013602360336500E0024F66EF8
:1004B000210E0120F76E000E0220F86E0900F5CF24
:1004C00090F00900F5CF91F08F5308E090510008AB
:1004D000006E91C001F0000E0156120090C000F0B5
:0604E00091C001F01200C2
:1004E6000B1E0A1E091E081E082AD8B4092AD8B4EB
:0804F6000A2AD8B40B2A1200F7
:1004FE00020E0B6E040E0C6EBA0E0D6E0D2EFED786
:0C050E000C2EFCD70B2EFAD700001200B8
:10051A00220E0C6E086A096A0A6A0B6A0C06D8B4BB
:10052A001FD0D8900B320A32093208320332023213
:10053A0001320032D8A0F2D70C06D8B409D0045040
:10054A0008260550092206500A2207500B22EAD72C
:10055A00045008260550092206500A2207500B2289
:02056A0012007D
:10056C007A507E5C016E7B507F58026E01C085F024
:10057C0002C086F078507C5C0001876F79507D5802
:10058C00886F800E0218006E800E005C02E1000E77
:10059C00015C0BE285510008856F8651000E865771
:1005AC00FF0E8B6FFF0E8C6F04D0010E8B6F000E45
:1005BC008C6F800E8819006E800E005C02E1000EBC
:1005CC00875D0BE287510008876F8851000E8857B2
:1005DC00FF0E896FFF0E8A6F04D0010E896F000E1B
:1005EC008A6F85378591863787378791883778C0AA
:1005FC008DF079C08EF07AC08FF07BC090F080C007
:10060C0091F099DE800E00018619006E800E88191B
:10061C00005C02E18751855D42E287C000F088C032
:10062C0001F001320032019E01BC018E0050855D4B
:10063C00816F01508659826F79507D1802E17C5090
:10064C0078182CE00001800E8219006E800E005C80
:10065C0002E1000E815D08E38B517A268C517B22DE
:10066C008751815F8851825B89517824006E8A5151
:10067C007920016E00C078F001C079F08551812796
:10068C008651822300C08DF001C08EF07AC08FF0AD
:10069C007BC090F080C091F04EDECED742D085C0AA
:1006AC0000F086C001F001320032019E01BC018EC7
:1006BC0000500001875D836F01508859846F7B5017
:1006CC007F1802E17E507A182CE00001800E84190C
:1006DC00006E800E005C02E1000E835D08E3895120
:1006EC0078268A5179228551835F8651845B8B51A0
:1006FC007A24006E8C517B20016E00C07AF001C010
:10070C007BF0875183278851842378C08DF079C082
:10071C008EF000C08FF001C090F080C091F00BDE25
:04072C00CED7120012
:100730000450000A12E10550000A0FE10650000AB9
:100740000CE10750000A09E1FF0E006EFF0E016E7A
:10075000FF0E026E7F0E036E12000C6A07BE0C2A9B
:100760000D6A0B6A0A6A096A086A035002100110CE
:100770000010D8B484D0035007180E6E0EBE0D1EA4
:1007800007AE0BD0041E051E061E071E042AD8B491
:10079000052AD8B4062AD8B4072A03AE0BD0001E07
:1007A000011E021E031E002AD8B4012AD8B4022A50
:1007B000D8B4032A035007100E6E0EBE1CD095DC71
:1007C0000CBE36D00DAE5BD0001E011E021E031EF5
:1007D000002AD8B4012AD8B4022AD8B4032A081EA1
:1007E000091E0A1E0B1E082AD8B4092AD8B40A2AE0
:1007F000D8B40B2A44D007AE15D003BE0DD0035099
:100800000B6E02500A6E0150096E0050086E036AAA
:10081000026A016A006AD6D7036A026A016A006A3C
:10082000002A000C031E021E011E001E0C8EC7D7DC
:10083000082AD8B4092AD8B40A2AD8B40B2A0450F2
:10084000085CD8A4BFD70550095CD8A4BBD7065014
:100850000A5CD8A4B7D707500B5CD8A4B3D70B6AEF
:100860000A6A096A086A002AD8B4012AD8B4022A96
:10087000D8B4032A03AEA6D70E6A0E88FF0C0E6A00
:0A0880000CA001D030DE000F1200C2
:10088A005A0E782400018D6F000E79208E6FCBDD11
:02089A0012004A
:10089C007D6A7E6A11EC00F079501F2400018D6F87
:1008AC007A5020208E6F240E8F6FADDDB00E0001BC
:1008BC00946F01DC8290956A7C507E5C02E17B50E7
:1008CC007D5C0DE278C083FF82940EEC00F00EECA0
:1008DC0000F00EEC00F082847D4A7E2AEDD7B20E39
:0A08EC000001946F61EC00F01200AF
:1008F6000900F5CFE6FF0006FBE10106F9E112006B
:1009060065C017F066C018F067C015F0000E166EC9
:1009160068C01BF0000E1C6E1BC004F01CC005F066
:1009260065C000F066C001F01EEC00F000C019F0D2
:1009360001C01AF015C004F016C005F039EC00F03D
:1009460000C024F001C025F015C000F016C001F06B
:1009560001320032019E01320032019E0132003224
:10096600019E19C004F01AC005F039EC00F000C071
:1009760022F001C023F0949494929490949A8284E5
:1009860082828280828AFF0E956E829AB5DD828A85
:10099600B3DD810E0001946F61EC00F068C004F0D5
:1009A600000E056E17C000F018C001F01EEC00F036
:1009B60000C08DF001C08EF0430E00018F6F26DD62
:1009C60019C08DF01AC08EF0410E00018F6F1EDD2A
:1009D600225024247B6E235025207C6E1F6A206AB9
:1009E60024C026F025C027F0786A796A7A6A53DF30
:1009F600900E216E00018D6B8E6B420E8F6F06DDA1
:100A060024C08DF025C08EF0400E00018F6FFEDCF5
:020A16001200CC
:100A180065C078F066C079F067C07AF068C07BF08E
:100A280069C07CF06AC07DF067C07EF068C07FF066
:100A38006DC080F097DD69C078F06AC079F067C052
:100A48007AF068C07BF069C07CF06AC07DF06BC04A
:100A58007EF06CC07FF06DC080F084DD69C078F0F6
:100A68006AC079F06BC07AF06CC07BF065C07CF02E
:100A780066C07DF06BC07EF06CC07FF06DC080F00A
:100A880071DD65C078F066C079F06BC07AF06CC033
:100A98007BF065C07CF066C07DF067C07EF068C002
:0A0AA8007FF06DC080F05EDD1200EB
:100AB20066506A1802E16950651816E065C078F060
:100AC20066C079F067C07AF068C07BF065C07CF0E0
:100AD20066C07DF06BC07EF06CC07FF06DC080F0B0
:0A0AE20044DD654A662AE4D71200DD
:100AEC00766A776A800E010A006E800E7718005CB9
:100AFC0002E17650680869E376C08DF077C08EF01D
:100B0C0091DC000E01BEFF0E026E036E69C004F094
:100B1C006AC005F06BC006F06CC007F0F8DCE80E9C
:100B2C00046E030E056E000E066E076EFBDD65503F
:100B3C0000246E6E665001206F6E76C078F077C020
:100B4C0079F09DDE000E01BEFF0E026E036E69C0D1
:100B5C0004F06AC005F06BC006F06CC007F0D7DC7F
:100B6C00E80E046E030E056E000E066E076EDADDDF
:100B7C0067500024706E68500120716E800E006EFC
:100B8C00800E7718005C02E17650000813E272C008
:100B9C0078F073C079F074C07AF075C07BF06EC0D9
:100BAC007CF06FC07DF070C07EF071C07FF06DC0C6
:100BBC0080F0D6DC6EC072F06FC073F070C074F051
:0C0BCC0071C075F0764A772A8DD71200B0
:100BD80011EC00F065C094F06BEC00F066C094F086
:100BE8006BEC00F0210E0001946F61EC00F0120034
:100BF800706A716A1BC004F01CC005F065C000F083
:100C0800000E016E1EEC00F000C06CF001C06DF02B
:100C180066C000F0000E016E19C004F01AC005F09D
:100C280039EC00F06C500024706E6D500120716E2C
:100C38001F50702620507122070E6A14016E015051
:100C480000080DE26A326A9E6A326A9E6A326A9EB9
:100C58006A2A6A366A906A366A906A366A906BC0FF
:100C680000F06B06005247E011EC00F070C08DF008
:100C780071C08EF0240E00018F6F09EC02F0B00EE7
:100C88000001946F61EC00F08290956A6E6A6F6A59
:100C98001BC004F01CC005F06AC000F0000E016E15
:100CA8001EEC00F001506F5C02E100506E5C19E22E
:100CB80067C0F6FF68C0F7FF69C0F8FF0900F5CF05
:100CC80083FF010E6726000E6822692282940EECCB
:100CD80000F00EEC00F00EEC00F082846E4A6F2AF1
:100CE800D7D7B20E0001946F61EC00F0195070264E
:080CF8001A507122B4D712005A
:100D0000686A696A11EC00F01FC08DF020C08EF097
:100D1000240E00018F6F09EC02F0B00E0001946FF9
:100D200061EC00F08290956A2550695C02E12450E4
:100D3000685C19E265C0F6FF66C0F7FF67C0F8FFA0
:100D40000900F5CF83FF010E6526000E662267229B
:100D500082940EEC00F00EEC00F00EEC00F08284B9
:100D6000684A692AE1D7B20E0001946F61EC00F085
:020D700012006F
:100D720069C094F061EC00F068C000F0000E016EF2
:100D820019C004F01AC005F039EC00F067500024D5
:100D920000018D6F000E01208E6F26508D27275087
:100DA2008E23240E8F6F09EC02F065C0E9FF66C046
:100DB200EAFFEE5211E065C0E9FF66C0EAFF200ECD
:100DC200EE5C0001946F6BEC00F0654A662AC00E7F
:0A0DD200946F61EC00F0E9D7120005
:100DDC00060EF66E220EF76E000EF86E280EE16E01
:100DEC00000EE26E1E0E006E010E016E7EDD240EF4
:100DFC00F66E220EF76E000EF86E460EE16E000EC9
:100E0C00E26E1E0E006E010E016E6FDD0E0EC16ED7
:100E1C0092869288F00E656E000E666E800E676E7E
:100E2C00080E686E6ADD218621C094F061EC00F03A
:100E3C00218421C094F061EC00F00A0E656E0A0E5C
:100E4C00666E420E676E220E686E000E696E100E94
:100E5C006A6E100E6B6ECADE660E0B6E760E0C6E24
:100E6C00C10E0D6E0D2EFED70C2EFCD70B2EFAD705
:100E7C00500E656E120E666E000E676E3BDF1F0E17
:100E8C000B6E710E0C6E1E0E0D6E0D2EFED70C2EF3
:100E9C00FCD70B2EFAD70000646A460E656E000E66
:100EAC00666E676A686A810E696E5DDF280E656E14
:100EBC00000E666E676A0F0E686E810E696E53DFE8
:100ECC00A70E0001946F61EC00F0656A666A7EDE25
:100EDC00219221C094F061EC00F0656A666A676A41
:100EEC00686AEF0E696E000E6A6E7F0E6B6E000EF6
:100EFC006C6E080E6D6E8ADD140E656E000E666EDD
:100F0C00140E676E000E686EDB0E696E000E6A6E54
:100F1C006B0E6B6E000E6C6E080E6D6E77DD280E10
:100F2C00656E000E666E280E676E000E686EC70E3C
:100F3C00696E000E6A6E570E6B6E000E6C6E080EAC
:100F4C006D6E64DD3C0E656E000E666E3C0E676E5B
:100F5C00000E686EB30E696E000E6A6E430E6B6EF9
:100F6C00000E6C6E080E6D6E51DD786A796A7A6AC5
:100F7C007B6AEF0E7C6E000E7D6E7F0E7E6E000E19
:100F8C007F6E080E0001806FB6EC02F0786A796A09
:100F9C007F0E7A6E000E7B6EEF0E7C6E000E7D6EF9
:100FAC007E6A7F6A080E0001806FB6EC02F0656AFB
:100FBC00666A676A686AEF0E696E000E6A6E080EE2
:100FCC006B6E000E6C6E080E6D6E6DDD656A666A7A
:100FDC00770E676E000E686EEF0E696E000E6A6E0D
:100FEC007F0E6B6E000E6C6E080E6D6E5CDD780EF7
:100FFC00656E000E666E400E676E000E686E0A0E11
:10100C00696E000E6A6E6B6E6C6E080E6D6E68DD2E
:10101C00780E656E000E666E400E676E000E686E82
:10102C001E0E696E000E6A6E6B6E6C6E080E6D6E27
:10103C0057DD780E656E000E666E400E676E000E04
:10104C00686E320E696E000E6A6E6B6E6C6E080EF8
:10105C006D6E46DD780E656E000E666E400E676E28
:10106C00000E686E460E696E000E6A6E6B6E6C6ECC
:10107C00080E6D6E35DD780E656E000E666E400ED8
:10108C00676E000E686E5A0E696E000E6A6E6B6E9D
:10109C006C6E080E6D6E24DD780E656E000E666E3D
:1010AC00400E676E000E686E6E0E696E000E6A6EF4
:1010BC006B6E6C6E080E6D6E13DD780E656E000E29
:1010CC00666E400E676E000E686E820E696E000EC4
:1010DC006A6E6B6E6C6E080E6D6E02DD22502424EF
:1010EC001F6E23502520206E036A80B6032A03C08E
:1010FC0001F0000E026E013602360190006A80B8D3
:10110C00002A00500126000E022201C01DF002C070
:10111C001EF0000E021802E1000E011819E12186E2
:10112C0021C094F061EC00F0219421C094F061ECAA
:10113C0000F0040E0B6E0C0E0C6E330E0D6E0D2E9D
:10114C00FED70C2EFCD70B2EFAD7000000006BD06C
:10115C00000E1E1802E1010E1D1828E1642A010E72
:10116C006414046E04C064F022502424006E2350D6
:10117C002520016E000E056E39EC00F000C08DF0DC
:10118C0001C08EF0420E00018F6F09EC02F0040ECC
:10119C000B6E0C0E0C6E330E0D6E0D2EFED70C2E30
:1011AC00FCD70B2EFAD7000000003DD0000E1E1805
:1011BC0002E1020E1D1819E1219621C094F061EC98
:1011CC0000F0218421C094F061EC00F0040E0B6E51
:1011DC000C0E0C6E330E0D6E0D2EFED70C2EFCD796
:1011EC000B2EFAD7000000001ED0000E1E1802E1D4
:1011FC00030E1D1818E1218621C094F061EC00F05B
:10120C00218421C094F061EC00F0040E0B6E0C0EE6
:10121C000C6E330E0D6E0D2EFED70C2EFCD70B2E36
:10122C00FAD700000000150E0B6E4B0E0C6EBE0EA6
:10123C000D6E0D2EFED70C2EFCD70B2EFAD7000000
:04124C0053D7FFD79E
:10125000FFFFE000000000000000001FFFFFF8009B
:101260000000000000000000000000000000FFFF80
:10127000E00000000000000000000000000000008E
:10128000000000000000000000000000FFFFA000C0
:10129000000000000000000000000000000000004E
:1012A00000000000000000000000FFFF0000000040
:1012B000000000000000000000000000000000002E
:1012C0000000000000000000FFFF00000000000020
:1012D000000000000000000000000000000000000E
:1012E000000000000000FFFE000000000000000001
:1012F00000000000000000000000000000000000EE
:1013000000000000FFFE00000000000000000000E0
:1013100000000000000000000000000000000000CD
:101320000000FFFA000000000000000000000000C4
:1013300000000000000000000000000000000000AD
:10134000FFF00000000000000000000000000000AE
:101350000000000000000000000000000000FFF09E
:10136000000000000000000000000000000000007D
:10137000000000000000000000000000FFE000008E
:10138000000000000000000000000000000000005D
:1013900000000000000000000000FFC0000000008E
:1013A000000000000000000000000000000000003D
:1013B0000000000000000000FFE00000000000004E
:1013C000000000000000000000000000000000001D
:1013D000000000000000FFC000000000000000004E
:1013E00000000000000000000000000000000000FD
:1013F00000000000FF80000000000000000000006E
:1014000000000000000000000000000000000000DC
:101410000000FF800000000000000000000000004D
:1014200000000000000000000000000000000000BC
:10143000FE000000000000000000000000000000AE
:101440000000000000000000000000000000FE009E
:10145000000000000000000000000000000000008C
:10146000000000000000000000000000F400000088
:10147000000000000000000000000000000000006C
:1014800000000000000000000000F8000000000064
:1014900000000000000000000000000000001F002D
:1014A0000000000000000000E80000000000000054
:1014B000000000000000000000000000FFF8000035
:1014C000000000000000F00000000000000000002C
:1014D000000000000000000000FFFFFFE00000002F
:1014E00000000000D000000000000000000000002C
:1014F0000000000000003FFFFFFFFC0000000000B4
:101500000000C0000000000000000000000000001B
:1015100000000007FFFFFFFFD900000000000000EF
:10152000800000000000000000000000000000003B
:1015300001FFFFFFFFFFE680000000000000000049
:1015400000000000000000000000000000000FFF8D
:10155000FFFFFFFFFFE000000000000000000000B0
:1015600000000000000000000000000067FFFFFF17
:10157000FFFFFFF00000000000000000000000007E
:10158000000000000000000000019FFFFFFFFFFFC0
:10159000FFF8000000000000000000000000000054
:1015A00000000000000000057FFFFFFFFFFFFFFEBF
:1015B000000000000000000000000000000000002B
:1015C000000000000003FFFFFFFFFFFFFFFF000020
:1015D000000000000000000000000000000000000B
:1015E0000000004FFFFFFFFFFFFFFFFF8000000034
:1015F00000000000000000000000000000000000EB
:10160000019FFFFFFFFFFFFFFFFFC0000000000082
:101610000000000000000000000000000000027F49
:10162000FFFFFFFFFFFFFFFFE000000000000000E2
:1016300000000000000000000000000000FFFFFFAD
:10164000FFFFFFFFFFFFF0000000000000000000B0
:101650000000000000000000000003FFFFFFFFFF8C
:10166000FFFFFFFFF000000000000000000000008E
:10167000000000000000000007FFFFFFFFFFFFFF6A
:10168000FFFFF80000000000000000000000000064
:101690000000000000000FFFFFFFFFFFFFFFFFFF44
:1016A000FE0000000000000000000000000000003C
:1016B000000000003FFFFFFFFFFFFFFFFFFFFC00F8
:1016C000000000000000000000000000000000001A
:1016D00000007FFFFFFFFFFFFFFFFFFFFF00000095
:1016E00000000000000000000000000000000000FA
:1016F000FFFFFFFFFFFFFFFFFFFFFF800000000075
:101700000000000000000000000000000001FFFFDA
:10171000FFFFFFFFFFFFFFFFFF8000000000000052
:10172000000000000000000000000003FFFFFFFFBA
:10173000FFFFFFFFFFFFFFC00000000000000000F0
:1017400000000000000000000007FFFFFFFFFFFF98
:10175000FFFFFFFFFFC000000000000000000000CE
:10176000000000000000000FFFFFFFFC49FFFFFF2B
:10177000FFFFFFE00000000000000000000000008C
:1017800000000000001FFFFFFFD000EFE7EFFFFFAA
:10179000FFF000000000000000000000000000005A
:1017A0000000003FFFFFFF800000E0E3FFFFFFF8C5
:1017B0000000000000000000000000000000000029
:1017C000007FFFFFFF10000480007FFFFFFC000090
:1017D000000000000000000000000000000000FF0A
:1017E000FFFFFE60000080007FFFFFFC00000000A4
:1017F00000000000000000000000000001FFFFFFEB
:10180000FAC00000C001BFFFFFFC000000000000A4
:101810000000000000000000000001FFBFFFF88092
:10182000000080009FFFFFFE00000000000000009D
:10183000000000000000000003FFFFFFF9000001AE
:101840000000FFFFFFFE000000000000000000009D
:1018500000000000000007FFFFFFF0000000000094
:101860002FFFFFFF0000000000000000000000004C
:101870000000000007FFFFFFC0000000000003FFA2
:10188000FFFFC0000000000000000000000000009A
:1018900000002FFFFFFF80000000000000FFFFFF9F
:1018A000E000000000000000000000000000000058
:1018B0000FFFFFFF000000000000007FFFFFE000BF
:1018C00000000000000000000000000000001FFFFA
:1018D000FFFD000000000000007FFFFFF00000009F
:1018E0000000000000000000000000003FFFFFFCBF
:1018F000000000000000001FFFFFF80000000000D3
:10190000000000000000000000003FFFFFF80000A2
:10191000000000000007FFFFF800000000000000CA
:1019200000000000000000013FFFFFF00000000089
:1019300000000007FFFFFC000000000000000000A6
:101940000000000000007FFFFFE00000000000003A
:101950000001FFFFFC00000000000000000000008C
:1019600000000000FFFFFFC00000000000000001B9
:10197000FFFFFE000000000000000000000000006B
:101980000002FFFFFFC00000000000000001FFFF99
:10199000FE00000000000000000000000000000148
:1019A000FFFFFF800000000000000000FFFFFE00BE
:1019B0000000000000000000000000000001FFFF28
:1019C000FF8000000000000000003FFFFF0000005B
:1019D000000000000000000000000003FFFFFF0007
:1019E00000000000000000001FFFFF0000000000DA
:1019F00000000000000000000007FFFFFF000000E3
:101A00000000000000001FFFFF8000000000000039
:101A10000000000000000007FFFFFE0000000000C3
:101A2000000000001FFFFFC00000000000000000D9
:101A3000000000000007FFFFFE00000000000000A3
:101A4000000003FFFFC000000000000000000000D5
:101A500000000007FFFFFE00000000000000000083
:101A600007FFFFC0000000000000000000000000B1
:101A70000007FFFFFF00000000000000000003FF60
:101A8000FFE0000000000000000000000000000770
:101A9000FFFFFF80000000000000000003FFFFE0E8
:101AA0000000000000000000000000000007FFFF31
:101AB000FE0000000000000000000FFFFFF000002B
:101AC00000000000000000000000000FFFFFFE000B
:101AD00000000000000000000BFFFFF0000000000D
:101AE0000000000000000000000FFFFFFEC0000427
:101AF00000000000000001FFFFF0000000000000F7
:101B0000000000000000000FFFFFFF01E7FC0000E5
:101B1000000000000FFFFFF00000000000000000C8
:101B200000000000000FFFFFFFF71FFC0000000097
:101B3000000807FFFFF800000000000000000000A0
:101B40000000000FFFFFFEF9FFDF10000004FF019F
:101B500081FFFFF80000000000000000000000000E
:101B6000001FFFFFFFE7F2FF90000023FFFFBFFF12
:101B7000FFF8000000000000000000000000001F4F
:101B8000FFFFFFFFBF7F8000000FFFFFEFFFFFF8A9
:101B9000000000000000000000000000003FFFFF08
:101BA000FF8003EDC000000FFFFFFFFFFFF8000004
:101BB00000000000000000000000003FFFFFFE00EA
:101BC000008082000007FFFFFFFFFFFC0000000015
:101BD0000000000000000000003FFFFFFE0000C00A
:101BE0000000001FFFFFFFFFFFF8000000000000E3
:101BF000000000000000007FFFFFF0000040000038
:101C0000001FFFC3FFFFFFFC0000000000000000FA
:101C100000000000007FFFFFF00000200000001C1B
:101C20007E00FFFFFFFC000000000000000000003D
:101C30000000007FFFFFE10003D200000018FC005D
:101C40000FFFFFFC0000000000000000000000008B
:101C5000007FFFFFE0000FE10A000007FE0003FF26
:101C6000FFFC00000000000000000000000000FF7A
:101C7000FFFFC005FEF80300031F800001FFFFFC0B
:101C800000000000000000000000000000FFFFFF57
:101C9000E09FEFFE070007FE7C0001FFFFFC000055
:101CA0000000000000000000000001FFFFFFC0FF77
:101CB000FFFF47000FF843C000FFFFFC00000000DB
:101CC000000000000000000001FFFFFF80FFFFFF99
:101CD000E7001FE1F878007FFFFC00000000000033
:101CE00000000000000001FFFFFF83FFFFFF130063
:101CF0001E23FF7E007FFFFE0000000000000000AA
:101D00000000000003FFFFFF43FEFFDE03003E0F65
:101D1000FFFF007FFFFC000000000000000000004B
:101D2000000003FFFFFF47FFFFC7B3003E0FFFFFA9
:101D3000807FFFFC000000000000000000000000A9
:101D400003FFFFFFAFFFFFFFC7003E37FFFFC07F6E
:101D5000FFFC00000000000000000000000003FF86
:101D6000FFFFFFFFFDFE07003FBFBDFFC03FFFFEBF
:101D700000000000000000000000000003FFFFFF63
:101D8000F07FF4F80E00F8FE3FFFE03FFFFE00009A
:101D90000000000000000000000007FFFFFF8018A7
:101DA00003E01A40F83FFFFFE03FFFFE00000000A5
:101DB000000000000000000007FFFFFE0F1D378E2F
:101DC0003B40FC4FFFFFF07FFFFE000000000000E3
:101DD00000000000000007FFFFFC004810706200D8
:101DE000FE38CEFFF83FFFFE0000000000000000BC
:101DF000000000000FFFFFFC003FEFC1C2007F1F8B
:101E0000807FFFFFFFFE00000000000000000000D8
:101E100000000FFFFFF8000BFE0F00007FE1E01D48
:101E2000FF7FFFFE00000000000000000000000037
:101E30000FFFFFF80000000200003FFC1F0003FF3F
:101E4000FFFC0000000000000000000000001FFF79
:101E5000FFF00000000000003CFFC01800FFFFF88A
:101E60000000000000000000000000001FFFFFE075
:101E70000000000000003C79FF00007FFFF8000038
:101E8000000000000000000000001FFFFFE0000055
:101E9000000018001C3C3FFC007FFFF80000000021
:101EA00000000000000000001FFFFFE00000000035
:101EB00018001C0002F8007FFFF80000000000007E
:101EC0000000000000003FFFFFE000000000700085
:101ED0000C000040003FFFF0000000000000000088
:101EE000000000003FFFFFE00000000180001C0038
:101EF0000000001FFFF000000000000000000000D4
:101F000000007FFFFFE00000000000000E00000066
:101F1000001FFFE0000000000000000000000000C3
:101F20007FFFFFE00000000000000F000000001F26
:101F3000FFC00000000000000000000000003FFFA4
:101F4000FFE000000000000005800000000FFFC05F
:101F50000000000000000000000000003FFFFFF054
:101F600000000000000004C00000000FFFE00000BF
:101F700000000000000000000000FFFFFFF0000074
:101F80000000000000400000000FFFF00000000013
:101F90000000000000000000FFFFFFA000000000A4
:101FA000600000000000000FFFF0000000000000D3
:101FB0000000000000007FFFFFF0000000003C0078
:101FC00000000000000FFFF0000000000000000013
:101FD00000000000FFFFFFF8000000000E007C0082
:101FE0000000003FFFE000000000000000000000D3
:101FF0000000FFFFFFF0000000000101F000000002
:1020000000FFFFE0000000000000000000000001F1
:10201000FFFFFFF0000000000083E000000000FF71
:10202000FFE0000000000000000000000001FFFFD2
:10203000FFF80000000000828000000000FFFFE0C9
:10204000000000000000000000000001FFFFFFF89A
:102050000000000000800000000000FFFFE0000022
:1020600000000000000000000000FFFFFFF800007B
:10207000000000000000000000FFFFC000000000A2
:102080000000000000000000FFFFFFFC0000000057
:1020900000000000000000FFFFC000000000000082
:1020A000000000000001FFFFFFFC00000000000036
:1020B0000000000000FFFFC0000000000000000062
:1020C00000000002FFFFFFFE000000000000000013
:1020D000000001FFFF000000000000000000000001
:1020E0000004FFFFFFFC00000020000000000000D3
:1020F00001FFFE0000008000000000000000000C56
:10210000FFFFFFFD0000000000000000000001FFD5
:10211000FE000000E000000000000000000D7FFF56
:10212000D1FE0000000000000000000003FFFC00E2
:102130000000F00000000000000000037FFFC1FC71
:102140000008000000000000000007FFFC00000085
:1021500000001100230034004600570068007A0098
:102160008B009C00AE00BF00D000E100F200030134
:1021700014012401350145015601660176018701EC
:102180009701A601B601C601D501E501F4010302DC
:10219000120220022F023D024C025A02670275020F
:1021A000830290029D02AA02B602C302CF02DB02A2
:1021B000E702F202FE02090314031E03290333039C
:1021C0003D0346035003590362036A0373037B0311
:1021D00083038A03910398039F03A503AB03B10311
:1021E000B703BC03C103C603CA03CE03D203D5039E
:1021F000D903DC03DE03E003E203E403E603E703C1
:06220000E703E803E80318
:102206002045494E535445494E20574F554C44207E
:0E22160048415645204C494B4544206D45003B
:1022240020474C4344204C49425241525920444592
:0E2234004D4F2C2057454C434F4D4520210067
:102242003FFC23C423C4300C18380E6003C03FFC8B
:1022520003C0066004301C18300C238423843FFC26
:020000040030CA
:0D000100021F1EFF8381FF0FC00FE00F40A4
:00000001FF
