:1000000081EF04F00000000000EF00F000000000AD
:0A0010000000000000000000F3D71C
:10001C000F0E0C6E470E0D6E0D2EFED70C2EFCD750
:06002C00000000001200BC
:0A003200210E0D6E0D2EFED71200F8
:06003C00000000001200AC
:100042000B840BAE2CEF00F0010E036E026A016A04
:0A005200006A0A360232FF0E1200A7
:0E005C00026A016A006A086A036A000E120056
:08006A000AAE029E000E120016
:10007200086A096A100E0C6E0134083609360450FB
:10008200085E0550D8A0053C095ED8B007D00450E0
:1000920008260550D8B0053C0926D890003601360E
:0600A2000C2EEAD712004B
:1000A8004DBE02D0839E01D0838E4DBC02D0839C6E
:1000B80001D0838C4DBA02D0839A01D0838A4DB87F
:1000C80002D0839801D083882BB002D0848001D0DD
:1000D80084908482AFDF84924DB602D0839E01D093
:1000E800838E4DB402D0839C01D0838C4DB202D054
:1000F800839A01D0838A4DB002D0839801D0838837
:100108002BB002D0848001D08490848293DF8492C3
:0C0118002BA002D07FDF01D088DF120096
:0C0124000E0E0D6E0D2EFED70000120016
:0C0130002B9046C04DF0B8DF2B80120071
:08013C000B6A0B86FF0E120096
:100144000B820BAEACEF00F0036802680168006834
:080154000A360232FF0E120010
:10015C000B800BAEBAEF00F0026A0AAEFF0E026E15
:0C016C00016E006E0A360232FF0E120017
:0E017800ACB202D00000FCD746C0ADFF1200B2
:100186004A6A050E4A5C0AE24A504824E16E000EAD
:100196004920E26E200EE66E4A2AF3D74A504824DA
:1001A600E16E000E4920E26EE66A4A064A5048248D
:1001B6004B6E000E49204C6E0A0E046E000E056E44
:1001C60046C000F047C001F051DF08C000F009C08A
:1001D60001F0300E00264BC0E1FF4CC0E2FF00C02C
:1001E600E6FF0A0E046E000E056E46C000F047C01C
:1001F60001F03CDF00C046F001C047F0000E0118D8
:1002060002E1000E001801E102D04A06CFD7120023
:100216000C6A0E6A0250D8A424EF01F001C002F065
:1002260000C001F0006A0E860250D8A424EF01F047
:1002360001C002F0016A0E960E880250D8B436EF5D
:1002460001F00E50035ED8A4D8A03BEF01F0D89081
:1002560002BE40EF01F0003601360236032E2BEFC8
:1002660001F03BEF01F0010E0C6EF5DE43EF01F0FD
:10027600020E0C6EE3DE43EF01F0040E0C6EF2DEAE
:02028600120064
:0E0288000D0E466E75DF0A0E466E72DF120016
:100296003F6A3CC0E9FF3DC0EAFFEECF3EF03E506C
:1002A600000A0DE03EC046F064DF3F2A3F503C2482
:1002B600E96E000E3D20EA6EEECF3EF0F0D712005A
:1002C600780E346E010E356E460E366E000E376EA3
:1002D600FF0E386EFF0E396E000E3A6E000E3B6E44
:1002E600FF0E2C6EFF0E2D6E000E2E6E000E2F6E64
:1002F600FF0E306EFF0E316E000E326E000E336E44
:10030600AC8A900EAB6E948E949C9EAA03D0AECF10
:0603160000F0FBD712000D
:10031C000900F5CFE6FF0006FBE10106F9E112004A
:10032C00400E4D6EBBDE3C6A3C50070811E3F40EE8
:10033C003C24F66E090EF76E000EF722000EF86ED6
:10034C00000EF8220900F5CF46F0ECDE3C2AECD783
:10035C003C6A3C50070811E3EC0E3C24F66E090E87
:10036C00F76E000EF722000EF86E000EF822090050
:10037C00F5CF46F0D7DE3C2AECD7020E4D6E8EDE62
:02038C0012005D
:10038E00969296909598959A959C959E8492849027
:10039E00839E839C839A83983ADE39DE38DE838A85
:1003AE008388848244DE849232DE848240DE8492AC
:1003BE002EDE84823CDE84922ADE8398848237DEAF
:1003CE00849225DE848233DE8492839A838E8482A5
:1003DE002EDE84921CDE839E8388848228DE8492A5
:1003EE008398848224DE849212DE848220DE8492BC
:1003FE00838884821CDE84920ADE8398848217DED0
:10040E008492838E838C838A8388848210DE849286
:06041E00FEDD2B80120040
:100424000B6A0C6A0A6A0350D8B447EF02F00A9EBA
:10043400028E860E035E03BE25EF02F0D8B425EFCC
:1004440002F04AEF02F0036C080E035CD8A033EF0D
:1004540002F0036E0236026A0350D8A4D8903CEF2F
:1004640002F00350D8B43CEF02F0D8900232032ECD
:1004740037EF02F00BBC02A047EF02F0D8A047EF21
:1004840002F0022AD8B451EF02F0016A56EF02F0EA
:100494000B800BAE5AEF02F0016A5AEF02F0010E24
:1004A4000C6E5ADE5CEF02F0000E0C6E5CEF02F094
:0A04B400FF0E0C6E0250006E1200E5
:1004BE000450000A12E10550000A0FE10650000A2E
:1004CE000CE10750000A09E1FF0E006EFF0E016EEF
:1004DE007F0E026EFF0E036E1200086A096A075045
:1004EE00D8B40AEF03F00350D8B40EEF03F0025065
:1004FE0006180A6E028E068E0E6A02C008F001C041
:10050E000CF000C00DF004500D5E0550D8A0053C57
:10051E000C5E0650D8A0063C085E086A0C6A0D6A8E
:10052E00D8A0A1EF02F0D890023201320032083288
:10053E00010E0E6E0750035ED8A0AEEF02F07E0ED7
:10054E000E240326D8B012EF03F0B4EF02F07E0EA5
:10055E000E240326D8A016EF03F0180E0B6E0D36E0
:10056E000C3608360036013602360E360450005E62
:10057E000550D8A0053C015E0650D8A0063C025E90
:10058E0006340E120EA0CFEF02F00D80DAEF02F05D
:10059E00045000260550D8B0053C01260650D8B0B0
:1005AE00062802260D900B2EB6EF02F000EF03F098
:1005BE00D8900036013602360E360450005E0550D5
:1005CE00D8A0053C015E0650D8A0063C025E06345B
:1005DE000E10010B0D26D8B00C2AD8B4082AD8A4B8
:1005EE0000EF03F008320C320D32032AD8B412EFAA
:1005FE0003F00AAE089E0850026E0C50016E0D50AC
:10060E00006E18EF03F0010E92DD18EF03F0020EEC
:10061E001EDD18EF03F0040E8EDD18EF03F0080E4A
:04062E0009DD1200D0
:10063200086A096A000E076203649EEF03F0025023
:1006420006180A6E075003267E0ED8A02FEF03F07D
:10065200035ED8B0A2EF03F033EF03F0035ED8A03D
:10066200A6EF03F0028E068E02C00EF001C00BF060
:1006720000C00DF000500402F4CF0CF0015005024E
:10068200F4CF00F0F3CF08F00402F3500C26F4503C
:100692000822000E00220D500502F3500C26F450E1
:1006A2000822000E002202500402F3500826F450E1
:1006B200002202500502016A000E0122F3500026B8
:1006C200F45001220D500602F3500826F450002285
:1006D200026A000E012202220B500602F35000268B
:1006E200F4500122000E02220E500602F35001269F
:1006F200F450022202BE86EF03F0083600360136BD
:1007020002360306D8B4A6EF03F099EF03F0D880BF
:10071200800E08640030000E002201220222D8A0BE
:1007220099EF03F0023201320032034AA2EF03F0E2
:100732000AAE029E000EA8EF03F0010E8EDCA8EFB7
:1007420003F0020EFEDCA8EF03F0040E79DC1200C7
:100752000050086E0150006E016A026A036A0B6A59
:100762000C6A960E036E0A6A00C001F008C000F01F
:08077200086A026A4FDD120063
:10077A00426A436A3CC044F03DC045F0800E3D18D1
:10078A00006E800E005C02E1000E3C5C0BE2010E82
:10079A00426E000E436E3C500008446E3DC045F068
:1007AA00000E455644C046F045C047F03EC048F0EA
:1007BA003FC049F0E3DC060E406E000E416E000EAB
:1007CA00006E4150005C02E14050000819E24050BE
:1007DA003E24E16E41503F20E26E010E405C006E05
:1007EA00000E4158016E00503E24E96E01503F2030
:1007FA00EA6EEECFE6FF010E405E000E415ADFD7E9
:10080A003EC0E1FF3FC0E2FF200EE66E42504310B9
:10081A001AE0406A416A40503E24E96E41503F2046
:10082A00EA6EEE50200A03E1404A412AF4D7010E4B
:10083A00405E000E415A40503E24E16E41503F2036
:08084A00E26E2D0EE66E1200B5
:100852000FD0800E3C6E19D0C00E3C6E16D0940E96
:100862003C6E13D0D40E3C6E10D0800E3C6E0DD078
:100872003C50010AEEE03C50020AEEE03C50030A12
:10088200EEE03C50040AEEE0F0D73D04006E3C502E
:10089200002600C03CF000C04DF005DC2B90406A01
:1008A20040503E24E96E000E3F20EA6EEE520BE00D
:1008B20040503E24E96E000E3F20EA6EEECF46F035
:0A08C20036DC402AEDD72B8012002F
:1008CC00C26A070EC012C08E3CC000F00036009009
:1008DC00003600900050C212C2801EDCC282C2A23E
:1008EC0001D0FDD7C4CF01F0006AC3500012000E36
:0608FC000112C29012007F
:10090200540E156E650E166E6D0E176E700E186E05
:10091200650E196E720E1A6E610E1B6E740E1C6ECF
:10092200750E1D6E720E1E6E610E1F6E206A190EFE
:10093200AF6EAC84C7DC0E0EC16E0F0E936E816A71
:1009420025DD0C0E4D6E54EC00F0EFDC020E3C6E19
:10095200060E3D6E150E3E6E000E3F6E79DF3C6A4E
:10096200B4DF00C029F001C02AF0F2DE000E046EEE
:10097200000E056E200E066E810E076E59DE000E09
:10098200046E000E056E000E066E890E076E96DD71
:10099200000E046E000E056E480E066E850E076E82
:1009A20047DE3FDD00C021F000C03CF0000E3D6E8E
:1009B200220E3E6E000E3F6EDFDE220E3C6E000EF9
:1009C2003D6E68DC60DC030E3C6E060E3D6E220E50
:1009D2003E6E000E3F6E3CDF466A98EC00F0430E1E
:0A09E200466E98EC00F0BBD7FFD77B
:0809EC000101010101010101FB
:0809F4000205020000000000F2
:020000040030CA
:0D000100021F1EFF8381FF0FC00FE00F40A4
:00000001FF
