:10000000A5EF05F00000000000EF00F00000000088
:0A0010000000000000000000F3D71C
:0A001C00210E0D6E0D2EFED712000E
:100026000F0E0C6E470E0D6E0D2EFED70C2EFCD746
:06003600000000001200B2
:06003C00000000001200AC
:100042000B840BAE2CEF00F0010E036E026A016A04
:0A005200006A0A360232FF0E1200A7
:08005C000AAE029E000E120024
:0E006400026A016A006A086A036A000E12004E
:1000720000019FBF02D0839E01D0838E9FBD02D01C
:10008200839C01D0838C9FBB02D0839A01D0838A48
:100092009FB902D0839801D0838885B102D0848031
:1000A20001D084908482C9DF84929FB702D0839E5C
:1000B20001D0838E9FB502D0839C01D0838C9FB3E5
:1000C20002D0839A01D0838A9FB102D0839801D053
:1000D200838885B102D0848001D084908482ADDF90
:0E00E200849285A102D09EDF01D097DF12002C
:1000F000086A096A100E0C6E01340836093604507D
:10010000085E0550D8A0053C095ED8B007D0045061
:1001100008260550D8B0053C0926D890003601368F
:060120000C2EEAD71200CC
:1001260000019C6B050E9C5D0AE29C519A25E16ECE
:10013600000E9B21E26E200EE66E9C2BF3D79C519F
:100146009A25E16E000E9B21E26EE66A9C079C51A1
:100156009A259D6F000E9B219E6F0A0E046E000E5F
:10016600056E98C000F099C001F0BFDF08C000F02E
:1001760009C001F0300E00269DC0E1FF9EC0E2FFDF
:1001860000C0E6FF0A0E046E000E056E98C000F071
:1001960099C001F0AADF00C098F001C099F0000EE6
:1001A600011802E1000E001801E102D09C07CFD72A
:0201B600120035
:0801B8000B6A0B86FF0E12001A
:1001C0000B6A0A6A096A00500402F4CF09F0F3CFFF
:1001D00008F001500502F4CF0BF0F3CF0AF0005005
:1001E0000502F3500926F4500A22E86A0B22015056
:1001F0000402F3500926F4500A22E86A0B2208C0D0
:1002000000F009C001F00AC002F00BC003F01200B8
:0E021000ACB202D00000FCD798C0ADFF1200C7
:0E021E000001859198C09FF025DF85811200B8
:10022C00AECF80F0ABA202D0AB98AB8880C000F010
:02023C001200AE
:10023E000C6A0E6A0250D8A438EF01F001C002F029
:10024E0000C001F0006A0E860250D8A438EF01F00B
:10025E0001C002F0016A0E960E880250D8B44AEF21
:10026E0001F00E50035ED8A4D8A04FEF01F0D89045
:10027E0002BE54EF01F0003601360236032E3FEF78
:10028E0001F04FEF01F0010E0C6EE5DE57EF01F0BD
:10029E00020E0C6ECFDE57EF01F0040E0C6ED7DEA1
:0202AE0012003C
:1002B00000019851390806E3300E985D03E3010E02
:0802C000006E01D0006A12007B
:1002C8000B820BAE6EEF01F00368026801680068EC
:0802D8000A360232FF0E12008B
:0C02E0000E0E0D6E0D2EFED70000120059
:1002EC000B800BAE82EF01F0026A0AAEFF0E026EBB
:0C02FC00016E006E0A360232FF0E120086
:0A030800000E9EBA010E006E1200F6
:100312000001946B956B925342E09251FF0A01E007
:100322009207F1DF0050000A01E1FBD77EDF00C037
:1003320093F0000194518E25E16E000E8F21E26E42
:1003420000C0E6FF942B95519025E96E000E912195
:10035200EA6EEE50931902E1952B09D0956B90C08D
:10036200E9FF91C0EAFFEE50931901E1952B9551F7
:100372009025E96E000E9121EA6EEE50000A0EE120
:100382009551945D006E016A000E015A00508E254F
:10039200E16E01508F21E26EE66A1200BCD78EC078
:0A03A200E1FF8FC0E2FFE66A1200DF
:1003AC000450000A12E10550000A0FE10650000A41
:1003BC000CE10750000A09E1FF0E006EFF0E016E02
:1003CC007F0E026EFF0E036E1200086A096A075058
:1003DC00D8B481EF02F00350D8B485EF02F002508C
:1003EC0006180A6E028E068E0E6A02C008F001C054
:1003FC000CF000C00DF004500D5E0550D8A0053C6B
:10040C000C5E0650D8A0063C085E086A0C6A0D6AA1
:10041C00D8A018EF02F0D890023201320032083224
:10042C00010E0E6E0750035ED8A025EF02F07E0E73
:10043C000E240326D8B089EF02F02BEF02F07E0ECB
:10044C000E240326D8A08DEF02F0180E0B6E0D367D
:10045C000C3608360036013602360E360450005E75
:10046C000550D8A0053C015E0650D8A0063C025EA3
:10047C0006340E120EA046EF02F00D8051EF02F082
:10048C00045000260550D8B0053C01260650D8B0C3
:10049C00062802260D900B2E2DEF02F077EF02F0BE
:1004AC00D8900036013602360E360450005E0550E8
:1004BC00D8A0053C015E0650D8A0063C025E06346E
:1004CC000E10010B0D26D8B00C2AD8B4082AD8A4CB
:1004DC0077EF02F008320C320D32032AD8B489EFD0
:1004EC0002F00AAE089E0850026E0C50016E0D50C0
:1004FC00006E8FEF02F0010E59DE8FEF02F0020E4C
:10050C00ABDD8FEF02F0040ED9DE8FEF02F0080E98
:04051C0092DD12005A
:10052000086A096A000E0762036415EF03F00250BF
:1005300006180A6E075003267E0ED8A0A6EF02F01A
:10054000035ED8B019EF03F0AAEF02F0035ED8A063
:100550001DEF03F0028E068E02C00EF001C00BF0FC
:1005600000C00DF000500402F4CF0CF00150050261
:10057000F4CF00F0F3CF08F00402F3500C26F4504F
:100580000822000E00220D500502F3500C26F450F4
:100590000822000E002202500402F3500826F450F4
:1005A000002202500502016A000E0122F3500026CB
:1005B000F45001220D500602F3500826F450002298
:1005C000026A000E012202220B500602F35000269E
:1005D000F4500122000E02220E500602F3500126B2
:1005E000F450022202BEFDEF02F00836003601365A
:1005F00002360306D8B41DEF03F010EF03F0D880E5
:10060000800E08640030000E002201220222D8A0D1
:1006100010EF03F0023201320032034A19EF03F007
:100620000AAE029E000E1FEF03F0010E1BDD1FEF4E
:1006300003F0020E49DE1FEF03F0040E02DD12008C
:10064000C26A070EC012C08E8EC000F00036009045
:10065000003600900050C212C28042DEC282C2A2A6
:1006600001D0FDD7C4CF01F0006AC3500012000EC4
:060670000112C29012000D
:100676000900F5CFE6FF0006FBE10106F9E11200ED
:10068600100E0001866F020E876F980E886F000E9F
:10069600896F2C0E816F020E826F000E836F000E23
:1006A600846F080E786E030E796E000E7A6E000E59
:1006B6007B6EFF0E7C6EFF0E7D6E000E7E6E000E54
:1006C6007F6EAC8A900EAB6E948E949C9EAA03D0DD
:0806D600AECF00F0FBD71200CB
:1006DE000001916B8EC0E9FF8FC0EAFFEECF90F064
:1006EE009051000A0EE090C098F08BDD0001912B26
:1006FE0091518E25E96E000E8F21EA6EEECF90F0AD
:04070E00EFD712000F
:100712008EC0E9FF8FC0EAFFEECF90F0000E00011D
:10072200916F000E916F000E911902E1200E901947
:1007320007E0000E911902E1090E901901E003D0C1
:100742008E4B8F2BE5D7926B936B946B956B000E50
:10075200911902E12D0E901905E1944B952B8E4BC8
:100762008F2B08D0000E911902E12B0E901902E195
:100772008E4B8F2B8EC0E9FF8FC0EAFFEECF90F039
:10078200000E916F000E916F90C098F090DD0052B4
:1007920018E092C000F093C001F00A0E046E000E41
:1007A200056E0DDD300E905D026E000E9159036EE6
:1007B20002500024926F03500120936F8E4B8F2BB7
:1007C200D9D79451951108E092510008006E93C058
:1007D20001F0000E0156120092C000F093C001F029
:0207E200120003
:1007E4000001946B956B8EC096F08FC097F0800ECD
:1007F4008F19006E800E005C02E1000E8E5D0BE22C
:10080400010E946F000E956F8E510008966F8FC085
:1008140097F0000E975796C098F097C099F090C043
:100824009AF091C09BF07DDC060E926F000E936FE0
:10083400000E006E9351005C02E19251000819E22F
:1008440092519025E16E93519121E26E010E925DD9
:10085400006E000E9359016E00509025E96E015010
:100864009121EA6EEECFE6FF010E925F000E935BDC
:10087400DFD790C0E1FF91C0E2FF200EE66E9451F5
:1008840095111AE0926B936B92519025E96E9351F6
:100894009121EA6EEE50200A03E1924B932BF4D798
:1008A400010E925F000E935B92519025E16E93517D
:0A08B4009121E26E2D0EE66E120097
:1008BE00020E0B6E040E0C6EBA0E0D6E0D2EFED7C2
:0C08CE000C2EFCD70B2EFAD700001200F5
:1008DA000050086E0150006E016A026A036A0B6AD0
:1008EA000C6A960E036E0A6A00C001F008C000F096
:0808FA00086A026A9FDC12008B
:10090200400E00019F6F39EC00F08E6B8E5107088C
:1009120011E3880E8E25F66E0D0EF76E000EF7228D
:10092200000EF86E000EF8220900F5CF98F076DC82
:100932008E2BECD78E6B8E51070811E3800E8E251D
:10094200F66E0D0EF76E000EF722000EF86E000E18
:10095200F8220900F5CF98F061DC8E2BECD7020E5D
:080962009F6F39EC00F0120058
:10096A0010D0800E00018E6F1AD0C00E8E6F17D075
:10097A00940E8E6F14D0D40E8E6F11D0800E8E6F9F
:10098A000ED000018E51010AECE08E51020AEDE010
:10099A008E51030AEDE08E51040AEDE0EFD78F0580
:1009AA00006E8E51002600C08EF000C09FF039EC18
:1009BA0000F08591926B92519025E96E000E91217B
:1009CA00EA6EEE520BE092519025E96E000E9121EB
:1009DA00EA6EEECF98F01EDC922BEDD785811200DD
:1009EA000B6A0C6A0A6A0350D8B42AEF05F00A9E09
:1009FA00028E860E035E03BE08EF05F0D8B408EF38
:100A0A0005F02DEF05F0036C080E035CD8A016EF75
:100A1A0005F0036E0236026A0350D8A4D8901FEF7D
:100A2A0005F00350D8B41FEF05F0D8900232032E18
:100A3A001AEF05F00BBC02A02AEF05F0D8A02AEFA6
:100A4A0005F0022AD8B434EF05F0016A39EF05F04F
:100A5A000B800BAE3DEF05F0016A3DEF05F0010E8C
:100A6A000C6E3FDC3FEF05F0000E0C6E3FEF05F019
:0A0A7A00FF0E0C6E0250006E120019
:100A8400969296909598959A959C959E849284902A
:100A9400839E839C839A839813EC00F013EC00F0FC
:100AA40013EC00F0838A838884821EEC00F0849225
:100AB40013EC00F084821EEC00F0849213EC00F03E
:100AC40084821EEC00F0849213EC00F083988482FC
:100AD4001EEC00F0849213EC00F084821EEC00F013
:100AE4008492839A838E84821EEC00F0849213ECA9
:100AF40000F0839E838884821EEC00F084928398A5
:100B040084821EEC00F0849213EC00F084821EECCC
:100B140000F08492838884821EEC00F0849213ECAB
:100B240000F0839884821EEC00F08492838E838C80
:100B3400838A838884821EEC00F0849213EC00F094
:060B440000018581120092
:100B4A00C8EC06F0190EAF6EAC8498DD210E0001D8
:100B5A008E6F000E8F6FBEDD500E8E6F000E8F6F80
:100B6A003C0E906F000E916F200E926F89EC01F08F
:100B7A00500E8E6F000E8F6FADDD500E8E6F000E11
:100B8A008F6FC2DD00C04EF001C04FF00E0EC16E75
:100B9A000F0E936E816A71DF0C0E9F6F39EC00F0B5
:100BAA00ABDE010E8E6F060E8F6F150E906F000E64
:100BBA00916FD6DE8E6B3FDD00C04BF001C04CF06A
:100BCA0087DE000E046E000E056E200E066E810E84
:100BDA00076EA1DC000E046E000E056E000E066E96
:100BEA00890E076ED6EC01F0000E046E000E056E3B
:100BFA00480E066E850E076E8EDCF2DE00C04DF0E2
:100C0A0000C08EF0000E00018F6F710E906F000E03
:100C1A00916FE3DD020E8E6F060E8F6F710E906F6D
:100C2A00000E916F9DDE986B0FEC01F0430E986FEA
:100C3A000FEC01F0030E8E6F050E8F6F3E0E906F54
:100C4A00000E916F8DDE4EC08EF04FC08FF0710E88
:100C5A00906F000E916FC1DD040E8E6F060E8F6FBE
:100C6A00710E906F000E916F7BDE986B0FEC01F0A6
:100C7A00430E986F0FEC01F0800E4F18006E800E35
:100C8A00005C02E14D504E5C28E28A6B8B6B8A6BEA
:100C9A008B6B800E8B19006E800E005C02E1040ED5
:100CAA008A5D08E21C0E9F6F39EC00F003DE8A4B66
:100CBA008B2BEFD78A6B8B6B800E8B19006E800E95
:100CCA00005C02E1040E8A5D08E2180E9F6F39EC9F
:100CDA0000F0F0DD8A4B8B2BEFD7800E4F18006E99
:100CEA00800E005C02E14D504E5C28E28C6B8D6BED
:100CFA008C6B8D6B800E8D19006E800E005C02E18C
:100D0A00040E8C5D08E2180E9F6F39EC00F0D2DDFC
:100D1A008C4B8D2BEFD78C6B8D6B800E8D19006EE3
:100D2A00800E005C02E1040E8C5D08E21C0E9F6FCF
:100D3A0039EC00F0BFDD8C4B8D2BEFD73BD7FFD7BB
:100D900010EE15F0360E006E010E016E4A0EF66E64
:0E0DA0000D0EF76E000EF86E3BEC03F0120025
:0C0D4A0054656D70657261747572610013
:100D56005175616C20612054656D706572617475A2
:0B0D66007261206D6178696D610D0005
:020D71000D0073
:0D0D730054656D702E204D6178696D610032
:080D8000010101010101010163
:080D880002050200000000005A
:020000040030CA
:0D000100021F1EFF8381FF0FC00FE00F40A4
:00000001FF
