:1000000076EF23F00000000000EF00F00000000099
:0A0010000000000000000000F3D71C
:0E001C00026A016A006A086A036A000E120096
:10002A000B840BAE20EF00F0010E036E026A016A28
:0A003A00006A0A360232FF0E1200BF
:100044000B820BAE2CEF00F00368026801680068B5
:080054000A360232FF0E120011
:08005C000AAE029E000E120024
:100064000CB074EF00F00CA21AEF01F00E6A000E4F
:1000740002648BEF00F0F00E0214D8A456EF00F0E7
:10008400023A01380F0B02260138F00B016E0038DA
:100094000F0B01260038F00B006E08380F0B0026FA
:1000A4000838F00B086E0E84D89002BE6FEF00F093
:1000B40008360036013602360E2A02BE6FEF00F013
:1000C40008360036013602360E2A02BE6FEF00F003
:1000D40008360036013602360E2A0E50036410EF3D
:1000E40001F0035E0BBC08AE15EF01F0D880800E62
:1000F40008640030000E002201220222D8A015EF6D
:1001040001F0023201320032034A1AEF01F015EF16
:1001140001F001C002F000C001F008C000F0086A5C
:10012400000E0E860264C2EF00F0F00E0214D8A492
:10013400AAEF00F0023A01380F0B02260138F00B47
:10014400016E00380F0B01260038F00B006E0E8490
:10015400D89002BE6FEF00F00036013602360E2A48
:1001640002BE6FEF00F00036013602360E2A02BEE0
:100174006FEF00F00036013602360E2A6FEF00F002
:1001840001C002F000C001F0006A000E0E960E8855
:100194000264EFEF00F0F00E0214D8A4DAEF00F0DE
:1001A400023A01380F0B02260138F00B016E0E845F
:1001B400D89002BE6FEF00F0013602360E2A02BE5E
:1001C4006FEF00F0013602360E2A02BE6FEF00F028
:1001D400013602360E2A6FEF00F001C002F0016A08
:1001E400000E0E8602641FEF01F0F00E0214D8A474
:1001F400FEEF00F0023A0E84D89002BE6FEF00F0DA
:1002040002360E2A02BE6FEF00F002360E2A02BE3C
:100214006FEF00F002360E2A6FEF00F0010E0C6E45
:1002240002DF22EF01F0020E0C6E16DF22EF01F066
:10023400040E0C6E05DF22EF01F0080E0C6EECDEEE
:020244001200A6
:06024600000000001200A0
:10024C000F0E0C6E470E0D6E0D2EFED70C2EFCD71E
:06025C000000000012008A
:100262000B800BAE3DEF01F0026A0AAEFF0E026E8A
:0C027200016E006E0A360232FF0E120010
:08027E000B6A0B86FF0E120053
:10028600025006180E6E086A096A0B6A0350076464
:1002960036EF02F006500A6E068E028E03500B6E83
:1002A6000750036E000E0B6486EF01F00B50075EDD
:1002B600D8B427EF02F0070E0764F5EF01F0075EEA
:1002C60000C008F001C000F002C001F0026A074E4B
:1002D60027EF02F00764CAEF01F0075E00C008F0DE
:1002E60001C000F0016A074E27EF02F00764A8EF8D
:1002F60001F0075E00C008F0006A074E27EF02F023
:1003060007648FEF01F00AC002F005C001F004C0D7
:1003160000F0086A50EF03F0030E07649AEF01F04D
:10032600075E08380F0B086E074E27EF02F0D890CD
:100336000832074E27EF02F0D8900832074E27EF13
:1003460002F0D890083227EF02F0030E0764B9EFE7
:1003560001F0075E08380F0B086E0038F00B082610
:1003660000380F0B006E074E27EF02F0D8900032D0
:100376000832074E27EF02F0D89000320832074EB7
:1003860027EF02F0D8900032083227EF02F0030E72
:100396000764E1EF01F0075E08380F0B086E0038BE
:1003A600F00B082600380F0B006E0138F00B002604
:1003B60001380F0B016E074E27EF02F0D89001327D
:1003C60000320832074E27EF02F0D8900132003291
:1003D6000832074E27EF02F0D89001320032083279
:1003E60027EF02F0030E076412EF02F0075E0838EB
:1003F6000F0B086E0038F00B082600380F0B006E46
:100406000138F00B002601380F0B016E0238F00B95
:10041600012602380F0B026E074E27EF02F0D89026
:100426000232013200320832074E27EF02F0D8902E
:100436000232013200320832074E27EF02F0D8901E
:100446000232013200320832096A000E0EAE1BEF8C
:1004560003F0081E001E011E021E082A00220122A9
:1004660002221BEF03F00750D8A43CEF02F050EF36
:1004760003F0096A02C00AF0028E068E0750035C7A
:10048600076ED8B40EEF03F0070E0764DCEF02F038
:10049600075E0450096E0550046E0650056E066A26
:1004A600074E0EEF03F0070E0764B1EF02F0075E8A
:1004B6000450096E0550046E056A074E0EEF03F0F0
:1004C600070E07648FEF02F0075E0450096E046A98
:1004D600074E0EEF03F0070E076476EF02F00AC030
:1004E60002F050EF03F0030E076481EF02F0075E9F
:1004F60009380F0B096E074E0EEF03F0D89009323C
:10050600074E0EEF03F0D8900932074E0EEF03F0B8
:10051600D89009320EEF03F0030E0764A0EF02F045
:10052600075E09380F0B096E0438F00B09260438EC
:100536000F0B046E074E0EEF03F0D890043209320B
:10054600074E0EEF03F0D89004320932074E0EEF35
:1005560003F0D890043209320EEF03F0030E07645D
:10056600C8EF02F0075E09380F0B096E0438F00B6E
:10057600092604380F0B046E0538F00B04260538DF
:100586000F0B056E074E0EEF03F0D89005320432BE
:100596000932074E0EEF03F0D890053204320932C5
:1005A600074E0EEF03F0D8900532043209320EEFF3
:1005B60003F0030E0764F9EF02F0075E09380F0B2C
:1005C600096E0438F00B092604380F0B046E053843
:1005D600F00B042605380F0B056E0638F00B0526C2
:1005E60006380F0B066E074E0EEF03F0D890063254
:1005F600053204320932074E0EEF03F0D890063268
:10060600053204320932074E0EEF03F0D890063257
:10061600053204320932086A000E0EAE1BEF03F0F3
:10062600091E041E051E061E092A0422052206228C
:1006360009500826045000220550012206500222C5
:100646000EBE32EF03F0D8A041EF03F002320132C2
:1006560000320832033E41EF03F04BEF03F0D8B00F
:1006660046EF03F0000E081E001E011E021E082A99
:100676000022012202220A7E46EF03F0010E0C6ED2
:10068600EEDC52EF03F0020E0C6EE9DC52EF03F0E3
:10069600040E0C6ED4DC52EF03F0000E0C6E12004A
:0A06A600210E0D6E0D2EFED712007E
:1006B0000134083609360450085E0550D8A0053CC0
:1006C000095E003601360F0E0C6E0134083609360D
:1006D000045000A006D0085E0550D8A0053C095E75
:1006E00005D008260550D8B0053C0926003601364D
:1006F0000C2EEBD700B006D0045008260550D8B019
:08070000053C0926000012006F
:10070800086A080E0C6E003408360450085ED8B02B
:0E07180002D00826D89000360C2EF5D712001D
:10072600086A096A000E0762036418EF04F00250B3
:1007360006180A6E075003267E0ED8A0A9EF03F00E
:10074600035ED8B01DEF04F0ADEF03F0035ED8A052
:1007560021EF04F0028E068E02C00EF001C00BF0EF
:1007660000C00DF000500402F4CF0CF00150050259
:10077600F4CF00F0F3CF08F00402F3500C26F45047
:100786000822000E00220D500502F3500C26F450EC
:100796000822000E002202500402F3500826F450EC
:1007A600002202500502016A000E0122F3500026C3
:1007B600F45001220D500602F3500826F450002290
:1007C600026A000E012202220B500602F350002696
:1007D600F4500122000E02220E500602F3500126AA
:1007E600F450022202BE00EF04F00836003601364D
:1007F60002360306D8B421EF04F013EF04F0D880D4
:10080600800E08640030000E002201220222D8A0C9
:1008160013EF04F0023201320032034A1DEF04F0F6
:100826000AAE029E000E24EF04F0010E0EEC00F05C
:1008360024EF04F0020E03DC24EF04F0040E15ECA2
:0408460000F01200AC
:10084A000D6A086A0050D8B4000C04180A6E0ABE71
:10085A000D1E0B6A04AE02D0041E042A00A002D0A8
:10086A00001E002A005004100A6E0ABE1FD004504F
:10087A00085E003600340836045008260036060E94
:10088A000C6E00340836045000B0085E00A008263A
:10089A0000360C2EF6D700A008260BB015D00DAEE8
:1008AA00000C001E002A081E082A000C04AE09D0FB
:1008BA0000BE04D00050086E006AF1D7006A002A10
:1008CA00000C001E0B2AD3D7082A0450085CD8A4AF
:0E08DA00E6D7086A002A00AEE2D7FF0C120033
:1008E800C7B409D01F0EC514016E0150000A03E1F8
:0A08F800010E006E1200006A1200EB
:06090200067EC0DC1200BD
:100908000B6A0C6A086A0350D8B408EF05F002C0F5
:100918000AF0028E9E0E035E03AEF8EF04F0036C3D
:10092800080E035CD8A0C5EF04F0036E083600C0BB
:1009380008F001C000F002C001F0026A080E035C72
:10094800D8A0C5EF04F0036E083600C008F001C057
:1009580000F0016A080E035CD8A0C5EF04F0036E2E
:10096800083600C008F0006A080E035CD8A0C5EF7E
:1009780004F0036E0836086A0350D8A4D890D1EF63
:1009880004F00350D8B4D1EF04F0D8900232013209
:1009980000320832032EC9EF04F00BBC08A0E2EFC6
:1009A80004F0D8A0E2EF04F0082AD8B4002AD8B49A
:1009B800012AD8B4022A02BE0CEF05F00AAE08EFED
:1009C80005F0021E011E001E081E082AD8B4002ABF
:1009D800D8B4012AD8B4022A08EF05F0026A016ADD
:1009E800006A086A08EF05F00B800BAE12EF05F0FD
:1009F800026A0AAE12EF05F0026E016E006E086E12
:100A08000A36023212EF05F00C6A000E13EF05F0F9
:100A1800010E0C6E000E21DC13EF05F0FF0E0250E4
:100A2800036E0150026E0050016E0850006E1200F5
:100A38000B6A0A6A096A086A0E6A0334083604509F
:100A4800085E0550D8A0053C095E0650D8A0063CB3
:100A58000A5E0750D8A0073C0B5EE86AD8A0010ED2
:100A68000E5E0336070E0C6E0334083609360A3656
:100A78000B360E36045003A012D0085E0550D8A0DD
:100A8800053C095E0650D8A0063C0A5E0750D8A06F
:100A9800073C0B5EE86AD8A0010E0E5E11D008264E
:100AA8000550D8B0053C09260650D8B0063C0A26A1
:100AB8000750D8B0073C0B26E86AD8B0010E0E26BE
:100AC80003360C2ED1D70234083609360A360B36CF
:100AD8000E36045003A012D0085E0550D8A0053C7D
:100AE800095E0650D8A0063C0A5E0750D8A0073C0D
:100AF8000B5EE86AD8A0010E0E5E11D008260550DC
:100B0800D8B0053C09260650D8B0063C0A2607503E
:100B1800D8B0073C0B26E86AD8B0010E0E2602367C
:100B2800070E0C6E0234083609360A360B360E36B6
:100B3800045002A012D0085E0550D8A0053C095EFA
:100B48000650D8A0063C0A5E0750D8A0073C0B5EAA
:100B5800E86AD8A0010E0E5E11D008260550D8B05C
:100B6800053C09260650D8B0063C0A260750D8B0DE
:100B7800073C0B26E86AD8B0010E0E2602360C2E6A
:100B8800D1D70134083609360A360B360E360450EA
:100B980002A012D0085E0550D8A0053C095E065098
:100BA800D8A0063C0A5E0750D8A0073C0B5EE86A4E
:100BB800D8A0010E0E5E11D008260550D8B0053C0D
:100BC80009260650D8B0063C0A260750D8B0073C7C
:100BD8000B26E86AD8B0010E0E260136070E0C6EF9
:100BE8000134083609360A360B360E36045001A091
:100BF80012D0085E0550D8A0053C095E0650D8A062
:100C0800063C0A5E0750D8A0073C0B5EE86AD8A0ED
:100C1800010E0E5E11D008260550D8B0053C0926F5
:100C28000650D8B0063C0A260750D8B0073C0B2619
:100C3800E86AD8B0010E0E2601360C2ED1D7003442
:100C4800083609360A360B360E36045001A012D083
:100C5800085E0550D8A0053C095E0650D8A0063CA1
:100C68000A5E0750D8A0073C0B5EE86AD8A0010EC0
:100C78000E5E11D008260550D8B0053C092606504E
:100C8800D8B0063C0A260750D8B0073C0B26E86ABD
:100C9800D8B0010E0E260036070E0C6E003408364A
:100CA80009360A360B360E36045000A012D0085EFC
:100CB8000550D8A0053C095E0650D8A0063C0A5E3F
:100CC8000750D8A0073C0B5EE86AD8A0010E0E5E5C
:100CD80011D008260550D8B0053C09260650D8B0D2
:100CE800063C0A260750D8B0073C0B26E86AD8B05D
:100CF800010E0E2600360C2ED1D700B00ED00450AF
:100D080008260550D8B0053C09260650D8B0063C40
:0C0D18000A260750D8B0073C0B2612003A
:100D24006E0E0101105DD8A0C3D0640E046E10C114
:100D340000F0E8DC120E0024056E066A000E06229E
:100D440005C000F006C001F0000E06BEFF0E026EE4
:100D5400036E0036009001360236033600360090EA
:100D6400013602360336040E0024F66E4B0E0120C3
:100D7400F76E000E0220F86E0900F5CF00F00900AE
:100D8400F5CF01F00900F5CF02F00900F5CF03F02B
:100D9400000E046E000E056E000E066E7E0E076ECB
:100DA400C0DC00C011F101C012F102C013F103C094
:100DB40014F1640E046E10C100F0A4DC08C000F04D
:100DC4000A0E046E9FDC090E0024056E066A000EEE
:100DD400062205C000F006C001F0000E06BEFF0E9C
:100DE400026E036E0036009001360236033600367A
:100DF4000090013602360336040E0024F66E4B0EC4
:100E04000120F76E000E0220F86E0900F5CF00F005
:100E14000900F5CF01F00900F5CF02F00900F5CF84
:100E240003F011C104F012C105F013C106F014C19E
:100E340007F077DC00C011F101C012F102C013F118
:100E440003C014F10A0E046E10C100F05BDC08C08C
:100E540000F000C001F0000E026E036E046E013655
:100E64000190023603360436013601900236033609
:100E74000436040E0124F66E4B0E0220F76E000EAB
:100E84000320F86E0900F5CF00F00900F5CF01F05A
:100E94000900F5CF02F00900F5CF03F011C104F009
:100EA40012C105F013C106F014C107F03ADC1200B8
:100EB40010510A087DE20A0E046E10C100F022DC13
:100EC400090E0024056E066A000E062205C000F015
:100ED40006C001F0000E06BEFF0E026E036E003661
:100EE4000090013602360336003600900136023691
:100EF4000336040E0024F66E4B0E0120F76E000E2E
:100F04000220F86E0900F5CF00F00900F5CF01F0DA
:100F14000900F5CF02F00900F5CF03F0000E046ECE
:100F2400000E056E000E066E7E0E076E93EC03F047
:100F340000C011F101C012F102C013F103C014F199
:100F44000A0E046E10C100F084EC03F008C000F037
:100F540000C001F0000E026E036E046E01360190B3
:100F6400023603360436013601900236033604365F
:100F7400040E0124F66E4B0E0220F76E000E0320C1
:100F8400F86E0900F5CF00F00900F5CF01F0090073
:100F9400F5CF02F00900F5CF03F011C104F012C13E
:100FA40005F013C106F014C107F093EC03F012002E
:100FB40010C100F0000E016E026E036E0036009048
:100FC4000136023603360036009001360236033607
:100FD400040E0024F66E4B0E0120F76E000E022064
:100FE400F86E0900F5CF00F00900F5CF01F0090013
:100FF400F5CF02F00900F5CF03F0000E046E000EE9
:10100400056E000E066E7E0E076E93EC03F0120062
:1010140003500718D8A41EEF08F002500618D8A4ED
:101024001EEF08F001500518D8A41EEF08F0005078
:0E1034000418D8B4D8841200D8941200120008
:101042000450000A08E10550000A05E1FF0E006E97
:101052007F0E016E12000D6A096A086A01500010C3
:10106200D8B4000C015005180A6E0ABE0D1E0B6A98
:1010720005AE05D0041E051E042AD8B4052A01AE09
:1010820005D0001E011E002AD8B4012A0150051005
:101092000A6E0ABE10D058EC03F00BB020D00DAE91
:1010A200000C001E011E002AD8B4012A081E091EC7
:1010B200082AD8B4092A000C05AE0DD001BE07D00B
:1010C2000150096E0050086E016A006AE8D7016A91
:1010D200006A002A000C011E001E0B2ADDD7082A16
:1010E200D8B4092A0450085CD8A4D9D70550095CA1
:1010F200D8A4D5D7096A086A002AD8B4012A01AE51
:08110200CED70000FF0C120023
:10110A000A6A0350D8A40A800750D8A40A820A504F
:10111A00D8B4E8EF08F0030AD8B4A1EF08F00AB08F
:10112A009CEF08F006AEE6EF08F0E4EF08F002AE36
:10113A00E4EF08F0E6EF08F00250800B0A6E029E18
:10114A000650800B069E0A18D8B4B2EF08F00A506F
:10115A00D8B4E4EF08F0E6EF08F00750035CD8B41F
:10116A00BCEF08F0D8A0D8EF08F0DEEF08F0065080
:10117A00025CD8B4C6EF08F0D8A0D8EF08F0DEEFCA
:10118A0008F00550015CD8B4D0EF08F0D8A0D8EF29
:10119A0008F0DEEF08F00450005CD8B4E8EF08F07D
:1011AA00D8B0DEEF08F00A52D8B4E6EF08F0E4EF60
:1011BA0008F00A52D8B4E4EF08F0E6EF08F0D88055
:0E11CA001200D8901200D880D88412001200B3
:1011D80001011051390806E3300E105D03E3010EDA
:0811E800006E01D0006A120044
:1011F0000B6A0A6A096A00500402F4CF09F0F3CFBF
:1012000008F001500502F4CF0BF0F3CF0AF00050C4
:101210000502F3500926F4500A22E86A0B22015015
:101220000402F3500926F4500A22E86A0B2208C08F
:1012300000F009C001F00AC002F00BC003F0120078
:10124000800E01011019006E800E000A005CD8B0FB
:101250006DD110510008016E01C010F1800E01180F
:10126000006E800E6E0A005CD8A0C0D0640E046EC2
:1012700010C100F025EC04F0120E0024056E000EE3
:1012800000BEFF0E066E000E062205C000F006C06E
:1012900001F0000E06BEFF0E026E036E00360090D7
:1012A0000136023603360036009001360236033628
:1012B000040E0024F66E4B0E0120F76E000E022085
:1012C000F86E0900F5CF11F10900F5CF12F1090010
:1012D000F5CF13F10900F5CF14F1640E046E10C1BF
:1012E00000F025EC04F008C000F00A0E046E25ECB6
:1012F00004F0090E0024056E000E00BEFF0E066EFF
:10130000000E062205C000F006C001F0000E06BE69
:10131000FF0E026E036E0036009001360236033671
:1013200000360090013602360336040E0024F66EB5
:101330004B0E0120F76E000E0220F86E0900F5CF6B
:1013400000F00900F5CF01F00900F5CF02F0090027
:10135000F5CF03F011C104F012C105F013C106F07E
:1013600014C107F093EC03F000C011F101C012F1B9
:1013700002C013F103C014F10A0E046E10C100F094
:1013800025EC04F008C000F000C001F0000E00BE23
:10139000FF0E026E036E046E0136019002360336B4
:1013A000043601360190023603360436040E012459
:1013B000F66E4B0E0220F76E000E0320F86E090049
:1013C000F5CF00F00900F5CF01F00900F5CF02F0EC
:1013D0000900F5CF03F011C104F012C105F013C1EB
:1013E00006F014C107F093EC03F01200800E0A0A15
:1013F000006E800E1019005C71E20A0E046E10C1BE
:1014000000F025EC04F0090E0024056E000E00BE6D
:10141000FF0E066E000E062205C000F006C001F0A9
:10142000000E06BEFF0E026E036E003600900136FF
:101430000236033600360090013602360336040EBB
:101440000024F66E4B0E0120F76E000E0220F86E9F
:101450000900F5CF11F10900F5CF12F10900F5CF20
:1014600013F10900F5CF14F10A0E046E10C100F05B
:1014700025EC04F008C000F000C001F0000E00BE32
:10148000FF0E026E036E046E0136019002360336C3
:10149000043601360190023603360436040E012468
:1014A000F66E4B0E0220F76E000E0320F86E090058
:1014B000F5CF00F00900F5CF01F00900F5CF02F0FB
:1014C0000900F5CF03F011C104F012C105F013C1FA
:1014D00006F014C107F093EC03F0120010C100F005
:1014E000000E10BFFF0E016E026E036E00360090FC
:1014F00001360236033600360090013602360336D6
:10150000040E0024F66E4B0E0120F76E000E022032
:10151000F86E0900F5CF00F00900F5CF01F00900E1
:10152000F5CF02F00900F5CF03F01200800E10197C
:10153000006E800E6E0A005CD8A0C0D0640E046EEF
:1015400010C100F025EC04F0120E0024056E000E10
:1015500000BEFF0E066E000E062205C000F006C09B
:1015600001F0000E06BEFF0E026E036E0036009004
:101570000136023603360036009001360236033655
:10158000380E0024F66E4B0E0120F76E000E02207E
:10159000F86E0900F5CF11F10900F5CF12F109003D
:1015A000F5CF13F10900F5CF14F1640E046E10C1EC
:1015B00000F025EC04F008C000F00A0E046E25ECE3
:1015C00004F0090E0024056E000E00BEFF0E066E2C
:1015D000000E062205C000F006C001F0000E06BE97
:1015E000FF0E026E036E003600900136023603369F
:1015F00000360090013602360336380E0024F66EAF
:101600004B0E0120F76E000E0220F86E0900F5CF98
:1016100000F00900F5CF01F00900F5CF02F0090054
:10162000F5CF03F011C104F012C105F013C106F0AB
:1016300014C107F093EC03F000C011F101C012F1E6
:1016400002C013F103C014F10A0E046E10C100F0C1
:1016500025EC04F008C000F000C001F0000E00BE50
:10166000FF0E026E036E046E0136019002360336E1
:10167000043601360190023603360436380E012452
:10168000F66E4B0E0220F76E000E0320F86E090076
:10169000F5CF00F00900F5CF01F00900F5CF02F019
:1016A0000900F5CF03F011C104F012C105F013C118
:1016B00006F014C107F093EC03F01200800E0A0A42
:1016C000006E800E1019005C71E20A0E046E10C1EB
:1016D00000F025EC04F0090E0024056E000E00BE9B
:1016E000FF0E066E000E062205C000F006C001F0D7
:1016F000000E06BEFF0E026E036E0036009001362D
:101700000236033600360090013602360336380EB4
:101710000024F66E4B0E0120F76E000E0220F86ECC
:101720000900F5CF11F10900F5CF12F10900F5CF4D
:1017300013F10900F5CF14F10A0E046E10C100F088
:1017400025EC04F008C000F000C001F0000E00BE5F
:10175000FF0E026E036E046E0136019002360336F0
:10176000043601360190023603360436380E012461
:10177000F66E4B0E0220F76E000E0320F86E090085
:10178000F5CF00F00900F5CF01F00900F5CF02F028
:101790000900F5CF03F011C104F012C105F013C127
:1017A00006F014C107F093EC03F0120010C100F032
:1017B000000E10BFFF0E016E026E036E0036009029
:1017C0000136023603360036009001360236033603
:1017D000380E0024F66E4B0E0120F76E000E02202C
:1017E000F86E0900F5CF00F00900F5CF01F009000F
:0C17F000F5CF02F00900F5CF03F0120065
:1017FC00086A096A100E0C6E01340836093604505A
:10180C00085E0550D8A0053C095ED8B007D004503E
:10181C0008260550D8B0053C0926D890003601366C
:06182C000C2EEAD71200A9
:101832000050086E0150006E0250016E0350026E9D
:10184200036A0B6A0C6A9E0E036E0A6A020E0C6E23
:0618520032EC00F0120070
:101858000B6A0C6A0A6A086A0350D8B4B4EF0CF031
:10186800028E9E0E035E03BE3FEF0CF0D8B43FEF2E
:101878000CF0A4EF0CF0036C080E035CD8A071EF19
:101888000CF0036E083600C008F001C000F002C07A
:1018980001F0026A080E035CD8A071EF0CF0036E29
:1018A800083600C008F001C000F0016A080E035CA9
:1018B800D8A071EF0CF0036E083600C008F0006A7B
:1018C800080E035CD8A071EF0CF0036E0836086AA6
:1018D8000350D8A4D8907DEF0CF00350D8B47DEF16
:1018E8000CF0D8900232013200320832032E75EF24
:1018F8000CF00BBC08A08EEF0CF0D8A08EEF0CF00B
:10190800082AD8B4002AD8B4012AD8B4022A02BEB8
:10191800B8EF0CF00AAEB4EF0CF0021E011E001E68
:10192800081E082AD8B4002AD8B4012AD8B4022A32
:10193800B4EF0CF0026A016A006A086AB4EF0CF0AE
:101948000B800BAEBEEF0CF0026A0AAEBEEF0CF0D5
:10195800026E016E006E086E0A360232BEEF0CF09F
:10196800000E0C6ABFEF0CF0010E0C6E31EC01F0AA
:10197800BFEF0CF0FF0E0250036E0150026E0050D4
:08198800016E0850006E120010
:10199000010110BF02D0839E01D0838E10BD02D002
:1019A000839C01D0838C10BB02D0839A01D0838AA0
:1019B00010B902D0839801D083880001B0B102D061
:1019C000848001D08490848223EC01F08492010110
:1019D00010B702D0839E01D0838E10B502D0839CB5
:1019E00001D0838C10B302D0839A01D0838A10B1C6
:1019F00002D0839801D083880001B0B102D08480E6
:101A000001D08490848223EC01F08492B0A103D0B1
:0C1A100026EC01F002D053EC03F01200B1
:101A1C000450000A12E10550000A0FE10650000ABA
:101A2C000CE10750000A09E1FF0E006EFF0E016E7B
:101A3C007F0E026EFF0E036E1200086A096A0750D1
:101A4C00D8B4B9EF0DF00350D8B4BEEF0DF002507E
:101A5C0006180A6E028E068E0E6A02C008F001C0CD
:101A6C000CF000C00DF004500D5E0550D8A0053CE4
:101A7C000C5E0650D8A0063C085E086A0C6A0D6A1B
:101A8C00D8A050EF0DF0D89002320132003208325B
:101A9C00010E0E6E0750035ED8A05DEF0DF07E0EAA
:101AAC000E240326D8B0C3EF0DF063EF0DF07E0EBD
:101ABC000E240326D8A0C8EF0DF0180E0B6E0D36B1
:101ACC000C3608360036013602360E360450005EEF
:101ADC000550D8A0053C015E0650D8A0063C025E1D
:101AEC0006340E120EA07EEF0DF00D8089EF0DF076
:101AFC00045000260550D8B0053C01260650D8B03D
:101B0C00062802260D900B2E65EF0DF0AFEF0DF0B1
:101B1C00D8900036013602360E360450005E055061
:101B2C00D8A0053C015E0650D8A0063C025E0634E7
:101B3C000E10010B0D26D8B00C2AD8B4082AD8A444
:101B4C00AFEF0DF008320C320D32032AD8B4C3EFCC
:101B5C000DF00AAE089E0850026E0C50016E0D502E
:101B6C00006ECBEF0DF0010E3FEC01F0CBEF0DF062
:101B7C00020E0EEC00F0CBEF0DF0040E22EC00F098
:0C1B8C00CBEF0DF0080E15EC00F012007D
:0C1B98000E0E0D6E0D2EFED70000120088
:0E1BA4000001B091E9C010F1F1DEB081120035
:101BB2000001ED6B050EED5D0AE2ED51EB25E16EE4
:101BC200000EEC21E26E200EE66EED2BF3D7ED5106
:101BD200EB25E16E000EEC21E26EE66AED07ED51B7
:101BE200EB25EE6F000EEC21EF6F0A0E046E000E75
:101BF200056EE9C000F0EAC001F0FFDD08C000F0A8
:101C020009C001F0300E0026EEC0E1FFEFC0E2FF96
:101C120000C0E6FF0A0E046E000E056EE9C000F079
:101C2200EAC001F0EADD00C0E9F001C0EAF0000E0E
:101C3200011802E1000E001801E102D0ED07CFD732
:021C420012008E
:101C44000101086B096B0001F56BF66B0001EBC039
:101C540000F0ECC001F0EDC002F0010EEB27000E25
:101C6400EC23ED2300C0F6FF01C0F7FF02C0F8FF2C
:101C74000900F5CF00F000C0F2F00052D8B4ECEF48
:101C84001EF0F251250A0CE0E9C0E1FFEAC0E2FFD0
:101C9400F2C0E6FFE94BEA2B0101084B092BD6D72A
:101CA4000001F36BF46BF56BF66B24D00001F58740
:101CB400010EEB27000EEC23ED2359D0F581010E24
:101CC400EB27000EEC23ED2352D0F583010EEB2716
:101CD400000EEC23ED234BD0F687010EEB27000E0C
:101CE400EC23ED2344D0F585010EEB27000EEC2305
:101CF400ED233DD0EBC0F6FFECC0F7FFEDC0F8FFDD
:101D04000900F5CF01F001502D0AD0E0EBC0F6FF39
:101D1400ECC0F7FFEDC0F8FF0900F5CF01F001506A
:101D2400200ACCE0EBC0F6FFECC0F7FFEDC0F8FFF3
:101D34000900F5CF01F001502B0AC7E0EBC0F6FF14
:101D4400ECC0F7FFEDC0F8FF0900F5CF01F001503A
:101D5400230AC2E0EBC0F6FFECC0F7FFEDC0F8FFCA
:101D64000900F5CF01F00150300ABDE001D09DD744
:101D7400F5A301D0F591F5A701D0F595EBC0F6FFD9
:101D8400ECC0F7FFEDC0F8FF0900F5CF00F0000E3E
:101D9400016E00C010F1ECEC08F0005238E00001D4
:101DA400F36BF46B0001F3C000F0F4C001F00A0E11
:101DB400046E000E056EF8EC08F0EBC0F6FFECC004
:101DC400F7FFEDC0F8FF0900F5CF02F00250002440
:101DD400F36F000E0120F46F300EF35F000EF45B1E
:101DE400010EEB27000EEC23ED23EBC0F6FFECC055
:101DF400F7FFEDC0F8FF0900F5CF00F0000E016E0B
:101E040000C010F1ECEC08F00052CCE134D0EBC08F
:101E1400F6FFECC0F7FFEDC0F8FF0900F5CF01F0C5
:101E240001502A0A28E1EEC0E9FFEFC0EAFFEECF35
:101E340000F0EECF01F000C0E9FF01C0EAFFEECFF1
:101E4400F3F0EECFF4F0EEC0E9FFEFC0EAFF020ECC
:101E5400EE24006E000EEE20016EEEC0E1FFEFC036
:101E6400E2FF00C0E6FF01C0E6FF010E0001EB2720
:101E7400000EEC23ED23EBC0F6FFECC0F7FFEDC042
:101E8400F8FF0900F5CF01F001502E0A72E10001BC
:101E9400010EEB27000EEC23ED23EBC0F6FFECC0A4
:101EA400F7FFEDC0F8FF0900F5CF01F001502A0A51
:101EB40028E1EEC0E9FFEFC0EAFFEECF00F0EECF7D
:101EC40001F000C0E9FF01C0EAFFEECFF0F0EECF71
:101ED400F1F0EEC0E9FFEFC0EAFF020EEE24006E5F
:101EE400000EEE20016EEEC0E1FFEFC0E2FF00C085
:101EF400E6FF01C0E6FF010EEB27000EEC23ED2305
:101F040037D0F06BF16BEBC0F6FFECC0F7FFEDC020
:101F1400F8FF0900F5CF00F0000E016E00C010F1CB
:101F2400ECEC08F0005224E0F0C000F0F1C001F045
:101F34000A0E046E000E056EF8EC08F0EBC0F6FF16
:101F4400ECC0F7FFEDC0F8FF0900F5CF02F0025036
:101F540000240001F06F000E0120F16F300EF05FDD
:101F6400000EF15B010EEB27000EEC23ED23CBD723
:101F740004D00001F06BF16BF6890001EBC000F0B6
:101F8400ECC001F0EDC002F0010EEB27000EEC23D3
:101F9400ED2300C0F6FF01C0F7FF02C0F8FF0900FF
:101FA400F5CFF2F021D108C100F009C101F012000F
:101FB400F589E3D7F68553D1F58BF68150D1F683B5
:101FC4004ED1F58D4CD14BD1F58BF58F48D1EEC068
:101FD400E9FFEFC0EAFFEECF00F0EECF01F000C062
:101FE400E9FF01C0EAFFEECFFDF0EECFFEF0EEC058
:101FF400E9FFEFC0EAFF020EEE24006E000EEE20B1
:10200400016EEEC0E1FFEFC0E2FF00C0E6FF01C0D9
:10201400E6FF000EFE1902E1000EFD1913E1280E81
:102024000101016F6E0E026F750E036F6C0E046F6B
:102034006C0E056F290E066F076B010E0001FD6F14
:10204400010EFE6FFF6B0101006B0001FF51FD25C6
:10205400E96E010100510001FE21EA6EEE520CE02E
:10206400010EFF25006E000E01010021016E00C06B
:10207400FFF001C000F1E9D70001F051F1110CE0CB
:10208400010100510001F15D02E1FF51F05D04E244
:10209400F0C0FFF0F1C000F1F4510101005D03E173
:1020A4000001F351FF5D08E20001FF51F35F0101FC
:1020B40000510001F45B03D00001F36BF46BF5B73E
:1020C40018D00001F3C000F0F4C001F0010EF35F7A
:1020D400000EF45B005001100CE0E9C0E1FFEAC01F
:1020E400E2FF200EE66EE94BEA2B0101084B092BB7
:1020F400E8D7FFC002F000C103F0010E0001FF5D4C
:10210400006E000E01010059016E00C0FFF001C015
:1021140000F1025003101BE0FDC0E9FFFEC0EAFF1E
:10212400E9C0E1FFEAC0E2FFEECFE6FF0001E94BC0
:10213400EA2B010EFD25006E000EFE21016E00C08B
:10214400FDF001C0FEF00101084B092BD2D70001BC
:10215400F5A718D00001F3C000F0F4C001F0010E9F
:10216400F35F000EF45B005001100CE0E9C0E1FFE6
:10217400EAC0E2FF200EE66EE94BEA2B0101084BB0
:10218400092BE8D763D5EEC0E9FFEFC0EAFFEECF35
:1021940000F0EECF01F000C0E9FF01C0EAFFEECF8E
:1021A400F2F0EEC0E9FFEFC0EAFF020EEE24006E8B
:1021B400000EEE20016EEEC0E1FFEFC0E2FF00C0B2
:1021C400E6FF01C0E6FFF20E0001FD6F000EFE6F98
:1021D400010EFF6F000E0101006F4ED7C00E00010B
:1021E400F513000EF6133BD0F251000AD8B4DBD637
:1021F400F2516C0AD8B4DCD6F251660AD8B4DAD6F5
:10220400F251450AD8B4D8D6F251650AD8B4D5D615
:10221400F251670AD8B4D3D6F2516F0AD8B4D1D6E2
:10222400F251640AD8B4CFD6F251690AD8B4CBD6E5
:10223400F251700AD8B4C8D6F251580AD8B4C4D6E8
:10224400F251780AD8B4C1D6F251730AD8B4BFD6C1
:10225400F251630A98E0F251750AC0E0B4D7000E57
:10226400F515006EF651070B016E00500110D8B43D
:102274005CEF1AF0F6A904D0060EF06F000EF16FB1
:10228400EEC0E9FFEFC0EAFFEECF00F0EECF01F0C1
:1022940000C0E9FF01C0EAFFEECFF7F0EECFF8F09F
:1022A400EECFF9F0EECFFAF0EEC0E9FFEFC0EAFFAF
:1022B400040EEE24006E000EEE20016EEEC0E1FF6F
:1022C400EFC0E2FF00C0E6FF01C0E6FF046A056A52
:1022D400066A076AF7C000F0F8C001F0F9C002F01E
:1022E400FAC003F085EC08F0010ED8B0000E006EC1
:1022F400005205E0F97F030EF513000EF613FB6B95
:10230400FC6BF7C000F0F8C001F0F9C002F0FAC0AD
:1023140003F0046A056A066A076A0AEC08F0000E0C
:10232400D8A4010E006E0052D8B48DD0FAC000F0CB
:10233400016A026A036AFF0E0016000E01167E0E81
:10234400005E000E015A00C0FBF001C0FCF0010E5B
:10235400005E000E015A00C0FBF001C0FCF0030E49
:10236400046E000E056EF8EC08F000C0FBF001C02E
:10237400FCF00A0E046E000E056E21EC08F000C09D
:10238400FBF001C0FCF0800E0118026E800E025CAE
:1023940002E1000E005C05E2010E0001FB5F000E8D
:1023A400FC5B0001FB5100080101106F20EC09F0F7
:1023B400F7C004F0F8C005F0F9C006F0FAC007F061
:1023C40093EC03F000C0FDF001C0FEF002C0FFF08A
:1023D40003C000F1000E046E000E056E000E066EC2
:1023E4007F0E076EFDC000F0FEC001F0FFC002F0DA
:1023F40000C103F085EC08F0010ED8B0000E006EA9
:10240400005206E0010E0001FB5F000EFC5B1BD0D6
:10241400000E046E000E056E200E066E820E076E10
:10242400FDC000F0FEC001F0FFC002F000C103F0E7
:1024340085EC08F0000ED8B0010E006E005203E0E7
:102444000001FB4BFC2B0001800E006E800EFC197A
:10245400005C02E1FB51000803E3010EF26F02D0BD
:10246400FBC0F2F0F6B119D0F6A315D0800EFC191A
:10247400006E7F0E005C02E1FC0EFB5D0BE3800E40
:10248400FC19006E800EF119005C02E1F051FB5D55
:1024940001E201D002D066EF16F0F051F11106E02E
:1024A400F6A304D0010EF05F000EF15B000E006E87
:1024B400F151005C02E1F051080803E2080EF26FEA
:1024C40002D0F0C0F2F0F7C000F0F8C001F0F9C09B
:1024D40002F0FAC003F0046A056A066A076A0AECA5
:1024E40008F0000ED8A4010E006E0052D8B44CD1EE
:1024F400FBC010F120EC09F000C004F001C005F0AD
:1025040002C006F003C007F0F7C000F0F8C001F005
:10251400F9C002F0FAC003F00EEC0DF000C0F7F0C1
:1025240001C0F8F002C0F9F003C0FAF00001F25162
:1025340000080101106F20EC09F000C004F001C094
:1025440005F002C006F003C007F0F7C000F0F8C0C1
:1025540001F0F9C002F0FAC003F00EEC0DF000C077
:102564000AF101C00BF102C00CF103C00DF10AC164
:10257400F7F00BC1F8F00CC1F9F00DC1FAF00AC183
:1025840000F00BC101F00CC102F00DC103F02CEC02
:102594000CF019EC0CF000C004F001C005F002C00E
:1025A40006F003C007F00AC100F00BC101F00CC132
:1025B40002F00DC103F081EC04F0000E046E000E75
:1025C400056E000E066E7E0E076E85EC08F0000E9A
:1025D400D8B0010E006E00521AE0F7C000F0F8C047
:1025E40001F0F9C002F0FAC003F0000E046E000E10
:1025F400056E000E066E7E0E076E43EC01F000C001
:10260400F7F001C0F8F002C0F9F003C0FAF0F7C027
:1026140000F0F8C001F0F9C002F0FAC003F02CECAD
:102624000CF00001F251010F096E0A6A000E0A2231
:1026340009C004F00AC005F0000E0ABEFF0E066EC3
:10264400076E0436049005360636073604360490C1
:102654000536063607369C0E0424F66E4B0E05200E
:10266400F76E000E0620F86E0900F5CF05F009009C
:10267400F5CF06F00900F5CF07F00900F5CF08F013
:102684000850035C08E10750025C05E10650015C58
:1026940002E10550005C1EE30001F7C000F0F8C041
:1026A40001F0F9C002F0FAC003F0CD0E046ECC0EB6
:1026B400056E4C0E066E7B0E076E93EC03F000C0A5
:1026C400F7F001C0F8F002C0F9F003C0FAF0FB4BD8
:1026D400FC2B5AD0F7C000F0F8C001F0F9C002F0AA
:1026E400FAC003F02CEC0CF0F2C004F0000E056EFE
:1026F400066E076E04360490053606360736043631
:1027040004900536063607369C0E0424F66E4B0EEE
:102714000520F76E000E0620F86E0900F5CF05F0CF
:102724000900F5CF06F00900F5CF07F00900F5CF51
:1027340008F00850035C08E10750025C05E106500C
:10274400015C02E10550005C1FE20001F7C000F0EB
:10275400F8C001F0F9C002F0FAC003F0000E046EF4
:10276400000E056E200E066E820E076E93EC03F0CB
:1027740000C0F7F001C0F8F002C0F9F003C0FAF0AD
:10278400010EFB5F000EFC5B0001F6A397D0F6B7C9
:1027940095D0800E000A006E800EF119005C02E1F3
:1027A400F0510A0804E20A0EF06F000EF16FF7C050
:1027B40000F0F8C001F0F9C002F0FAC003F02CEC0C
:1027C4000CF000C0FDF001C0FEF002C0FFF003C039
:1027D40000F1FD51FE11FF110101001143E00A0E49
:1027E400046E000E056E066E076EFDC000F0FEC09E
:1027F40001F0FFC002F000C103F01CEC05F008C0BA
:1028040000F009C001F00AC002F00BC003F0000E92
:10281400046E031808E10450021805E1045001187D
:1028240002E10050000A1EE1010E0001F05F000EFB
:10283400F15B0A0E046E000E056E066E076EFDC097
:1028440000F0FEC001F0FFC002F000C103F01CEC78
:1028540005F000C0FDF001C0FEF002C0FFF003C0AF
:1028640000F1B7D70001800EF119006E800E005CF4
:1028740002E1F251F05D22E2F051F25D0101106FCC
:1028840020EC09F000C004F001C005F002C006F01D
:1028940003C007F0F7C000F0F8C001F0F9C002F07F
:1028A400FAC003F00EEC0DF000C0F7F001C0F8F030
:1028B40002C0F9F003C0FAF0F0C0F2F0050E000116
:1028C400F025006E000EF121016E0050F35F0150FF
:1028D400F45BF051F11103E1F6B701D004D0010E1D
:1028E400F35F000EF45B030EF515006EF6C001F005
:1028F400000E01160050011004E0010EF35F000EFB
:10290400F45BF5A53FD0F5A313D0F5A103D02D0EAC
:10291400006E02D02B0E006EE9C0E1FFEAC0E2FFB8
:1029240000C0E6FFE94BEA2B0101084B092B0ED04E
:102934000001F5A10BD0E9C0E1FFEAC0E2FF200EDF
:10294400E66EE94BEA2B0101084B092B800E006E61
:10295400800E0001F419005C02E1F351000811E259
:10296400E9C0E1FFEAC0E2FF300EE66EE94BEA2B74
:102974000101084B092B010E0001F35F000EF45B0B
:10298400E5D73FD0F5B71AD0800E006E800EF4194B
:10299400005C02E1F351000811E2E9C0E1FFEAC082
:1029A400E2FF200EE66EE94BEA2B0101084B092BEE
:1029B400010E0001F35F000EF45BE6D7F5A313D01C
:1029C400F5A103D02D0E006E02D02B0E006EE9C0CF
:1029D400E1FFEAC0E2FF00C0E6FFE94BEA2B010198
:1029E400084B092B0ED00001F5A10BD0E9C0E1FF83
:1029F400EAC0E2FF200EE66EE94BEA2B0101084B28
:102A0400092BF7C000F0F8C001F0F9C002F0FAC0D9
:102A140003F02CEC0CF000C0FDF001C0FEF002C08D
:102A2400FFF003C000F1F2C000F0000E016E026E70
:102A3400036E0036009001360236033600360090ED
:102A44000136023603369C0E0024F66E4B0E01202E
:102A5400F76E000E0220F86E0900F5CF04F00900AD
:102A6400F5CF05F00900F5CF06F00900F5CF07F022
:102A7400FDC000F0FEC001F0FFC002F000C103F091
:102A84001CEC05F0300E0026E9C0E1FFEAC0E2FFCD
:102A940000C0E6FF0001E94BEA2B0101084B092BBA
:102AA4000001F051F11103E1F6B701D076D0E9C08D
:102AB400E1FFEAC0E2FF2E0EE66EE94BEA2B0101CC
:102AC400084B092B0001F251F05F000EF15B00018D
:102AD400F2534EE0F207F2C000F0000E016E026EF7
:102AE400036E00360090013602360336003600903D
:102AF4000136023603369C0E0024F66E4B0E01207E
:102B0400F76E000E0220F86E0900F5CF04F00900FC
:102B1400F5CF05F00900F5CF06F00900F5CF07F071
:102B2400FDC000F0FEC001F0FFC002F000C103F0E0
:102B34001CEC05F00A0E046E000E056E066E076EA0
:102B44001CEC05F008C000F009C001F00AC002F056
:102B54000BC003F0300E0026E9C0E1FFEAC0E2FF3B
:102B640000C0E6FFE94BEA2B0101084B092BAFD764
:102B74000001F051F11111E0E9C0E1FFEAC0E2FF08
:102B8400300EE66EE94BEA2B0101084B092B010ECE
:102B94000001F05F000EF15BEBD7F5AB0CD0E9C0A0
:102BA400E1FFEAC0E2FF450EE66EE94BEA2B0101C4
:102BB400084B092B0CD0E9C0E1FFEAC0E2FF650E27
:102BC400E66E0001E94BEA2B0101084B092B800E4C
:102BD4000001FC19006E800E005C02E1000EFB5D3A
:102BE40012E2FB510008FB6FFC51000EFC57E9C0D8
:102BF400E1FFEAC0E2FF2D0EE66EE94BEA2B01018C
:102C0400084B092B0CD0E9C0E1FFEAC0E2FF2B0E10
:102C1400E66E0001E94BEA2B0101084B092B0A0E71
:102C2400046E000E056EFBC000F0FCC001F021EC48
:102C340008F0300E0026E9C0E1FFEAC0E2FF00C060
:102C4400E6FF0001E94BEA2B0101084B092B0A0EB0
:102C5400046E000E056EFBC000F0FCC001F021EC18
:102C640008F008C000F009C001F0300E0026E9C0E9
:102C7400E1FFEAC0E2FF00C0E6FF0001E94BEA2BF6
:102C84000101084B092B0001F5A71CD0800E006E32
:102C9400800EF419005C02E1F351000813E2E9C06C
:102CA400E1FFEAC0E2FF200EE66EE94BEA2B0101E8
:102CB400084B092B010E0001F35F000EF45BF35186
:102CC400F411EDE128EF0EF0F6A3FCD0800EFC1910
:102CD400006E800E005C02E1000EFB5D0AE2010E54
:102CE400FB5D006E000EFC59016E0050F05F015058
:102CF400F15BF7C000F0F8C001F0F9C002F0FAC0CF
:102D040003F02CEC0CF000C0FDF001C0FEF002C09A
:102D1400FFF003C000F1010EF26FF2510A0A37E02E
:102D2400F2C000F0000E016E026E036E00360090D9
:102D34000136023603360036009001360236033679
:102D44009C0E0024F66E4B0E0120F76E000E02203E
:102D5400F86E0900F5CF01F00900F5CF02F0090083
:102D6400F5CF03F00900F5CF04F004500101005D34
:102D740009E103500001FF5D05E10250FE5D02E13F
:102D84000150FD5D01E203D00001F22BC6D7000122
:102D9400F251F05D01010E6F000E0001F1590101C5
:102DA4000F6F0EC1F0F00FC1F1F0FDC000F0FEC0D6
:102DB40001F0FFC002F000C103F019EC0CF000C0F8
:102DC40004F001C005F002C006F003C007F0F7C02C
:102DD40000F0F8C001F0F9C002F0FAC003F081EC91
:102DE40004F000C00AF101C00BF102C00CF103C0F1
:102DF4000DF10EC110F120EC09F00AC104F00BC171
:102E040005F00CC106F00DC107F093EC03F0000EC1
:102E1400046E000E056E000E066E7E0E076E43EC09
:102E240001F02CEC0CF000C0FDF001C0FEF002C07B
:102E3400FFF003C000F10001F051F11143E00A0E6C
:102E4400046E000E056E066E076EFDC000F0FEC037
:102E540001F0FFC002F000C103F01CEC05F008C053
:102E640000F009C001F00AC002F00BC003F0000E2C
:102E7400046E031808E10450021805E10450011817
:102E840002E10050000A1EE100010A0E046E000E69
:102E9400056E066E076EFDC000F0FEC001F0FFC0B7
:102EA40002F000C103F01CEC05F000C0FDF001C00D
:102EB400FEF002C0FFF003C000F1010EF05F000E4F
:102EC400F15BB9D70001800E006E800EF119005C31
:102ED40002E1F0510C0816E3F0C010F192EC06F098
:102EE400F7C004F0F8C005F0F9C006F0FAC007F026
:102EF40043EC01F000C0F7F001C0F8F002C0F9F0B3
:102F040003C0FAF0F7C000F0F8C001F0F9C002F015
:102F1400FAC003F0046A056A066A076A0AEC08F054
:102F2400000ED8A4010E006E0052D8B478D0F7C0B9
:102F340000F0F8C001F0F9C002F0FAC003F02CEC84
:102F44000CF0000E046E031808E10450021805E1A9
:102F54000450011802E10050000A61E1800E006E85
:102F6400800E0001FC19005C02E1FB51010857E2EC
:102F7400FBC010F120EC09F000C004F001C005F022
:102F840002C006F003C007F0F7C000F0F8C001F07B
:102F9400F9C002F0FAC003F00EEC0DF05F0E046EFF
:102FA400700E056E090E066E810E076E85EC08F034
:102FB400010ED8B0000E006E005206E0090E0001AA
:102FC400FB5F000EFC5B05D00001080EFB5F000EEA
:102FD400FC5BFBC010F120EC09F000C004F001C060
:102FE40005F002C006F003C007F0F7C000F0F8C017
:102FF40001F0F9C002F0FAC003F00EEC0DF02CEC75
:103004000CF000C0FDF001C0FEF002C0FFF003C0F0
:1030140000F10001F76BF86BF96BFA6B39D0000122
:10302400F7C000F0F8C001F0F9C002F0FAC003F0F4
:103034002CEC0CF000C0FDF001C0FEF002C0FFF06B
:1030440003C000F1FDC000F0FEC001F0FFC002F0BB
:1030540000C103F019EC0CF000C004F001C005F04D
:1030640002C006F003C007F0F7C000F0F8C001F09A
:10307400F9C002F0FAC003F081EC04F000C0F7F0EC
:1030840001C0F8F002C0F9F003C0FAF0FB6BFC6B6E
:10309400010EF26FF2510A0A37E0F2C000F0000E9E
:1030A400016E026E036E003600900136023603365E
:1030B400003600900136023603369C0E0024F66E6C
:1030C4004B0E0120F76E000E0220F86E0900F5CFBA
:1030D40001F00900F5CF02F00900F5CF03F0090073
:1030E400F5CF04F004500101005D09E10350000133
:1030F400FF5D05E10250FE5D02E10150FD5D01E26C
:1031040003D00001F22BC6D70001F251F025006E66
:10311400000EF121016EFB510026FC5101220050EA
:10312400F35F0150F45BF6B704D0F051F11101E103
:1031340004D0010EF35F000EF45B030EF515006E70
:10314400F6C001F0000E01160050011004E0010E5B
:10315400F35F000EF45BF5A53FD0F5A313D0F5A102
:1031640003D02D0E006E02D02B0E006EE9C0E1FFDD
:10317400EAC0E2FF00C0E6FFE94BEA2B0101084B7D
:10318400092B0ED00001F5A10BD0E9C0E1FFEAC084
:10319400E2FF200EE66EE94BEA2B0101084B092BF6
:1031A400800E006E800E0001F419005C02E1F35100
:1031B400000811E2E9C0E1FFEAC0E2FF300EE66E6A
:1031C400E94BEA2B0101084B092B010E0001F35FC7
:1031D400000EF45BE5D73FD0F5B71AD0800E006E31
:1031E400800EF419005C02E1F351000811E2E9C019
:1031F400E1FFEAC0E2FF200EE66EE94BEA2B010193
:10320400084B092B010E0001F35F000EF45BE6D7B7
:10321400F5A313D0F5A103D02D0E006E02D02B0E12
:10322400006EE9C0E1FFEAC0E2FF00C0E6FFE94B3F
:10323400EA2B0101084B092B0ED00001F5A10BD09C
:10324400E9C0E1FFEAC0E2FF200EE66EE94BEA2B9B
:103254000101084B092BF2C000F00001F2070052F3
:103264004DE0F2C000F0000E016E026E036E0036F7
:1032740000900136023603360036009001360236DD
:1032840003369C0E0024F66E4B0E0120F76E000EE2
:103294000220F86E0900F5CF04F00900F5CF05F01F
:1032A4000900F5CF06F00900F5CF07F0FDC000F0E6
:1032B400FEC001F0FFC002F000C103F01CEC05F0F9
:1032C4000A0E046E000E056E066E076E1CEC05F009
:1032D40008C000F009C001F00AC002F00BC003F0FE
:1032E400300E0026E9C0E1FFEAC0E2FF00C0E6FFBD
:1032F400E94BEA2B0101084B092BADD7800E006E78
:10330400800E0001FC19005C02E1FB51000811E28F
:10331400E9C0E1FFEAC0E2FF300EE66EE94BEA2BBA
:103324000101084B092B010E0001FB5F000EFC5B41
:10333400E5D7800E000A006E800EF119005C02E1F0
:10334400F051080803E2080EF26F02D0F0C0F2F068
:10335400F251F05F000EF15BF25303E1F6B701D0D6
:103364000BD0E9C0E1FFEAC0E2FF2E0EE66EE94BA6
:10337400EA2B0101084B092BF2C010F120EC09F0F3
:10338400F7C004F0F8C005F0F9C006F0FAC007F081
:1033940093EC03F084EC04F000C0FDF001C0FEF0F7
:1033A40002C0FFF003C000F10001F2534EE0F20747
:1033B400F2C000F0000E016E026E036E0036009043
:1033C40001360236033600360090013602360336E3
:1033D4009C0E0024F66E4B0E0120F76E000E0220A8
:1033E400F86E0900F5CF04F00900F5CF05F00900E7
:1033F400F5CF06F00900F5CF07F0FDC000F0FEC0E0
:1034040001F0FFC002F000C103F01CEC05F00A0E4D
:10341400046E000E056E066E076E1CEC05F008C007
:1034240000F009C001F00AC002F00BC003F0300E36
:103434000026E9C0E1FFEAC0E2FF00C0E6FFE94B75
:10344400EA2B0101084B092BAFD70001F051F11110
:1034540011E0E9C0E1FFEAC0E2FF300EE66EE94B9D
:10346400EA2B0101084B092B010E0001F05F000E4D
:10347400F15BEBD7F5A71CD0800E006E800EF4191B
:10348400005C02E1F351000813E2E9C0E1FFEAC085
:10349400E2FF200EE66EE94BEA2B0101084B092BF3
:1034A400010E0001F35F000EF45BF351F411EDE142
:1034B40028EF0EF0C00EF515016EF6C002F0000EF6
:1034C4000216000E021802E1000E0118D8A481D0E1
:1034D400F5A927D0EEC0E9FFEFC0EAFFEECF00F078
:1034E400EECF01F000C0E9FF01C0EAFFEECFFDF02E
:1034F400EECFFEF0EECFFFF0EECF00F1EEC0E9FF2D
:10350400EFC0EAFF040EEE24006E000EEE20016E02
:10351400EEC0E1FFEFC0E2FF00C0E6FF01C0E6FF3E
:103524002CD0EEC0E9FFEFC0EAFFEECF00F0EECF03
:1035340001F000C0E9FF01C0EAFFEECF00F0EECFDA
:1035440001F000C0FDF001C0FEF0000E01BEFF0E50
:10355400FF6F0101006FEEC0E9FFEFC0EAFF020E4A
:10356400EE24006E000EEE20016EEEC0E1FFEFC00F
:10357400E2FF00C0E6FF01C0E6FF0101800E001972
:10358400006E800E005C09E1000E0001FF5D05E1A4
:10359400000EFE5D02E1000EFD5D1AE20001030E65
:1035A400F513000EF613006A016A026A036AFD51FC
:1035B400005EFE51015AFF51025A01010051035AA3
:1035C40000C0FDF001C0FEF002C0FFF003C000F136
:1035D40050D00001F5A927D0EEC0E9FFEFC0EAFF03
:1035E400EECF00F0EECF01F000C0E9FF01C0EAFF2A
:1035F400EECFFDF0EECFFEF0EECFFFF0EECF00F118
:10360400EEC0E9FFEFC0EAFF040EEE24006E000EE8
:10361400EE20016EEEC0E1FFEFC0E2FF00C0E6FF66
:1036240001C0E6FF26D0EEC0E9FFEFC0EAFFEECF0F
:1036340000F0EECF01F000C0E9FF01C0EAFFEECFD9
:10364400FDF0EECFFEF0000EFF6F0101006FEEC043
:10365400E9FFEFC0EAFF020EEE24006E000EEE203A
:10366400016EEEC0E1FFEFC0E2FF00C0E6FF01C063
:10367400E6FF000E0001F11902E1000EF01912E15B
:10368400000E006E0101001909E100500001FF194C
:1036940005E10050FE1902E1FD51000A03E10001B9
:1036A400F04BF12B0001C00EF515006E00C005F0C3
:1036B400BAD00001010EF26FF2510A0A37E0F2C0EB
:1036C40000F0000E016E026E036E003600900136AB
:1036D40002360336003600900136023603369C0E5D
:1036E4000024F66E4B0E0120F76E000E0220F86ED9
:1036F4000900F5CF01F00900F5CF02F00900F5CF7C
:1037040003F00900F5CF04F004500101005D09E164
:1037140003500001FF5D05E10250FE5D02E101502E
:10372400FD5D01E203D00001F22BC6D78BD000016E
:10373400010EF26FF251080A37E0F2C000F0000EF9
:10374400016E026E036E00360090013602360336B7
:1037540000360090013602360336C40E0024F66E9D
:103764004B0E0120F76E000E0220F86E0900F5CF13
:1037740001F00900F5CF02F00900F5CF03F00900CC
:10378400F5CF04F004500101005D09E1035000018C
:10379400FF5D05E10250FE5D02E10150FD5D01E2C5
:1037A40003D00001F22BC6D74DD00001010EF26FF9
:1037B400F2510C0A37E0F2C000F0000E016E026E06
:1037C400036E003600900136023603360036009050
:1037D4000136023603366C0E0024F66E4B0E0120C1
:1037E400F76E000E0220F86E0900F5CF01F0090013
:1037F400F5CF02F00900F5CF03F00900F5CF04F08E
:1038040004500101005D09E103500001FF5D05E181
:103814000250FE5D02E10150FD5D01E203D00001B2
:10382400F22BC6D70FD00550000AD8B442D70550A2
:10383400C00AD8B43ED70550800AD8B478D705500A
:10384400400AB3E00001800E006E800EF119005CA6
:1038540002E1F051F25D03E2F0C0F2F00DD0800E0F
:10386400F119006E800E005C02E1F251F05D04E299
:10387400F2C0F0F0000EF16FF351F4110EE0030EFC
:10388400F515006EF6C001F0000E0116005001108F
:1038940004E0010EF35F000EF45B800EF119006E7C
:1038A400800EF419005C02E1F351F05D05E2F05181
:1038B400F35FF151F45B02D0F36BF46BC40EF515B6
:1038C400016EF651080B026E0250080A02E1400E26
:1038D400011808E1F351F41104E0010EF35F000E46
:1038E400F45B1CD0C00EF515016EF651080B026E88
:1038F4000250080A02E1800E011810E1800E006EE9
:10390400800EF419005C02E1F351020805E2020E94
:10391400F35F000EF45B02D0F36BF46BF5A567D094
:10392400F5A313D0F5A103D02D0E006E02D02B0EFB
:10393400006EE9C0E1FFEAC0E2FF00C0E6FFE94B28
:10394400EA2B0101084B092B3AD00001F5A10CD058
:10395400E9C0E1FFEAC0E2FF200EE66EE94BEA2B84
:103964000101084B092B2BD0C00E0001F515016E87
:10397400F651080B026E0250080A02E1800E01188B
:103984001EE1E9C0E1FFEAC0E2FF300EE66EE94B5A
:10399400EA2B0101084B092B0001F5AB03D0580EAB
:1039A400006E02D0780E006EE9C0E1FFEAC0E2FFCB
:1039B40000C0E6FFE94BEA2B0101084B092B00018B
:1039C400F351F41113E0E9C0E1FFEAC0E2FF300E65
:1039D400E66EE94BEA2B0101084B092B010E0001AD
:1039E400F35F000EF45BF351F411EDE17FD0F3517A
:1039F400F41115E0F5B713D0E9C0E1FFEAC0E2FF26
:103A0400200EE66EE94BEA2B0101084B092B010E4F
:103A14000001F35F000EF45BF351F411EDE1F5A343
:103A240013D0F5A103D02D0E006E02D02B0E006E24
:103A3400E9C0E1FFEAC0E2FF00C0E6FFE94BEA2B80
:103A44000101084B092B0ED00001F5A10BD0E9C0F0
:103A5400E1FFEAC0E2FF200EE66EE94BEA2B01012A
:103A6400084B092BC00E0001F515016EF651080B29
:103A7400026E0250080A02E1400E01180CE1E9C08E
:103A8400E1FFEAC0E2FF300EE66EE94BEA2B0101EA
:103A9400084B092B2BD0C00E0001F515016EF65111
:103AA400080B026E0250080A02E1800E01181EE1A2
:103AB400E9C0E1FFEAC0E2FF300EE66EE94BEA2B13
:103AC4000101084B092B0001F5AB03D0580E006E21
:103AD40002D0780E006EE9C0E1FFEAC0E2FF00C048
:103AE400E6FFE94BEA2B0101084B092B800E006E1F
:103AF400800E0001F119005C02E1F051F25D0CE26C
:103B0400E9C0E1FFEAC0E2FF300EE66EE94BEA2BC2
:103B14000101084B092BEAD7F0C000F0F1C001F015
:103B2400010E0001F05F000EF15B00500110D8B4EB
:103B340030D1C00EF515006E00C00AF10DD10001A0
:103B4400F0C000F0F1C001F0000EF1BFFF0E026EF4
:103B5400036E0036009001360236033600360090BC
:103B64000136023603369C0E0024F66E4B0E0120FD
:103B7400F76E000E0220F86E0900F5CF04F009007C
:103B8400F5CF05F00900F5CF06F00900F5CF07F0F1
:103B9400FDC000F0FEC001F0FFC002F000C103F060
:103BA4001CEC05F00A0E046E000E056E066E076E20
:103BB4001CEC05F008C000F009C001F00AC002F0D6
:103BC4000BC003F0300E0024F26FD6D00001F5AB29
:103BD40045D0F0C000F0F1C001F0000EF1BFFF0EBF
:103BE400026E036E0036009001360236033600364C
:103BF4000090013602360336C40E0024F66E4B0ED6
:103C04000120F76E000E0220F86E0900F5CF04F0D3
:103C14000900F5CF05F00900F5CF06F00900F5CF4E
:103C240007F0FDC000F0FEC001F0FFC002F000C1CB
:103C340003F01CEC05F00F0E0016000E0116021620
:103C44000316F50E0024F66E4B0E0120F76E000EDF
:103C54000220F86E0900F5CFF2F044D0F0C000F075
:103C6400F1C001F0000EF1BFFF0E026E036E0036CC
:103C740000900136023603360036009001360236D3
:103C84000336C40E0024F66E4B0E0120F76E000EB0
:103C94000220F86E0900F5CF04F00900F5CF05F015
:103CA4000900F5CF06F00900F5CF07F0FDC000F0DC
:103CB400FEC001F0FFC002F000C103F01CEC05F0EF
:103CC4000F0E0016000E011602160316E40E002451
:103CD400F66E4B0E0120F76E000E0220F86E0900FE
:103CE400F5CFF2F049D00001F0C000F0F1C001F0CE
:103CF400000EF1BFFF0E026E036E00360090013617
:103D040002360336003600900136023603366C0E56
:103D14000024F66E4B0E0120F76E000E0220F86EA2
:103D24000900F5CF04F00900F5CF05F00900F5CF3F
:103D340006F00900F5CF07F0FDC000F0FEC001F069
:103D4400FFC002F000C103F01CEC05F0070E0014E4
:103D5400F26F300EF22710D001010A51000AD8B4D4
:103D6400EED60A51C00AD8B4EAD60A51800AD8B4A9
:103D74002DD70A51400AB7E0E9C0E1FFEAC0E2FFEB
:103D8400F2C0E6FF0001E94BEA2B0101084B092BC5
:103D9400C3D60001F5A71CD0800E006E800EF41966
:103DA400005C02E1F351000813E2E9C0E1FFEAC05C
:103DB400E2FF200EE66EE94BEA2B0101084B092BCA
:103DC400010E0001F35F000EF45BF351F411EDE119
:0E3DD40028EF0EF008C100F009C101F0120046
:103DE2000001E96BEA6BEA51120802E1E9518E081F
:103DF20009E374EC04F0005201E004D00001E94B45
:103E0200EA2BF1D70001120EEA5D02E18F0EE95DA5
:103E120003E37B0E006E1200C580C5A001D0FDD762
:043E2200006A120020
:0E3E2600ACB202D00000FCD7E9C0ADFF120024
:0A3E3400000E9EBA010E006E12008F
:103E3E000C6A0E6A0250D8A438EF1FF001C002F0CF
:103E4E0000C001F0006A0E860250D8A438EF1FF0B1
:103E5E0001C002F0016A0E960E880250D8B44AEFE5
:103E6E001FF00E50035ED8A4D8A050EF1FF0D890CC
:103E7E0002BE56EF1FF0003601360236032E3FEF1C
:103E8E001FF050EF1FF0010E0C6E0EEC00F05AEF0B
:103E9E001FF0020E0C6E15EC00F05AEF1FF0040E20
:083EAE000C6E2EEC00F0120076
:103EB6009E96E9C0C9FFC7A401D0FDD79EB601D022
:103EC600FDD7C5BC02D0006A1200C584020E006E82
:023ED6001200D8
:103ED8009E96C5869EB601D0FDD7C9CF01F00001D8
:103EE800E951000A02E1C58A01D0C59A9E96C588A3
:0C3EF8009EB601D0FDD701C000F0120002
:103F0400020E0B6E040E0C6EBA0E0D6E0D2EFED745
:0C3F14000C2EFCD70B2EFAD70000120078
:103F2000AECFAFF0ABA202D0AB98AB88AFC000F081
:023F300012007D
:043F3200C584120030
:0A3F3600C582C5A201D0FDD712001C
:103F40000050086E0150006E016A026A036A0B6A33
:103F50000C6A960E036E0A6A00C001F008C000F0F9
:083F6000086A026A6CDF12001E
:103F6800DAC0E9FFDBC0EAFFEECF03F0F00E03147E
:103F7800026E02C000F00032009E0032009E003245
:103F8800009E0032009E0A0E0002F3CF01F00F0ED1
:103F98000314006EDAC0E1FFDBC0E2FF0050012429
:103FA800E66EDCC0E9FFDDC0EAFFEECF03F0F00EFD
:103FB8000314026E02C000F00032009E0032009E20
:103FC8000032009E0032009E0A0E0002F3CF01F07C
:103FD8000F0E0314006EDCC0E1FFDDC0E2FF0050ED
:103FE8000124E66EDEC0E9FFDFC0EAFFEECF03F092
:103FF800F00E0314026E02C000F00032009E003280
:10400800009E0032009E0032009E0A0E0002F3CF8E
:1040180001F00F0E0314006EDEC0E1FFDFC0E2FF07
:0840280000500124E66E1200B5
:10403000C26A070EC012C08EDAC000F000360090CF
:10404000003600900050C212C280CCEC0DF0C2824B
:10405000C2A201D0FDD7C4CF01F0006AC350001244
:08406000000E0112C2901200D3
:10406800260E0001AB6F3E0EAC6FE90EAD6F000E71
:10407800AE6F200EB96F3F0EBA6F000EBB6F000E09
:10408800BC6F340EB56F3E0EB66F000EB76F000EE4
:10409800B86FFF0EB16FFF0EB26F000EB36F000E58
:1040A800B46FAC8A900EAB6E948E949C9EAA03D08B
:0840B800AECF00F0FBD71200AF
:1040C00090DEA00EE96FF7DEDAC0E9F0F4DEDCC0C6
:1040D000E9F0F1DE2EDF1A0E0C6EF80E0D6E0D2ECD
:0A40E000FED70C2EFCD700001200E2
:1040EA00DF0E0001E76F000EE86FDAC0E9F0DBC00F
:1040FA00EAF0DCC0EBF0DDC0ECF0DEC0EDF0E70E7C
:10410A00EE6F000EEF6F22EC0EF000C0E5F001C07A
:10411A00E6F00050DA25E16E0150DB21E26EE66A34
:0A412A00E5C000F0E6C001F012004D
:104134000001DA6BDB6B800EDB19006E800E005C15
:1041440002E1010EDA5D09E21C0E0101106FC8ECF8
:104154000CF0D6DEDA4BDB2BEED7DA6BDB6B800EA2
:10416400DB19006E800E005C02E1010EDA5D09E2EB
:10417400180E0101106FC8EC0CF0C2DEDA4BDB2B19
:04418400EED7120060
:10418800949894968B988B9694889486C79EC79C8F
:06419800380EC66E120095
:10419E000B6A0C6A0A6A0350D8B404EF21F00A9E27
:1041AE00028E860E035E03BEE2EF20F0D8B4E2EF7D
:1041BE0020F007EF21F0036C080E035CD8A0F0EF9F
:1041CE0020F0036E0236026A0350D8A4D890F9EF9D
:1041DE0020F00350D8B4F9EF20F0D8900232032E1D
:1041EE00F4EF20F00BBC02A004EF21F0D8A004EFF6
:1041FE0021F0022AD8B40EEF21F0016A14EF21F05B
:10420E000B800BAE18EF21F0016A18EF21F0010EB2
:10421E000C6E31EC01F01AEF21F0000E0C6E1AEF5D
:0C422E0021F0FF0E0C6E0250006E12001A
:10423A00D3DDD00EE96F3ADEDAC0E9F037DE76DE9A
:10424A00D10E0001E96F32DE0001E96B40DE00C0E9
:10425A00DCF0000E0001DD6F67DEDCC000F0DDC0BF
:04426A0001F012004D
:10426E00B9DDA00EE96F20DEDAC0E9F01DDE5CDEFE
:10427E00A10E0001E96F18DE0001E96B26DE00C019
:10428E00DCF0000E0001DD6F4DDEDCC000F0DDC0A5
:04429E0001F0120019
:1042A200DAC0E9FFDBC0EAFFEECFDCF0000E00016E
:1042B200DD6F000EDD6F000EDD1902E1200EDC194C
:1042C20007E0000EDD1902E1090EDC1901E003D05E
:1042D200DA4BDB2BE5D7DE6BDF6BE06BE16B000EBD
:1042E200DD1902E12D0EDC1905E1E04BE12BDA4B81
:1042F200DB2B08D0000EDD1902E12B0EDC1902E1E6
:10430200DA4BDB2BDAC0E9FFDBC0EAFFEECFDCF0F1
:10431200000EDD6F000EDD6FDCC010F1ECEC08F07A
:1043220000521AE0DEC000F0DFC001F00A0E046E97
:10433200000E056EF8EC08F0300E0001DC5D026E36
:10434200000EDD59036E02500024DE6F035001207F
:10435200DF6FDA4BDB2BD6D70001E051E11108E029
:10436200DE510008006EDFC001F0000E015612009F
:0A437200DEC000F0DFC001F0120011
:10437C000001DD6BDAC0E9FFDBC0EAFFEECFDCF059
:10438C00DC51000A0EE0DCC0E9F047DD0001DD2B5A
:10439C00DD51DA25E96E000EDB21EA6EEECFDCF0A2
:0443AC00EFD7120035
:1043B0000001E06BE16BDE5342E0DE51FF0A01E0F9
:1043C000DE0738DD0050000A01E1FBD7A9DD00C09F
:1043D000DFF00001E051DA25E16E000EDB21E26E34
:1043E00000C0E6FFE02BE151DC25E96E000EDD2187
:1043F000EA6EEE50DF1902E1E12B09D0E16BDCC07F
:10440000E9FFDDC0EAFFEE50DF1901E1E12BE151E8
:10441000DC25E96E000EDD21EA6EEE50000A0EE1A9
:10442000E151E05D006E016A000E015A0050DA258C
:10443000E16E0150DB21E26EE66A1200BCD7DAC001
:0A444000E1FFDBC0E2FFE66A1200B4
:10444A000001E06BE16BDAC0E2F0DBC0E3F0800E62
:10445A00DB19006E800E005C02E1000EDA5D0BE2F1
:10446A00010EE06F000EE16FDA510008E26FDBC067
:10447A00E3F0000EE357E2C0E9F0E3C0EAF0DCC083
:10448A00EBF0DDC0ECF0D9EC0DF0060EDE6F000E9D
:10449A00DF6F000E006EDF51005C02E1DE510008A2
:1044AA0019E2DE51DC25E16EDF51DD21E26E010EFB
:1044BA00DE5D006E000EDF59016E0050DC25E96EEC
:1044CA000150DD21EA6EEECFE6FF010EDE5F000E3F
:1044DA00DF5BDFD7DCC0E1FFDDC0E2FF200EE66E66
:1044EA00E051E1111AE0DE6BDF6BDE51DC25E96E8B
:1044FA00DF51DD21EA6EEE50200A03E1DE4BDF2BAD
:10450A00F4D7010EDE5F000EDF5BDE51DC25E16EC3
:0C451A00DF51DD21E26E2D0EE66E120076
:104526000900F5CFE6FF0006FBE10106F9E11200FE
:1045360010D0800E0001DA6F1AD0C00EDA6F17D0D5
:10454600940EDA6F14D0D40EDA6F11D0800EDA6FB3
:104556000ED00001DA51010AECE0DA51020AEDE070
:10456600DA51030AEDE0DA51040AEDE0EFD7DB0594
:10457600006EDA51002600C0DAF000C010F1C8EC77
:104586000CF0B091DE6BDE51DC25E96E000EDD210C
:10459600EA6EEE520CE0DE51DC25E96E000EDD21FE
:1045A600EA6EEECFE9F0D2EC0DF0DE2BECD7B0815F
:0245B6001200F1
:1045B800969296909598959A959C959E84928490BB
:1045C800839E839C839A839826EC01F026EC01F065
:1045D80026EC01F0838A8388848223EC01F084929C
:1045E80026EC01F0848223EC01F0849226EC01F0A1
:1045F800848223EC01F0849226EC01F08398848273
:1046080023EC01F0849226EC01F0848223EC01F083
:104618008492839A838E848223EC01F0849226EC20
:1046280001F0839E8388848223EC01F0849283982E
:10463800848223EC01F0849226EC01F0848223EC3E
:1046480001F084928388848223EC01F0849226EC22
:1046580001F08398848223EC01F08492838E838C0A
:10466800838A8388848223EC01F0849226EC01F00B
:064678000001B0811200F8
:10467E00400E0101106FC8EC0CF0DA6BDA5107082E
:10468E0012E3150EDA25F66E4C0EF76E000EF722BB
:10469E00000EF86E000EF8220900F5CFE9F0D2EC0C
:1046AE000DF0DA2BEBD7DA6BDA51070812E31D0E99
:1046BE00DA25F66E4C0EF76E000EF722000EF86E2F
:1046CE00000EF8220900F5CFE9F0D2EC0DF0DA2B4E
:0E46DE00EBD7020E0101106FC8EC0CF01200B9
:1046EC0013EC26F0190EAF6EAC84B8DC140EC86E49
:1046FC0045DD81AC1CD00001DA6BDB6BFF0EDC6F8F
:10470C00000EDD6FD7DC010E0001DA6F000EDB6FDF
:10471C00FF0EDC6F000EDD6FCDDC020E0001DA6FD8
:10472C00000EDB6FFF0EDC6F000EDD6FC3DC010EC5
:10473C000001DA6F000EDB6F94DD000E011802E150
:10474C00FF0E001849E1570EDA6F000EDB6F10DE1A
:10475C001AEC1FF00050010A01E0FAD7990EDA6F3B
:10476C00000EDB6F550EDC6F000EDD6F250EDE6F5D
:10477C0019DE990EDA6F000EDB6FFADD99C0A2F02C
:10478C009AC0A3F0A20EDA6F000EDB6F84DD00C0BE
:10479C00A0F001C0A1F0010EDA6F000EDB6F00C0BB
:1047AC00DCF001C0DDF086DC9CC0A2F09DC0A3F063
:1047BC00A20E0001DA6F000EDB6F6DDD00C09EF003
:1047CC0001C09FF0020EDA6F000EDB6F00C0DCF050
:1047DC0001C0DDF06FDC42D0010E0001DA6F000E7B
:1047EC00DB6F3FDD00C0A0F001C0A1F000C0DAF02B
:1047FC0001C0DBF0920EDC6F000EDD6F20DE96C088
:10480C0099F097C09AF03A0E9B6F020EDA6F000E79
:10481C00DB6F27DD00C09EF001C09FF000C0DAF016
:10482C0001C0DBF0920EDC6F000EDD6F08DE800E37
:10483C009F19006E800E005C02E10A0E9E5D05E27F
:10484C00300E9C6F97C09DF004D096C09CF097C022
:10485C009DF0990EDA6F000EDB6F8ADD0001DA6BCA
:10486C00DB6BFFDC000E011802E1FF0E001828E1E3
:10487C00150EDA6F000EDB6F7BDD1AEC1FF00050AB
:10488C00010A01E0FAD7710EDA6F000EDB6F550EDC
:10489C00DC6F000EDD6F200EDE6F84DD710EDA6FC3
:1048AC00000EDB6FF8DC00C097F001C098F0DA6BFB
:1048BC00DB6B00C0DCF001C0DDF060EC20F008D058
:1048CC000001DA6BDB6BCDDC00C097F001C098F017
:1048DC000E0EC16E0F0E936E816A68DE0C0E010116
:1048EC00106FC8EC0CF0C5DE010EDA6F020EDB6F38
:1048FC00430EDC6F000EDD6F18DE030EDA6F020E56
:10490C00DB6F300EDC6F000EDD6F0FDE97C0DAF060
:10491C0098C0DBF0A40EDC6F000EDD6F90DD040E92
:10492C00DA6F0C0EDB6FA40EDC6F000EDD6FFDDD9D
:10493C00E96BD2EC0DF0430EE96FD2EC0DF0DA6BB3
:10494C00DB6B75DC00C0C1F001C0C2F0010EDA6F88
:10495C00000EDB6F6CDC00C0BFF001C0C0F0020EBB
:10496C00DA6F000EDB6F63DC00C0BDF001C0BEF07F
:10497C00C10EDA6F000EDB6FBF0EDC6F000EDD6F49
:10498C00BD0EDE6F000EDF6FB4EC1FF0C60EDA6FDB
:10499C00000EDB6F060EDC6F4C0EDD6F000EDE6F53
:1049AC00BDC0DFF0BEC0E0F0BFC0E1F0C0C0E2F0BF
:1049BC00C1C0E3F0C2C0E4F075EC20F0040EDA6F75
:1049CC00010EDB6FC60EDC6F000EDD6FAEDDDA6B39
:1049DC0018EC20F000C0C4F001C0C5F0A0EC1FF032
:1049EC00000E046E000E056E200E066E810E076E14
:1049FC0093EC03F0000E046E000E056E000E066EB6
:104A0C00890E076E0EEC0DF0000E046E000E056E96
:104A1C00480E066E850E076E93EC03F0CFEC20F07B
:104A2C0000C0C3F000C0DAF0000E0001DB6FA40E72
:104A3C00DC6F000EDD6F03DD020EDA6F010EDB6F33
:104A4C00990EDC6F000EDD6F70DD020EDA6F080E52
:104A5C00DB6FA40EDC6F000EDD6F67DDE96BD2EC53
:104A6C000DF0430EE96FD2EC0DF0800E006E800E4F
:104A7C009819005C02E19751C35D0EE39F51C01978
:104A8C0002E1BF519E1908E1BE51A11902E1A051EA
:0C4A9C00BD1902E19AEC20F052D7FFD7C0
:104C260010EE15F05C0E006E010E016EA80EF66E0B
:0E4C36004A0EF76E000EF86E93EC22F012009C
:104AA8005155414C20412054454D50455241545593
:0B4AB8005241204D4158494D410D0076
:104AC30054454D5045524154555241204D4158494A
:034AD3004D410052
:104AD60054454D504552415455524120415455413B
:024AE6004C0082
:024AE8000D00BF
:104AEA000D205155414C20484F524152494F204DBB
:0A4AFA004F4E49544F5241520D0037
:104B04000000007FCDCC4C7B0AD723786F1203754D
:104B140017B75171ACC5276EBD37066B95BF566785
:104B240077CC2B645F700961FFE65B5D08E53C3C74
:044B34006042221B9E
:104B38000000007F000020820000488500007A887D
:104B480000401C8C0050438F002474928096189665
:104B580020BC3E99286B6E9CF90215A0EC782DC1FB
:044B6800CAF249E262
:104B6C0001000000080000004000000000020000EE
:104B7C000010000000800000000004000000200075
:104B8C0000000001000000080000004000000000D0
:104B9C00010000000A00000064000000E8030000AF
:104BAC0010270000A086010040420F00809698005C
:084BBC0000E1F50500CA9A3B77
:104BC40001000000100000000001000000100000BF
:104BD40000000100000010000000000100000010AF
:104BE400303132333435363738396162636465665F
:014BF40000C0
:104BF500303132333435363738394142434445460E
:014C050000AE
:0F4C0600253032643A253032643A25303264006A
:084C1500030300000000000091
:084C1D00010101010101010187
:020000040030CA
:0D000100021F1EFF8381FF0FC00FE00F40A4
:00000001FF
