:10000000E6EF04F00000000000EF00F00000000048
:0A0010000000000000000000F3D71C
:10001C00086A096A100E0C6E013408360936045051
:10002C00085E0550D8A0053C095ED8B007D0045036
:10003C0008260550D8B0053C0926D8900036013664
:06004C000C2EEAD71200A1
:0E005200026A016A006A086A036A000E120060
:100060000B820BAE3AEF00F003680268016800688B
:080070000A360232FF0E1200F5
:100078000B840BAE47EF00F0010E036E026A016AB3
:0A008800006A0A360232FF0E120071
:080092000AAE029E000E1200EE
:10009A000CB08FEF00F00CA235EF01F00E6A000EE3
:1000AA000264A6EF00F0F00E0214D8A471EF00F07B
:1000BA00023A01380F0B02260138F00B016E0038A4
:1000CA000F0B01260038F00B006E08380F0B0026C4
:1000DA000838F00B086E0E84D89002BE8AEF00F042
:1000EA0008360036013602360E2A02BE8AEF00F0C2
:1000FA0008360036013602360E2A02BE8AEF00F0B2
:10010A0008360036013602360E2A0E5003642BEFEB
:10011A0001F0035E0BBC08AE30EF01F0D880800E10
:10012A0008640030000E002201220222D8A030EF1B
:10013A0001F0023201320032034A35EF01F030EFAA
:10014A0001F001C002F000C001F008C000F0086A26
:10015A00000E0E860264DDEF00F0F00E0214D8A441
:10016A00C5EF00F0023A01380F0B02260138F00BF6
:10017A00016E00380F0B01260038F00B006E0E845A
:10018A00D89002BE8AEF00F00036013602360E2AF7
:10019A0002BE8AEF00F00036013602360E2A02BE8F
:1001AA008AEF00F00036013602360E2A8AEF00F096
:1001BA0001C002F000C001F0006A000E0E960E881F
:1001CA0002640AEF01F0F00E0214D8A4F5EF00F071
:1001DA00023A01380F0B02260138F00B016E0E8429
:1001EA00D89002BE8AEF00F0013602360E2A02BE0D
:1001FA008AEF00F0013602360E2A02BE8AEF00F0BC
:10020A00013602360E2A8AEF00F001C002F0016AB6
:10021A00000E0E8602643AEF01F0F00E0214D8A422
:10022A0019EF01F0023A0E84D89002BE8AEF00F06C
:10023A0002360E2A02BE8AEF00F002360E2A02BEEB
:10024A008AEF00F002360E2A8AEF00F0010E0C6ED9
:10025A000EDF3DEF01F0020E0C6E16DF3DEF01F0EE
:10026A00040E0C6EF8DE3DEF01F0080E0C6EECDEAB
:02027A00120070
:10027C000B800BAE4AEF01F0026A0AAEFF0E026E63
:0C028C00016E006E0A360232FF0E1200F6
:080298000B6A0B86FF0E120039
:0C02A0000E0E0D6E0D2EFED70000120099
:0E02AC00ACB202D00000FCD739C0ADFF12008A
:1002BA003D6A050E3D5C0AE23D503B24E16E000EAC
:1002CA003C20E26E200EE66E3D2AF3D73D503B24D9
:1002DA00E16E000E3C20E26EE66A3D063D503B248C
:1002EA003E6E000E3C203F6E0A0E046E000E056E36
:1002FA0039C000F03AC001F08CDE08C000F009C035
:10030A0001F0300E00263EC0E1FF3FC0E2FF00C010
:10031A00E6FF0A0E046E000E056E39C000F03AC000
:10032A0001F077DE00C039F001C03AF0000E011882
:10033A0002E1000E001801E102D03D06CFD71200FB
:10034A000C6A0E6A0250D8A4BEEF01F001C002F096
:10035A0000C001F0006A0E860250D8A4BEEF01F078
:10036A0001C002F0016A0E960E880250D8B4D0EF8E
:10037A0001F00E50035ED8A4D8A0D5EF01F0D890B2
:10038A0002BEDAEF01F0003601360236032EC5EF5F
:10039A0001F0D5EF01F0010E0C6E56DEDDEF01F033
:1003AA00020E0C6E64DEDDEF01F0040E0C6E6CDEE4
:0203BA0012002F
:1003BC000B6A0C6A0A6A0350D8B413EF02F00A9E57
:1003CC00028E860E035E03BEF1EF01F0D8B4F1EF9E
:1003DC0001F016EF02F0036C080E035CD8A0FFEFDF
:1003EC0001F0036E0236026A0350D8A4D89008EFCD
:1003FC0002F00350D8B408EF02F0D8900232032E6A
:10040C0003EF02F00BBC02A013EF02F0D8A013EF25
:10041C0002F0022AD8B41DEF02F0016A22EF02F0BA
:10042C000B800BAE26EF02F0016A26EF02F0010EF4
:10043C000C6E1EDF28EF02F0000E0C6E28EF02F09F
:0A044C00FF0E0C6E0250006E12004D
:10045600AC0E1F6E020E206E390E216E000E226E3D
:10046600FF0E2B6EFF0E2C6E000E2D6E000E2E6EE6
:10047600FF0E276EFF0E286E000E296E000E2A6EE6
:10048600FF0E236EFF0E246E000E256E000E266EE6
:10049600AC8A900EAB6E948E949C9EAA03D0AECF7F
:0604A60000F0FBD712007C
:1004AC00C26A070EC012C08E2FC000F0003600903A
:1004BC00003600900050C212C280ECDEC282C2A292
:1004CC0001D0FDD7C4CF01F0006AC3500012000E5A
:0604DC000112C2901200A3
:1004E200356A366A2FC037F030C038F0800E3018C7
:1004F200006E800E005C02E1000E2F5C0BE2010E2A
:10050200356E000E366E2F500008376E30C038F050
:10051200000E385637C039F038C03AF031C03BF0DF
:1005220032C03CF0C9DE060E336E000E346E000E91
:10053200006E3450005C02E13350000819E233507F
:100542003124E16E34503220E26E010E335C006ED3
:10055200000E3458016E00503124E96E01503220F1
:10056200EA6EEECFE6FF010E335E000E345ADFD79D
:1005720031C0E1FF32C0E2FF200EE66E3550361088
:100582001AE0336A346A33503124E96E345032202F
:10059200EA6EEE50200A03E1334A342AF4D7010E00
:1005A200335E000E345A33503124E16E345032201F
:0805B200E26E2D0EE66E120050
:1005BA00086A096A000E0762036462EF03F00250D8
:1005CA0006180A6E075003267E0ED8A0F3EF02F033
:1005DA00035ED8B066EF03F0F7EF02F0035ED8A02F
:1005EA006AEF03F0028E068E02C00EF001C00BF015
:1005FA0000C00DF000500402F4CF0CF001500502C7
:10060A00F4CF00F0F3CF08F00402F3500C26F450B4
:10061A000822000E00220D500502F3500C26F45059
:10062A000822000E002202500402F3500826F45059
:10063A00002202500502016A000E0122F350002630
:10064A00F45001220D500602F3500826F4500022FD
:10065A00026A000E012202220B500602F350002603
:10066A00F4500122000E02220E500602F350012617
:10067A00F450022202BE4AEF03F008360036013671
:10068A0002360306D8B46AEF03F05DEF03F0D880B0
:10069A00800E08640030000E002201220222D8A037
:1006AA005DEF03F0023201320032034A66EF03F0D3
:1006BA000AAE029E000E6CEF03F0010EC5DC6CEF71
:1006CA0003F0020EC8DC6CEF03F0040ED0DC12005B
:1006DA00326A2FC0E9FF30C0EAFFEECF31F0315065
:1006EA00000A0DE031C039F0DCDD322A32502F2405
:1006FA00E96E000E3020EA6EEECF31F0F0D712002C
:10070A0000C008F00150006E016A026A036A0B6AAF
:10071A000C6A016A026A036A960E036E0A6A00AEDE
:10072A009DEF03F0081E001E082AD8B4002A0A8E7C
:10073A0000C001F008C000F0086A026A01DE120077
:10074A000900F5CFE6FF0006FBE10106F9E1120018
:0E075A000D0E396EA6DD0A0E396EA3DD1200FB
:1007680000C008F00B6A0C6A9E0E036E0A6A026AE1
:0C077800016A006A020E0C6E8CDC12009C
:100784000450000A12E10550000A0FE10650000A65
:100794000CE10750000A09E1FF0E006EFF0E016E26
:1007A4007F0E026EFF0E036E1200086A096A07507C
:1007B400D8B46DEF04F00350D8B471EF04F00250D4
:1007C40006180A6E028E068E0E6A02C008F001C078
:1007D4000CF000C00DF004500D5E0550D8A0053C8F
:1007E4000C5E0650D8A0063C085E086A0C6A0D6AC6
:1007F400D8A004EF04F0D89002320132003208325B
:10080400010E0E6E0750035ED8A011EF04F07E0EA9
:100814000E240326D8B076EF04F017EF04F07E0E12
:100824000E240326D8A07BEF04F0180E0B6E0D36B1
:100834000C3608360036013602360E360450005E99
:100844000550D8A0053C015E0650D8A0063C025EC7
:1008540006340E120EA032EF04F00D803DEF04F0CA
:10086400045000260550D8B0053C01260650D8B0E7
:10087400062802260D900B2E19EF04F063EF04F006
:10088400D8900036013602360E360450005E05500C
:10089400D8A0053C015E0650D8A0063C025E063492
:1008A4000E10010B0D26D8B00C2AD8B4082AD8A4EF
:1008B40063EF04F008320C320D32032AD8B476EF19
:1008C40004F00AAE089E0850026E0C50016E0D50E2
:1008D400006E7EEF04F0010EDDDC7EEF04F0020E0C
:1008E40029EC00F07EEF04F0040E30EC00F07EEF13
:0A08F40004F0080E3CEC00F01200C6
:1008FE000A6A0350D8A40A800750D8A40A820A5064
:10090E00D8B4E2EF04F0030AD8B49BEF04F00AB0B7
:10091E0096EF04F006AEE0EF04F0DEEF04F002AE68
:10092E00DEEF04F0E0EF04F00250800B0A6E029E40
:10093E000650800B069E0A18D8B4ACEF04F00A508D
:10094E00D8B4DEEF04F0E0EF04F00750035CD8B447
:10095E00B6EF04F0D8A0D2EF04F0D8EF04F00650B2
:10096E00025CD8B4C0EF04F0D8A0D2EF04F0D8EFF8
:10097E0004F00550015CD8B4CAEF04F0D8A0D2EF51
:10098E0004F0D8EF04F00450005CD8B4E2EF04F0A9
:10099E00D8B0D8EF04F00A52D8B4E0EF04F0DEEF8E
:1009AE0004F00A52D8B4DEEF04F0E0EF04F0D88081
:0E09BE001200D8901200D880D88412001200C7
:1009CC00190EAF6EAC8441DDF00E936E0F0EC16E3E
:1009DC00816A2F6A65DD00C01DF001C01EF08FDE3C
:1009EC00000E046E000E056E200E066E810E076E54
:1009FC00DEDD000E046E000E056E000E066E890E16
:100A0C00076EBADE000E046E000E056E480E066E02
:100A1C00850E076ECCDDCCDC00C01CF09FDE00C068
:100A2C0004F001C005F002C006F003C007F0000E90
:100A3C00006E000E016E400E026E830E036E59DFC7
:100A4C00000ED8B0010E006E005202E0080E816E4E
:100A5C001CC000F083DE00C004F001C005F002C031
:100A6C0006F003C007F0000E006E000E016E400E83
:100A7C00026E830E036E3DDF010ED8B0000E006EC9
:100A8C0000521CE01CC000F069DE00C004F001C084
:100A9C0005F002C006F003C007F0000E006E000E59
:100AAC00016E040E026E840E036E23DF000ED8B0AE
:100ABC00010E006E005202E00C0E816E1CC000F0A4
:100ACC004DDE00C004F001C005F002C006F003C00A
:100ADC0007F0000E006E000E016E040E026E840E06
:100AEC00036E07DF010ED8B0000E006E00521CE042
:100AFC001CC000F033DE00C004F001C005F002C0E1
:100B0C0006F003C007F0000E006E000E016E2C0EF6
:100B1C00026E840E036EEDDE000ED8B0010E006E78
:100B2C00005202E00E0E816E1CC000F017DE00C0F9
:100B3C0004F001C005F002C006F003C007F0000E7F
:100B4C00006E000E016E2C0E026E840E036ED1DE52
:100B5C00010ED8B0000E006E00521CE01CC000F05C
:100B6C00FDDD00C004F001C005F002C006F003C0BA
:100B7C0007F0000E006E000E016E320E026E850E36
:100B8C00036EB7DE000ED8B0010E006E005202E00C
:100B9C000F0E816E1CC02FF0000E306E150E316ED4
:100BAC00000E326E98DC150E2F6E000E306E8FDD3F
:060BBC00CEDD0FD7FFD7CC
:020000040030CA
:0D000100021F1EFF8381FF0FC00FE00F40A4
:00000001FF
