:1000000010EF23F00000000000EF00F000000000FF
:0A0010000000000000000000F3D71C
:10001C000B820BAE18EF00F00368026801680068F1
:08002C000A360232FF0E120039
:0E003400026A016A006A086A036A000E12007E
:080042000AAE029E000E12003E
:10004A000B840BAE30EF00F0010E036E026A016AF8
:0A005A00006A0A360232FF0E12009F
:100064000CB074EF00F00CA21AEF01F00E6A000E4F
:1000740002648BEF00F0F00E0214D8A456EF00F0E7
:10008400023A01380F0B02260138F00B016E0038DA
:100094000F0B01260038F00B006E08380F0B0026FA
:1000A4000838F00B086E0E84D89002BE6FEF00F093
:1000B40008360036013602360E2A02BE6FEF00F013
:1000C40008360036013602360E2A02BE6FEF00F003
:1000D40008360036013602360E2A0E50036410EF3D
:1000E40001F0035E0BBC08AE15EF01F0D880800E62
:1000F40008640030000E002201220222D8A015EF6D
:1001040001F0023201320032034A1AEF01F015EF16
:1001140001F001C002F000C001F008C000F0086A5C
:10012400000E0E860264C2EF00F0F00E0214D8A492
:10013400AAEF00F0023A01380F0B02260138F00B47
:10014400016E00380F0B01260038F00B006E0E8490
:10015400D89002BE6FEF00F00036013602360E2A48
:1001640002BE6FEF00F00036013602360E2A02BEE0
:100174006FEF00F00036013602360E2A6FEF00F002
:1001840001C002F000C001F0006A000E0E960E8855
:100194000264EFEF00F0F00E0214D8A4DAEF00F0DE
:1001A400023A01380F0B02260138F00B016E0E845F
:1001B400D89002BE6FEF00F0013602360E2A02BE5E
:1001C4006FEF00F0013602360E2A02BE6FEF00F028
:1001D400013602360E2A6FEF00F001C002F0016A08
:1001E400000E0E8602641FEF01F0F00E0214D8A474
:1001F400FEEF00F0023A0E84D89002BE6FEF00F0DA
:1002040002360E2A02BE6FEF00F002360E2A02BE3C
:100214006FEF00F002360E2A6FEF00F0010E0C6E45
:1002240012DF22EF01F0020E0C6E09DF22EF01F063
:10023400040E0C6EF1DE22EF01F0080E0C6EF8DEF7
:020244001200A6
:080246000B6A0B86FF0E12008B
:0A024E00210E0D6E0D2EFED71200DA
:100258000D6A086A0050D8B4000C04180A6E0ABE69
:100268000D1E0B6A04AE02D0041E042A00A002D0A0
:10027800001E002A005004100A6E0ABE1FD0045047
:10028800085E003600340836045008260036060E8C
:100298000C6E00340836045000B0085E00A0082632
:1002A80000360C2EF6D700A008260BB015D00DAEE0
:1002B800000C001E002A081E082A000C04AE09D0F3
:1002C80000BE04D00050086E006AF1D7006A002A08
:1002D800000C001E0B2AD3D7082A0450085CD8A4A7
:0E02E800E6D7086A002A00AEE2D7FF0C12002B
:1002F600086A096A000E0762036400EF02F0025002
:1003060006180A6E075003267E0ED8A091EF01F05C
:10031600035ED8B004EF02F095EF01F0035ED8A0BB
:1003260008EF02F0028E068E02C00EF001C00BF03E
:1003360000C00DF000500402F4CF0CF0015005028D
:10034600F4CF00F0F3CF08F00402F3500C26F4507B
:100356000822000E00220D500502F3500C26F45020
:100366000822000E002202500402F3500826F45020
:10037600002202500502016A000E0122F3500026F7
:10038600F45001220D500602F3500826F4500022C4
:10039600026A000E012202220B500602F3500026CA
:1003A600F4500122000E02220E500602F3500126DE
:1003B600F450022202BEE8EF01F00836003601369C
:1003C60002360306D8B408EF02F0FBEF01F0D8803E
:1003D600800E08640030000E002201220222D8A0FE
:1003E600FBEF01F0023201320032034A04EF02F061
:1003F6000AAE029E000E0AEF02F0010E18DE0AEFA8
:1004060002F0020E08DE0AEF02F0040E1BDE1200F6
:100416000F0E0C6E470E0D6E0D2EFED70C2EFCD752
:06042600000000001200BE
:10042C00025006180E6E086A096A0B6A03500764BC
:10043C0009EF03F006500A6E068E028E03500B6E07
:10044C000750036E000E0B6459EF02F00B50075E61
:10045C00D8B4FAEF02F0070E0764C8EF02F0075E9B
:10046C0000C008F001C000F002C001F0026A074EA3
:10047C00FAEF02F007649DEF02F0075E00C008F08F
:10048C0001C000F0016A074EFAEF02F007647BEF3F
:10049C0002F0075E00C008F0006A074EFAEF02F0A7
:1004AC00076462EF02F00AC002F005C001F004C05C
:1004BC0000F0086A24EF04F0030E07646DEF02F0FD
:1004CC00075E08380F0B086E074EFAEF02F0D89053
:1004DC000832074EFAEF02F0D8900832074EFAEFC6
:1004EC0002F0D8900832FAEF02F0030E07648CEF9A
:1004FC0002F0075E08380F0B086E0038F00B082668
:10050C0000380F0B006E074EFAEF02F0D890003255
:10051C000832074EFAEF02F0D89000320832074E3C
:10052C00FAEF02F0D89000320832FAEF02F0030E24
:10053C000764B4EF02F0075E08380F0B086E003842
:10054C00F00B082600380F0B006E0138F00B00265C
:10055C0001380F0B016E074EFAEF02F0D890013202
:10056C0000320832074EFAEF02F0D8900132003216
:10057C000832074EFAEF02F0D890013200320832FE
:10058C00FAEF02F0030E0764E5EF02F0075E08389D
:10059C000F0B086E0038F00B082600380F0B006E9E
:1005AC000138F00B002601380F0B016E0238F00BEE
:1005BC00012602380F0B026E074EFAEF02F0D890AC
:1005CC000232013200320832074EFAEF02F0D890B4
:1005DC000232013200320832074EFAEF02F0D890A4
:1005EC000232013200320832096A000E0EAEEEEF12
:1005FC0003F0081E001E011E021E082A0022012202
:10060C000222EEEF03F00750D8A40FEF03F024EF13
:10061C0004F0096A02C00AF0028E068E0750035CD1
:10062C00076ED8B4E1EF03F0070E0764AFEF03F0E9
:10063C00075E0450096E0550046E0650056E066A7E
:10064C00074EE1EF03F0070E076484EF03F0075E3B
:10065C000450096E0550046E056A074EE1EF03F075
:10066C00070E076462EF03F0075E0450096E046A1C
:10067C00074EE1EF03F0070E076449EF03F00AC0E1
:10068C0002F024EF04F0030E076454EF03F0075E4E
:10069C0009380F0B096E074EE1EF03F0D8900932C1
:1006AC00074EE1EF03F0D8900932074EE1EF03F06B
:1006BC00D8900932E1EF03F0030E076473EF03F0F7
:1006CC00075E09380F0B096E0438F00B0926043845
:1006DC000F0B046E074EE1EF03F0D8900432093291
:1006EC00074EE1EF03F0D89004320932074EE1EFE8
:1006FC0003F0D89004320932E1EF03F0030E0764E3
:10070C009BEF03F0075E09380F0B096E0438F00BF2
:10071C00092604380F0B046E0538F00B0426053837
:10072C000F0B056E074EE1EF03F0D8900532043243
:10073C000932074EE1EF03F0D8900532043209324A
:10074C00074EE1EF03F0D890053204320932E1EFA5
:10075C0003F0030E0764CCEF03F0075E09380F0BB0
:10076C00096E0438F00B092604380F0B046E05389B
:10077C00F00B042605380F0B056E0638F00B05261A
:10078C0006380F0B066E074EE1EF03F0D8900632D9
:10079C00053204320932074EE1EF03F0D8900632ED
:1007AC00053204320932074EE1EF03F0D8900632DD
:1007BC00053204320932086A000E0EAEEEEF03F079
:1007CC00091E041E051E061E092A042205220622E5
:1007DC00095008260450002205500122065002221E
:1007EC000EBE05EF04F0D8A014EF04F00232013273
:1007FC0000320832033E14EF04F01EEF04F0D8B0C0
:10080C0019EF04F0000E081E001E011E021E082A1D
:10081C000022012202220A7E19EF04F0010E0C6E56
:10082C001BDC26EF04F0020E0C6E16DC26EF04F037
:10083C00040E0C6E0EEC00F026EF04F0000E0C6EA5
:02084C00120098
:10084E00086A080E0C6E003408360450085ED8B0E4
:0E085E0002D00826D89000360C2EF5D71200D6
:06086C0000000000120074
:100872000B800BAE45EF04F0026A0AAEFF0E026E69
:0C088200016E006E0A360232FF0E1200FA
:10088E000134083609360450085E0550D8A0053CE0
:10089E00095E003601360F0E0C6E0134083609362D
:1008AE00045000A006D0085E0550D8A0053C095E95
:1008BE0005D008260550D8B0053C0926003601366D
:1008CE000C2EEBD700B006D0045008260550D8B039
:0808DE00053C09260000120090
:1008E6000B6A0C6A086A0350D8B4F7EF04F002C02A
:1008F6000AF0028E9E0E035E03AEE7EF04F0036C71
:10090600080E035CD8A0B4EF04F0036E083600C0EE
:1009160008F001C000F002C001F0026A080E035C94
:10092600D8A0B4EF04F0036E083600C008F001C08A
:1009360000F0016A080E035CD8A0B4EF04F0036E61
:10094600083600C008F0006A080E035CD8A0B4EFB1
:1009560004F0036E0836086A0350D8A4D890C0EF96
:1009660004F00350D8B4C0EF04F0D890023201323C
:1009760000320832032EB8EF04F00BBC08A0D1EF0A
:1009860004F0D8A0D1EF04F0082AD8B4002AD8B4CD
:10099600012AD8B4022A02BEFBEF04F00AAEF7EF32
:1009A60004F0021E011E001E081E082AD8B4002AE2
:1009B600D8B4012AD8B4022AF7EF04F0026A016A11
:1009C600006A086AF7EF04F00B800BAE01EF05F042
:1009D600026A0AAE01EF05F0026E016E006E086E45
:1009E6000A36023201EF05F00C6A000E02EF05F03E
:1009F600010E0C6E000E3ADF02EF05F0FF0E0250FC
:100A0600036E0150026E0050016E0850006E120017
:100A1600010102BF02D0839E01D0838E02BD02D0A7
:100A2600839C01D0838C02BB02D0839A01D0838A37
:100A360002B902D0839801D08388000195B102D013
:100A4600848001D0849084820EDF8492010102B7F3
:100A560002D0839E01D0838E02B502D0839C01D042
:100A6600838C02B302D0839A01D0838A02B102D06A
:100A7600839801D08388000195B102D0848001D08B
:100A860084908482F0DE849295A102D0C1DC02D0EB
:060A960027EC01F0120044
:100A9C000450000A08E10550000A05E1FF0E006E43
:100AAC007F0E016E12000D6A096A086A015000106F
:100ABC00D8B4000C015005180A6E0ABE0D1E0B6A44
:100ACC0005AE05D0041E051E042AD8B4052A01AEB5
:100ADC0005D0001E011E002AD8B4012A01500510B1
:100AEC000A6E0ABE10D0CDDE0BB020D00DAE000CBD
:100AFC00001E011E002AD8B4012A081E091E082A4D
:100B0C00D8B4092A000C05AE0DD001BE07D0015097
:100B1C00096E0050086E016A006AE8D7016A006A23
:100B2C00002A000C011E001E0B2ADDD7082AD8B49F
:100B3C00092A0450085CD8A4D9D70550095CD8A45C
:100B4C00D5D7096A086A002AD8B4012A01AECED7D3
:060B5C000000FF0C120076
:100B620003500718D8A4C5EF05F002500618D8A400
:100B7200C5EF05F001500518D8A4C5EF05F00050E7
:0E0B82000418D8B4D8841200D89412001200BF
:100B90000B6A0C6A0A6A086A0350D8B450EF06F070
:100BA000028E9E0E035E03BEDBEF05F0D8B4DBEFD2
:100BB00005F040EF06F0036C080E035CD8A00DEFC3
:100BC00006F0036E083600C008F001C000F002C055
:100BD00001F0026A080E035CD8A00DEF06F0036E68
:100BE000083600C008F001C000F0016A080E035C7E
:100BF000D8A00DEF06F0036E083600C008F0006ABA
:100C0000080E035CD8A00DEF06F0036E0836086AE4
:100C10000350D8A4D89019EF06F00350D8B419EFB8
:100C200006F0D8900232013200320832032E11EF62
:100C300006F00BBC08A02AEF06F0D8A02AEF06F0B9
:100C4000082AD8B4002AD8B4012AD8B4022A02BE8D
:100C500054EF06F00AAE50EF06F0021E011E001E11
:100C6000081E082AD8B4002AD8B4012AD8B4022A07
:100C700050EF06F0026A016A006A086A50EF06F057
:100C80000B800BAE59EF06F0026A0AAE59EF06F080
:100C9000026E016E006E086E0A36023259EF06F0DF
:100CA000000E0C6A5AEF06F0010E0C6EE2DD5AEFF0
:100CB00006F0FF0E0250036E0150026E0050016EEE
:060CC0000850006E120056
:080CC600067E16EC02F012009C
:100CCE000B6A0A6A096A00500402F4CF09F0F3CFE6
:100CDE0008F001500502F4CF0BF0F3CF0AF00050EC
:100CEE000502F3500926F4500A22E86A0B2201503D
:100CFE000402F3500926F4500A22E86A0B2208C0B7
:100D0E0000F009C001F00AC002F00BC003F012009F
:100D1E000A6A0350D8A40A800750D8A40A820A503F
:100D2E00D8B4F2EF06F0030AD8B4ABEF06F00AB06F
:100D3E00A6EF06F006AEF0EF06F0EEEF06F002AE0E
:100D4E00EEEF06F0F0EF06F00250800B0A6E029EF8
:100D5E000650800B069E0A18D8B4BCEF06F00A5057
:100D6E00D8B4EEEF06F0F0EF06F00750035CD8B4FF
:100D7E00C6EF06F0D8A0E2EF06F0E8EF06F0065058
:100D8E00025CD8B4D0EF06F0D8A0E2EF06F0E8EFA0
:100D9E0006F00550015CD8B4DAEF06F0D8A0E2EF09
:100DAE0006F0E8EF06F00450005CD8B4F2EF06F05F
:100DBE00D8B0E8EF06F00A52D8B4F0EF06F0EEEF36
:100DCE0006F00A52D8B4EEEF06F0F0EF06F0D88037
:0E0DDE001200D8901200D880D88412001200A3
:100DEC000050086E0150006E0250016E0350026EEE
:100DFC00036A0B6A0C6A9E0E036E0A6A020E0C6E74
:060E0C0032EC00F01200C0
:100E1200086A096A100E0C6E01340836093604504D
:100E2200085E0550D8A0053C095ED8B007D0045032
:100E320008260550D8B0053C0926D8900036013660
:060E42000C2EEAD712009D
:100E4800C7B409D01F0EC514016E0150000A03E192
:0A0E5800010E006E1200006A120085
:100E620001010251390806E3300E025D03E3010E6F
:080E7200006E01D0006A1200BD
:100E7A00800E01010219006E800E000A005CD8B0D3
:100E8A006DD102510008016E01C002F1800E0118F5
:100E9A00006E800E6E0A005CD8A0C0D0640E046E8C
:100EAA0002C100F02CEC01F0120E0024056E000EB7
:100EBA0000BEFF0E066E000E062205C000F006C038
:100ECA0001F0000E06BEFF0E026E036E00360090A1
:100EDA0001360236033600360090013602360336F2
:100EEA001B0E0024F66E4C0E0120F76E000E022037
:100EFA00F86E0900F5CF03F10900F5CF04F10900F6
:100F0A00F5CF05F10900F5CF06F1640E046E02C1B2
:100F1A0000F02CEC01F008C000F00A0E046E2CEC74
:100F2A0001F0090E0024056E000E00BEFF0E066ECB
:100F3A00000E062205C000F006C001F0000E06BE33
:100F4A00FF0E026E036E003600900136023603363B
:100F5A00003600900136023603361B0E0024F66E68
:100F6A004C0E0120F76E000E0220F86E0900F5CF34
:100F7A0000F00900F5CF01F00900F5CF02F00900F1
:100F8A00F5CF03F003C104F004C105F005C106F072
:100F9A0006C107F07BEC01F000C003F101C004F1C7
:100FAA0002C005F103C006F10A0E046E02C100F088
:100FBA002CEC01F008C000F000C001F0000E00BEE9
:100FCA00FF0E026E036E046E01360190023603367E
:100FDA000436013601900236033604361B0E01240C
:100FEA00F66E4C0E0220F76E000E0320F86E090012
:100FFA00F5CF00F00900F5CF01F00900F5CF02F0B6
:10100A000900F5CF03F003C104F004C105F005C1DE
:10101A0006F006C107F07BEC01F01200800E0A0A06
:10102A00006E800E0219005C71E20A0E046E02C1A3
:10103A0000F02CEC01F0090E0024056E000E00BE33
:10104A00FF0E066E000E062205C000F006C001F073
:10105A00000E06BEFF0E026E036E003600900136C9
:10106A0002360336003600900136023603361B0E6E
:10107A000024F66E4C0E0120F76E000E0220F86E68
:10108A000900F5CF03F10900F5CF04F10900F5CF06
:10109A0005F10900F5CF06F10A0E046E02C100F04F
:1010AA002CEC01F008C000F000C001F0000E00BEF8
:1010BA00FF0E026E036E046E01360190023603368D
:1010CA000436013601900236033604361B0E01241B
:1010DA00F66E4C0E0220F76E000E0320F86E090021
:1010EA00F5CF00F00900F5CF01F00900F5CF02F0C5
:1010FA000900F5CF03F003C104F004C105F005C1EE
:10110A0006F006C107F07BEC01F0120002C100F004
:10111A00000E02BFFF0E016E026E036E00360090D3
:10112A00013602360336003600900136023603369F
:10113A001B0E0024F66E4C0E0120F76E000E0220E4
:10114A00F86E0900F5CF00F00900F5CF01F00900AB
:10115A00F5CF02F00900F5CF03F01200800E021954
:10116A00006E800E6E0A005CD8A0C0D0640E046EB9
:10117A0002C100F02CEC01F0120E0024056E000EE4
:10118A0000BEFF0E066E000E062205C000F006C065
:10119A0001F0000E06BEFF0E026E036E00360090CE
:1011AA00013602360336003600900136023603361F
:1011BA00E70E0024F66E4B0E0120F76E000E022099
:1011CA00F86E0900F5CF03F10900F5CF04F1090023
:1011DA00F5CF05F10900F5CF06F1640E046E02C1E0
:1011EA0000F02CEC01F008C000F00A0E046E2CECA2
:1011FA0001F0090E0024056E000E00BEFF0E066EF9
:10120A00000E062205C000F006C001F0000E06BE60
:10121A00FF0E026E036E0036009001360236033668
:10122A0000360090013602360336E70E0024F66EC9
:10123A004B0E0120F76E000E0220F86E0900F5CF62
:10124A0000F00900F5CF01F00900F5CF02F009001E
:10125A00F5CF03F003C104F004C105F005C106F09F
:10126A0006C107F07BEC01F000C003F101C004F1F4
:10127A0002C005F103C006F10A0E046E02C100F0B5
:10128A002CEC01F008C000F000C001F0000E00BE16
:10129A00FF0E026E036E046E0136019002360336AB
:1012AA00043601360190023603360436E70E01246D
:1012BA00F66E4B0E0220F76E000E0320F86E090040
:1012CA00F5CF00F00900F5CF01F00900F5CF02F0E3
:1012DA000900F5CF03F003C104F004C105F005C10C
:1012EA0006F006C107F07BEC01F01200800E0A0A34
:1012FA00006E800E0219005C71E20A0E046E02C1D1
:10130A0000F02CEC01F0090E0024056E000E00BE60
:10131A00FF0E066E000E062205C000F006C001F0A0
:10132A00000E06BEFF0E026E036E003600900136F6
:10133A000236033600360090013602360336E70ECF
:10134A000024F66E4B0E0120F76E000E0220F86E96
:10135A000900F5CF03F10900F5CF04F10900F5CF33
:10136A0005F10900F5CF06F10A0E046E02C100F07C
:10137A002CEC01F008C000F000C001F0000E00BE25
:10138A00FF0E026E036E046E0136019002360336BA
:10139A00043601360190023603360436E70E01247C
:1013AA00F66E4B0E0220F76E000E0320F86E09004F
:1013BA00F5CF00F00900F5CF01F00900F5CF02F0F2
:1013CA000900F5CF03F003C104F004C105F005C11B
:1013DA0006F006C107F07BEC01F0120002C100F032
:1013EA00000E02BFFF0E016E026E036E0036009001
:1013FA0001360236033600360090013602360336CD
:10140A00E70E0024F66E4B0E0120F76E000E022046
:10141A00F86E0900F5CF00F00900F5CF01F00900D8
:0C142A00F5CF02F00900F5CF03F012002E
:101436000B6A0A6A096A086A0E6A03340836045097
:10144600085E0550D8A0053C095E0650D8A0063CAB
:101456000A5E0750D8A0073C0B5EE86AD8A0010ECA
:101466000E5E0336070E0C6E0334083609360A364E
:101476000B360E36045003A012D0085E0550D8A0D5
:10148600053C095E0650D8A0063C0A5E0750D8A067
:10149600073C0B5EE86AD8A0010E0E5E11D0082646
:1014A6000550D8B0053C09260650D8B0063C0A2699
:1014B6000750D8B0073C0B26E86AD8B0010E0E26B6
:1014C60003360C2ED1D70234083609360A360B36C7
:1014D6000E36045003A012D0085E0550D8A0053C75
:1014E600095E0650D8A0063C0A5E0750D8A0073C05
:1014F6000B5EE86AD8A0010E0E5E11D008260550D4
:10150600D8B0053C09260650D8B0063C0A26075036
:10151600D8B0073C0B26E86AD8B0010E0E26023674
:10152600070E0C6E0234083609360A360B360E36AE
:10153600045002A012D0085E0550D8A0053C095EF2
:101546000650D8A0063C0A5E0750D8A0073C0B5EA2
:10155600E86AD8A0010E0E5E11D008260550D8B054
:10156600053C09260650D8B0063C0A260750D8B0D6
:10157600073C0B26E86AD8B0010E0E2602360C2E62
:10158600D1D70134083609360A360B360E360450E2
:1015960002A012D0085E0550D8A0053C095E065090
:1015A600D8A0063C0A5E0750D8A0073C0B5EE86A46
:1015B600D8A0010E0E5E11D008260550D8B0053C05
:1015C60009260650D8B0063C0A260750D8B0073C74
:1015D6000B26E86AD8B0010E0E260136070E0C6EF1
:1015E6000134083609360A360B360E36045001A089
:1015F60012D0085E0550D8A0053C095E0650D8A05A
:10160600063C0A5E0750D8A0073C0B5EE86AD8A0E5
:10161600010E0E5E11D008260550D8B0053C0926ED
:101626000650D8B0063C0A260750D8B0073C0B2611
:10163600E86AD8B0010E0E2601360C2ED1D700343A
:10164600083609360A360B360E36045001A012D07B
:10165600085E0550D8A0053C095E0650D8A0063C99
:101666000A5E0750D8A0073C0B5EE86AD8A0010EB8
:101676000E5E11D008260550D8B0053C0926065046
:10168600D8B0063C0A260750D8B0073C0B26E86AB5
:10169600D8B0010E0E260036070E0C6E0034083642
:1016A60009360A360B360E36045000A012D0085EF4
:1016B6000550D8A0053C095E0650D8A0063C0A5E37
:1016C6000750D8A0073C0B5EE86AD8A0010E0E5E54
:1016D60011D008260550D8B0053C09260650D8B0CA
:1016E600063C0A260750D8B0073C0B26E86AD8B055
:1016F600010E0E2600360C2ED1D700B00ED00450A7
:1017060008260550D8B0053C09260650D8B0063C38
:0C1716000A260750D8B0073C0B26120032
:101722000450000A12E10550000A0FE10650000AB7
:101732000CE10750000A09E1FF0E006EFF0E016E78
:101742007F0E026EFF0E036E1200086A096A0750CE
:10175200D8B43CEF0CF00350D8B441EF0CF0025077
:1017620006180A6E028E068E0E6A02C008F001C0CA
:101772000CF000C00DF004500D5E0550D8A0053CE1
:101782000C5E0650D8A0063C085E086A0C6A0D6A18
:10179200D8A0D3EF0BF0D8900232013200320832D7
:1017A200010E0E6E0750035ED8A0E0EF0BF07E0E26
:1017B2000E240326D8B046EF0CF0E6EF0BF07E0EB7
:1017C2000E240326D8A04BEF0CF0180E0B6E0D362C
:1017D2000C3608360036013602360E360450005EEC
:1017E2000550D8A0053C015E0650D8A0063C025E1A
:1017F20006340E120EA001EF0CF00D800CEF0CF06F
:10180200045000260550D8B0053C01260650D8B039
:10181200062802260D900B2EE8EF0BF032EF0CF0AB
:10182200D8900036013602360E360450005E05505E
:10183200D8A0053C015E0650D8A0063C025E0634E4
:101842000E10010B0D26D8B00C2AD8B4082AD8A441
:1018520032EF0CF008320C320D32032AD8B446EFC4
:101862000CF00AAE089E0850026E0C50016E0D502C
:10187200006E4EEF0CF0010E23EC01F04EEF0CF077
:10188200020E1AEC00F04EEF0CF0040E0EEC00F01B
:0C1892004EEF0CF0080E25EC00F01200E8
:10189E006E0E0101025DD8A0CAD0640E046E02C1A4
:1018AE0000F027EC04F0120E0024056E066A000EFE
:1018BE00062205C000F006C001F0000E06BEFF0EA7
:1018CE00026E036E00360090013602360336003685
:1018DE0000900136023603361B0E0024F66E4C0EB7
:1018EE000120F76E000E0220F86E0900F5CF00F011
:1018FE000900F5CF01F00900F5CF02F00900F5CF90
:10190E0003F0000E046E000E056E000E066E7E0EC7
:10191E00076E7BEC01F000C003F101C004F102C0C0
:10192E0005F103C006F1640E046E02C100F027EC4F
:10193E0004F008C000F00A0E046E27EC04F0090E45
:10194E000024056E066A000E062205C000F006C0D1
:10195E0001F0000E06BEFF0E026E036E0036009002
:10196E000136023603360036009001360236033653
:10197E001B0E0024F66E4C0E0120F76E000E022098
:10198E00F86E0900F5CF00F00900F5CF01F009005F
:10199E00F5CF02F00900F5CF03F003C104F004C146
:1019AE0005F005C106F006C107F07BEC01F000C0A2
:1019BE0003F101C004F102C005F103C006F10A0EE5
:1019CE00046E02C100F027EC04F008C000F000C065
:1019DE0001F0000E026E036E046E013601900236A7
:1019EE0003360436013601900236033604361B0EDA
:1019FE000124F66E4C0E0220F76E000E0320F86ED8
:101A0E000900F5CF00F00900F5CF01F00900F5CF80
:101A1E0002F00900F5CF03F003C104F004C105F094
:101A2E0005C106F006C107F07BEC01F01200025171
:101A3E000A087EE20A0E046E02C100F027EC04F0E2
:101A4E00090E0024056E066A000E062205C000F07F
:101A5E0006C001F0000E06BEFF0E026E036E0036CB
:101A6E0000900136023603360036009001360236FB
:101A7E0003361B0E0024F66E4C0E0120F76E000E80
:101A8E000220F86E0900F5CF00F00900F5CF01F045
:101A9E000900F5CF02F00900F5CF03F0000E046E39
:101AAE00000E056E000E066E7E0E076E7BEC01F0CC
:101ABE0000C003F101C004F102C005F103C006F13C
:101ACE000A0E046E02C100F027EC04F008C000F00C
:101ADE0000C001F0000E026E036E046E013601901E
:101AEE0002360336043601360190023603360436CA
:101AFE001B0E0124F66E4C0E0220F76E000E032014
:101B0E00F86E0900F5CF00F00900F5CF01F00900DD
:101B1E00F5CF02F00900F5CF03F003C104F004C1C4
:101B2E0005F005C106F006C107F07BEC01F01200CE
:101B3E0002C100F0000E016E026E036E00360090C0
:101B4E000136023603360036009001360236033671
:101B5E001B0E0024F66E4C0E0120F76E000E0220B6
:101B6E00F86E0900F5CF00F00900F5CF01F009007D
:101B7E00F5CF02F00900F5CF03F0000E046E000E53
:101B8E00056E000E066E7E0E076E7BEC01F01200E7
:0E1B9E00ACB202D00000FCD7DBC0ADFF1200DD
:101BAC00020E0B6E040E0C6EBA0E0D6E0D2EFED7C1
:0C1BBC000C2EFCD70B2EFAD700001200F4
:101BC8000001FA6BFB6BE76BE86BDDC000F0DEC071
:101BD80001F0DFC002F0010EDD27000EDE23DF2357
:101BE80000C0F6FF01C0F7FF02C0F8FF0900F5CFFB
:101BF80000F000C0E4F00052D8B40EEF1EF0E4513B
:101C0800250A0BE0DBC0E1FFDCC0E2FFE4C0E6FF31
:101C1800DB4BDC2BFA4BFB2BD8D7E56BE66BE76B82
:101C2800E86B23D0E787010EDD27000EDE23DF23D4
:101C380059D0E781010EDD27000EDE23DF2352D0C5
:101C4800E783010EDD27000EDE23DF234BD0E88774
:101C5800010EDD27000EDE23DF2344D0E785010EC9
:101C6800DD27000EDE23DF233DD0DDC0F6FFDEC01A
:101C7800F7FFDFC0F8FF0900F5CF01F001502D0A8A
:101C8800D1E0DDC0F6FFDEC0F7FFDFC0F8FF0900D6
:101C9800F5CF01F00150200ACCE0DDC0F6FFDEC030
:101CA800F7FFDFC0F8FF0900F5CF01F001502B0A5C
:101CB800C7E0DDC0F6FFDEC0F7FFDFC0F8FF0900B0
:101CC800F5CF01F00150230AC2E0DDC0F6FFDEC007
:101CD800F7FFDFC0F8FF0900F5CF01F00150300A27
:101CE800BDE001D09ED7E7A301D0E791E7A701D0D7
:101CF800E795DDC0F6FFDEC0F7FFDFC0F8FF09009B
:101D0800F5CF00F0000E016E00C002F131EC07F0D3
:101D1800005238E00001E56BE66B0001E5C000F019
:101D2800E6C001F00A0E046E000E056E67EC06F0C0
:101D3800DDC0F6FFDEC0F7FFDFC0F8FF0900F5CF12
:101D480002F002500024E56F000E0120E66F300E0D
:101D5800E55F000EE65B010EDD27000EDE23DF23C4
:101D6800DDC0F6FFDEC0F7FFDFC0F8FF0900F5CFE2
:101D780000F0000E016E00C002F131EC07F00052D5
:101D8800CCE134D0DDC0F6FFDEC0F7FFDFC0F8FFDE
:101D98000900F5CF01F001502A0A28E1E0C0E9FF67
:101DA800E1C0EAFFEECF00F0EECF01F000C0E9FF9E
:101DB80001C0EAFFEECFE5F0EECFE6F0E0C0E9FFC4
:101DC800E1C0EAFF020EEE24006E000EEE20016E66
:101DD800E0C0E1FFE1C0E2FF00C0E6FF01C0E6FFAE
:101DE800010E0001DD27000EDE23DF23DDC0F6FF34
:101DF800DEC0F7FFDFC0F8FF0900F5CF01F00150A2
:101E08002E0A72E10001010EDD27000EDE23DF231A
:101E1800DDC0F6FFDEC0F7FFDFC0F8FF0900F5CF31
:101E280001F001502A0A28E1E0C0E9FFE1C0EAFF19
:101E3800EECF00F0EECF01F000C0E9FF01C0EAFFED
:101E4800EECFE2F0EECFE3F0E0C0E9FFE1C0EAFF59
:101E5800020EEE24006E000EEE20016EE0C0E1FFDF
:101E6800E1C0E2FF00C0E6FF01C0E6FF010EDD278A
:101E7800000EDE23DF2337D0E26BE36BDDC0F6FF15
:101E8800DEC0F7FFDFC0F8FF0900F5CF00F0000E55
:101E9800016E00C002F131EC07F0005224E0E2C00C
:101EA80000F0E3C001F00A0E046E000E056E67EC48
:101EB80006F0DDC0F6FFDEC0F7FFDFC0F8FF09005F
:101EC800F5CF02F0025000240001E26F000E01205D
:101ED800E36F300EE25F000EE35B010EDD27000EBC
:101EE800DE23DF23CBD704D00001E26BE36BE88964
:101EF8000001DDC000F0DEC001F0DFC002F0010E1D
:101F0800DD27000EDE23DF2300C0F6FF01C0F7FF48
:101F180002C0F8FF0900F5CFE4F005D1FAC000F0DF
:101F2800FBC001F01200E789E3D7E88537D1E78BDA
:101F3800E88134D1E88332D1E78D30D12FD1E78BD6
:101F4800E78F2CD1E0C0E9FFE1C0EAFFEECF00F057
:101F5800EECF01F000C0E9FF01C0EAFFEECFEFF0DD
:101F6800EECFF0F0E0C0E9FFE1C0EAFF020EEE2498
:101F7800006E000EEE20016EE0C0E1FFE1C0E2FF5E
:101F880000C0E6FF01C0E6FF000EF01902E1000EF6
:101F9800EF1911E1280EF36F6E0EF46F750EF56FE1
:101FA8006C0EF66F6C0EF76F290EF86FF96BF30E67
:101FB800EF6F000EF06FF16BF26BF151EF25E96EE8
:101FC800F251F021EA6EEE520BE0010EF125006E9F
:101FD800000EF221016E00C0F1F001C0F2F0EDD761
:101FE800E251E3110AE0F251E35D02E1F151E25DF1
:101FF80004E2E2C0F1F0E3C0F2F0E651F25D02E182
:10200800E551F15D05E2F151E55FF251E65B02D081
:10201800E56BE66BE7B716D0E5C000F0E6C001F067
:10202800010EE55F000EE65B005001100BE0DBC01F
:10203800E1FFDCC0E2FF200EE66EDB4BDC2BFA4B47
:10204800FB2BEAD7F1C002F0F2C003F0010EF15DFC
:10205800006E000EF259016E00C0F1F001C0F2F0FE
:102068000250031019E0EFC0E9FFF0C0EAFFDBC03F
:10207800E1FFDCC0E2FFEECFE6FFDB4BDC2B010E1D
:10208800EF25006E000EF021016E00C0EFF001C0D8
:10209800F0F0FA4BFB2BD6D7E7A716D0E5C000F037
:1020A800E6C001F0010EE55F000EE65B005001108E
:1020B8000BE0DBC0E1FFDCC0E2FF200EE66EDB4B8D
:1020C800DC2BFA4BFB2BEAD780D5E0C0E9FFE1C057
:1020D800EAFFEECF00F0EECF01F000C0E9FF01C04B
:1020E800EAFFEECFE4F0E0C0E9FFE1C0EAFF020E4C
:1020F800EE24006E000EEE20016EE0C0E1FFE1C0AC
:10210800E2FF00C0E6FF01C0E6FFE40EEF6F000E3D
:10211800F06F010EF16F000EF26F62D7C00EE71379
:10212800000EE8133BD0E451000AD8B4F7D6E451C6
:102138006C0AD8B4F8D6E451660AD8B4F6D6E45195
:10214800450AD8B4F4D6E451650AD8B4F1D6E451B6
:10215800670AD8B4EFD6E4516F0AD8B4EDD6E45183
:10216800640AD8B4EBD6E451690AD8B4E7D6E45186
:10217800700AD8B4E4D6E451580AD8B4E0D6E45189
:10218800780AD8B4DDD6E451730AD8B4DBD6E45162
:10219800630A9BE0E451750AC1E0B7D7000EE71562
:1021A800006EE851070B016E00500110D8B4B9EF6A
:1021B80019F0E8A904D0060EE26F000EE36FE0C044
:1021C800E9FFE1C0EAFFEECF00F0EECF01F000C07A
:1021D800E9FF01C0EAFFEECFE9F0EECFEAF0EECF7B
:1021E800EBF0EECFECF0E0C0E9FFE1C0EAFF040E4F
:1021F800EE24006E000EEE20016EE0C0E1FFE1C0AB
:10220800E2FF00C0E6FF01C0E6FF046A056A066A4D
:10221800076AE9C000F0EAC001F0EBC002F0ECC0C8
:1022280003F08FEC06F0010ED8B0000E006E0052DD
:1022380005E0EB7F030EE713000EE813ED6BEE6B82
:10224800E9C000F0EAC001F0EBC002F0ECC003F016
:10225800046A056A066A076AB1EC05F0000ED8A49C
:10226800010E006E0052D8B48DD0ECC000F0016AA7
:10227800026A036AFF0E0016000E01167E0E005E4B
:10228800000E015A00C0EDF001C0EEF0010E005E34
:10229800000E015A00C0EDF001C0EEF0030E046E0E
:1022A800000E056E67EC06F000C0EDF001C0EEF020
:1022B8000A0E046E000E056E4EEC05F000C0EDF03F
:1022C80001C0EEF0800E0118026E800E025C02E181
:1022D800000E005C05E2010E0001ED5F000EEE5BF2
:1022E8000001ED5100080101026F3DEC07F0E9C063
:1022F80004F0EAC005F0EBC006F0ECC007F07BEC98
:1023080001F000C0EFF001C0F0F002C0F1F003C02E
:10231800F2F0000E046E000E056E000E066E7F0EC3
:10232800076EEFC000F0F0C001F0F1C002F0F2C09B
:1023380003F08FEC06F0010ED8B0000E006E0052CC
:1023480006E0010E0001ED5F000EEE5B1BD0000EF3
:10235800046E000E056E200E066E820E076EEFC02C
:1023680000F0F0C001F0F1C002F0F2C003F08FEC11
:1023780006F0000ED8B0010E006E005203E0000116
:10238800ED4BEE2B0001800E006E800EEE19005C06
:1023980002E1ED51000803E3010EE46F02D0EDC045
:1023A800E4F0E8B118D0E8A315D0800EEE19006E5D
:1023B8007F0E005C02E1FC0EED5D0BE3800EEE1972
:1023C800006E800EE319005C02E1E251ED5D01E26E
:1023D80001D001D0F3D3E251E31106E0E8A304D021
:1023E800010EE25F000EE35B000E006EE351005C3D
:1023F80002E1E251080803E2080EE46F02D0E2C0ED
:10240800E4F0E9C000F0EAC001F0EBC002F0ECC073
:1024180003F0046A056A066A076AB1EC05F0000E63
:10242800D8A4010E006E0052D8B44CD1EDC002F110
:102438003DEC07F000C004F001C005F002C006F052
:1024480003C007F0E9C000F0EAC001F0EBC002F0F9
:10245800ECC003F091EC0BF000C0E9F001C0EAF029
:1024680002C0EBF003C0ECF00001E45100080101E8
:10247800026F3DEC07F000C004F001C005F002C097
:1024880006F003C007F0E9C000F0EAC001F0EBC0B5
:1024980002F0ECC003F091EC0BF000C0FCF001C0BE
:1024A800FDF002C0FEF003C0FFF0FCC0E9F0FDC083
:1024B800EAF0FEC0EBF0FFC0ECF0FCC000F0FDC09D
:1024C80001F0FEC002F0FFC003F0C8EC05F0F6EC26
:1024D80006F000C004F001C005F002C006F003C019
:1024E80007F0FCC000F0FDC001F0FEC002F0FFC024
:1024F80003F063EC06F0000E046E000E056E000E8D
:10250800066E7E0E076E8FEC06F0000ED8B0010E38
:10251800006E00521AE0E9C000F0EAC001F0EBC01A
:1025280002F0ECC003F0000E046E000E056E000E03
:10253800066E7E0E076E16EC02F000C0E9F001C0D0
:10254800EAF002C0EBF003C0ECF0E9C000F0EAC02A
:1025580001F0EBC002F0ECC003F0C8EC05F000019C
:10256800E451010F096E0A6A000E0A2209C004F03C
:102578000AC005F0000E0ABEFF0E066E076E04368E
:1025880004900536063607360436049005360636B6
:1025980007367F0E0424F66E4C0E0520F76E000EEB
:1025A8000620F86E0900F5CF05F00900F5CF06F012
:1025B8000900F5CF07F00900F5CF08F00850035CD3
:1025C80008E10750025C05E10650015C02E1055094
:1025D800005C1EE30001E9C000F0EAC001F0EBC0B6
:1025E80002F0ECC003F0CD0E046ECC0E056E4C0E5E
:1025F800066E7B0E076E7BEC01F000C0E9F001C0AF
:10260800EAF002C0EBF003C0ECF0ED4BEE2B5AD031
:10261800E9C000F0EAC001F0EBC002F0ECC003F042
:10262800C8EC05F0E4C004F0000E056E066E076EF7
:102638000436049005360636073604360490053607
:10264800063607367F0E0424F66E4C0E0520F76E0C
:10265800000E0620F86E0900F5CF05F00900F5CF49
:1026680006F00900F5CF07F00900F5CF08F008508B
:10267800035C08E10750025C05E10650015C02E1D9
:102688000550005C1FE20001E9C000F0EAC001F05B
:10269800EBC002F0ECC003F0000E046E000E056EF5
:1026A800200E066E820E076E7BEC01F000C0E9F08A
:1026B80001C0EAF002C0EBF003C0ECF0010EED5FE0
:1026C800000EEE5B0001E8A394D0E8B792D0800E2C
:1026D800000A006E800EE319005C02E1E2510A086C
:1026E80004E20A0EE26F000EE36FE9C000F0EAC0F0
:1026F80001F0EBC002F0ECC003F0C8EC05F000C03C
:10270800EFF001C0F0F002C0F1F003C0F2F0EF51B9
:10271800F011F111F21142E00A0E046E000E056E7E
:10272800066E076EEFC000F0F0C001F0F1C002F0D5
:10273800F2C003F01BEC0AF008C000F009C001F079
:102748000AC002F00BC003F0000E046E031808E183
:102758000450021805E10450011802E10050000A73
:102768001DE1010EE25F000EE35B0A0E046E000E2F
:10277800056E066E076EEFC000F0F0C001F0F1C004
:1027880002F0F2C003F01BEC0AF000C0EFF001C049
:10279800F0F002C0F1F003C0F2F0B9D7800EE319EF
:1027A800006E800E005C02E1E451E25D22E2E2513B
:1027B800E45D0101026F3DEC07F000C004F001C0C8
:1027C80005F002C006F003C007F0E9C000F0EAC057
:1027D80001F0EBC002F0ECC003F091EC0BF000C08C
:1027E800E9F001C0EAF002C0EBF003C0ECF0E2C08F
:1027F800E4F0050E0001E225006E000EE321016EF3
:102808000050E55F0150E65BE251E31103E1E8B7F0
:1028180001D004D0010EE55F000EE65B030EE7155C
:10282800006EE8C001F0000E01160050011004E02F
:10283800010EE55F000EE65BE7A539D0E7A312D0ED
:10284800E7A103D02D0E006E02D02B0E006EDBC068
:10285800E1FFDCC0E2FF00C0E6FFDB4BDC2BFA4BFC
:10286800FB2B0CD0E7A10AD0DBC0E1FFDCC0E2FF04
:10287800200EE66EDB4BDC2BFA4BFB2B800E006E3A
:10288800800EE619005C02E1E55100080FE2DBC0AA
:10289800E1FFDCC0E2FF300EE66EDB4BDC2BFA4BCF
:1028A800FB2B010EE55F000EE65BE8D73AD0E7B7F1
:1028B80018D0800E006E800EE619005C02E1E5512A
:1028C80000080FE2DBC0E1FFDCC0E2FF200EE66E8D
:1028D800DB4BDC2BFA4BFB2B010EE55F000EE65BB6
:1028E800E8D7E7A312D0E7A103D02D0E006E02D0DF
:1028F8002B0E006EDBC0E1FFDCC0E2FF00C0E6FF8C
:10290800DB4BDC2BFA4BFB2B0CD0E7A10AD0DBC04E
:10291800E1FFDCC0E2FF200EE66EDB4BDC2BFA4B5E
:10292800FB2BE9C000F0EAC001F0EBC002F0ECC0FC
:1029380003F0C8EC05F000C0EFF001C0F0F002C0F1
:10294800F1F003C0F2F0E4C000F0000E016E026E78
:10295800036E0036009001360236033600360090CA
:102968000136023603367F0E0024F66E4C0E012027
:10297800F76E000E0220F86E0900F5CF04F009008A
:10298800F5CF05F00900F5CF06F00900F5CF07F0FF
:10299800EFC000F0F0C001F0F1C002F0F2C003F0A7
:1029A8001BEC0AF0300E0026DBC0E1FFDCC0E2FFC2
:1029B80000C0E6FFDB4BDC2BFA4BFB2BE251E311AB
:1029C80003E1E8B701D06FD0DBC0E1FFDCC0E2FF74
:1029D8002E0EE66EDB4BDC2BFA4BFB2BE451E25F51
:1029E800000EE35BE4534DE0E407E4C000F0000EA2
:1029F800016E026E036E0036009001360236033611
:102A0800003600900136023603367F0E0024F66E3B
:102A18004C0E0120F76E000E0220F86E0900F5CF6B
:102A280004F00900F5CF05F00900F5CF06F009001C
:102A3800F5CF07F0EFC000F0F0C001F0F1C002F0F0
:102A4800F2C003F01BEC0AF00A0E046E000E056ECD
:102A5800066E076E1BEC0AF008C000F009C001F012
:102A68000AC002F00BC003F0300E0026DBC0E1FF05
:102A7800DCC0E2FF00C0E6FFDB4BDC2BFA4BFB2B94
:102A8800B1D7E251E3110FE0DBC0E1FFDCC0E2FFA8
:102A9800300EE66EDB4BDC2BFA4BFB2B010EE25FB4
:102AA800000EE35BEED7E7AB0BD0DBC0E1FFDCC089
:102AB800E2FF450EE66EDB4BDC2BFA4BFB2B0AD014
:102AC800DBC0E1FFDCC0E2FF650EE66EDB4BDC2B12
:102AD800FA4BFB2B800EEE19006E800E005C02E1B3
:102AE800000EED5D11E2ED510008ED6FEE51000EA4
:102AF800EE57DBC0E1FFDCC0E2FF2D0EE66EDB4BDC
:102B0800DC2BFA4BFB2B0AD0DBC0E1FFDCC0E2FF79
:102B18002B0EE66EDB4BDC2BFA4BFB2B0A0E046EFE
:102B2800000E056EEDC000F0EEC001F04EEC05F0B1
:102B3800300E0026DBC0E1FFDCC0E2FF00C0E6FF8C
:102B48000001DB4BDC2BFA4BFB2B0A0E046E000E4C
:102B5800056EEDC000F0EEC001F04EEC05F008C0C7
:102B680000F009C001F0300E0026DBC0E1FFDCC038
:102B7800E2FF00C0E6FF0001DB4BDC2BFA4BFB2B2E
:102B8800E7A71AD0800E006E800EE619005C02E1FD
:102B9800E551000811E2DBC0E1FFDCC0E2FF200ED6
:102BA800E66EDB4BDC2BFA4BFB2B010EE55F000ED0
:102BB800E65BE551E611EFE1E9EF0DF0E8A3F8D0A7
:102BC800800EEE19006E800E005C02E1000EED5DD5
:102BD8000AE2010EED5D006E000EEE59016E005026
:102BE800E25F0150E35BE9C000F0EAC001F0EBC02E
:102BF80002F0ECC003F0C8EC05F000C0EFF001C033
:102C0800F0F002C0F1F003C0F2F0010EE46FE451FD
:102C18000A0A34E0E4C000F0000E016E026E036E92
:102C28000036009001360236033600360090013631
:102C3800023603367F0E0024F66E4C0E0120F76E26
:102C4800000E0220F86E0900F5CF01F00900F5CF5B
:102C580002F00900F5CF03F00900F5CF04F00450A5
:102C6800F25D08E10350F15D05E10250F05D02E11B
:102C78000150EF5D01E202D0E42BC9D7E451E25DD7
:102C88000101006F000E0001E3590101016F00C14D
:102C9800E2F001C1E3F0EFC000F0F0C001F0F1C0D4
:102CA80002F0F2C003F0F6EC06F000C004F001C038
:102CB80005F002C006F003C007F0E9C000F0EAC062
:102CC80001F0EBC002F0ECC003F063EC06F000C0CA
:102CD800FCF001C0FDF002C0FEF003C0FFF000C12F
:102CE80002F13DEC07F0FCC004F0FDC005F0FEC0A9
:102CF80006F0FFC007F07BEC01F0000E046E000E3A
:102D0800056E000E066E7E0E076E16EC02F0C8EC1D
:102D180005F000C0EFF001C0F0F002C0F1F003C010
:102D2800F2F00001E251E31143E00A0E046E000ED6
:102D3800056E066E076EEFC000F0F0C001F0F1C03E
:102D480002F0F2C003F01BEC0AF008C000F009C062
:102D580001F00AC002F00BC003F0000E046E031865
:102D680008E10450021805E10450011802E100507E
:102D7800000A1EE100010A0E046E000E056E066EC2
:102D8800076EEFC000F0F0C001F0F1C002F0F2C031
:102D980003F01BEC0AF000C0EFF001C0F0F002C035
:102DA800F1F003C0F2F0010EE25F000EE35BB9D769
:102DB8000001800E006E800EE319005C02E1E25112
:102DC8000C0816E3E2C002F14FEC0CF0E9C004F085
:102DD800EAC005F0EBC006F0ECC007F016EC02F014
:102DE80000C0E9F001C0EAF002C0EBF003C0ECF06B
:102DF800E9C000F0EAC001F0EBC002F0ECC003F05B
:102E0800046A056A066A076AB1EC05F0000ED8A4E0
:102E1800010E006E0052D8B478D0E9C000F0EAC0C4
:102E280001F0EBC002F0ECC003F0C8EC05F0000EB6
:102E3800046E031808E10450021805E10450011853
:102E480002E10050000A61E1800E006E800E000170
:102E5800EE19005C02E1ED51010857E2EDC002F104
:102E68003DEC07F000C004F001C005F002C006F018
:102E780003C007F0E9C000F0EAC001F0EBC002F0BF
:102E8800ECC003F091EC0BF05F0E046E700E056E53
:102E9800090E066E810E076E8FEC06F0010ED8B093
:102EA800000E006E005206E0090E0001ED5F000EF4
:102EB800EE5B05D00001080EED5F000EEE5BEDC085
:102EC80002F13DEC07F000C004F001C005F002C0BB
:102ED80006F003C007F0E9C000F0EAC001F0EBC05B
:102EE80002F0ECC003F091EC0BF0C8EC05F000C068
:102EF800EFF001C0F0F002C0F1F003C0F2F0000101
:102F0800E96BEA6BEB6BEC6B39D00001E9C000F0C0
:102F1800EAC001F0EBC002F0ECC003F0C8EC05F029
:102F280000C0EFF001C0F0F002C0F1F003C0F2F011
:102F3800EFC000F0F0C001F0F1C002F0F2C003F001
:102F4800F6EC06F000C004F001C005F002C006F07F
:102F580003C007F0E9C000F0EAC001F0EBC002F0DE
:102F6800ECC003F063EC06F000C0E9F001C0EAF041
:102F780002C0EBF003C0ECF0ED6BEE6B010EE46FFA
:102F8800E4510A0A34E0E4C000F0000E016E026E5B
:102F9800036E003600900136023603360036009084
:102FA8000136023603367F0E0024F66E4C0E0120E1
:102FB800F76E000E0220F86E0900F5CF01F0090047
:102FC800F5CF02F00900F5CF03F00900F5CF04F0C2
:102FD8000450F25D08E10350F15D05E10250F05D37
:102FE80002E10150EF5D01E202D0E42BC9D7E451C0
:102FF800E225006E000EE321016EED510026EE5130
:1030080001220050E55F0150E65BE8B704D0E251C9
:10301800E31101E104D0010EE55F000EE65B030E4B
:10302800E715006EE8C001F0000E0116005001100F
:1030380004E0010EE55F000EE65BE7A539D0E7A3E3
:1030480012D0E7A103D02D0E006E02D02B0E006E19
:10305800DBC0E1FFDCC0E2FF00C0E6FFDB4BDC2B9E
:10306800FA4BFB2B0CD0E7A10AD0DBC0E1FFDCC098
:10307800E2FF200EE66EDB4BDC2BFA4BFB2B800EBF
:10308800006E800EE619005C02E1E55100080FE2CF
:10309800DBC0E1FFDCC0E2FF300EE66EDB4BDC2B71
:1030A800FA4BFB2B010EE55F000EE65BE8D73AD042
:1030B800E7B718D0800E006E800EE619005C02E1BA
:1030C800E55100080FE2DBC0E1FFDCC0E2FF200EA3
:1030D800E66EDB4BDC2BFA4BFB2B010EE55F000E9B
:1030E800E65BE8D7E7A312D0E7A103D02D0E006E68
:1030F80002D02B0E006EDBC0E1FFDCC0E2FF00C097
:10310800E6FFDB4BDC2BFA4BFB2B0CD0E7A10AD0FC
:10311800DBC0E1FFDCC0E2FF200EE66EDB4BDC2B00
:10312800FA4BFB2BE4C000F0E40700524CE0E4C08B
:1031380000F0000E016E026E036E0036009001363C
:1031480002360336003600900136023603367F0E0B
:103158000024F66E4C0E0120F76E000E0220F86E69
:103168000900F5CF04F00900F5CF05F00900F5CF07
:1031780006F00900F5CF07F0EFC000F0F0C001F04D
:10318800F1C002F0F2C003F01BEC0AF00A0E046E64
:10319800000E056E066E076E1BEC0AF008C000F004
:1031A80009C001F00AC002F00BC003F0300E00267F
:1031B800DBC0E1FFDCC0E2FF00C0E6FFDB4BDC2B3D
:1031C800FA4BFB2BAFD7800E006E800EEE19005C19
:1031D80002E1ED5100080FE2DBC0E1FFDCC0E2FFD5
:1031E800300EE66EDB4BDC2BFA4BFB2B010EED5F52
:1031F800000EEE5BE8D7800E000A006E800EE31921
:10320800005C02E1E251080803E2080EE46F02D014
:10321800E2C0E4F0E451E25F000EE35BE45303E153
:10322800E8B701D00AD0DBC0E1FFDCC0E2FF2E0E18
:10323800E66EDB4BDC2BFA4BFB2BE4C002F13DECDA
:1032480007F0E9C004F0EAC005F0EBC006F0ECC0F6
:1032580007F07BEC01F073EC04F000C0EFF001C064
:10326800F0F002C0F1F003C0F2F00001E4534DE0C9
:10327800E407E4C000F0000E016E026E036E003633
:1032880000900136023603360036009001360236C9
:1032980003367F0E0024F66E4C0E0120F76E000EEA
:1032A8000220F86E0900F5CF04F00900F5CF05F00B
:1032B8000900F5CF06F00900F5CF07F0EFC000F0E0
:1032C800F0C001F0F1C002F0F2C003F01BEC0AF00C
:1032D8000A0E046E000E056E066E076E1BEC0AF0F1
:1032E80008C000F009C001F00AC002F00BC003F0EA
:1032F800300E0026DBC0E1FFDCC0E2FF00C0E6FFC5
:10330800DB4BDC2BFA4BFB2BB0D7E251E3110FE080
:10331800DBC0E1FFDCC0E2FF300EE66EDB4BDC2BEE
:10332800FA4BFB2B010EE25F000EE35BEED7E7A73B
:103338001AD0800E006E800EE619005C02E1E5519D
:10334800000811E2DBC0E1FFDCC0E2FF200EE66E00
:10335800DB4BDC2BFA4BFB2B010EE55F000EE65B2B
:10336800E551E611EFE1E9EF0DF0C00EE715016E4A
:10337800E8C002F0000E0216000E021802E1000E6C
:103388000118D8A47CD0E7A927D0E0C0E9FFE1C0A4
:10339800EAFFEECF00F0EECF01F000C0E9FF01C078
:1033A800EAFFEECFEFF0EECFF0F0EECFF1F0EECF98
:1033B800F2F0E0C0E9FFE1C0EAFF040EEE24006E7F
:1033C800000EEE20016EE0C0E1FFE1C0E2FF00C0A8
:1033D800E6FF01C0E6FF2BD0E0C0E9FFE1C0EAFF4D
:1033E800EECF00F0EECF01F000C0E9FF01C0EAFF28
:1033F800EECF00F0EECF01F000C0EFF001C0F0F02A
:10340800000E01BEFF0EF16FF26FE0C0E9FFE1C0F0
:10341800EAFF020EEE24006E000EEE20016EE0C000
:10342800E1FFE1C0E2FF00C0E6FF01C0E6FF800E59
:10343800F219006E800E005C08E1000EF15D05E1F6
:10344800000EF05D02E1000EEF5D18E2030EE713D7
:10345800000EE813006A016A026A036AEF51005E0F
:10346800F051015AF151025AF251035A00C0EFF0DB
:1034780001C0F0F002C0F1F003C0F2F04ED0E7A9AD
:1034880027D0E0C0E9FFE1C0EAFFEECF00F0EECFC1
:1034980001F000C0E9FF01C0EAFFEECFEFF0EECF88
:1034A800F0F0EECFF1F0EECFF2F0E0C0E9FFE1C0CE
:1034B800EAFF040EEE24006E000EEE20016EE0C05E
:1034C800E1FFE1C0E2FF00C0E6FF01C0E6FF25D052
:1034D800E0C0E9FFE1C0EAFFEECF00F0EECF01F077
:1034E80000C0E9FF01C0EAFFEECFEFF0EECFF0F049
:1034F800000EF16FF26FE0C0E9FFE1C0EAFF020ED3
:10350800EE24006E000EEE20016EE0C0E1FFE1C087
:10351800E2FF00C0E6FF01C0E6FF000EE31902E18A
:10352800000EE2190FE1000E006EF21908E10050DA
:10353800F11905E10050F01902E1EF51000A02E12A
:10354800E24BE32BC00EE715006E00C005F0AED0CD
:10355800010EE46FE4510A0A34E0E4C000F0000E02
:10356800016E026E036E0036009001360236033695
:10357800003600900136023603367F0E0024F66EC0
:103588004C0E0120F76E000E0220F86E0900F5CFF0
:1035980001F00900F5CF02F00900F5CF03F00900AA
:1035A800F5CF04F00450F25D08E10350F15D05E148
:1035B8000250F05D02E10150EF5D01E202D0E42B20
:1035C800C9D782D0010EE46FE451080A34E0E4C0A0
:1035D80000F0000E016E026E036E00360090013698
:1035E8000236033600360090013602360336A70E3F
:1035F8000024F66E4C0E0120F76E000E0220F86EC5
:103608000900F5CF01F00900F5CF02F00900F5CF68
:1036180003F00900F5CF04F00450F25D08E103500F
:10362800F15D05E10250F05D02E10150EF5D01E25C
:1036380002D0E42BC9D748D0010EE46FE4510C0A3C
:1036480034E0E4C000F0000E016E026E036E003636
:1036580000900136023603360036009001360236F5
:1036680003364F0E0024F66E4C0E0120F76E000E46
:103678000220F86E0900F5CF01F00900F5CF02F03D
:103688000900F5CF03F00900F5CF04F00450F25D0E
:1036980008E10350F15D05E10250F05D02E10150DF
:1036A800EF5D01E202D0E42BC9D70ED00550000A25
:1036B800D8B44ED70550C00AD8B44AD70550800AA6
:1036C80081E00550400AB8E0800E006E800EE319D4
:1036D800005C02E1E251E45D03E2E2C0E4F00DD0F7
:1036E800800EE319006E800E005C02E1E451E25D99
:1036F80004E2E4C0E2F0000EE36FE551E6110EE0EB
:10370800030EE715006EE8C001F0000E0116005028
:10371800011004E0010EE55F000EE65B800EE31980
:10372800006E800EE619005C02E1E551E25D05E2FB
:10373800E251E55FE351E65B02D0E56BE66BC40E50
:10374800E715016EE851080B026E0250080A02E103
:10375800400E011808E1E551E61104E0010EE55FAD
:10376800000EE65B1CD0C00EE715016EE851080B91
:10377800026E0250080A02E1800E011810E1800E64
:10378800006E800EE619005C02E1E551020805E2D0
:10379800020EE55F000EE65B02D0E56BE66BE7A57F
:1037A8005DD0E7A312D0E7A103D02D0E006E02D0A2
:1037B8002B0E006EDBC0E1FFDCC0E2FF00C0E6FFBD
:1037C800DB4BDC2BFA4BFB2B34D0E7A10BD0DBC057
:1037D800E1FFDCC0E2FF200EE66EDB4BDC2BFA4B90
:1037E800FB2B27D0C00EE715016EE851080B026EBF
:1037F8000250080A02E1800E01181BE1DBC0E1FF5C
:10380800DCC0E2FF300EE66EDB4BDC2BFA4BFB2B09
:10381800E7AB03D0580E006E02D0780E006EDBC006
:10382800E1FFDCC0E2FF00C0E6FFDB4BDC2BFA4B1C
:10383800FB2BE551E61111E0DBC0E1FFDCC0E2FF44
:10384800300EE66EDB4BDC2BFA4BFB2B010EE55FF3
:10385800000EE65BE551E611EFE174D0E551E611A3
:1038680013E0E7B711D0DBC0E1FFDCC0E2FF200EB8
:10387800E66EDB4BDC2BFA4BFB2B010EE55F000EF3
:10388800E65BE551E611EFE1E7A312D0E7A103D02B
:103898002D0E006E02D02B0E006EDBC0E1FFDCC0E7
:1038A800E2FF00C0E6FFDB4BDC2BFA4BFB2B0CD016
:1038B800E7A10AD0DBC0E1FFDCC0E2FF200EE66E24
:1038C800DB4BDC2BFA4BFB2BC00EE715016EE851E6
:1038D800080B026E0250080A02E1400E01180BE1C3
:1038E800DBC0E1FFDCC0E2FF300EE66EDB4BDC2B19
:1038F800FA4BFB2B27D0C00EE715016EE851080BD9
:10390800026E0250080A02E1800E01181BE1DBC0BA
:10391800E1FFDCC0E2FF300EE66EDB4BDC2BFA4B3E
:10392800FB2BE7AB03D0580E006E02D0780E006E6A
:10393800DBC0E1FFDCC0E2FF00C0E6FFDB4BDC2BB5
:10394800FA4BFB2B800E006E800EE319005C02E13F
:10395800E251E45D0BE2DBC0E1FFDCC0E2FF300EC8
:10396800E66EDB4BDC2BFA4BFB2BECD7E2C000F00E
:10397800E3C001F0010EE25F000EE35B00500110AE
:10398800D8B42AD1C00EE715006E00C0FCF00AD1E9
:10399800E2C000F0E3C001F0000EE3BFFF0E026ECC
:1039A800036E00360090013602360336003600906A
:1039B8000136023603367F0E0024F66E4C0E0120C7
:1039C800F76E000E0220F86E0900F5CF04F009002A
:1039D800F5CF05F00900F5CF06F00900F5CF07F09F
:1039E800EFC000F0F0C001F0F1C002F0F2C003F047
:1039F8001BEC0AF00A0E046E000E056E066E076ECA
:103A08001BEC0AF008C000F009C001F00AC002F07F
:103A18000BC003F0300E0024E46FD3D0E7AB45D0E1
:103A2800E2C000F0E3C001F0000EE3BFFF0E026E3B
:103A3800036E0036009001360236033600360090D9
:103A4800013602360336A70E0024F66E4C0E01200E
:103A5800F76E000E0220F86E0900F5CF04F0090099
:103A6800F5CF05F00900F5CF06F00900F5CF07F00E
:103A7800EFC000F0F0C001F0F1C002F0F2C003F0B6
:103A88001BEC0AF00F0E0016000E011602160316A4
:103A9800C70E0024F66E4C0E0120F76E000E0220B1
:103AA800F86E0900F5CFE4F044D0E2C000F0E3C0BE
:103AB80001F0000EE3BFFF0E026E036E00360090A9
:103AC80001360236033600360090013602360336D8
:103AD800A70E0024F66E4C0E0120F76E000E022091
:103AE800F86E0900F5CF04F00900F5CF05F00900DC
:103AF800F5CF06F00900F5CF07F0EFC000F0F0C0F1
:103B080001F0F1C002F0F2C003F01BEC0AF00F0E56
:103B18000016000E011602160316D80E0024F66EC3
:103B28004C0E0120F76E000E0220F86E0900F5CF4A
:103B3800E4F047D0E2C000F0E3C001F0000EE3BFBC
:103B4800FF0E026E036E0036009001360236033611
:103B5800003600900136023603364F0E0024F66E0A
:103B68004C0E0120F76E000E0220F86E0900F5CF0A
:103B780004F00900F5CF05F00900F5CF06F00900BB
:103B8800F5CF07F0EFC000F0F0C001F0F1C002F08F
:103B9800F2C003F01BEC0AF0070E0014E46F300EBD
:103BA800E4270FD0FC51000AD8B4F2D6FC51C00A61
:103BB800D8B4EED6FC51800AD8B430D7FC51400AAC
:103BC800B9E0DBC0E1FFDCC0E2FFE4C0E6FFDB4BAD
:103BD800DC2BFA4BFB2BCAD6E7A71AD0800E006E57
:103BE800800EE619005C02E1E551000811E2DBC035
:103BF800E1FFDCC0E2FF200EE66EDB4BDC2BFA4B6C
:103C0800FB2B010EE55F000EE65BE551E611EFE1E7
:0E3C1800E9EF0DF0FAC000F0FBC001F0120061
:103C26009E96DBC0C9FFC7A401D0FDD79EB601D0C2
:103C3600FDD7C5BC02D0006A1200C584020E006E14
:023C460012006A
:103C48000C6A0E6A0250D8A43DEF1EF001C002F0C3
:103C580000C001F0006A0E860250D8A43DEF1EF0A5
:103C680001C002F0016A0E960E880250D8B44FEFD8
:103C78001EF00E50035ED8A4D8A055EF1EF0D890C1
:103C880002BE5BEF1EF0003601360236032E44EF0B
:103C98001EF055EF1EF0010E0C6E1AEC00F05FEFEF
:103CA8001EF0020E0C6E25EC00F05FEF1EF0040E05
:083CB8000C6E21EC00F012007B
:043CC000C5841200A5
:0C3CC4000E0E0D6E0D2EFED7000012003B
:103CD0009E96C5869EB601D0FDD7C9CF01F00001E2
:103CE000DB51000A02E1C58A01D0C59A9E96C588BB
:0C3CF0009EB601D0FDD701C000F012000C
:0A3CFC00C582C5A201D0FDD7120059
:103D06000001DF6B050EDF5D0AE2DF51DD25E16EA6
:103D1600000EDE21E26E200EE66EDF2BF3D7DF51BA
:103D2600DD25E16E000EDE21E26EE66ADF07DF5179
:103D3600DD25E06F000EDE21E16F0A0E046E000E37
:103D4600056EDBC000F0DCC001F009EC07F008C02E
:103D560000F009C001F0300E0026E0C0E1FFE1C02E
:103D6600E2FF00C0E6FF0A0E046E000E056EDBC021
:103D760000F0DCC001F009EC07F000C0DBF001C088
:103D8600DCF0000E011802E1000E001801E102D07D
:063D9600DF07CDD712008B
:103D9C0000019591DBC002F10BEC05F0958112004E
:103DAC000001DB6BDC6BDC51120802E1DB518E088D
:103DBC0009E324EC07F0005201E004D00001DB4BD6
:103DCC00DC2BF1D70001120EDC5D02E18F0EDB5D06
:103DDC0003E37B0E006E1200C580C5A001D0FDD799
:043DEC00006A120057
:103DF000D10E0001D96F000EDA6FCCC0DBF0CDC060
:103E0000DCF0CEC0DDF0CFC0DEF0D0C0DFF0D90EE8
:103E1000E06F000EE16FE4EC0DF000C0D7F001C0E0
:103E2000D8F00050CC25E16E0150CD21E26EE66A5B
:0A3E3000D7C000F0D8C001F0120066
:103E3A000001CF6BCCC0E9FFCDC0EAFFEECFCEF0D8
:103E4A00CE51000A0FE0CEC0DBF0CFEC0DF000013E
:103E5A00CF2BCF51CC25E96E000ECD21EA6EEECFE5
:063E6A00CEF0EED71200BD
:103E70009DDFD00EDB6FD7DECCC0DBF0D4DE3EDFC3
:103E8000D10E0001DB6FCFDE0001DB6B21DF00C054
:103E9000CEF0000E0001CF6F13DFCEC000F0CFC018
:043EA00001F012001B
:103EA400CCC0E9FFCDC0EAFFEECFCEF0000E00019A
:103EB400CF6F000ECF6F000ECF1902E1200ECE1986
:103EC40007E0000ECF1902E1090ECE1901E003D07C
:103ED400CC4BCD2BE5D7D06BD16BD26BD36B000E13
:103EE400CF1902E12D0ECE1905E1D24BD32BCC4BC9
:103EF400CD2B08D0000ECF1902E12B0ECE1902E112
:103F0400CC4BCD2BCCC0E9FFCDC0EAFFEECFCEF039
:103F1400000ECF6F000ECF6FCEC002F131EC07F070
:103F240000521AE0D0C000F0D1C001F00A0E046EB5
:103F3400000E056E67EC06F0300E0001CE5D026ED9
:103F4400000ECF59036E02500024D06F035001209D
:103F5400D16FCC4BCD2BD6D70001D251D31108E071
:103F6400D0510008006ED1C001F0000E01561200BD
:0A3F7400D0C000F0D1C001F012002F
:103F7E000001D26BD36BCCC0D4F0CDC0D5F0800E87
:103F8E00CD19006E800E005C02E1000ECC5D0BE2DE
:103F9E00010ED26F000ED36FCC510008D46FCDC07E
:103FAE00D5F0000ED557D4C0DBF0D5C0DCF0CEC0B6
:103FBE00DDF0CFC0DEF0A0DE060ED06F000ED16FAA
:103FCE00000E006ED151005C02E1D051000819E2E2
:103FDE00D051CE25E16ED151CF21E26E010ED05DD2
:103FEE00006E000ED159016E0050CE25E96E0150C3
:103FFE00CF21EA6EEECFE6FF010ED05F000ED15B51
:10400E00DFD7CEC0E1FFCFC0E2FF200EE66ED25169
:10401E00D3111AE0D06BD16BD051CE25E96ED151B0
:10402E00CF21EA6EEE50200A03E1D04BD12BF4D70C
:10403E00010ED05F000ED15BD051CE25E16ED15175
:0A404E00CF21E26E2D0EE66E120087
:10405800CCC0E9FFCDC0EAFFEECF03F0F00E0314A9
:10406800026E02C000F00032009E0032009E003254
:10407800009E0032009E0A0E0002F3CF01F00F0EE0
:104088000314006ECCC0E1FFCDC0E2FF0050012454
:10409800E66ECEC0E9FFCFC0EAFFEECF03F0F00E28
:1040A8000314026E02C000F00032009E0032009E2F
:1040B8000032009E0032009E0A0E0002F3CF01F08B
:1040C8000F0E0314006ECEC0E1FFCFC0E2FF005018
:1040D8000124E66ED0C0E9FFD1C0EAFFEECF03F0BD
:1040E800F00E0314026E02C000F00032009E00328F
:1040F800009E0032009E0032009E0A0E0002F3CF9E
:1041080001F00F0E0314006ED0C0E1FFD1C0E2FF32
:0841180000500124E66E1200C4
:104120000B6A0C6A0A6A0350D8B4C5EF20F00A9EE5
:10413000028E860E035E03BEA3EF20F0D8B4A3EF79
:1041400020F0C8EF20F0036C080E035CD8A0B1EF9C
:1041500020F0036E0236026A0350D8A4D890BAEF5A
:1041600020F00350D8B4BAEF20F0D8900232032EDA
:10417000B5EF20F00BBC02A0C5EF20F0D8A0C5EF32
:1041800020F0022AD8B4CFEF20F0016AD5EF20F05A
:104190000B800BAED9EF20F0016AD9EF20F0010EB1
:1041A0000C6E39EC04F0DBEF20F0000E0C6EDBEF50
:0C41B00020F0FF0E0C6E0250006E12009A
:1041BC000001CC6BCD6B800ECD19006E800E005CB7
:1041CC0002E1010ECC5D0AE21C0E0101026F0BEC48
:1041DC0005F0D6EC0DF0CC4BCD2BEDD7CC6BCD6BDD
:1041EC00800ECD19006E800E005C02E1010ECC5DDC
:1041FC000AE2180E0101026F0BEC05F0D6EC0DF083
:08420C00CC4BCD2BEDD71200C5
:10421400C26A070EC012C08ECCC000F000360090F7
:10422400003600900050C212C2804ADDC282C2A28F
:1042340001D0FDD7C4CF01F0006AC3500012000EB4
:064244000112C2901200FD
:10424A000050086E0150006E016A026A036A0B6A26
:10425A000C6A960E036E0A6A00C001F008C000F0EC
:08426A00086A026AECDC120094
:10427200949894968B988B9694889486C79EC79CA4
:06428200380EC66E1200AA
:10428800969296909598959A959C959E84928490EE
:10429800839E839C839A83980BEC02F00BEC02F0CC
:1042A8000BEC02F0838A8388848236EC04F08492D3
:1042B8000BEC02F0848236EC04F084920BEC02F0F2
:1042C800848236EC04F084920BEC02F083988482AA
:1042D80036EC04F084920BEC02F0848236EC04F0A5
:1042E8008492839A838E848236EC04F084920BEC59
:1042F80002F0839E8388848236EC04F0849283984B
:10430800848236EC04F084920BEC02F0848236EC62
:1043180004F084928388848236EC04F084920BEC57
:1043280002F08398848236EC04F08492838E838C26
:10433800838A8388848236EC04F084920BEC02F042
:0643480000019581120046
:10434E000900F5CFE6FF0006FBE10106F9E11200D8
:10435E009E0E0001996F1B0E9A6FDB0E9B6F000E67
:10436E009C6FFF0EA56FFF0EA66F000EA76F000EBF
:10437E00A86FFF0EA16FFF0EA26F000EA36F000EAF
:10438E00A46FFF0E9D6FFF0E9E6F000E9F6F000EAF
:10439E00A06FAC8A900EAB6E948E949C9EAA03D0A6
:0843AE00AECF00F0FBD71200B6
:1043B600400E0101026F0BEC05F0CC6BCC510708E7
:1043C60011E3F80ECC25F66E4C0EF76E000EF722B2
:1043D600000EF86E000EF8220900F5CFDBF0DBDCEC
:1043E600CC2BECD7CC6BCC51070811E3000ECC25B7
:1043F600F66E4D0EF76E000EF722000EF86E000EEA
:10440600F8220900F5CFDBF0C6DCCC2BECD7020E88
:0A4416000101026F0BEC05F012002B
:10442000C5DCA00EDB6F13EC1EF0CCC0DBF013EC90
:104430001EF0CEC0DBF013EC1EF042DC1A0E0C6E48
:10444000F80E0D6E0D2EFED70C2EFCD700001200BC
:10445000ADDCA00EDB6F13EC1EF0CCC0DBF013EC78
:104460001EF04CDCA10E0001DB6F13EC1EF000010E
:10447000DB6B2EDC00C0CEF0000E0001CF6F20DC25
:0A448000CEC000F0CFC001F0120022
:10448A0010D0800E0001CC6F1AD0C00ECC6F17D09E
:10449A00940ECC6F14D0D40ECC6F11D0800ECC6F8A
:1044AA000ED00001CC51010AECE0CC51020AEDE039
:1044BA00CC51030AEDE0CC51040AEDE0EFD7CD056B
:1044CA00006ECC51002600C0CCF000C002F10BEC0B
:1044DA0005F09591D06BD051CE25E96E000ECF2113
:1044EA00EA6EEE520BE0D051CE25E96E000ECF21D6
:1044FA00EA6EEECFDBF04DDCD02BEDD795811200C2
:10450A00100E836E81A006D081A001D0FDD7370E90
:10451A00006E120081A206D081A201D0FDD7380E0A
:10452A00006E120081A406D081A401D0FDD7390EF5
:10453A00006E120081A606D081A601D0FDD7250EF5
:10454A00006E1200200E836E81A006D081A001D0D9
:10455A00FDD7340E006E120081A206D081A201D0CE
:10456A00FDD7350E006E120081A406D081A401D0B9
:10457A00FDD7360E006E120081A606D081A601D0A4
:10458A00FDD72A0E006E1200400E836E81A006D05F
:10459A0081A001D0FDD7310E006E120081A206D093
:1045AA0081A201D0FDD7320E006E120081A406D07E
:1045BA0081A401D0FDD7330E006E120081A606D069
:1045CA0081A601D0FDD72D0E006E1200800E836EDB
:1045DA0081A006D081A001D0FDD7430E006E120043
:1045EA0081A206D081A201D0FDD7300E006E120042
:1045FA0081A406D081A401D0FDD73D0E006E120021
:10460A0081A606D081A601D0FDD72B0E006E12001E
:06461A00FF0E006E12000D
:1046200084EC26F0190EAF6EAC8499DE140EC86EC1
:1046300020DE0E0EC16E0F0E936E816A25DE0C0E0B
:104640000101026F0BEC05F0B6DE010ECC6F020E1D
:10465000CD6F610ECE6F000ECF6F17DF56DF00C03B
:1046600080F00050FF0A03E080C07FF001D0F6D751
:10467000000E7FBEFF0E006E000E001802E1300E2D
:104680007F181CE10001CC6BCD6BFF0ECE6F000ECE
:10469000CF6FC6DE010E0001CC6F000ECD6FFF0E96
:1046A000CE6F000ECF6FBCDE020E0001CC6F000E8D
:1046B000CD6FFF0ECE6F000ECF6FB2DE010E000188
:1046C000CC6F000ECD6FC4DE000E011802E1FF0EAC
:1046D0000018D8A497D0010ECC6F020ECD6F150E26
:1046E000CE6F000ECF6FD1DE10DF00C088F000501B
:1046F0003D0A01E148D0000188512D0A14E18F0ED6
:104700002724E16E000E2820E26E3A0EE66E274A5C
:10471000282A020ECC6F050ECD6F890ECE6F000ECB
:10472000CF6FB3DEE1D788512A0A16E18F0E272416
:10473000E16E000E2820E26E200EE66E010E275E6E
:10474000000E285A020ECC6F050ECD6F8F0ECE6F65
:10475000000ECF6F9ADEC8D78851FF0A0AE08F0E8D
:104760002724E16E000E2820E26E88C0E6FF274A6B
:10477000282A020ECC6F050ECD6F8F0ECE6F000E65
:10478000CF6F83DEB1D700018FC083F090C084F07B
:1047900091C085F092C086F093C087F08FC073F00F
:1047A0008FC072F090C073F090C073F0720ECC6F37
:1047B000000ECD6F52EC1FF000C070F001C071F020
:1047C000010ECC6F000ECD6F00C0CEF001C0CFF057
:1047D00027DE86C075F087C076F0750E0001CC6FBD
:1047E000000ECD6F52EC1FF000C081F001C082F0CE
:1047F000020ECC6F000ECD6F00C0CEF001C0CFF026
:104800000FDE35D0010E0001CC6F000ECD6F20DE23
:1048100000C070F001C071F000C0CCF001C0CDF05C
:104820007A0ECE6F000ECF6FBFEC1FF07EC083F00C
:104830007FC084F03A0E856F020ECC6F000ECD6FF4
:1048400007DE00C081F001C082F0800E7918006E92
:10485000800E005C02E10A0E785C05E2300E866F85
:104860007EC087F004D07EC086F07FC087F0000154
:10487000CC6BCD6BEDDD000E011802E1FF0E0018D0
:10488000D8A47CD0276A286A200E896F200E8A6FF0
:10489000200E8B6F200E8C6F200E8D6F020ECC6F52
:1048A000050ECD6F890ECE6F000ECF6FEEDD010EBF
:1048B000CC6F020ECD6F290ECE6F000ECF6FE5DDEF
:1048C00024DE00C088F000503D0A01E131D0000133
:1048D00088512A0A16E1890E2724E16E000E28204D
:1048E000E26E200EE66E010E275E000E285A020EC2
:1048F000CC6F050ECD6F890ECE6F000ECF6FC5DD6C
:10490000DFD78851FF0A0AE0890E2724E16E000EE6
:104910002820E26E88C0E6FF274A282A020ECC6FC4
:10492000050ECD6F890ECE6F000ECF6FAEDDC8D7EE
:104930000001890ECC6F000ECD6F52EC1FF000C04D
:10494000BDF001C0BEF0200E896F200E8A6F200ED0
:104950008B6F200E8C6F200E8D6F020ECC6F050EAC
:10496000CD6F890ECE6F000ECF6F8FDDCC6BCD6B10
:10497000BDC0CEF0BEC0CFF053DD08D00001CC6B7F
:10498000CD6B66DD00C0BDF001C0BEF00001010EC0
:10499000CC6F020ECD6F4F0ECE6F000ECF6F75DD58
:1049A000030ECC6F020ECD6F3C0ECE6F000ECF6F9C
:1049B0006CDDBDC0CCF0BEC0CDF0BF0ECE6F000E22
:1049C000CF6FBFEC1FF0040ECC6F0C0ECD6FBF0E7F
:1049D000CE6F000ECF6F59DDDB6BCEEC1EF0430EB9
:1049E000DB6FCEEC1EF081C0CCF082C0CDF07A0E31
:1049F000CE6F000ECF6FBFEC1FF07A0ECC6F000EA3
:104A0000CD6F1DEC1FF0CC6BCD6B38EC1FF000C0F0
:104A1000CAF001C0CBF0010ECC6F000ECD6F38ECA8
:104A20001FF000C0C8F001C0C9F0020ECC6F000E2C
:104A3000CD6F38EC1FF000C0C6F001C0C7F0CA0E41
:104A4000CC6F000ECD6FC80ECE6F000ECF6FC60EAE
:104A5000D06F000ED16F2CEC20F0A90ECC6F000EA1
:104A6000CD6FE90ECE6F4C0ECF6F000ED06FC6C06B
:104A7000D1F0C7C0D2F0C8C0D3F0C9C0D4F0CAC00A
:104A8000D5F0CBC0D6F0F8EC1EF0040ECC6F010EC2
:104A9000CD6FA90ECE6F000ECF6FF7DCCC6B0AEC9A
:104AA00021F000C097F001C098F025EC21F0000E35
:104AB000046E000E056E200E066E810E076E7BECF6
:104AC00001F0000E046E000E056E000E066E890EDB
:104AD000076E91EC0BF0000E046E000E056E480E92
:104AE000066E850E076E7BEC01F090EC20F000C0A6
:104AF00096F000C0CCF0000E0001CD6FBF0ECE6F5F
:104B0000000ECF6FBFEC1FF0020ECC6F010ECD6F09
:104B1000830ECE6F000ECF6FB8DC020ECC6F080E86
:104B2000CD6FBF0ECE6F000ECF6FAFDCDB6BCEEC68
:104B30001EF0430EDB6FCEEC1EF081C0CCF082C0C5
:104B4000CDF0BF0ECE6F000ECF6FBFEC1FF0BF0ECB
:104B5000CC6F000ECD6F1DEC1FF0800E006E800E2E
:104B6000BE19005C02E1BD51965D0EE38251C91988
:104B700002E1C851811908E1C751711802E1705072
:0C4B8000C61902E1DEEC20F02ED7FFD7B2
:104D080010EE15F05B0E006E010E016E8C0EF66E45
:0E4D18004B0EF76E000EF86EA7EC21F01200A5
:104B8C00484F524152494F204D4F4E49544F52417C
:024B9C005200C5
:024B9E00000015
:104BA00054454D5045524154555241204D4158496C
:034BB0004D410074
:104BB30054454D5045524154555241204D41584959
:034BC3004D410061
:104BC60054454D504552415455524120415455414A
:024BD6004C0091
:0F4BD80044696769746520612073656E686100C8
:104BE7000000007F000020820000488500007A88CE
:104BF70000401C8C0050438F0024749280961896B6
:104C070020BC3E99286B6E9CF90215A0EC782DC14B
:044C1700CAF249E2B2
:104C1B000000007FCDCC4C7B0AD723786F12037535
:104C2B0017B75171ACC5276EBD37066B95BF56676D
:104C3B0077CC2B645F700961FFE65B5D08E53C3C5C
:044C4B006042221B86
:104C4F00010000000800000040000000000200000A
:104C5F000010000000800000000004000000200091
:104C6F0000000001000000080000004000000000EC
:104C7F00010000000A00000064000000E8030000CB
:104C8F0010270000A086010040420F008096980078
:084C9F0000E1F50500CA9A3B93
:104CA70001000000100000000001000000100000DB
:104CB70000000100000010000000000100000010CB
:104CC700303132333435363738394142434445463B
:014CD70000DC
:104CD800303132333435363738396162636465666A
:014CE80000CB
:0F4CE900253032643A253032643A253032640087
:084CF8000303000000000000AE
:084D00000101010101010101A3
:020000040030CA
:0D000100021F1EFF8381FF0FC00FE00F40A4
:00000001FF
