:04000000C2EF0DF04E
:1000080000C01FF001C01EF002C01DF004C01CF0AB
:1000180005C01BF008C01AF009C019F00AC018F092
:100028000BC017F00CC016F00DC015F0F2A214D0DA
:10003800494A4A2A800E006E800E4A18005C02E186
:100048004950B40808E2010E2C6E000E2D6E010E08
:100058004B6E000E4C6EF2929EA243D0474A482A3D
:10006800800E4818006E800E270A005C02E1100E10
:10007800475C02E3476A486A880E046E130E056EF1
:1000880047C000F048C001F0FDDB08C000F009C01F
:1000980001F0000E011802E1000E001807E14050BF
:1000A800411004E0010E3C6E000E3D6EE80E046E39
:1000B800030E056E47C000F048C001F0E3DB08C03E
:1000C80000F009C001F0000E011802E1000E00184E
:1000D80007E14050411004E0010E396E000E3A6EFF
:1000E8009E921FC000F01EC001F01DC002F01CC08F
:1000F80004F01BC005F01AC008F019C009F018C0B8
:100108000AF017C00BF016C00CF015C00DF0110066
:06011800000000001200CF
:10011E008280FF0E956E8292030E8314016E015043
:0A012E00030A01E0F9D782821200F3
:100138008290956A98C283FF8294EADFE9DFE8DF5C
:04014800828412009B
:10014C00E8DF956A98C283FF8294E0DFDFDFDEDFB1
:04015C008284120087
:10016000086A096A100E0C6E01340836093604500C
:10017000085E0550D8A0053C095ED8B007D00450F1
:1001800008260550D8B0053C0926D890003601361F
:060190000C2EEAD712005C
:100196000B6A0A6A096A00500402F4CF09F0F3CF29
:1001A60008F001500502F4CF0BF0F3CF0AF000502F
:1001B6000502F3500926F4500A22E86A0B22015080
:1001C6000402F3500926F4500A22E86A0B2208C0FA
:1001D60000F009C001F00AC002F00BC003F01200E3
:1001E60095C200F0016A00C097F294C298F2A1DFAE
:0E01F60097C298F29EDF96C298F2A5DF120023
:100204000201926B936B66C004F067C005F087C26D
:1002140000F0000E016EA2DF00C08EF201C08FF26A
:1002240088C200F0000E016E62C004F063C005F0E5
:10023400B0DF8E510024926F8F510120936F000123
:100244008B510201922700018C5102019323070E66
:100254008C15016E015000080DE28C338C9F8C3399
:100264008C9F8C338C9F8C2B8C378C918C378C91FE
:100274008C378C918DC200F08D07005240E04DDF29
:1002840092C294F293C295F2240E0201966FA9DFF2
:10029400B00E0201986F58DF8290956A0201906B4C
:1002A400916B66C004F067C005F08CC200F0000ECC
:1002B400016E54DF0150915D02E10050905D16E241
:1002C40089C2F6FF8AC2F7FF8BC2F8FF0900F5CF97
:1002D40083FF010E8927000E8A238B2382941ADF61
:1002E40019DF18DF8284904B912BDBD7B20E986F05
:1002F4002BDF62500201922763509323BBD7120075
:1003040002018251000A07E1A20E006E1D0E016E69
:10031400000E026E12008251010A07E1820E006E85
:100324001D0E016E000E026E12008251020A07E1D8
:10033400E20E006E1D0E016E000E026E120082515E
:10034400030A07E1C20E006E1D0E016E000E026E5E
:1003540012008251611807E1620E006E1D0E016EDB
:10036400000E026E12008251601807E1020E006E48
:100374001D0E016E000E026E120082514D1807E12F
:10038400220E006E1D0E016E000E026E1200420E51
:0C039400006E1D0E016E000E026E1200C5
:1003A0006D866DC098F2D2DE6D946DC098F2CEDE8F
:1003B00082C287F202018737879187378791873713
:1003C00087918737879183C288F2883788918837E9
:1003D0008891883788918837889184C289F285C24C
:1003E0008AF286C28BF2100E8C6F100E8D6F0ADFB0
:0203F0001200F9
:1003F2007DC269F07EC26AF0000E6B6E6C6E010EF9
:04040200686E12000E
:100406007DC200F07EC201F03C0E046E000E056E49
:10041600BFDE8D0E0024036E000E0120046E7FC227
:1004260000F080C201F000360090013600360090E0
:10043600013600500324E96E01500420EA6EEECF27
:1004460082F25DDF00C084F201C085F202C086F24E
:0C0456007DC282F27FC283F2A0DF1200A0
:1004620002017D077D077DC201F07D070150000872
:1004720003E200000000F7D70000000000000000C7
:040482000000120064
:10048600400E006E1F0E016E000E026E036E12000D
:1004960081C298F258DE80C200F0000E016E62C082
:1004A60004F063C005F074DE02017F510024946FEE
:1004B600000E0120956F6450942765509523240EF5
:1004C600966F8EDE7DC2E9FF7EC2EAFFEE520FE036
:1004D6007DC2E9FF7EC2EAFF200EEE5C0201986F44
:1004E60028DE7D4B7E2BC00E986F2DDEEBD71200DB
:1004F6000B6A0A6A096A086A0E6A033408360450E7
:10050600085E0550D8A0053C095E0650D8A0063CFA
:100516000A5E0750D8A0073C0B5EE86AD8A0010E19
:100526000E5E0336070E0C6E0334083609360A369D
:100536000B360E36045003A012D0085E0550D8A024
:10054600053C095E0650D8A0063C0A5E0750D8A0B6
:10055600073C0B5EE86AD8A0010E0E5E11D0082695
:100566000550D8B0053C09260650D8B0063C0A26E8
:100576000750D8B0073C0B26E86AD8B0010E0E2605
:1005860003360C2ED1D70234083609360A360B3616
:100596000E36045003A012D0085E0550D8A0053CC4
:1005A600095E0650D8A0063C0A5E0750D8A0073C54
:1005B6000B5EE86AD8A0010E0E5E11D00826055023
:1005C600D8B0053C09260650D8B0063C0A26075086
:1005D600D8B0073C0B26E86AD8B0010E0E260236C4
:1005E600070E0C6E0234083609360A360B360E36FE
:1005F600045002A012D0085E0550D8A0053C095E42
:100606000650D8A0063C0A5E0750D8A0073C0B5EF1
:10061600E86AD8A0010E0E5E11D008260550D8B0A3
:10062600053C09260650D8B0063C0A260750D8B025
:10063600073C0B26E86AD8B0010E0E2602360C2EB1
:10064600D1D70134083609360A360B360E36045031
:1006560002A012D0085E0550D8A0053C095E0650DF
:10066600D8A0063C0A5E0750D8A0073C0B5EE86A95
:10067600D8A0010E0E5E11D008260550D8B0053C54
:1006860009260650D8B0063C0A260750D8B0073CC3
:100696000B26E86AD8B0010E0E260136070E0C6E40
:1006A6000134083609360A360B360E36045001A0D8
:1006B60012D0085E0550D8A0053C095E0650D8A0A9
:1006C600063C0A5E0750D8A0073C0B5EE86AD8A035
:1006D600010E0E5E11D008260550D8B0053C09263D
:1006E6000650D8B0063C0A260750D8B0073C0B2661
:1006F600E86AD8B0010E0E2601360C2ED1D700348A
:10070600083609360A360B360E36045001A012D0CA
:10071600085E0550D8A0053C095E0650D8A0063CE8
:100726000A5E0750D8A0073C0B5EE86AD8A0010E07
:100736000E5E11D008260550D8B0053C0926065095
:10074600D8B0063C0A260750D8B0073C0B26E86A04
:10075600D8B0010E0E260036070E0C6E0034083691
:1007660009360A360B360E36045000A012D0085E43
:100776000550D8A0053C095E0650D8A0063C0A5E86
:100786000750D8A0073C0B5EE86AD8A0010E0E5EA3
:1007960011D008260550D8B0053C09260650D8B019
:1007A600063C0A260750D8B0073C0B26E86AD8B0A4
:1007B600010E0E2600360C2ED1D700B00ED00450F6
:1007C60008260550D8B0053C09260650D8B0063C88
:0C07D6000A260750D8B0073C0B26120082
:1007E200220E0C6E086A096A0A6A0B6A0C06D8B4F1
:1007F2001FD0D8900B320A32093208320332023249
:1008020001320032D8A0F2D70C06D8B409D0045075
:1008120008260550092206500A2207500B22EAD761
:10082200045008260550092206500A2207500B22BE
:020832001200B2
:100834000134083609360450085E0550D8A0053C3A
:10084400095E003601360F0E0C6E01340836093687
:10085400045000A006D0085E0550D8A0053C095EEF
:1008640005D008260550D8B0053C092600360136C7
:100874000C2EEBD700B006D0045008260550D8B093
:08088400053C092600001200EA
:10088C000450000A08E10550000A05E1FF0E006E55
:10089C007F0E016E12000D6A096A086A0150001081
:1008AC00D8B4000C015005180A6E0ABE0D1E0B6A56
:1008BC0005AE05D0041E051E042AD8B4052A01AEC7
:1008CC0005D0001E011E002AD8B4012A01500510C3
:1008DC000A6E0ABE10D0A8DF0BB020D00DAE000CF3
:1008EC00001E011E002AD8B4012A081E091E082A5F
:1008FC00D8B4092A000C05AE0DD001BE07D00150AA
:10090C00096E0050086E016A006AE8D7016A006A35
:10091C00002A000C011E001E0B2ADDD7082AD8B4B1
:10092C00092A0450085CD8A4D9D70550095CD8A46E
:10093C00D5D7096A086A002AD8B4012A01AECED7E5
:06094C000000FF0C120088
:100952006D966DC098F2A6EC00F06D846DC098F2B1
:10096200A6EC00F073C27DF274C27EF2020172053F
:0E0972007F6F7105806F810E816F8CDD12002A
:10098000685206E1010E02017D6F000E7E6F31DDBF
:1009900069C000F06AC001F06BC002F06CC003F0E7
:1009A0006D0E046E4E0E056EC60E066E410E076E7F
:1009B00018DF390E0024056E300E0120066E000E81
:1009C0000220076E000E0320086E07C000F008C06A
:1009D00001F0000E08BEFF0E036EFF0E00167F0E24
:1009E0000116000E0216031600C069F001C06AF07D
:0A09F00002C06BF003C06CF01200AF
:1009FA005E6A5F6A800E5F18006E800E005C02E11C
:100A0A000F0E5E5C1AE25C6A5D6A800E5D18006E0B
:100A1A00800E005C02E1080E5C5C0CE25EC07DF2B6
:100A2A005FC07EF25CC07FF25DC080F2E7DC5C4AA8
:0C0A3A005D2AEBD75E4A5F2ADDD7120070
:0E0A4600ACB202D00000FCD771C2ADFF1200AE
:100A54000201766B776B8FEC00F00201725100019A
:100A64008B250201946F735100018C210201956F53
:100A7400240E966FF3EC00F0B00E0201986FA6EC12
:100A840000F08290956A02017551775D02E174511C
:100A9400765D0DE271C283FF82948CEC00F08CECE5
:100AA40000F08CEC00F08284764B772BECD7B20EFE
:080AB400986FA6EC00F012009F
:100ABC00800E3418006E800E02017219005C02E187
:100ACC007151335C03E2010E006E1200800E72193C
:100ADC00006E800E3418005C02E13350715D03E24D
:100AEC00030E006E1200800E3218006E800E741908
:100AFC00005C02E17351315C03E2020E006E1200E5
:100B0C00800E7419006E800E3218005C02E13150B8
:0E0B1C00735D02E2006A12002EC000F01200AB
:100B2A00ADDCE80E046E030E056E000E066E076E4F
:100B3A0053DE00C079F201C07AF202C07BF203C030
:100B4A007CF271C204F072C205F0000E066E076EE6
:100B5A00CDDC00C079F201C07AF202C07BF203C098
:100B6A007CF200C005F001C006F002C007F003C025
:100B7A0008F00832073206320532089E0832073278
:100B8A0006320532089E05C000F006C001F007C013
:100B9A0002F008C003F00332023201320032039E2F
:100BAA0000C075F201C076F269DC73C204F074C247
:100BBA0005F0000E066E076E0FDE75C209F076C2EA
:100BCA000AF0000E0B6E0C6E030E086E09C004F0DC
:100BDA000AC005F00BC006F00CC007F0085007E089
:100BEA0004360490053606360736FF0FF8D77EDC42
:100BFA0000C079F201C07AF202C07BF203C07CF233
:100C0A000A0E046E000E056E75C200F076C201F07F
:100C1A00B0EC00F000C075F201C076F2000E015C83
:100C2A0002E1030E005C01E212006EC0E9FF6FC030
:100C3A00EAFF02017C51000808E17B51000805E146
:100C4A007A51000802E17951000833E27050EF123C
:100C5A0076530EE0776B786B000E785D02E1765181
:100C6A00775D06E27D6B31EC02F0774B782BF4D797
:100C7A0075C27DF231EC02F07150EF1676530EE038
:100C8A00776B786B000E785D02E17651775D06E24C
:100C9A007D6B31EC02F0774B782BF4D775C27DF27D
:100CAA0031EC02F0010E795F000E7A5B7B5B7C5BB4
:080CBA00C0D77150EF161200C3
:100CC200020E0B6E040E0C6EBA0E0D6E0D2EFED7BA
:0C0CD2000C2EFCD70B2EFAD700001200ED
:100CDE002FC02AF030C02BF0800E3018006E800E20
:100CEE003418005C02E133502F5C07E2010E2F2412
:100CFE002A6E000E30202B6E10D0800E3418006E2F
:100D0E00800E3018005C02E12F50335C06E2010EBB
:100D1E002F5C2A6E000E30582B6E2AC000F02BC0AE
:100D2E0001F03C0E046E000E056ECBEC00F08D0E45
:100D3E000024036E000E0120046E35C000F036C094
:100D4E0001F000360090013600360090013600505A
:100D5E000324E96E01500420EA6EEECF01F0EECFCF
:100D6E0002F0EECF03F0EECF04F0000E006E04188A
:100D7E0008E10050031805E10050021802E101508D
:100D8E004D18D8A488D02FC02AF030C02BF02FC019
:100D9E0000F030C001F03C0E046E000E056ECBEC80
:100DAE0000F08D0E0024056E000E0120066E010E61
:100DBE003524036E000E3620046E03C000F004C00E
:100DCE0001F00036009001360036009001360050DA
:100DDE000524E96E01500620EA6EEECF01F0EECF4B
:100DEE0002F0EECF03F0EECF04F0000E006E04180A
:100DFE0008E10050031805E10050021802E101500D
:100E0E004D1807E0010E3524286E000E3620296E8F
:100E1E0041D02FC000F030C001F03C0E046E000E29
:100E2E00056ECBEC00F08D0E0024056E000E012039
:100E3E00066E010E355C036E000E3658046E03C04E
:100E4E0000F004C001F0003600900136003600902C
:100E5E00013600500524E96E01500620EA6EEECFF1
:100E6E0001F0EECF02F0EECF03F0EECF04F0000E65
:100E7E00006E041808E10050031805E10050021836
:100E8E0002E101504D1806E0010E355C286E000E91
:100E9E003658296E9ED02B50301802E12F502A184A
:100EAE00D8A497D0800E3618006E800E3218005CD3
:100EBE0002E13150355C42E22FC000F030C001F04B
:100ECE003C0E046E000E056ECBEC00F08D0E002471
:100EDE00056E000E0120066E010E3524036E000E07
:100EEE003620046E03C000F004C001F000360090FE
:100EFE00013600360090013600500524E96E01508F
:100F0E000620EA6EEECF01F0EECF02F0EECF03F048
:100F1E00EECF04F0000E006E041808E10050031826
:100F2E0005E10050021802E101504D1807E0010ED4
:100F3E003524286E000E3620296E4BD0800E3218C6
:100F4E00006E800E3618005C02E13550315C41E2D5
:100F5E002FC000F030C001F03C0E046E000E056E86
:100F6E00CBEC00F08D0E0024056E000E0120066EF7
:100F7E00010E355C036E000E3658046E03C000F091
:100F8E0004C001F0003600900136003600900136A4
:100F9E0000500524E96E01500620EA6EEECF01F0F6
:100FAE00EECF02F0EECF03F0EECF04F0000E006EA7
:100FBE00041808E10050031805E10050021802E180
:100FCE0001504D1806E0010E355C286E000E3658A5
:100FDE00296E2FC000F030C001F03C0E046E000EE2
:100FEE00056ECBEC00F08D0E0024036E000E01207A
:100FFE00046E35C000F036C001F0003600900136A8
:10100E0000360090013600500324E16E015004209A
:10101E00E26E44C0E6FF000EE66EE66EE66E2FC090
:10102E007DF230C07EF235C07FF236C080F203EC26
:10103E0002F02AC000F02BC001F03C0E046E000E30
:10104E00056ECBEC00F08D0E0024036E000E012019
:10105E00046E28C000F029C001F000360090013661
:10106E00003600900136035000260450012200C0C5
:10107E00E9FF01C0EAFFEECF44F000C0E1FF01C07E
:10108E00E2FF60C0E6FF000EE66EE66EE66E2AC078
:10109E007DF22BC07EF228C07FF229C080F203ECD5
:1010AE0002F028C035F029C036F02AC02FF02BC030
:0410BE0030F01200FC
:1010C20002016F6B6DC2E9FF6EC2EAFFEECF80F0E4
:1010D20000018051000A0EE080C071F2B3DC02010F
:1010E2006F2B6F516D25E96E000E6E21EA6EEECF09
:0610F20080F0EED71200B1
:1010F800410E0201716F000E726FC80E736F000E01
:10110800746F0FDD410E0201716F000E726FC80E11
:10111800736F000E746F05DD010E0201716F000E12
:10112800726FC80E736F000E746FFBDC410E020104
:10113800716F000E726FC80E736F000E746FF1DC62
:10114800570E0201716F000E726FE80E736F030E77
:10115800746FE7DC060E0B6E130E0C6EAD0E0D6E83
:101168000D2EFED70C2EFCD70B2EFAD70000000050
:10117800830E0201716F000E726F640E736F000EA2
:10118800746FCFDC7B0E0201716F000E726F640EFC
:10119800736F000E746FC5DC6E0E0201716F000E66
:1011A800726F640E736F000E746FBBDC620E020107
:1011B800716F000E726F640E736F000E746FB1DC86
:1011C800410E0201716F000E726F640E736F000E94
:0611D800746FA7DC120099
:1011DE00460E0001816F0A0E826F710E836F020E32
:1011EE00846FFF0E7A6EFF0E7B6E000E7C6E000E0D
:1011FE007D6EFF0E856FFF0E866F000E876F000EE1
:10120E00886FFF0E766EFF0E776E000E786E000EF4
:10121E00796EAC8A900EAB6E948E949C9EAA03D07F
:08122E00AECF00F0FBD7120067
:101236000900F5CFE6FF0006FBE10106F9E1120021
:101246006DC26EF06EC26FF06FC201F0010E006EDD
:10125600015004E000360090FF0FFBD700C070F08D
:10126600001E00C071F0120E02016D25E96E000E1F
:101276006E21EA6E0050EF16120EE95E0050EF1670
:02128600120054
:10128800949894968B988B9694889486C79EC79CBE
:06129800380EC66E1200C4
:10129E006DC272F06EC273F06FC274F0000E756E96
:1012AE0070C266F0000E676E66C004F067C005F08F
:1012BE006DC200F06EC201F0B0EC00F000C062F042
:1012CE0001C063F074C004F075C005F0CBEC00F003
:1012DE0000C07EF001C07FF074C000F075C001F058
:1012EE0001320032019E01320032019E0132003283
:1012FE00019E62C004F063C005F0CBEC00F000C0AC
:10130E0089F001C08AF0949494929490949A828475
:10131E0082828280828AFF0E956E829ACBDC828ACE
:10132E00C9DC810E0201986FA6EC00F070C204F0C9
:10133E00000E056E72C000F073C001F0B0EC00F04C
:10134E0000C094F201C095F2430E0201966FF3ECC9
:10135E0000F062C094F263C095F2410E0201966FE6
:10136E00F3EC00F0000189517E240201746F00013C
:10137E008A517F200201756F00018B6B8C6B7EC0D2
:10138E0064F07FC065F00201716B726B736B2AECB7
:10139E0005F0900E6D6E0201946B956B420E966F7A
:1013AE00F3EC00F07EC094F27FC095F2400E020185
:0813BE00966FF3EC00F0120041
:1013C6003C0ECA6E9D82F90ECB6ED00EF26E1200E6
:1013D6005E6A5F6A800E5F18006E800E005C02E136
:1013E6000F0E5E5C37E25C6A5D6A800E5D18006E09
:1013F600800E005C02E1080E5C5C29E25EC000F033
:101406005FC001F03C0E046E000E056ECBEC00F0E2
:101416008D0E0024036E000E0120046E5CC000F0E9
:101426005DC001F0003600900136003600900136AE
:1014360000500324E16E01500420E26E200EE66E99
:10144600000EE66EE66EE66E5C4A5D2ACED75E4A12
:101456005F2AC0D7FDEC04F04B504C100CE0020E96
:101466000201716F010E726F4E0E736F000E746F74
:10147600A9EC04F00BD0020E0201716F010E726F1F
:0E148600580E736F000E746FA9EC04F0120084
:10149400100E836E80AA06D080AA01D0FDD7370E25
:1014A400006E120081A206D081A201D0FDD7380EB1
:1014B400006E120081A406D081A401D0FDD7390E9C
:1014C400006E120081A606D081A601D0FDD7250E9C
:1014D400006E1200200E836E80AA06D080AA01D06E
:1014E400FDD7340E006E120081A206D081A201D075
:1014F400FDD7350E006E120081A406D081A401D060
:10150400FDD7360E006E120081A606D081A601D04A
:10151400FDD72A0E006E1200400E836E80AA06D0FC
:1015240080AA01D0FDD7310E006E120081A206D030
:1015340081A201D0FDD7320E006E120081A406D024
:1015440081A401D0FDD7330E006E120081A606D00F
:1015540081A601D0FDD72D0E006E1200800E836E81
:1015640080AA06D080AA01D0FDD7430E006E1200D7
:1015740081A206D081A201D0FDD7300E006E1200E8
:1015840081A406D081A401D0FDD73D0E006E1200C7
:1015940081A606D081A601D0FDD72B0E006E1200C5
:0615A400FF0E006E1200B4
:1015AA005E6A5F6A800E5F18006E800E005C02E160
:1015BA000F0E5E5C37E25C6A5D6A800E5D18006E33
:1015CA00800E005C02E1080E5C5C29E25EC000F05D
:1015DA005FC001F03C0E046E000E056ECBEC00F00D
:1015EA008D0E0024036E000E0120046E5CC000F014
:1015FA005DC001F0003600900136003600900136D9
:10160A0000500324E16E01500420E26E200EE66EC3
:10161A00000EE66EE66EE66E5C4A5D2ACED75E4A3C
:10162A005F2AC0D74DC0B9F1000E0101BA6FBB6F76
:10163A00BC6F4DC0BDF1000EBE6FBF6FC06F4DC015
:10164A0019F1000E1A6F1B6F1C6F4DC035F3000E97
:10165A000301366F376F386F4DC0FDF2000E02017D
:10166A00FE6FFF6F0301006F4DC055F1000E0101BF
:10167A00566F576F586F4DC091F1000E926F936F6E
:10168A00946F4DC035F3000E0301366F376F386F14
:10169A004DC0E9F3000EEA6FEB6FEC6F4DC075F3C6
:1016AA00000E766F776F786F4DC0B5F3000EB66F88
:1016BA00B76FB86F4DC049F1000E01014A6F4B6F09
:1016CA004C6F4DC079F2000E02017A6F7B6F7C6F0E
:1016DA004DC081F1000E0101826F836F846F61C07A
:1016EA0035F3000E0301366F376F386F61C0C5F1ED
:1016FA00000E0101C66FC76FC86F61C075F2000E98
:10170A000201766F776F786F61C04DF2000E4E6FEF
:10171A004F6F506F2FC000F030C001F03C0E046EC6
:10172A00000E056ECBEC00F08D0E0024036E000E49
:10173A000120046E35C000F036C001F0003600907A
:10174A00013600360090013600500324E16E015044
:10175A000420E26E60C0E6FF000EE66EE66EE66EFC
:10176A0033C000F034C001F03C0E046E000E056E6A
:10177A00CBEC00F08D0E0024036E000E0120046EE7
:10178A0031C000F032C001F0003600900136003658
:10179A000090013600500324E16E01500420E26EED
:1017AA002EC0E6FF000EE66EE66EE66EFDEC04F075
:0217BA0012001B
:1017BC0000018051000A0BE133C024F034C025F045
:1017CC00010E315C226E000E3258236E29D08051EE
:1017DC00010A0BE1010E3324246E000E3420256E19
:1017EC0031C022F032C023F01BD08051020A0BE131
:1017FC0033C024F034C025F0010E3124226E000ECB
:10180C003220236E0DD08051030A0AE1010E335CA5
:10181C00246E000E3458256E31C022F032C023F0F5
:10182C0024C071F225C072F222C073F223C074F28C
:10183C005EEC05F000C020F0000E216E800E251825
:10184C00006E800E005C02E1000E245C04E20E0EC1
:10185C00246E000E256E800E006E800E2518005C26
:10186C0002E124500E0802E2246A256A800E231835
:10187C00006E800E005C02E1000E225C04E2070E9A
:10188C00226E000E236E800E006E800E2318005CFC
:10189C0002E12250070802E2226A236A24C000F007
:1018AC0025C001F03C0E046E000E056ECBEC00F072
:1018BC008D0E0024036E000E0120046E22C000F079
:1018CC0023C001F00036009001360036009001363E
:1018DC0000500324E96E01500420EA6EEECF01F0B3
:1018EC00EECF02F0EECF03F0EECF04F0000E006E60
:1018FC00041808E10050031805E10050021802E139
:10190C0001504D18D8B4AFD024C000F025C001F060
:10191C003C0E046E000E056ECBEC00F08D0E002418
:10192C00036E000E0120046E22C000F023C001F0F3
:10193C00003600900136003600900136005003242A
:10194C00E96E01500420EA6EEECF01F0EECF02F00A
:10195C00EECF03F0EECF04F0000E006E041808E199
:10196C000050031805E10050021802E10150611803
:10197C0004E1010E265E000E275A000E271802E124
:10198C00000E261806E1010E2C6E000E2D6E4B6A11
:10199C004C6A20C02EF033C000F034C001F03C0E75
:1019AC00046E000E056ECBEC00F08D0E0024036E61
:1019BC00000E0120046E31C000F032C001F0003680
:1019CC000090013600360090013600500324E16E81
:1019DC0001500420E26E200EE66E000EE66EE66EFE
:1019EC00E66E33C07DF234C07EF231C07FF232C07D
:1019FC0080F203EC02F024C000F025C001F03C0E94
:101A0C00046E000E056ECBEC00F08D0E0024036E00
:101A1C00000E0120046E22C000F023C001F000363D
:101A2C000090013600360090013600500324E16E20
:101A3C0001500420E26E2EC0E6FF000EE66EE66E4C
:101A4C00E66E24C07DF225C07EF222C07FF223C058
:101A5C0080F203EC02F024C033F025C034F022C035
:081A6C0031F023C032F012003A
:101A7400C0EC04F00F0E046E000E056E46EC04F08C
:101A840008C000F009C001F000C042F001C043F0FA
:101A9400C0EC04F0080E046E000E056E46EC04F073
:101AA40008C000F009C001F000C045F001C046F0D4
:101AB40042C000F043C001F03C0E046E000E056EFF
:101AC400CBEC00F08D0E0024036E000E0120046E9A
:101AD40045C000F046C001F00036009001360036E3
:101AE4000090013600500324E96E01500420EA6E90
:101AF400EECF01F0EECF02F0EECF03F0EECF04F024
:101B0400000E006E041808E10050031805E10050AF
:101B1400021802E10150200A32E142C000F043C041
:101B240001F03C0E046E000E056ECBEC00F08D0E41
:101B34000024036E000E0120046E45C000F046C070
:101B440001F0003600900136003600900136005056
:101B54000324E16E01500420E26E61C0E6FF000E32
:101B6400E66EE66EE66E42C07DF243C07EF245C08C
:101B74007FF246C080F203EC02F0264A272A1200C4
:101B840001EC0FF0190EAF6EAC84EFEC08F0140EFC
:101B9400C86E44EC09F00E0EC16E0F0E936E210E4A
:101BA400926E92869288820E02016D6F0F0E6E6F96
:101BB400050E6F6F23EC09F07CEC08F0F00E0201C7
:101BC4006D6F000E6E6F800E6F6F080E706F4FECAE
:101BD40009F06D866DC098F2A6EC00F06D846DC0BE
:101BE40098F2A6EC00F0E3EC09F0DDDC010E406EA7
:101BF400000E416E2C502D1001E05DD03450301891
:101C040002E12F5033180EE13250361802E13550FC
:101C1400311808E1010E2C6E000E2D6E010E4B6E74
:101C2400000E4C6E35DC00C03BF00050380A04E175
:101C34000001806BC1DD17D03B50360A05E1010E6F
:101C44000001806FB9DD0FD03B50320A05E1020E6E
:101C54000001806FB1DD07D03B50340A04E1030E6C
:101C64000001806FA9DD39503A100BE0396A3A6AF5
:101C7400370E02016D6F000E6E6F61EC08F06FECB1
:101C840006F03C503D100AE002013C6A3D6A3E0EFB
:101C94006D6F000E6E6F61EC08F0EADE000E275CDB
:101CA40002E1010E265C06E2010E2C6E000E2D6E82
:0C1CB4004B6A4C6A9FD7EBEC09F0FFD79D
:101E020010EE20F0420E006E010E016EC00EF66E54
:0E1E12001C0EF76E000EF86E1BEC09F01200AD
:021CC000000022
:021CC200000020
:021CC40000001E
:021CC600030019
:021CC80000001A
:021CCA00000018
:021CCC00000016
:011CCE000114
:021CCF000E0005
:021CD100000011
:021CD30000000F
:021CD50000000D
:021CD7005800B3
:021CD900000009
:011CDB000008
:021CDC00000006
:021CDE005900AB
:021CE000000002
:021CE200000000
:011CE40020DF
:021CE5000000FD
:021CE7000000FB
:021CE9000000F9
:021CEB000000F7
:011CED0004F2
:0A1CEE0047616D65206F7665720096
:041CF80057696E00BA
:021CFC000000E6
:021CFE000000E4
:011D000006DC
:011D010005DC
:101D020000000FF01FF83FFC7FFE73CE73CE7FFE04
:101D12007FFE7FFE799E766E7FFE6EEE4446000069
:101D220000003FFC5FFA6FF677EE7BDE7DBE7E7EC3
:101D32007E7E7DBE7BDE77EE6FF65FFA3FFC0000B3
:101D42000000000000000000000000000000000091
:101D52000000000000000000000000000000000081
:101D6200000000000000000000000000018003C02D
:101D720003C001800000000000000000000000001D
:101D8200000007F01FF83FFC3F3E7F3E7FFC7FF8DC
:101D92007FE07FC07FFE3FFE3FFC1FF807F00000A0
:101DA200000008001818383C787E78FE79CE7BCE89
:101DB2007FFE7FFE7FFE7FFE3FFC1FF80FF00000DC
:101DC20000000FF01FF83FFC7CFE7CFE3FFE0FFE82
:101DD20003FE01FE7FFE7FFE3FFC1FF80FF00000B6
:101DE20000000FF01FF83FFC7FFE7FFE7FFE7FFEAC
:101DF2007BCE79CE78FE787E383C18180800000039
:020000040030CA
:0D000100021F1EFF8381FF0FC00FE00F40A4
:00000001FF
