:04000000D8EF09F03C
:1000080000C015F0F2A214D0494A4A2A800E006EA8
:10001800800E4A18005C02E14950B40808E2010E5B
:10002800256E000E266E010E186E000E196EF292E5
:100038009EA214D04B4A4C2A800E4C18006E800E9B
:10004800030A005C02E1E80E4B5C07E380724B6A2E
:100058004C6A010E2D6E000E2E6E9E9215C000F099
:02006800110085
:06006A000000000012007E
:100070008280FF0E956E8292030E8314016E0150F2
:0A008000030A01E0F9D782821200A2
:10008A008290956A8EC183FF8294EADFE9DFE8DF16
:04009A00828412004A
:10009E00E8DF956A8EC183FF8294E0DFDFDFDEDF6B
:0400AE008284120036
:1000B200086A096A100E0C6E0134083609360450BB
:1000C200085E0550D8A0053C095ED8B007D00450A0
:1000D20008260550D8B0053C0926D89000360136CE
:0600E2000C2EEAD712000B
:1000E8000B6A0A6A096A00500402F4CF09F0F3CFD8
:1000F80008F001500502F4CF0BF0F3CF0AF00050DE
:100108000502F3500926F4500A22E86A0B2201502E
:100118000402F3500926F4500A22E86A0B2208C0A8
:1001280000F009C001F00AC002F00BC003F0120091
:100138008BC100F0016A00C08DF18AC18EF1A1DF88
:0E0148008DC18EF19EDF8CC18EF1A5DF1200FD
:100156000101886B896B62C004F063C005F07DC144
:1001660000F0000E016EA2DF00C084F101C085F12F
:100176007EC100F0000E016E57C004F058C005F0B5
:10018600B0DF84510024886F85510120896F645146
:10019600882765518923070E8215016E01500008D4
:1001A6000DE28233829F8233829F8233829F822B2B
:1001B60082378291823782918237829183C100F0A1
:1001C6008307005240E051DF88C18AF189C18BF173
:1001D600240E01018C6FADDFB00E01018E6F5CDF66
:1001E6008290956A0101866B876B62C004F063C0DA
:1001F60005F082C100F0000E016E58DF0150875DE8
:1002060002E10050865D16E27FC1F6FF80C1F7FF6E
:1002160081C1F8FF0900F5CF83FF010E7F27000E8D
:100226008023812382941EDF1DDF1CDF8284864BA0
:10023600872BDBD7B20E8E6F2FDF57500101882731
:0802460058508923BBD71200B8
:10024E0001017851000A07E1810E006E150E016E54
:10025E00000E026E12007851010A07E1610E006E67
:10026E00150E016E000E026E12007851020A07E1A1
:10027E00C10E006E150E016E000E026E1200785148
:10028E00030A07E1A10E006E150E016E000E026E3E
:10029E0012007851161807E1410E006E150E016E10
:1002AE00000E026E12007851431807E1E10E006E47
:1002BE00140E016E000E026E12007851171807E12F
:1002CE00010E006E150E016E000E026E1200210E52
:0C02DE00006E150E016E000E026E120084
:1002EA005B865BC08EF1D6DE5B945BC08EF1D2DE9C
:1002FA0078C17DF101017D377D917D377D917D3713
:10030A007D917D377D9179C17EF17E377E917E37F1
:10031A007E917E377E917E377E917AC17FF17BC155
:10032A0080F17CC181F1100E826F100E836F0EDF97
:02033A001200AF
:10033C0073C100F074C101F01E0E046E000E056E48
:10034C00CDDE740E0024036E000E0120046E75C108
:10035C0000F076C101F00036009001360050032405
:10036C00E96E01500420EA6EEECF78F16ADF00C02E
:10037C007AF101C07BF102C07CF173C178F175C1D7
:06038C0079F1ADDF120063
:10039200220E0C6E086A096A0A6A0B6A0C06D8B445
:1003A2001FD0D8900B320A3209320832033202329D
:1003B20001320032D8A0F2D70C06D8B409D00450CA
:1003C20008260550092206500A2207500B22EAD7B6
:1003D200045008260550092206500A2207500B2213
:0203E200120007
:1003E40077C18EF15ADE76C100F0000E016E57C05F
:1003F40004F058C005F076DE0101755100248A6FBF
:10040400000E01208B6F59508A275A508B23240EDB
:100414008C6F90DE73C1E9FF74C1EAFFEE520FE006
:1004240073C1E9FF74C1EAFF200EEE5C01018E6F17
:100434002ADE734B742BC00E8E6F2FDEEBD71200A7
:100444005B965BC08EF129DE5B845BC08EF125DE9A
:100454006EC173F16FC174F101016D05756F6C05A7
:0A046400766F810E776FBCDF120087
:10046E00800E2418006E800E01016D19005C02E1F1
:10047E006C51235C03E2010E006E1200800E6D19AA
:10048E00006E800E2418005C02E123506C5D03E2C6
:10049E00030E006E1200800E2018006E800E6F1973
:1004AE00005C02E16E511F5C03E2020E006E120050
:1004BE00800E6F19006E800E2018005C02E11F5036
:0E04CE006E5D02E2006A12001EC000F0120015
:0E04DC00ACB202D00000FCD76CC1ADFF120024
:1004EA00020E0B6E040E0C6EBA0E0D6E0D2EFED79A
:0C04FA000C2EFCD70B2EFAD700001200CD
:100506004F6A506A800E5018006E800E005C02E141
:100516000F0E4F5C1AE24D6A4E6A800E4E18006E40
:10052600800E005C02E1080E4D5C0CE24FC073F1D8
:1005360050C074F14DC075F14EC076F1FCDE4D4AE7
:0C0546004E2AEBD74F4A502ADDD7120096
:100552006CC153F06DC154F0000E556E566E53C00F
:1005620000F054C001F055C002F056C003F06D0E09
:10057200046E4E0E056EC60E066E410E076E08DF45
:10058200390E0024056E300E0120066E000E022088
:10059200076E000E0320086E05C053F006C054F02B
:1005A20007C055F008C056F007C000F008C001F0BF
:0E05B200026A036AFF0E00167F0E0116120089
:1005C0000101716B726B54DD01016D5164258A6FFD
:1005D0006E5165218B6F240E8C6FAEDDB00E010164
:1005E0008E6F5DDD8290956A01017051725D02E14E
:1005F0006F51715D0AE26CC183FF829436DD35DD97
:1006000034DD8284714B722BEFD7B20E8E6F47DDD3
:020610001200D6
:10061200100E836E80AA06D080AA01D0FDD7370EB5
:10062200006E120081A206D081A201D0FDD7380E41
:10063200006E120081A406D081A401D0FDD7390E2C
:10064200006E120081A606D081A601D0FDD7250E2C
:10065200006E1200200E836E80AA06D080AA01D0FE
:10066200FDD7340E006E120081A206D081A201D005
:10067200FDD7350E006E120081A406D081A401D0F0
:10068200FDD7360E006E120081A606D081A601D0DB
:10069200FDD72A0E006E1200400E836E80AA06D08D
:1006A20080AA01D0FDD7310E006E120081A206D0C1
:1006B20081A201D0FDD7320E006E120081A406D0B5
:1006C20081A401D0FDD7330E006E120081A606D0A0
:1006D20081A601D0FDD72D0E006E1200800E836E12
:1006E20080AA06D080AA01D0FDD7430E006E120068
:1006F20081A206D081A201D0FDD7300E006E120079
:1007020081A406D081A401D0FDD73D0E006E120057
:1007120081A606D081A601D0FDD72B0E006E120055
:06072200FF0E006E120044
:1007280068C166F169C167F16AC172F0000E736E43
:100738006BC162F0000E636E62C004F063C005F026
:1007480068C100F069C101F0B0DC00C057F001C019
:1007580058F072C004F073C005F0C2DC00C064F049
:1007680001C065F072C000F073C001F001320032C0
:10077800019E01320032019E01320032019E57C0B3
:1007880004F058C005F0ACDC00C05CF001C05DF0BE
:10079800949494929490949A828482828280828A99
:1007A800FF0E956E829A9DDE828A9BDE810E010184
:1007B8008E6F71DC6BC104F0000E056E66C100F02F
:1007C80067C101F072DC00C08AF101C08BF1430EF1
:1007D80001018C6FADDC57C08AF158C08BF1410E16
:1007E80001018C6FA5DC5C50642401016F6F5D50C2
:1007F8006520706F646B656B64C059F065C05AF012
:100808006C6B6D6B6E6BD8DE900E5B6E01018A6B44
:100818008B6B420E8C6F8CDC64C08AF165C08BF1E7
:0A082800400E01018C6F84DC120009
:100832000900F5CFE6FF0006FBE10106F9E112002F
:10084200DC0E5E6E040E5F6E6C0E606E010E616EEB
:10085200FF0E666EFF0E676E000E686E000E696E0A
:10086200FF0E6A6EFF0E6B6E000E6C6E000E6D6EEA
:10087200FF0E6E6EFF0E6F6E000E706E000E716ECA
:10088200AC8A900EAB6E948E949C9EAA03D0AECF8F
:0608920000F0FBD712008C
:10089800949894968B988B9694889486C79EC79CB8
:0608A800380EC66E1200BE
:1008AE0001016851000A0BE123C051F024C052F03F
:1008BE00010E1F5C216E000E2058226E29D0685149
:1008CE00010A0BE1010E2324516E000E2420526EFC
:1008DE001FC021F020C022F01BD06851020A0BE18C
:1008EE0023C051F024C052F0010E1F24216E000EC1
:1008FE002020226E0DD06851030A0AE1010E235CFE
:10090E00516E000E2458526E1FC021F020C022F0EE
:10091E0051C06CF152C06DF121C06EF122C06FF169
:10092E009FDD00C029F0000E2A6E800E5218006E58
:10093E00800E005C02E1000E515C04E20E0E516E60
:10094E00000E526E800E006E800E5218005C02E198
:10095E0051500E0802E2516A526A800E2218006E41
:10096E00800E005C02E1000E215C04E2070E216E97
:10097E00000E226E800E006E800E2218005C02E1C8
:10098E002150070802E2216A226A000E281802E1AD
:10099E00000E271806E1010E256E000E266E186A4F
:1009AE00196A51C000F052C001F01E0E046E000E06
:1009BE00056E74EC00F0740E0024036E000E012020
:1009CE00046E21C000F022C001F000360090013606
:1009DE0000500324E96E01500420EA6EEECF01F0C0
:1009EE00EECF02F0000E021802E117500118D8B433
:1009FE0089D051C000F052C001F01E0E046E000EE0
:100A0E00056E74EC00F0740E0024036E000E0120CF
:100A1E00046E21C000F022C001F0003600900136B5
:100A2E0000500324E96E01500420EA6EEECF01F06F
:100A3E00EECF02F0000E021802E11650011804E18A
:100A4E00010E275E000E285A29C01EF023C000F0AA
:100A5E0024C001F01E0E046E000E056E74EC00F044
:100A6E00740E0024036E000E0120046E1FC000F0F1
:100A7E0020C001F000360090013600500324E16ED4
:100A8E0001500420E26E200EE66E000EE66E23C0CC
:100A9E0073F124C074F11FC075F120C076F147DCEC
:100AAE0051C000F052C001F01E0E046E000E056E15
:100ABE0074EC00F0740E0024036E000E0120046E20
:100ACE0021C000F022C001F0003600900136005027
:100ADE000324E16E01500420E26E1EC0E6FF000EFC
:100AEE00E66E51C073F152C074F121C075F122C08F
:100AFE0076F11DDC51C023F052C024F021C01FF04E
:060B0E0022C020F01200DD
:100B14001AC01CF01BC01DF045C02BF046C02CF0C1
:100B2400800E1B18006E800E2018005C02E11F501E
:100B34001A5C07E2010E1A241C6E000E1B201D6EA7
:100B440032D0800E2018006E800E1B18005C02E16B
:100B54001A501F5C07E2010E1A5C1C6E000E1B5833
:100B64001D6E21D0800E4618006E800E2418005C85
:100B740002E12350455C07E2010E45242B6E000E72
:100B840046202C6E10D0800E2418006E800E46185D
:100B9400005C02E14550235C06E2010E455C2B6ECD
:100BA400000E46582C6E2BC000F02CC001F01E0E17
:100BB400046E000E056E74EC00F0740E0024036ED7
:100BC400000E0120046E2BC000F02CC001F0003692
:100BD4000090013600500324E96E01500420EA6EAF
:100BE400EECF01F0EECF02F0000E021802E1175032
:100BF400011802E12B4A2C2A45C000F046C001F03E
:100C04001E0E046E000E056E74EC00F0740E0024CB
:100C1400046E000E0120056E1AC000F01BC001F026
:100C240000360090013600500424026E0150052065
:100C3400036E4450000A03E044C000F002D0200ECA
:100C4400006E02C0E1FF03C0E2FF00C0E6FF000E39
:100C5400E66E45C073F146C074F11AC075F11BC04D
:100C640076F19EEC01F045C000F046C001F01E0E86
:100C7400046E000E056E74EC00F0740E0024036E16
:100C8400000E0120046E45C000F046C001F000369D
:100C94000090013600500324E96E01500420EA6EEE
:100CA400EECF01F0EECF02F0000E021802E1435045
:100CB400011822E02BC000F02CC001F01E0E046EBF
:100CC400000E056E74EC00F0740E0024036E000E2A
:100CD4000120046E1CC000F01DC001F0003600901D
:100CE400013600500324E96E01500420EA6EEECF71
:100CF40000F0EECF01F004D0200E006E000E016E65
:100D040000C044F02BC000F02CC001F01E0E046E95
:100D1400000E056E74EC00F0740E0024036E000ED9
:100D24000120046E1CC000F01DC001F000360090CC
:100D3400013600500324E16E01500420E26E43C0EA
:100D4400E6FF000EE66E2BC073F12CC074F11CC0DC
:100D540075F11DC076F19EEC01F01CC01AF01DC0A7
:0C0D64001BF02BC045F02CC046F0120024
:100D70004F6A506A800E5018006E800E005C02E1CF
:100D80000F0E4F5C32E24D6A4E6A800E4E18006EB6
:100D9000800E005C02E1080E4D5C24E24FC000F0C2
:100DA00050C001F01E0E046E000E056E74EC00F0D3
:100DB000740E0024036E000E0120046E4DC000F07E
:100DC0004EC001F000360090013600500324E16E61
:100DD00001500420E26E200EE66E000EE66E4D4AD3
:100DE0004E2AD3D74F4A502AC5D783EC02F0185069
:100DF00019100CE0020E01016C6F010E6D6F340EC4
:100E00006E6F000E6F6F22EC02F00BD0020E01012C
:100E10006C6F010E6D6F300E6E6F000E6F6F22ECF7
:040E200002F01200CA
:100E240001016B6B68C1E9FF69C1EAFFEECF6AF1AA
:100E34006A51000A0FE06AC16CF16EEC02F0010124
:100E44006B2B6B516825E96E000E6921EA6EEECFBB
:060E54006AF1EED7120066
:100E5A003C0ECA6E9D82F90ECB6ED00EF26E120057
:100E6A004F6A506A800E5018006E800E005C02E1D4
:100E7A000F0E4F5C32E24D6A4E6A800E4E18006EBB
:100E8A00800E005C02E1080E4D5C24E24FC000F0C7
:100E9A0050C001F01E0E046E000E056E74EC00F0D8
:100EAA00740E0024036E000E0120046E4DC000F083
:100EBA004EC001F000360090013600500324E16E66
:100ECA0001500420E26E200EE66E000EE66E4D4AD8
:100EDA004E2AD3D74F4A502AC5D747C000F048C038
:100EEA0001F0050E046E000E056E74EC00F000C0F1
:100EFA006CF101C06DF1A9EC02F0070E0014036E4B
:100F0A0001C004F0000E041603C000F004C001F092
:100F1A00003600900136EC0E0024E16E000E01202E
:100F2A00E26E17C0E6FF000EE66E47C06CF148C0DD
:100F3A006DF1A9EC02F0070E0016000E01161E0E46
:100F4A00046E000E056E74EC00F0740E00240101AC
:100F5A00686F000E0120696F47C06CF148C06DF1DF
:100F6A00A9EC02F0070E0014036E01C004F0000E93
:100F7A00041603C000F004C001F0003600900136E8
:100F8A0000506825E16E01506921E26E17C0E6FF44
:100F9A00000EE66E47C000F048C001F01A0E046E5B
:100FAA00000E056E74EC00F000C06CF101C06DF12A
:100FBA00A9EC02F0070E0016000E01161E0E046EB2
:100FCA00000E056E74EC00F0740E0024686F000EBB
:100FDA000120696F47C000F048C001F0320E046E6C
:100FEA00000E056E74EC00F000C06CF101C06DF1EA
:100FFA00A9EC02F0070E0014036E01C004F0000E03
:10100A00041603C000F004C001F000360090013657
:10101A0000506825E16E01506921E26E17C0E6FFB3
:10102A00000EE66E47C000F048C001F04C0E046E98
:10103A00000E056E74EC00F000C06CF101C06DF199
:10104A00A9EC02F0070E0016000E01161E0E046E21
:10105A00000E056E74EC00F0740E0024686F000E2A
:10106A000120696F47C000F048C001F0D90E046E34
:10107A00030E056E74EC00F000C06CF101C06DF156
:10108A00A9EC02F0070E0014036E01C004F0000E72
:10109A00041603C000F004C001F0003600900136C7
:1010AA0000506825E16E01506921E26E17C0E6FF23
:1010BA00000EE66E47C000F048C001F0F40E046E60
:1010CA00010E056E74EC00F000C06CF101C06DF108
:1010DA00A9EC02F0070E0016000E01161E0E046E91
:1010EA00000E056E74EC00F0740E0024686F000E9A
:1010FA000120696F47C000F048C001F00C0E046E71
:10110A00000E056E74EC00F000C06CF101C06DF1C8
:10111A00A9EC02F0070E0014036E01C004F0000EE1
:10112A00041603C000F004C001F000360090013636
:10113A0000506825E16E01506921E26E16C0E6FF93
:10114A00000EE66E47C06CF148C06DF1A9EC02F0E2
:10115A00070E0016000E01161E0E046E000E056E16
:10116A0074EC00F0740E0024686F000E0120696FA1
:10117A0047C000F048C001F0550E046E000E056E1F
:10118A0074EC00F000C06CF101C06DF1A9EC02F042
:10119A00070E0014036E01C004F0000E041603C00B
:1011AA0000F004C001F000360090013600506825B6
:1011BA00E16E01506921E26E16C0E6FF000EE66E8E
:1011CA0047C000F048C001F03F0E046E000E056EE5
:1011DA0074EC00F000C06CF101C06DF1A9EC02F0F2
:1011EA00070E0016000E01161E0E046E000E056E86
:1011FA0074EC00F0740E0024686F000E0120696F11
:10120A0047C000F048C001F0280E046E020E056EB9
:10121A0074EC00F000C06CF101C06DF1A9EC02F0B1
:10122A00070E0014036E01C004F0000E041603C07A
:10123A0000F004C001F00036009001360050682525
:10124A00E16E01506921E26E16C0E6FF000EE66EFD
:10125A0016C0C8F1000EC96F16C010F1000E116F4A
:10126A0016C068F1000E696F16C054F1000E556F72
:10127A0045C000F046C001F01E0E046E000E056E59
:10128A0074EC00F0740E0024036E000E0120046E4C
:10129A001AC000F01BC001F0003600900136005061
:1012AA000324E96E01500420EA6EEECF01F0EECF7E
:1012BA0002F0000E021802E11650011804E1010EB4
:1012CA00275E000E285A23C000F024C001F01E0E2B
:1012DA00046E000E056E74EC00F0740E0024036EAA
:1012EA00000E0120046E1FC000F020C001F000367D
:1012FA000090013600500324E96E01500420EA6E82
:10130A00EECF01F0EECF02F0000E021802E1165005
:10131A00011804E1010E275E000E285A45C000F0AC
:10132A0046C001F01E0E046E000E056E74EC00F04D
:10133A00740E0024036E000E0120046E1AC000F021
:10134A001BC001F000360090013600500324E16E04
:10135A0001500420E26E43C0E6FF000EE66E23C091
:10136A0000F024C001F01E0E046E000E056E74EC2F
:10137A0000F0740E0024036E000E0120046E1FC0DC
:10138A0000F020C001F0003600900136005003241E
:10139A00E16E01500420E26E1EC0E6FF000EE66E0A
:0613AA0083EC02F01200CA
:1013B000F1EC0AF0190EAF6EAC8421EC04F0140EBF
:1013C000C86E4CEC04F00E0EC16E0F0E936E210E23
:1013D000926E92869288F00E0101686F000E696F1E
:1013E000800E6A6F080E6B6F94EC03F05B865BC037
:1013F0008EF14FEC00F05B845BC08EF14FEC00F09F
:101400002CDD33DD2550261001E048D0245046184D
:1014100002E1455023180EE120501B1802E11A503A
:101420001F1808E1010E256E000E266E010E186EC3
:10143000000E196E09EC03F000C02FF00050380ABE
:1014400005E10101686B57EC04F01AD02F50360A01
:1014500006E1010E0101686F57EC04F011D02F5026
:10146000320A06E1020E0101686F57EC04F008D061
:101470002F50340A05E1030E0101686F57EC04F0A8
:101480002D502E100AE02D6A2E6A3E0E0101686F63
:10149000000E696FC7DC8AEC05F0B4D769DCFFD7B2
:1015E20010EE16F0410E006E010E016EA00EF66EA8
:0E15F200140EF76E000EF86E19EC04F01200E5
:0114A0000546
:0114A1000446
:0214A200000048
:0214A400000046
:0214A600000044
:0114A8000142
:0214A900000041
:0214AB0000003F
:0214AD0000003D
:0214AF0000003B
:0214B100060033
:0214B300000037
:0214B500000035
:0214B700000033
:0114B9000032
:0414BA0057696E0000
:0A14BE0047616D65206F76657200CE
:0514C8005541525400E3
:0114CD000618
:0114CE00001D
:0214CF000E000D
:0214D1000D000C
:0214D300000017
:0214D500000015
:0214D700000013
:0214D900000011
:0214DB0000000F
:0414DD00010000000A
:1014E10000000FF01FF83FFC7FFE73CE73CE7FFE2E
:1014F1007FFE7FFE799E766E7FFE6EEE4446000093
:1015010000003FFC5FFA6FF677EE7BDE7DBE7E7EEC
:101511007E7E7DBE7BDE77EE6FF65FFA3FFC0000DC
:1015210000000000000000000000000000000000BA
:1015310000000000000000000000000000000000AA
:10154100000000000000000000000000018003C056
:1015510003C0018000000000000000000000000046
:10156100000007F01FF83FFC3F3E7F3E7FFC7FF805
:101571007FE07FC07FFE3FFE3FFC1FF807F00000C9
:10158100000008001818383C787E78FE79CE7BCEB2
:101591007FFE7FFE7FFE7FFE3FFC1FF80FF0000005
:1015A10000000FF01FF83FFC7CFE7CFE3FFE0FFEAB
:1015B10003FE01FE7FFE7FFE3FFC1FF80FF00000DF
:1015C10000000FF01FF83FFC7FFE7FFE7FFE7FFED5
:1015D1007BCE79CE78FE787E383C18180800000062
:020000040030CA
:0D000100021F1EFF8381FF0FC00FE00F40A4
:00000001FF
