:0400000067EF0AF0AC
:1000080000C020F001C01FF002C01EF003C01DF0A8
:1000180004C01CF005C01BF008C01AF009C019F094
:100028000AC018F00BC017F00CC016F00DC015F080
:10003800E1CF25F0E2CF26F0E9CF23F0EACF24F094
:10004800F3CF21F0F4CF22F0F2A23DD1584A592A39
:10005800800E006E800E5918005C02E15850B408FA
:1000680008E2010E3E6E000E3F6E010E3C6E000E61
:100078003D6E48C056F049C057F036C054F037C0FE
:1000880055F0060E046E000E056E58C000F059C0FB
:1000980001F051EC05F008C000F009C001F0000EB5
:1000A800011802E1000E0018D8A40CD1800E4918DE
:1000B800006E800E6118005C02E16050485C07E247
:1000C800010E4824566E000E4920576E32D0800E1D
:1000D8006118006E800E4918005C02E14850605CAF
:1000E80007E2010E485C566E000E4958576E21D043
:1000F800800E3718006E800E5118005C02E15050D7
:10010800365C07E2010E3624546E000E3720556E19
:1001180010D0800E5118006E800E3718005C02E176
:100128003650505C06E2010E365C546E000E3758AD
:10013800556E54C000F055C001F01E0E046E000E3E
:10014800056E46D9890E0024036E000E0120046E48
:1001580054C000F055C001F0003600900136005040
:100168000324E96E01500420EA6EEECF01F0EECFD1
:1001780002F0000E021802E15E50011802E1544A32
:10018800552A36C000F037C001F01E0E046E000E6E
:10019800056E1ED9890E0024046E000E0120056E1E
:1001A80048C000F049C001F0003600900136005008
:1001B8000424026E01500520036E4D50000A03E02E
:1001C8004DC000F002D0200E006E02C0E1FF03C057
:1001D800E2FF00C0E6FF000EE66E36C000F037C052
:1001E80001F01E0E046E000E056EF2D8890E002472
:1001F800036E000E0120046E36C000F037C001F017
:1002080000360090013600500324E96E01500420A6
:10021800EA6EEECF01F0EECF02F0000E021802E116
:100228003A50011821E054C000F055C001F01E0EEC
:10023800046E000E056ECCD8890E0024036E000EE5
:100248000120046E56C000F057C001F0003600903F
:10025800013600500324E96E01500420EA6EEECF07
:1002680000F0EECF01F004D0200E006E000E016EFB
:1002780000C04DF054C000F055C001F01E0E046ED1
:10028800000E056EA5D8890E0024036E000E01200D
:10029800046E56C000F057C001F0003600900136D9
:1002A80000500324E16E01500420E26E3AC0E6FFDC
:1002B800000EE66E56C048F057C049F054C036F0FC
:1002C80055C037F0F2929EA210D0524A532A800E9F
:1002D8005318006E800E030A005C02E1E80E525CBF
:1002E80003E38072526A536A9E9221C0F3FF22C0D0
:1002F800F4FF20C000F01FC001F01EC002F01DC0B6
:1003080003F01CC004F01BC005F01AC008F019C0A7
:1003180009F018C00AF017C00BF016C00CF015C091
:100328000DF023C0E9FF24C0EAFF25C0E1FF26C085
:04033800E2FF1100CF
:10033C008280FF0E956E8292030E8314016E015023
:0A034C00030A01E0F9D782821200D3
:060356000000000012008F
:10035C008290956A99C183FF8294F7DFF6DFF5DF0F
:04036C008284120075
:10037000E5DF956A99C183FF8294EDDFECDFEBDF67
:040380008284120061
:1003840097C100F0016A00C080F096C199F1E4DFE2
:0E03940080C099F1E1DF98C199F1E8DF120015
:1003A200086A096A100E0C6E0134083609360450C8
:1003B200085E0550D8A0053C095ED8B007D00450AD
:1003C20008260550D8B0053C0926D89000360136DB
:0603D2000C2EEAD7120018
:1003D8000B6A0A6A096A00500402F4CF09F0F3CFE5
:1003E80008F001500502F4CF0BF0F3CF0AF00050EB
:1003F8000502F3500926F4500A22E86A0B2201503C
:100408000402F3500926F4500A22E86A0B2208C0B5
:1004180000F009C001F00AC002F00BC003F012009E
:100428000101946B956B72C004F073C005F089C12B
:1004380000F0000E016EB1DF00C090F101C091F133
:100448008AC100F0000E016E7CC004F07DC005F08A
:10045800BFDF90510024946F91510120956F68502F
:10046800942769509523070E8E15016E01500008D8
:100478000DE28E338E9F8E338E9F8E338E9F8E2B02
:100488008E378E918E378E918E378E918FC100F078
:100498008F07005240E04EDF94C196F195C197F165
:1004A800240E0101986F6ADFB00E0101996F5CDFBD
:1004B8008290956A0101926B936B72C004F073C0CD
:1004C80005F08EC100F0000E016E67DF0150935DEC
:1004D80002E10050925D16E28BC1F6FF8CC1F7FF76
:1004E8008DC1F8FF0900F5CF83FF010E8B27000EA1
:1004F8008C238D2382942BDF2ADF29DF8284924B81
:10050800932BDBD7B20E996F2FDF7C500101942714
:080518007D509523BBD71200B2
:1005200088C199F125DF87C100F0000E016E7CC003
:1005300004F07DC005F050DF010186510024966F64
:10054000000E0120976F6A5096276B509723240E58
:10055000986F18DF84C1E9FF85C1EAFFEE520FE012
:1005600084C1E9FF85C1EAFF200EEE5C0101996FAD
:10057000F5DE844B852BC00E996FFADEEBD71200A7
:10058000220E0C6E086A096A0A6A0B6A0C06D8B455
:100590001FD0D8900B320A320932083203320232AD
:1005A00001320032D8A0F2D70C06D8B409D00450DA
:1005B00008260550092206500A2207500B22EAD7C6
:1005C000045008260550092206500A2207500B2223
:0205D000120017
:1005D200658665C099F1CBDE659465C099F1C7DE89
:1005E20001018505896F8937899189378991893711
:1005F20089918937899184058A6F8A378A918A37E6
:100602008A918A378A918A378A9186C18BF187C10A
:100612008CF188C18DF1100E8E6F100E8F6F03DF7B
:020622001200C4
:10062400659665C099F1A2DE658465C099F19EDE88
:100634007FC184F180C185F101017D05866F7E054E
:0A064400876F810E886F6ADF1200D5
:10064E00466A476A800E4718006E800E005C02E113
:10065E000F0E465CD8B093D0446A456A800E45189A
:10066E00006E800E005C02E10F0E445CD8B084D0A8
:10067E0046C000F047C001F01E0E046E000E056E5F
:10068E00A4DE890E0024036E000E0120046E44C009
:10069E0000F045C001F000360090013600500324F2
:1006AE00E96E01500420EA6EEECF01F001C027F092
:1006BE000150000A07E17B0E626E160E636E000E8D
:1006CE00646E4CD02750010A07E15B0E626E160E67
:1006DE00636E000E646E42D02750020A07E1BB0E15
:1006EE00626E160E636E000E646E38D02750030ACB
:1006FE0007E19B0E626E160E636E000E646E2ED0B8
:10070E0027505F1807E13B0E626E160E636E000EE9
:10071E00646E24D027503A1807E1DB0E626E150E78
:10072E00636E000E646E1AD027505E1807E1FB0E42
:10073E00626E150E636E000E646E10D02750200A86
:10074E0007E11B0E626E160E636E000E646E06D00F
:10075E001B0E626E160E636E000E646E46C084F142
:10076E0044C085F162C086F163C087F164C088F130
:10077E0029DF444A452A72D7464A472A63D71200D0
:10078E000134083609360450085E0550D8A0053CE1
:10079E00095E003601360F0E0C6E0134083609362E
:1007AE00045000A006D0085E0550D8A0053C095E96
:1007BE0005D008260550D8B0053C0926003601366E
:1007CE000C2EEBD700B006D0045008260550D8B03A
:0807DE00053C09260000120091
:1007E6007DC140F07EC141F0000E426E436E40C0B6
:1007F60000F041C001F042C002F043C003F06D0EAC
:10080600046E4E0E056EC60E066E410E076EB5DE02
:10081600390E0024056E300E0120066E000E0220F1
:10082600076E000E0320086E05C040F006C041F0BA
:1008360007C042F008C043F007C000F008C001F04E
:0E084600026A036AFF0E00167F0E01161200F2
:10085400020E0B6E040E0C6EBA0E0D6E0D2EFED72C
:0C0864000C2EFCD70B2EFAD7000012005F
:10087000800E5118006E800E01017E19005C02E1AD
:100880007D51505C02E2006A1200800E7E19006EFB
:10089000800E5118005C02E150507D5D03E2010EB4
:1008A000006E1200800E6118006E800E8019005CD0
:1008B00002E17F51605C03E2020E006E1200800EC6
:1008C0008019006E800E6118005C02E160507F5D4F
:0E08D00003E2030E006E12003BC000F01200A7
:1008DE000101826B836B2BDD01017E516824966FC3
:1008EE007F516920976F240E986F45DDB00E010180
:1008FE00996F37DD8290956A01018151835D02E126
:10090E008051825D0AE27DC183FF82941DDD1CDD74
:10091E001BDD8284824B832BEFD7B20E996F21DDC4
:02092E001200B5
:1009300079C166F07AC167F07BC16CF0000E6D6E14
:100940007CC172F0000E736E72C004F073C005F0CB
:1009500079C100F07AC101F024DD00C07CF001C053
:100960007DF06CC004F06DC005F036DD00C070F0A5
:1009700001C071F06CC000F06DC001F001320032B6
:10098000019E01320032019E01320032019E7CC084
:1009900004F07DC005F020DD00C06EF001C06FF0F6
:1009A000949494929490949A828482828280828A8F
:1009B000FF0E956E829A4EDF828A4CDF810E010116
:1009C000996FD6DC7CC104F0000E056E66C000F0A5
:1009D00067C001F0E6DC00C096F101C097F1430E5C
:1009E0000101986FCFDC7CC096F17DC097F1410E7C
:1009F0000101986FC7DC6E5070240101806F6F5049
:100A00007120816F686A696A70C06AF071C06BF0AA
:100A10007D6B7E6B7F6B63DF900E656E0101966B65
:100A2000976B420E986FAEDC70C096F171C097F173
:0A0A3000400E0101986FA6DC1200D1
:100A3A000900F5CFE6FF0006FBE10106F9E1120025
:100A4A00FF0E0001816FFF0E826FFF0E836FFF0E94
:100A5A00846FFF0E856FFF0E866F000E876F000E84
:100A6A00886FFF0E746EFF0E756E000E766E000EA6
:100A7A00776EFF0E786EFF0E796E000E7A6E000E9C
:100A8A007B6EAC8A900EAB6E948E949C9EAA03D019
:080A9A00AECF00F0FBD7120003
:100AA2000450000A08E10550000A05E1FF0E006E3D
:100AB2007F0E016E12000D6A096A086A0150001069
:100AC200D8B4000C015005180A6E0ABE0D1E0B6A3E
:100AD20005AE05D0041E051E042AD8B4052A01AEAF
:100AE20005D0001E011E002AD8B4012A01500510AB
:100AF2000A6E0ABE10D04ADE0BB020D00DAE000C3A
:100B0200001E011E002AD8B4012A081E091E082A46
:100B1200D8B4092A000C05AE0DD001BE07D0015091
:100B2200096E0050086E016A006AE8D7016A006A1D
:100B3200002A000C011E001E0B2ADDD7082AD8B499
:100B4200092A0450085CD8A4D9D70550095CD8A456
:100B5200D5D7096A086A002AD8B4012A01AECED7CD
:060B62000000FF0C120070
:100B6800949894968B988B9694889486C79EC79CE5
:060B7800380EC66E1200EB
:100B7E00466A476A800E4718006E800E005C02E1DE
:100B8E000F0E465C31E2446A456A800E4518006ECF
:100B9E00800E005C02E1080E445C23E246C000F0C9
:100BAE0047C001F01E0E046E000E056E0EDC890E9F
:100BBE000024036E000E0120046E44C000F045C0F8
:100BCE0001F000360090013600500324E16E015012
:100BDE000420E26E200EE66E000EE66E444A452AB2
:100BEE00D4D7464A472AC6D72BDD3C503D100BE0E2
:100BFE00020E01017D6F010E7E6F2C0E7F6F000EB7
:100C0E00806F09DD0AD0020E01017D6F010E7E6F2D
:0C0C1E00280E7F6F000E806FFEDC1200BD
:100C2A007E50000A0BE150C04EF051C04FF0010E49
:100C3A00605C5A6E000E61585B6E29D07E50010AC4
:100C4A000BE150C04EF051C04FF0010E60245A6EB5
:100C5A00000E61205B6E1BD07E50020A0BE1010E72
:100C6A0050244E6E000E51204F6E60C05AF061C083
:100C7A005BF00DD07E50030A0AE1010E505C4E6E05
:100C8A00000E51584F6E60C05AF061C05BF04EC002
:100C9A007DF14FC07EF15AC07FF15BC080F1E3DD88
:100CAA0000C05CF0000E5D6E800E4F18006E800E64
:100CBA00005C02E1000E4E5C04E20E0E4E6E000E67
:100CCA004F6E800E4F18006E800E005C02E10E0E11
:100CDA004E5C02E34E6A4F6A800E5B18006E800E0D
:100CEA00005C02E1000E5A5C04E20E0E5A6E000E1F
:100CFA005B6E800E5B18006E800E005C02E10E0EC9
:100D0A005A5C02E35A6A5B6A4EC000F04FC001F0B7
:100D1A001E0E046E000E056EECEC01F0890E002426
:100D2A00036E000E0120046E5AC000F05BC001F091
:100D3A0000360090013600500324E96E0150042069
:100D4A00EA6EEECF01F0EECF02F0000E021802E1D9
:100D5A005E500118D8B483D04EC000F04FC001F0E5
:100D6A001E0E046E000E056EECEC01F0890E0024D6
:100D7A00036E000E0120046E5AC000F05BC001F041
:100D8A0000360090013600500324E96E0150042019
:100D9A00EA6EEECF01F0EECF02F0000E021802E189
:100DAA005F50011804E1010E4B5E000E4C5A000E12
:100DBA004C1802E1000E4B1806E1010E3E6E000EC1
:100DCA003F6E3C6A3D6A5CC03BF050C000F051C0C7
:100DDA0001F01E0E046E000E056EECEC01F0890E99
:100DEA000024036E000E0120046E60C000F061C092
:100DFA0001F000360090013600500324E16E0150E4
:100E0A000420E26E200EE66E000EE66E4EC000F082
:100E1A004FC001F01E0E046E000E056EECEC01F0E0
:100E2A00890E0024036E000E0120046E5AC000F0E1
:100E3A005BC001F000360090013600500324E16ED9
:100E4A0001500420E26E3BC0E6FF000EE66E4EC083
:100E5A0050F04FC051F05AC060F05BC061F0120010
:100E6A00466A476A800E4718006E800E005C02E1EF
:100E7A000F0E465C32E2446A456A800E4518006EDF
:100E8A00800E005C02E10F0E445C24E246C000F0D2
:100E9A0047C001F01E0E046E000E056EECEC01F068
:100EAA00890E0024036E000E0120046E44C000F077
:100EBA0045C001F000360090013600500324E16E6F
:100ECA0001500420E26E200EE66E000EE66E444AE1
:100EDA00452AD3D7464A472AC5D738C000F039C071
:100EEA0001F0050E046E000E056EECEC01F000C078
:100EFA007DF101C07EF172DC070E0014036E01C0A1
:100F0A0004F0000E041603C000F004C001F000361D
:100F1A0000900136010E0024E16E010E0120E26EFE
:100F2A005EC0E6FF000EE66E38C07DF139C07EF184
:100F3A0055DC070E0016000E01161E0E046E000E7A
:100F4A00056EECEC01F0890E00247E6E000E012085
:100F5A007F6E38C07DF139C07EF140DC070E001487
:100F6A00036E01C004F0000E041603C000F004C0B2
:100F7A0001F000360090013600507E24E16E0150E7
:100F8A007F20E26E5EC0E6FF000EE66E38C000F01B
:100F9A0039C001F0320E046E000E056EECEC01F061
:100FAA0000C07DF101C07EF119DC070E0016000EAB
:100FBA0001161E0E046E000E056EECEC01F0890E91
:100FCA0000247E6E000E01207F6E38C000F039C00A
:100FDA0001F01A0E046E000E056EECEC01F000C072
:100FEA007DF101C07EF1F3EC03F0070E0014036EED
:100FFA0001C004F0000E041603C000F004C001F0A2
:10100A0000360090013600507E24E16E01507F20A8
:10101A00E26E5EC0E6FF000EE66E38C000F039C030
:10102A0001F0D90E046E030E056EECEC01F000C05F
:10103A007DF101C07EF1F3EC03F0070E0016000EFD
:10104A0001161E0E046E000E056EECEC01F0890E00
:10105A0000247E6E000E01207F6E38C000F039C079
:10106A0001F04C0E046E000E056EECEC01F000C0AF
:10107A007DF101C07EF1F3EC03F0070E0014036E5C
:10108A0001C004F0000E041603C000F004C001F011
:10109A0000360090013600507E24E16E01507F2018
:1010AA00E26E5EC0E6FF000EE66E38C000F039C0A0
:1010BA0001F00C0E046E000E056EECEC01F000C09F
:1010CA007DF101C07EF1F3EC03F0070E0016000E6D
:1010DA0001161E0E046E000E056EECEC01F0890E70
:1010EA0000247E6E000E01207F6E38C000F039C0E9
:1010FA0001F0F40E046E010E056EECEC01F000C076
:10110A007DF101C07EF1F3EC03F0070E0014036ECB
:10111A0001C004F0000E041603C000F004C001F080
:10112A0000360090013600507E24E16E01507F2087
:10113A00E26E5FC0E6FF000EE66E38C000F039C00E
:10114A0001F0550E046E000E056EECEC01F000C0C5
:10115A007DF101C07EF1F3EC03F0070E0016000EDC
:10116A0001161E0E046E000E056EECEC01F0890EDF
:10117A0000247E6E000E01207F6E38C07DF139C0DA
:10118A007EF1F3EC03F0070E0014036E01C004F0C5
:10119A00000E041603C000F004C001F000360090EF
:1011AA00013600507E24E16E01507F20E26E5FC05E
:1011BA00E6FF000EE66E38C000F039C001F0280ED6
:1011CA00046E020E056EECEC01F000C07DF101C068
:1011DA007EF1F3EC03F0070E0016000E01161E0E48
:1011EA00046E000E056EECEC01F0890E00247E6E92
:1011FA00000E01207F6E38C000F039C001F03F0EAA
:10120A00046E000E056EECEC01F000C07DF101C029
:10121A007EF1F3EC03F0070E0014036E01C004F034
:10122A00000E041603C000F004C001F0003600905E
:10123A00013600507E24E16E01507F20E26E5FC0CD
:10124A00E6FF000EE66E5FC035F1000E0101366F53
:10125A005FC0EDF0000E0001EE6F5FC0D5F0000E2A
:10126A00D66F5FC069F1000E01016A6F36C000F0E7
:10127A0037C001F01E0E046E000E056EECEC01F094
:10128A00890E0024036E000E0120046E48C000F08F
:10129A0049C001F000360090013600500324E96E7F
:1012AA0001500420EA6EEECF01F0EECF02F0000EFC
:1012BA00021802E15F50011804E1010E4B5E000EB4
:1012CA004C5A50C000F051C001F01E0E046E000EC0
:1012DA00056EECEC01F0890E0024036E000E01206D
:1012EA00046E60C000F061C001F000360090013663
:1012FA0000500324E96E01500420EA6EEECF01F09B
:10130A00EECF02F0000E021802E15F50011804E16C
:10131A00010E4B5E000E4C5A36C000F037C001F089
:10132A001E0E046E000E056EECEC01F0890E002410
:10133A00036E000E0120046E48C000F049C001F09F
:10134A0000360090013600500324E16E015004205B
:10135A00E26E3AC0E6FF000EE66E50C000F051C0E1
:10136A0001F01E0E046E000E056EECEC01F0890E03
:10137A000024036E000E0120046E60C000F061C0FC
:10138A0001F000360090013600500324E16E01504E
:0E139A000420E26E3BC0E6FF000EE66E12007D
:1013A800100E836E80AA06D080AA01D0FDD7370E12
:1013B800006E120081A206D081A201D0FDD7380E9E
:1013C800006E120081A406D081A401D0FDD7390E89
:1013D800006E120081A606D081A601D0FDD7250E89
:1013E800006E1200200E836E80AA06D080AA01D05B
:1013F800FDD7340E006E120081A206D081A201D062
:10140800FDD7350E006E120081A406D081A401D04C
:10141800FDD7360E006E120081A606D081A601D037
:10142800FDD72A0E006E1200400E836E80AA06D0E9
:1014380080AA01D0FDD7310E006E120081A206D01D
:1014480081A201D0FDD7320E006E120081A406D011
:1014580081A401D0FDD7330E006E120081A606D0FC
:1014680081A601D0FDD72D0E006E1200800E836E6E
:1014780080AA06D080AA01D0FDD7430E006E1200C4
:1014880081A206D081A201D0FDD7300E006E1200D5
:1014980081A406D081A401D0FDD73D0E006E1200B4
:1014A80081A606D081A601D0FDD72B0E006E1200B2
:0614B800FF0E006E1200A1
:1014BE003C0ECA6E9D82F90ECB6ED00EF26E1200ED
:1014CE006EEC0BF0190EAF6EAC8425EC05F0140E1D
:1014DE00C86EB4EC05F00E0EC16E0F0E936E210E9B
:1014EE00926E92869288F00E0101796F000E7A6FDD
:1014FE00800E7B6F080E7C6F98EC04F0658665C0DD
:10150E0099F1B8EC01F0658465C099F1B8EC01F081
:10151E00CFDFA4DC3E503F1001E038D03EDF00C0EC
:10152E004AF00050380A04E17E6A15EC06F017D036
:10153E004A50320A05E1010E7E6E15EC06F00FD010
:10154E004A50360A05E1020E7E6E15EC06F007D003
:10155E004A50340A04E1030E7E6E15EC06F027ECB9
:10156E0003F05150371802E1365050180EE1615019
:10157E00491802E14850601808E1010E3E6E000E57
:10158E003F6E010E3C6E000E3D6EC4D7BFEC05F0F3
:02159E00FFD775
:1016DC0010EE27F03B0E006E010E016EA00EF66EA2
:0E16EC00150EF76E000EF86E1DEC05F01200E4
:0115A000004A
:0415A10057696E0018
:0A15A50047616D65206F76657200E6
:0215AF00010039
:0215B1000D002B
:0115B3000631
:0115B4000036
:0215B500000034
:0215B700000032
:0415B900010000002D
:0215BD0000002C
:0215BF0000002A
:0215C1000E001A
:0115C3000027
:0215C40007001E
:0115C6000024
:0215C700000022
:0215C90001001F
:0215CB0000001E
:0215CD0000001C
:0215CF0000001A
:0215D100000018
:0215D300000016
:0215D500000014
:0115D700040F
:0115D800050D
:0215D90001000F
:1015DB0000000FF01FF83FFC7FFE73CE73CE7FFE33
:1015EB007FFE7FFE799E766E7FFE6EEE4446000098
:1015FB0000003FFC5FFA6FF677EE7BDE7DBE7E7EF2
:10160B007E7E7DBE7BDE77EE6FF65FFA3FFC0000E1
:10161B0000000000000000000000000000000000BF
:10162B0000000000000000000000000000000000AF
:10163B00000000000000000000000000018003C05B
:10164B0003C001800000000000000000000000004B
:10165B0000000FF01FF83FFC7CFE7CFE3FFE0FFEF0
:10166B0003FE01FE7FFE7FFE3FFC1FF80FF0000024
:10167B00000007F01FF83FFC3F3E7F3E7FFC7FF8EA
:10168B007FE07FC07FFE3FFE3FFC1FF807F00000AE
:10169B0000000FF01FF83FFC7FFE7FFE7FFE7FFEFA
:1016AB007BCE79CE78FE787E383C18180800000087
:1016BB00000008001818383C787E78FE79CE7BCE77
:1016CB007FFE7FFE7FFE7FFE3FFC1FF80FF00000CA
:020000040030CA
:0D000100021F1EFF8381FF0FC00FE00F40A4
:00000001FF
