:04000000A3EF03F077
:1000080000C01EF001C01DF002C01CF003C01BF0B0
:1000180004C01AF005C019F008C018F009C017F09C
:100028000AC016F00BC015F0F3CF1FF0F4CF20F084
:10003800F2A204D0214A222A8074F2929EA223D0EE
:10004800234A242A800E2418006E800E030A005CBE
:1000580002E1E80E235C16E3000E271802E1000E09
:1000680026180DE121C000F022C001F03C0E046EFC
:10007800000E056EF8D800C026F001C027F0807287
:10008800236A246A9E921FC0F3FF20C0F4FF1EC09B
:1000980000F01DC001F01CC002F01BC003F01AC024
:1000A80004F019C005F018C008F017C009F016C010
:0800B8000AF015C00BF0110065
:0A00C000210E0D6E0D2EFED712006A
:1000CA00086A096A100E0C6E0134083609360450A3
:1000DA00085E0550D8A0053C095ED8B007D0045088
:1000EA0008260550D8B0053C0926D89000360136B6
:0600FA000C2EEAD71200F3
:06010000000000001200E7
:100106000F0E0C6E470E0D6E0D2EFED70C2EFCD765
:06011600000000001200D1
:0E011C00ACB202D00000FCD7A6C0ADFF1200AE
:10012A000001A6BF02D0839E01D0838EA6BD02D055
:10013A00839C01D0838CA6BB02D0839A01D0838A88
:10014A00A6B902D0839801D0838847B002D08480B0
:10015A0001D084908482CFDF8492A6B702D0839E96
:10016A0001D0838EA6B502D0839C01D0838CA6B31E
:10017A0002D0839A01D0838AA6B102D0839801D093
:10018A00838847B002D0848001D084908482B3DF10
:0E019A00849247A002D0B2DF01D08DDF1200A8
:1001A8000001AA6B050EAA5D0AE2AA51A825E16E14
:1001B800000EA921E26E200EE66EAA2BF3D7AA51F3
:1001C800A825E16E000EA921E26EE66AAA07AA51E7
:1001D800A825AB6F000EA921AC6F0A0E046E000EA5
:1001E800056EA6C000F0A7C001F06BDF08C000F0E4
:1001F80009C001F0300E0026ABC0E1FFACC0E2FF41
:1002080000C0E6FF0A0E046E000E056EA6C000F0E0
:10021800A7C001F056DF00C0A6F001C0A7F0000E8D
:10022800011802E1000E001801E102D0AA07CFD799
:020238001200B2
:10023A0000019F6B9CC0E9FF9DC0EAFFEECF9EF0D4
:10024A009E51000A0EE09EC0A6F063DF00019F2BBC
:10025A009F519C25E96E000E9D21EA6EEECF9EF01D
:04026A00EFD71200B8
:10026E000B6A0A6A096A00500402F4CF09F0F3CF50
:10027E0008F001500502F4CF0BF0F3CF0AF0005056
:10028E000502F3500926F4500A22E86A0B220150A7
:10029E000402F3500926F4500A22E86A0B2208C021
:1002AE0000F009C001F00AC002F00BC003F012000A
:1002BE000001A26BA36B9CC0A4F09DC0A5F0800EA4
:1002CE009D19006E800E005C02E1000E9C5D0BE23B
:1002DE00010EA26F000EA36F9C510008A46F9DC06B
:1002EE00A5F0000EA557A4C0A6F0A5C0A7F09EC00D
:1002FE00A8F09FC0A9F051DF060EA06F000EA16FEF
:10030E00000E006EA151005C02E1A051000819E23E
:10031E00A0519E25E16EA1519F21E26E010EA05DBE
:10032E00006E000EA159016E00509E25E96E01501F
:10033E009F21EA6EEECFE6FF010EA05F000EA15BDD
:10034E00DFD79EC0E1FF9FC0E2FF200EE66EA251F6
:10035E00A3111AE0A06BA16BA0519E25E96EA151CD
:10036E009F21EA6EEE50200A03E1A04BA12BF4D799
:10037E00010EA05F000EA15BA0519E25E16EA15162
:0A038E009F21E26E2D0EE66E1200B4
:1003980010D0800E00019C6F1AD0C00E9C6F17D031
:1003A800940E9C6F14D0D40E9C6F11D0800E9C6F4D
:1003B8000ED000019C51010AECE09C51020AEDE0CC
:1003C8009C51030AEDE09C51040AEDE0EFD79D052E
:1003D800006E9C51002600C09CF0478000C0A6F02B
:0E03E800A0DE47909EC0A6F09CDE478012006B
:0C03F60047909CC0A6F096DE47801200E5
:10040200969296909598959A959C959E84928490B2
:10041200839E839C839A839875DE74DE73DE838A5F
:10042200838884826CDE84926DDE848268DE8492AC
:1004320069DE848264DE849265DE839884825FDE74
:10044200849260DE84825BDE8492839A838E8482CD
:1004520056DE849257DE839E8388848250DE8492A5
:10046200839884824CDE84924DDE848248DE8492BC
:100472008388848244DE849245DE839884823FDED0
:100482008492838E838C838A8388848238DE8492EA
:0604920039DE4780120074
:10049800949894968B988B9694889486C79EC79CBC
:0604A800380EC66E1200C2
:1004AE000900F5CFE6FF0006FBE10106F9E11200B7
:1004BE001C0E386E010E396EA60E3A6E000E3B6E95
:1004CE00FF0E3C6EFF0E3D6E000E3E6E000E3F6E3A
:1004DE00FF0E326EFF0E336E000E346E000E356E52
:1004EE00FF0E2C6EFF0E2D6E000E2E6E000E2F6E5A
:1004FE00AC8A900EAB6E948E949C9EAA03D0AECF17
:06050E0000F0FBD7120013
:10051400286A296A800E2918006E800E000A005C81
:1005240002E1140E285C2FE22A6A2B6A800E2B1833
:10053400006E800E000A005C02E1040E2A5C20E2D8
:100544002A50010F00019C6F2850010F9D6F28C095
:1005540000F029C001F0140E046E000E056E85DE55
:10056400480E0026000E01222A500024E96E2B506A
:100574000120EA6EEECF9EF00DDF2A4A2B2AD6D751
:08058400284A292AC7D71200FA
:10058C00306A316A366A376A286A296A800E2918F5
:10059C00006E800E000A005C02E1140E285C27E25B
:1005AC002A6A2B6A800E2B18006E800E000A005CE3
:1005BC0002E1040E2A5C18E228C000F029C001F008
:1005CC00140E046E000E056E4CDE480E0026000E56
:1005DC0001222A500024E16E2B500120E26E2D0ED8
:1005EC00E66E2A4A2B2ADED7284A292ACFD7400E74
:1005FC0000019C6F000E9D6F30C09EF031C09FF0CB
:10060C0058DE400E9C6F000E9D6F11DE0D0EA66F16
:10061C007FDD0A0E0001A66F7BDD400E00019C6F92
:10062C00000E9D6F36C09EF037C09FF042DE400E2C
:10063C009C6F000E9D6FFBDD0D0EA66F69DD0A0E23
:10064C000001A66F65DD30C000F031C001F0140E62
:10065C00046E000E056E05DE480E0026000E01220B
:10066C0036500024E16E37500120E26E25C0E6FFC3
:02067C0012006A
:10067E003C0ECA6E9D82F90ECB6ED00EF26E12003B
:10068E00400E0001A66F4ADD986B9851070811E3E2
:10069E009C0E9825F66E070EF76E000EF722000ED2
:1006AE00F86E000EF8220900F5CF9CF09DDE982B17
:1006BE00ECD7986B9851070811E3A40E9825F66EA7
:1006CE00070EF76E000EF722000EF86E000EF822DF
:1006DE000900F5CF9CF088DE982BECD7986B9851DB
:1006EE00070811E38C0E9825F66E070EF76E000EB6
:1006FE00F722000EF86E000EF8220900F5CF9CF0DE
:10070E0073DE982BECD7986B9851070811E3940E73
:10071E009825F66E070EF76E000EF722000EF86E95
:10072E00000EF8220900F5CF9CF05EDE982BECD778
:08073E00020EA66FF3DC1200AD
:10074600216A226A236A246A256A266A276A286A2F
:10075600296A2A6A2B6A190EAF6EAC84ADDE140EB6
:10076600C86E97DE0E0EC16E0F0E936E816A46DE60
:10077600210E926E81DF0C0E0001A66FD3DC84DFA2
:0607860002DFC5DEFFD713
:08078C001F1F1F1B11000000DC
:08079400000000111B1F1F1FD4
:08079C001F1E1C18181C1E1F73
:0807A4001F0F070303070F1FDD
:020000040030CA
:0D000100021F1EFF8381FF0FC00FE00F40A4
:00000001FF
