:0400000083EF02F098
:1000080000C01EF001C01DF002C01CF003C01BF0B0
:1000180004C01AF005C019F008C018F009C017F09C
:100028000AC016F00BC015F0F3CF1FF0F4CF20F084
:10003800F2A204D0214A222A8074F2929EA223D0EE
:10004800234A242A800E2418006E800E030A005CBE
:1000580002E1E80E235C16E3000E291802E1000E07
:1000680028180DE121C000F022C001F03C0E046EFA
:10007800000E056EA8D800C028F001C029F08072D3
:10008800236A246A9E921FC0F3FF20C0F4FF1EC09B
:1000980000F01DC001F01CC002F01BC003F01AC024
:1000A80004F019C005F018C008F017C009F016C010
:0800B8000AF015C00BF0110065
:1000C0000F0E0C6E470E0D6E0D2EFED70C2EFCD7AC
:0600D00000000000120018
:0A00D600210E0D6E0D2EFED7120054
:0600E00000000000120008
:1000E600000198BF02D0839E01D0838E98BD02D0B6
:1000F600839C01D0838C98BB02D0839A01D0838ADB
:1001060098B902D0839801D083883EB002D084800B
:1001160001D084908482E1DF849298B702D0839ED6
:1001260001D0838E98B502D0839C01D0838C98B37E
:1001360002D0839A01D0838A98B102D0839801D0E5
:1001460083883EB002D0848001D084908482C5DF4B
:0E01560084923EA002D0B1DF01D0BADF1200C9
:0C0164003E9095C098F0BDDF3E80120078
:1001700010D0800E0001956F1AD0C00E956F17D069
:10018000940E956F14D0D40E956F11D0800E956F8C
:100190000ED000019551010AECE09551020AEDE004
:1001A0009551030AEDE09551040AEDE0EFD796056D
:1001B000006E9551002600C095F03E8000C098F07A
:0E01C00092DF3E9097C098F08EDF3E801200D6
:1001CE000B6A0A6A096A00500402F4CF09F0F3CFF1
:1001DE0008F001500502F4CF0BF0F3CF0AF00050F7
:1001EE000502F3500926F4500A22E86A0B22015048
:1001FE000402F3500926F4500A22E86A0B2208C0C2
:10020E0000F009C001F00AC002F00BC003F01200AA
:10021E002C6A2D6A00018F6B906B2A6A2B6A800EF6
:10022E002B18006E800E005C02E1500E2A5C26E256
:10023E00256A266A800E2618006E800E005C02E18A
:10024E00140E255C18E22AC000F02BC001F0140E2B
:10025E00046E000E056EB4DF3F0E0026000E012266
:10026E0025500024E16E26500120E26E2D0EE66E22
:10027E00254A262ADFD72A4A2B2AD1D700012CC09D
:10028E0000F02DC001F0140E046E000E056E98DF06
:10029E003F0E0026000E01228F510024E16E905178
:0A02AE000120E26E27C0E6FF1200F7
:1002B800969296909598959A959C959E84928490FE
:1002C800839E839C839A8398F7DEF6DEF5DE838A25
:1002D8008388848201DF8492EFDE8482FDDE84924B
:1002E800EBDE8482F9DE8492E7DE83988482F4DE92
:1002F8008492E2DE8482F0DE8492839A838E848202
:10030800EBDE8492D9DE839E83888482E5DE849244
:1003180083988482E1DE8492CFDE8482DDDE84925B
:1003280083888482D9DE8492C7DE83988482D4DE6F
:100338008492838E838C838A83888482CDDE8492A0
:06034800BBDE3E80120046
:10034E00FF0E326EFF0E336EFF0E346EFF0E356EE5
:10035E00FF0E366EFF0E376E000E386E000E396EC3
:10036E00FF0E3A6EFF0E3B6E000E3C6E000E3D6EA3
:10037E00FF0E2E6EFF0E2F6E000E306E000E316EC3
:10038E00AC8A900EAB6E948E949C9EAA03D0AECF88
:06039E0000F0FBD7120085
:1003A4000900F5CFE6FF0006FBE10106F9E11200C2
:1003B400949894968B988B9694889486C79EC79CA1
:0603C400380EC66E1200A7
:1003CA002A6A2B6A800E2B18006E800E005C02E1EE
:1003DA00500E2A5C2EE2256A266A800E2618006EC6
:1003EA00800E005C02E1140E255C20E22A50010F07
:1003FA000001956F2550010F966F2AC000F02BC09F
:10040A0001F0140E046E000E056EDCDE3F0E0026AF
:10041A00000E012225500024E96E26500120EA6EC2
:10042A00EECF97F0A0DE254A262AD7D72A4A2B2ACA
:04043A00C9D712000C
:10043E00400E0001986F50DE916B9151070811E349
:10044E005C0E9125F66E050EF76E000EF722000E6D
:10045E00F86E000EF8220900F5CF95F07CDE912B98
:10046E00ECD7916B9151070811E3640E9125F66E4E
:10047E00050EF76E000EF722000EF86E000EF82233
:10048E000900F5CF95F067DE912BECD7916B91516A
:10049E00070811E34C0E9125F66E050EF76E000E51
:1004AE00F722000EF86E000EF8220900F5CF95F037
:1004BE0052DE912BECD7916B9151070811E3540E3C
:1004CE009125F66E050EF76E000EF722000EF86EF1
:1004DE00000EF8220900F5CF95F03DDE912BECD7FA
:0804EE00020E986FF9DD120007
:1004F6003C0ECA6E9D82F90ECB6ED00EF26E1200C5
:10050600216A226A236A246A256A266A276A286A71
:10051600296A2A6A2B6A190EAF6EAC8415DF140E8F
:10052600C86E45DF0E0EC16E0F0E936E816AC1DE78
:10053600210E926EDDDF0C0E0001986FD1DD7CDF9F
:060546006BDE40DFFFD771
:08054C001F1F1F1B110000001E
:08055400000000111B1F1F1F16
:08055C001F1E1C18181C1E1FB5
:080564001F0F070303070F1F1F
:020000040030CA
:0D000100021F1EFF8381FF0FC00FE00F40A4
:00000001FF
