:040000003EEF22F0BD
:1000080000C01EF001C01DF002C01CF003C01BF0B0
:1000180004C01AF005C019F008C018F009C017F09C
:100028000AC016F00BC015F0F3CF1FF0F4CF20F084
:10003800F2A204D06C4A6D2A8074F2929EA224D057
:100048002A4A2B2A800E2B18006E800E030A005CA9
:1000580002E1E80E2A5C17E3000E711802E1000EB7
:1000680070180EE16CC000F06DC001F03C0E046E1B
:10007800000E056E1FEC0AF000C070F001C071F0B0
:1000880080722A6A2B6A9E921FC0F3FF20C0F4FF79
:100098001EC000F01DC001F01CC002F01BC003F020
:1000A8001AC004F019C005F018C008F017C009F00C
:0A00B80016C00AF015C00BF011008D
:1000C2000B840BAE6CEF00F0010E036E026A016A44
:0A00D200006A0A360232FF0E120027
:0E00DC00026A016A006A086A036A000E1200D6
:0800EA000AAE029E000E120096
:1000F2000B820BAE83EF00F00368026801680068B0
:080102000A360232FF0E120062
:10010A000CB0C7EF00F00CA26DEF01F00E6A000E02
:10011A000264DEEF00F0F00E0214D8A4A9EF00F09A
:10012A00023A01380F0B02260138F00B016E003833
:10013A000F0B01260038F00B006E08380F0B002653
:10014A000838F00B086E0E84D89002BEC2EF00F099
:10015A0008360036013602360E2A02BEC2EF00F019
:10016A0008360036013602360E2A02BEC2EF00F009
:10017A0008360036013602360E2A0E50036463EF43
:10018A0001F0035E0BBC08AE68EF01F0D880800E68
:10019A0008640030000E002201220222D8A068EF73
:1001AA0001F0023201320032034A6DEF01F068EFCA
:1001BA0001F001C002F000C001F008C000F0086AB6
:1001CA00000E0E86026415EF01F0F00E0214D8A498
:1001DA00FDEF00F0023A01380F0B02260138F00B4E
:1001EA00016E00380F0B01260038F00B006E0E84EA
:1001FA00D89002BEC2EF00F00036013602360E2A4F
:10020A0002BEC2EF00F00036013602360E2A02BEE6
:10021A00C2EF00F00036013602360E2AC2EF00F0B5
:10022A0001C002F000C001F0006A000E0E960E88AE
:10023A00026442EF01F0F00E0214D8A42DEF01F08F
:10024A00023A01380F0B02260138F00B016E0E84B8
:10025A00D89002BEC2EF00F0013602360E2A02BE64
:10026A00C2EF00F0013602360E2A02BEC2EF00F0DB
:10027A00013602360E2AC2EF00F001C002F0016A0E
:10028A00000E0E86026472EF01F0F00E0214D8A47A
:10029A0051EF01F0023A0E84D89002BEC2EF00F08C
:1002AA0002360E2A02BEC2EF00F002360E2A02BE43
:1002BA00C2EF00F002360E2AC2EF00F0010E0C6EF9
:1002CA00FBDE75EF01F0020E0C6E0ADF75EF01F02E
:1002DA00040E0C6E09DF75EF01F0080E0C6EF9DEE4
:0202EA00120000
:0A02EC00210E0D6E0D2EFED712003C
:1002F6000F0E0C6E470E0D6E0D2EFED70C2EFCD774
:06030600000000001200DF
:10030C000B800BAE92EF01F0026A0AAEFF0E026E8A
:0C031C00016E006E0A360232FF0E120065
:06032800000000001200BD
:10032E00025006180E6E086A096A0B6A03500764BB
:10033E008AEF02F006500A6E068E028E03500B6E86
:10034E000750036E000E0B64DAEF01F00B50075EE0
:10035E00D8B47BEF02F0070E076449EF02F0075E98
:10036E0000C008F001C000F002C001F0026A074EA2
:10037E007BEF02F007641EEF02F0075E00C008F08C
:10038E0001C000F0016A074E7BEF02F00764FCEF3C
:10039E0001F0075E00C008F0006A074E7BEF02F026
:1003AE000764E3EF01F00AC002F005C001F004C0DB
:1003BE0000F0086AA4EF03F0030E0764EEEF01F0FD
:1003CE00075E08380F0B086E074E7BEF02F0D890D1
:1003DE000832074E7BEF02F0D8900832074E7BEFC3
:1003EE0002F0D89008327BEF02F0030E07640DEF97
:1003FE0002F0075E08380F0B086E0038F00B082667
:10040E0000380F0B006E074E7BEF02F0D8900032D3
:10041E000832074E7BEF02F0D89000320832074EBA
:10042E007BEF02F0D890003208327BEF02F0030E21
:10043E00076435EF02F0075E08380F0B086E0038C0
:10044E00F00B082600380F0B006E0138F00B00265B
:10045E0001380F0B016E074E7BEF02F0D890013280
:10046E0000320832074E7BEF02F0D8900132003294
:10047E000832074E7BEF02F0D8900132003208327C
:10048E007BEF02F0030E076466EF02F0075E08389A
:10049E000F0B086E0038F00B082600380F0B006E9D
:1004AE000138F00B002601380F0B016E0238F00BED
:1004BE00012602380F0B026E074E7BEF02F0D8902A
:1004CE000232013200320832074E7BEF02F0D89032
:1004DE000232013200320832074E7BEF02F0D89022
:1004EE000232013200320832096A000E0EAE6FEF90
:1004FE0003F0081E001E011E021E082A0022012201
:10050E0002226FEF03F00750D8A490EF02F0A4EF91
:10051E0003F0096A02C00AF0028E068E0750035CD1
:10052E00076ED8B462EF03F0070E076430EF03F0E6
:10053E00075E0450096E0550046E0650056E066A7D
:10054E00074E62EF03F0070E076405EF03F0075E38
:10055E000450096E0550046E056A074E62EF03F0F3
:10056E00070E0764E3EF02F0075E0450096E046A9B
:10057E00074E62EF03F0070E0764CAEF02F00AC0DF
:10058E0002F0A4EF03F0030E0764D5EF02F0075E4E
:10059E0009380F0B096E074E62EF03F0D89009323F
:1005AE00074E62EF03F0D8900932074E62EF03F068
:1005BE00D890093262EF03F0030E0764F4EF02F0F5
:1005CE00075E09380F0B096E0438F00B0926043844
:1005DE000F0B046E074E62EF03F0D890043209320F
:1005EE00074E62EF03F0D89004320932074E62EFE5
:1005FE0003F0D8900432093262EF03F0030E076461
:10060E001CEF03F0075E09380F0B096E0438F00B70
:10061E00092604380F0B046E0538F00B0426053836
:10062E000F0B056E074E62EF03F0D89005320432C1
:10063E000932074E62EF03F0D890053204320932C8
:10064E00074E62EF03F0D89005320432093262EFA2
:10065E0003F0030E07644DEF03F0075E09380F0B2E
:10066E00096E0438F00B092604380F0B046E05389A
:10067E00F00B042605380F0B056E0638F00B052619
:10068E0006380F0B066E074E62EF03F0D890063257
:10069E00053204320932074E62EF03F0D89006326B
:1006AE00053204320932074E62EF03F0D89006325B
:1006BE00053204320932086A000E0EAE6FEF03F0F7
:1006CE00091E041E051E061E092A042205220622E4
:1006DE00095008260450002205500122065002221D
:1006EE000EBE86EF03F0D8A095EF03F00232013272
:1006FE0000320832033E95EF03F09FEF03F0D8B0BF
:10070E009AEF03F0000E081E001E011E021E082A9C
:10071E000022012202220A7E9AEF03F0010E0C6ED5
:10072E00EDDCA6EF03F0020E0C6EE8DCA6EF03F094
:10073E00040E0C6ED7DCA6EF03F0000E0C6E12004A
:10074E000134083609360450085E0550D8A0053C21
:10075E00095E003601360F0E0C6E0134083609366E
:10076E00045000A006D0085E0550D8A0053C095ED6
:10077E0005D008260550D8B0053C092600360136AE
:10078E000C2EEBD700B006D0045008260550D8B07A
:08079E00053C092600001200D1
:1007A600086A080E0C6E003408360450085ED8B08D
:0E07B60002D00826D89000360C2EF5D712007F
:1007C4000D6A086A0050D8B4000C04180A6E0ABEF8
:1007D4000D1E0B6A04AE02D0041E042A00A002D02F
:1007E400001E002A005004100A6E0ABE1FD00450D6
:1007F400085E003600340836045008260036060E1B
:100804000C6E00340836045000B0085E00A00826C0
:1008140000360C2EF6D700A008260BB015D00DAE6E
:10082400000C001E002A081E082A000C04AE09D081
:1008340000BE04D00050086E006AF1D7006A002A96
:10084400000C001E0B2AD3D7082A0450085CD8A435
:0E085400E6D7086A002A00AEE2D7FF0C1200B9
:080862000B6A0B86FF0E120069
:10086A00086A096A000E07620364BAEF04F00250CC
:10087A0006180A6E075003267E0ED8A04BEF04F026
:10088A00035ED8B0BFEF04F04FEF04F0035ED8A0C8
:10089A00C4EF04F0028E068E02C00EF001C00BF007
:1008AA0000C00DF000500402F4CF0CF00150050214
:1008BA00F4CF00F0F3CF08F00402F3500C26F45002
:1008CA000822000E00220D500502F3500C26F450A7
:1008DA000822000E002202500402F3500826F450A7
:1008EA00002202500502016A000E0122F35000267E
:1008FA00F45001220D500602F3500826F45000224B
:10090A00026A000E012202220B500602F350002650
:10091A00F4500122000E02220E500602F350012664
:10092A00F450022202BEA2EF04F008360036013665
:10093A0002360306D8B4C4EF04F0B5EF04F0D88049
:10094A00800E08640030000E002201220222D8A084
:10095A00B5EF04F0023201320032034ABFEF04F06D
:10096A000AAE029E000EC7EF04F0010E6EEC00F014
:10097A00C7EF04F0020E79EC00F0C7EF04F0040EA2
:06098A0061EC00F0120018
:100990006E0E0001FD5DD8A0C3D0640E046EFDC0D4
:1009A00000F001DF120E0024056E066A000E06221A
:1009B00005C000F006C001F0000E06BEFF0E026E7C
:1009C000036E003600900136023603360036009082
:1009D0000136023603368D0E0024F66E470E0120D6
:1009E000F76E000E0220F86E0900F5CF00F0090046
:1009F000F5CF01F00900F5CF02F00900F5CF03F0C3
:100A0000000E046E000E056E000E066E7E0E076E62
:100A10002CDF00C0FEF001C0FFF002C000F103C0F7
:100A200001F1640E046EFDC000F0BDDE08C000F0F0
:100A30000A0E046EB8DE090E0024056E066A000E6A
:100A4000062205C000F006C001F0000E06BEFF0E33
:100A5000026E036E00360090013602360336003611
:100A600000900136023603368D0E0024F66E470ED6
:100A70000120F76E000E0220F86E0900F5CF00F09D
:100A80000900F5CF01F00900F5CF02F00900F5CF1C
:100A900003F0FEC004F0FFC005F000C106F001C184
:100AA00007F0E3DE00C0FEF001C0FFF002C000F17D
:100AB00003C001F10A0E046EFDC000F074DE08C030
:100AC00000F000C001F0000E026E036E046E0136ED
:100AD00001900236033604360136019002360336A1
:100AE00004368D0E0124F66E470E0220F76E000EBE
:100AF0000320F86E0900F5CF00F00900F5CF01F0F2
:100B00000900F5CF02F00900F5CF03F0FEC004F0B4
:100B1000FFC005F000C106F001C107F0A6DE12001B
:100B2000FD510A087AE20A0E046EFDC000F03BDEB9
:100B3000090E0024056E066A000E062205C000F0AC
:100B400006C001F0000E06BEFF0E026E036E0036F8
:100B50000090013602360336003600900136023628
:100B600003368D0E0024F66E470E0120F76E000E40
:100B70000220F86E0900F5CF00F00900F5CF01F072
:100B80000900F5CF02F00900F5CF03F0000E046E66
:100B9000000E056E000E066E7E0E076E66DE00C04D
:100BA000FEF001C0FFF002C000F103C001F10A0E27
:100BB000046EFDC000F0F7DD08C000F000C001F0D9
:100BC000000E026E036E046E01360190023603368B
:100BD0000436013601900236033604368D0E0124A8
:100BE000F66E470E0220F76E000E0320F86E090025
:100BF000F5CF00F00900F5CF01F00900F5CF02F0C4
:100C00000900F5CF03F0FEC004F0FFC005F000C1FD
:100C100006F001C107F029DE1200FDC000F0000E51
:100C2000016E026E036E0036009001360236033606
:100C3000003600900136023603368D0E0024F66E23
:100C4000470E0120F76E000E0220F86E0900F5CF66
:100C500000F00900F5CF01F00900F5CF02F009001E
:100C6000F5CF03F0000E046E000E056E000E066E4A
:080C70007E0E076EFADD120092
:100C78000001FDBF02D0839E01D0838EFDBD02D04E
:100C8800839C01D0838CFDBB02D0839A01D0838AD8
:100C9800FDB902D0839801D0838899B102D08480AD
:100CA80001D08490848294EC01F08492FDB702D044
:100CB800839E01D0838EFDB502D0839C01D0838CA6
:100CC800FDB302D0839A01D0838AFDB102D0839804
:100CD80001D0838899B102D0848001D08490848225
:100CE80094EC01F0849299A103D07BEC01F002D03E
:060CF80076EC01F0120091
:100CFE00C7B409D01F0EC514016E0150000A03E1DE
:0A0D0E00010E006E1200006A1200D0
:100D18000B6A0A6A096A086A0E6A033408360450BC
:100D2800085E0550D8A0053C095E0650D8A0063CD0
:100D38000A5E0750D8A0073C0B5EE86AD8A0010EEF
:100D48000E5E0336070E0C6E0334083609360A3673
:100D58000B360E36045003A012D0085E0550D8A0FA
:100D6800053C095E0650D8A0063C0A5E0750D8A08C
:100D7800073C0B5EE86AD8A0010E0E5E11D008266B
:100D88000550D8B0053C09260650D8B0063C0A26BE
:100D98000750D8B0073C0B26E86AD8B0010E0E26DB
:100DA80003360C2ED1D70234083609360A360B36EC
:100DB8000E36045003A012D0085E0550D8A0053C9A
:100DC800095E0650D8A0063C0A5E0750D8A0073C2A
:100DD8000B5EE86AD8A0010E0E5E11D008260550F9
:100DE800D8B0053C09260650D8B0063C0A2607505C
:100DF800D8B0073C0B26E86AD8B0010E0E2602369A
:100E0800070E0C6E0234083609360A360B360E36D3
:100E1800045002A012D0085E0550D8A0053C095E17
:100E28000650D8A0063C0A5E0750D8A0073C0B5EC7
:100E3800E86AD8A0010E0E5E11D008260550D8B079
:100E4800053C09260650D8B0063C0A260750D8B0FB
:100E5800073C0B26E86AD8B0010E0E2602360C2E87
:100E6800D1D70134083609360A360B360E36045007
:100E780002A012D0085E0550D8A0053C095E0650B5
:100E8800D8A0063C0A5E0750D8A0073C0B5EE86A6B
:100E9800D8A0010E0E5E11D008260550D8B0053C2A
:100EA80009260650D8B0063C0A260750D8B0073C99
:100EB8000B26E86AD8B0010E0E260136070E0C6E16
:100EC8000134083609360A360B360E36045001A0AE
:100ED80012D0085E0550D8A0053C095E0650D8A07F
:100EE800063C0A5E0750D8A0073C0B5EE86AD8A00B
:100EF800010E0E5E11D008260550D8B0053C092613
:100F08000650D8B0063C0A260750D8B0073C0B2636
:100F1800E86AD8B0010E0E2601360C2ED1D700345F
:100F2800083609360A360B360E36045001A012D0A0
:100F3800085E0550D8A0053C095E0650D8A0063CBE
:100F48000A5E0750D8A0073C0B5EE86AD8A0010EDD
:100F58000E5E11D008260550D8B0053C092606506B
:100F6800D8B0063C0A260750D8B0073C0B26E86ADA
:100F7800D8B0010E0E260036070E0C6E0034083667
:100F880009360A360B360E36045000A012D0085E19
:100F98000550D8A0053C095E0650D8A0063C0A5E5C
:100FA8000750D8A0073C0B5EE86AD8A0010E0E5E79
:100FB80011D008260550D8B0053C09260650D8B0EF
:100FC800063C0A260750D8B0073C0B26E86AD8B07A
:100FD800010E0E2600360C2ED1D700B00ED00450CC
:100FE80008260550D8B0053C09260650D8B0063C5E
:0C0FF8000A260750D8B0073C0B26120058
:101004000B6A0C6A086A0350D8B486EF08F002C071
:101014000AF0028E9E0E035E03AE76EF08F0036CB8
:10102400080E035CD8A043EF08F0036E083600C036
:1010340008F001C000F002C001F0026A080E035C6F
:10104400D8A043EF08F0036E083600C008F001C0D2
:1010540000F0016A080E035CD8A043EF08F0036EA9
:10106400083600C008F0006A080E035CD8A043EFFD
:1010740008F0036E0836086A0350D8A4D8904FEFDE
:1010840008F00350D8B44FEF08F0D8900232013280
:1010940000320832032E47EF08F00BBC08A060EFC3
:1010A40008F0D8A060EF08F0082AD8B4002AD8B411
:1010B400012AD8B4022A02BE8AEF08F00AAE86EFEB
:1010C40008F0021E011E001E081E082AD8B4002AB9
:1010D400D8B4012AD8B4022A86EF08F0026A016A59
:1010E400006A086A86EF08F00B800BAE91EF08F0F7
:1010F400026A0AAE91EF08F0026E016E006E086E8D
:101104000A36023291EF08F00C6A000E92EF08F0F2
:10111400010E0C6E000E86EC01F092EF08F0FF0E4B
:101124000250036E0150026E0050016E0850006EB2
:021134001200A7
:1011360003500718D8A4AFEF08F002500618D8A439
:10114600AFEF08F001500518D8A4AFEF08F0005033
:0E1156000418D8B4D8841200D89412001200E5
:101164000050086E0150006E0250016E0350026E72
:10117400036A0B6A0C6A9E0E036E0A6A020E0C6EF8
:0611840085EC00F01200F2
:10118A000B6A0C6A0A6A086A0350D8B44DEF09F070
:10119A00028E9E0E035E03BED8EF08F0D8B4D8EFD5
:1011AA0008F03DEF09F0036C080E035CD8A00AEFC3
:1011BA0009F0036E083600C008F001C000F002C052
:1011CA0001F0026A080E035CD8A00AEF09F0036E68
:1011DA00083600C008F001C000F0016A080E035C7E
:1011EA00D8A00AEF09F0036E083600C008F0006ABA
:1011FA00080E035CD8A00AEF09F0036E0836086AE5
:10120A000350D8A4D89016EF09F00350D8B416EFBB
:10121A0009F0D8900232013200320832032E0EEF62
:10122A0009F00BBC08A027EF09F0D8A027EF09F0B6
:10123A00082AD8B4002AD8B4012AD8B4022A02BE8D
:10124A0051EF09F00AAE4DEF09F0021E011E001E11
:10125A00081E082AD8B4002AD8B4012AD8B4022A07
:10126A004DEF09F0026A016A006A086A4DEF09F057
:10127A000B800BAE57EF09F0026A0AAE57EF09F07E
:10128A00026E016E006E086E0A36023257EF09F0DE
:10129A00000E0C6A58EF09F0010E0C6E86EC01F094
:1012AA0058EF09F0FF0E0250036E0150026E005013
:0812BA00016E0850006E1200E5
:1012C2000450000A12E10550000A0FE10650000A1C
:1012D2000CE10750000A09E1FF0E006EFF0E016EDD
:1012E2007F0E026EFF0E036E1200086A096A075033
:1012F200D8B40CEF0AF00350D8B411EF0AF0025040
:1013020006180A6E028E068E0E6A02C008F001C02E
:101312000CF000C00DF004500D5E0550D8A0053C45
:101322000C5E0650D8A0063C085E086A0C6A0D6A7C
:10133200D8A0A3EF09F0D89002320132003208326D
:10134200010E0E6E0750035ED8A0B0EF09F07E0EBC
:101352000E240326D8B016EF0AF0B6EF09F07E0E7F
:101362000E240326D8A01BEF0AF0180E0B6E0D36C2
:101372000C3608360036013602360E360450005E50
:101382000550D8A0053C015E0650D8A0063C025E7E
:1013920006340E120EA0D1EF09F00D80DCEF09F039
:1013A200045000260550D8B0053C01260650D8B09E
:1013B200062802260D900B2EB8EF09F002EF0AF074
:1013C200D8900036013602360E360450005E0550C3
:1013D200D8A0053C015E0650D8A0063C025E063449
:1013E2000E10010B0D26D8B00C2AD8B4082AD8A4A6
:1013F20002EF0AF008320C320D32032AD8B416EF8B
:101402000AF00AAE089E0850026E0C50016E0D5092
:10141200006E1EEF0AF0010E31EC04F01EEF0AF02E
:10142200020E6EEC00F01EEF0AF0040E79EC00F0F2
:0C1432001EEF0AF0080E61EC00F0120042
:10143E000B6A0A6A096A00500402F4CF09F0F3CF6E
:10144E0008F001500502F4CF0BF0F3CF0AF0005074
:10145E000502F3500926F4500A22E86A0B220150C5
:10146E000402F3500926F4500A22E86A0B2208C03F
:10147E0000F009C001F00AC002F00BC003F0120028
:10148E00086A096A100E0C6E0134083609360450CB
:10149E00085E0550D8A0053C095ED8B007D00450B0
:1014AE0008260550D8B0053C0926D89000360136DE
:0614BE000C2EEAD712001B
:0814C400067E97EC01F0120016
:1014CC000A6A0350D8A40A800750D8A40A820A508A
:1014DC00D8B4C9EF0AF0030AD8B482EF0AF00AB004
:1014EC007DEF0AF006AEC7EF0AF0C5EF0AF002AEC8
:1014FC00C5EF0AF0C7EF0AF00250800B0A6E029E8D
:10150C000650800B069E0A18D8B493EF0AF00A50C6
:10151C00D8B4C5EF0AF0C7EF0AF00750035CD8B493
:10152C009DEF0AF0D8A0B9EF0AF0BFEF0AF0065011
:10153C00025CD8B4A7EF0AF0D8A0B9EF0AF0BFEF5D
:10154C000AF00550015CD8B4B1EF0AF0D8A0B9EF9D
:10155C000AF0BFEF0AF00450005CD8B4C9EF0AF0EF
:10156C00D8B0BFEF0AF00A52D8B4C7EF0AF0C5EFF3
:10157C000AF00A52D8B4C5EF0AF0C7EF0AF0D880C7
:0E158C001200D8901200D880D88412001200ED
:10159A000001FD51390806E3300EFD5D03E3010E3B
:0815AA00006E01D0006A12007E
:1015B2000450000A08E10550000A05E1FF0E006E22
:1015C2007F0E016E12000D6A096A086A015000104E
:1015D200D8B4000C015005180A6E0ABE0D1E0B6A23
:1015E20005AE05D0041E051E042AD8B4052A01AE94
:1015F20005D0001E011E002AD8B4012A0150051090
:101602000A6E0ABE10D0A7EC03F00BB020D00DAECC
:10161200000C001E011E002AD8B4012A081E091E51
:10162200082AD8B4092A000C05AE0DD001BE07D095
:101632000150096E0050086E016A006AE8D7016A1B
:10164200006A002A000C011E001E0B2ADDD7082AA0
:10165200D8B4092A0450085CD8A4D9D70550095C2B
:10166200D8A4D5D7096A086A002AD8B4012A01AEDB
:08167200CED70000FF0C1200AE
:10167A00800E0001FD19006E800E000A005CD8B0D1
:10168A006DD1FD510008016E01C0FDF0800E0118F8
:10169A00006E800E6E0A005CD8A0C0D0640E046E84
:1016AA00FDC000F0E2EC03F0120E0024056E000EFD
:1016BA0000BEFF0E066E000E062205C000F006C030
:1016CA0001F0000E06BEFF0E026E036E0036009099
:1016DA0001360236033600360090013602360336EA
:1016EA008D0E0024F66E470E0120F76E000E0220C2
:1016FA00F86E0900F5CFFEF00900F5CFFFF00900FA
:10170A00F5CF00F10900F5CF01F1640E046EFDC0BA
:10171A0000F0E2EC03F008C000F00A0E046EE2ECFE
:10172A0003F0090E0024056E000E00BEFF0E066EC1
:10173A00000E062205C000F006C001F0000E06BE2B
:10174A00FF0E026E036E0036009001360236033633
:10175A00003600900136023603368D0E0024F66EEE
:10176A00470E0120F76E000E0220F86E0900F5CF31
:10177A0000F00900F5CF01F00900F5CF02F00900E9
:10178A00F5CF03F0FEC004F0FFC005F000C106F07B
:10179A0001C107F035EC04F000C0FEF001C0FFF013
:1017AA0002C000F103C001F10A0E046EFDC000F090
:1017BA00E2EC03F008C000F000C001F0000E00BE29
:1017CA00FF0E026E036E046E013601900236033676
:1017DA000436013601900236033604368D0E012492
:1017EA00F66E470E0220F76E000E0320F86E09000F
:1017FA00F5CF00F00900F5CF01F00900F5CF02F0AE
:10180A000900F5CF03F0FEC004F0FFC005F000C1E7
:10181A0006F001C107F035EC04F01200800E0A0A46
:10182A00006E800EFD19005C71E20A0E046EFDC0A6
:10183A0000F0E2EC03F0090E0024056E000E00BE73
:10184A00FF0E066E000E062205C000F006C001F06B
:10185A00000E06BEFF0E026E036E003600900136C1
:10186A0002360336003600900136023603368D0EF4
:10187A000024F66E470E0120F76E000E0220F86E65
:10188A000900F5CFFEF00900F5CFFFF00900F5CF0A
:10189A0000F10900F5CF01F10A0E046EFDC000F057
:1018AA00E2EC03F008C000F000C001F0000E00BE38
:1018BA00FF0E026E036E046E013601900236033685
:1018CA000436013601900236033604368D0E0124A1
:1018DA00F66E470E0220F76E000E0320F86E09001E
:1018EA00F5CF00F00900F5CF01F00900F5CF02F0BD
:1018FA000900F5CF03F0FEC004F0FFC005F000C1F7
:10190A0006F001C107F035EC04F01200FDC000F04A
:10191A00000EFDBFFF0E016E026E036E00360090D0
:10192A000136023603360036009001360236033697
:10193A008D0E0024F66E470E0120F76E000E02206F
:10194A00F86E0900F5CF00F00900F5CF01F00900A3
:10195A00F5CF02F00900F5CF03F01200800EFD1951
:10196A00006E800E6E0A005CD8A0C0D0640E046EB1
:10197A00FDC000F0E2EC03F0120E0024056E000E2A
:10198A0000BEFF0E066E000E062205C000F006C05D
:10199A0001F0000E06BEFF0E026E036E00360090C6
:1019AA000136023603360036009001360236033617
:1019BA00C10E0024F66E470E0120F76E000E0220BB
:1019CA00F86E0900F5CFFEF00900F5CFFFF0090027
:1019DA00F5CF00F10900F5CF01F1640E046EFDC0E8
:1019EA0000F0E2EC03F008C000F00A0E046EE2EC2C
:1019FA0003F0090E0024056E000E00BEFF0E066EEF
:101A0A00000E062205C000F006C001F0000E06BE58
:101A1A00FF0E026E036E0036009001360236033660
:101A2A0000360090013602360336C10E0024F66EE7
:101A3A00470E0120F76E000E0220F86E0900F5CF5E
:101A4A0000F00900F5CF01F00900F5CF02F0090016
:101A5A00F5CF03F0FEC004F0FFC005F000C106F0A8
:101A6A0001C107F035EC04F000C0FEF001C0FFF040
:101A7A0002C000F103C001F10A0E046EFDC000F0BD
:101A8A00E2EC03F008C000F000C001F0000E00BE56
:101A9A00FF0E026E036E046E0136019002360336A3
:101AAA00043601360190023603360436C10E01248B
:101ABA00F66E470E0220F76E000E0320F86E09003C
:101ACA00F5CF00F00900F5CF01F00900F5CF02F0DB
:101ADA000900F5CF03F0FEC004F0FFC005F000C115
:101AEA0006F001C107F035EC04F01200800E0A0A74
:101AFA00006E800EFD19005C71E20A0E046EFDC0D4
:101B0A0000F0E2EC03F0090E0024056E000E00BEA0
:101B1A00FF0E066E000E062205C000F006C001F098
:101B2A00000E06BEFF0E026E036E003600900136EE
:101B3A000236033600360090013602360336C10EED
:101B4A000024F66E470E0120F76E000E0220F86E92
:101B5A000900F5CFFEF00900F5CFFFF00900F5CF37
:101B6A0000F10900F5CF01F10A0E046EFDC000F084
:101B7A00E2EC03F008C000F000C001F0000E00BE65
:101B8A00FF0E026E036E046E0136019002360336B2
:101B9A00043601360190023603360436C10E01249A
:101BAA00F66E470E0220F76E000E0320F86E09004B
:101BBA00F5CF00F00900F5CF01F00900F5CF02F0EA
:101BCA000900F5CF03F0FEC004F0FFC005F000C124
:101BDA0006F001C107F035EC04F01200FDC000F078
:101BEA00000EFDBFFF0E016E026E036E00360090FE
:101BFA0001360236033600360090013602360336C5
:101C0A00C10E0024F66E470E0120F76E000E022068
:101C1A00F86E0900F5CF00F00900F5CF01F00900D0
:0C1C2A00F5CF02F00900F5CF03F0120026
:101C36009E96D6C0C9FFC7A401D0FDD79EB601D0D7
:101C4600FDD7C5BC02D0006A1200C584020E006E24
:021C560012007A
:101C58000001D66BD76BD751120802E1D6518E0816
:101C680009E37FEC06F0005201E004D00001D64BF6
:101C7800D72BF1D70001120ED75D02E18F0ED65D8A
:101C880003E37B0E006E1200C580C5A001D0FDD70E
:041C9800006A1200CC
:041C9C00C5841200E9
:101CA0000001DA6B050EDA5D0AE2DA51D825E16E41
:101CB000000ED921E26E200EE66EDA2BF3D7DA5150
:101CC000D825E16E000ED921E26EE66ADA07DA5114
:101CD000D825DB6F000ED921DC6F0A0E046E000ED2
:101CE000056ED6C000F0D7C001F047EC0AF008C07E
:101CF00000F009C001F0300E0026DBC0E1FFDCC0BF
:101D0000E2FF00C0E6FF0A0E046E000E056ED6C0AC
:101D100000F0D7C001F047EC0AF000C0D6F001C0D7
:101D2000D7F0000E011802E1000E001801E102D008
:061D3000DA07CDD7120016
:101D36009E96C5869EB601D0FDD7C9CF01F000019B
:101D4600D651000A02E1C58A01D0C59A9E96C58879
:0C1D56009EB601D0FDD701C000F01200C5
:0A1D6200C582C5A201D0FDD7120012
:101D6C000001F56BF66BE26BE36BD8C000F0D9C0E9
:101D7C0001F0DAC002F0010ED827000ED923DA23C5
:101D8C0000C0F6FF01C0F7FF02C0F8FF0900F5CF55
:101D9C0000F000C0DFF00052D8B4CAEF1EF0DF51E3
:101DAC00250A0BE0D6C0E1FFD7C0E2FFDFC0E6FF9B
:101DBC00D64BD72BF54BF62BD8D7E06BE16BE26B00
:101DCC00E36B23D0E287010ED827000ED923DA2348
:101DDC0059D0E281010ED827000ED923DA2352D034
:101DEC00E283010ED827000ED923DA234BD0E387E8
:101DFC00010ED827000ED923DA2344D0E285010E38
:101E0C00D827000ED923DA233DD0D8C0F6FFD9C08D
:101E1C00F7FFDAC0F8FF0900F5CF01F001502D0AE9
:101E2C00D1E0D8C0F6FFD9C0F7FFDAC0F8FF09003F
:101E3C00F5CF01F00150200ACCE0D8C0F6FFD9C094
:101E4C00F7FFDAC0F8FF0900F5CF01F001502B0ABB
:101E5C00C7E0D8C0F6FFD9C0F7FFDAC0F8FF090019
:101E6C00F5CF01F00150230AC2E0D8C0F6FFD9C06B
:101E7C00F7FFDAC0F8FF0900F5CF01F00150300A86
:101E8C00BDE001D09ED7E2A301D0E291E2A701D040
:101E9C00E295D8C0F6FFD9C0F7FFDAC0F8FF090009
:101EAC00F5CF00F0000E016E00C0FDF0CDEC0AF095
:101EBC00005236E0E06BE16BE0C000F0E1C001F0F5
:101ECC000A0E046E000E056E1FEC0AF0D8C0F6FF69
:101EDC00D9C0F7FFDAC0F8FF0900F5CF02F00250C5
:101EEC000024E06F000E0120E16F300EE05F000E69
:101EFC00E15B010ED827000ED923DA23D8C0F6FFF8
:101F0C00D9C0F7FFDAC0F8FF0900F5CF00F0000EDA
:101F1C00016E00C0FDF0CDEC0AF00052CDE133D0E3
:101F2C00D8C0F6FFD9C0F7FFDAC0F8FF0900F5CF2B
:101F3C0001F001502A0A27E1DBC0E9FFDCC0EAFF0F
:101F4C00EECF00F0EECF01F000C0E9FF01C0EAFFD8
:101F5C00EECFE0F0EECFE1F0DBC0E9FFDCC0EAFF52
:101F6C00020EEE24006E000EEE20016EDBC0E1FFCF
:101F7C00DCC0E2FF00C0E6FF01C0E6FF010ED8277F
:101F8C00000ED923DA23D8C0F6FFD9C0F7FFDAC088
:101F9C00F8FF0900F5CF01F001502E0A70E1010E97
:101FAC00D827000ED923DA23D8C0F6FFD9C0F7FF03
:101FBC00DAC0F8FF0900F5CF01F001502A0A28E138
:101FCC00DBC0E9FFDCC0EAFFEECF00F0EECF01F0A2
:101FDC0000C0E9FF01C0EAFFEECFDDF0EECFDEF08E
:101FEC00DBC0E9FFDCC0EAFF020EEE24006E000E3F
:101FFC00EE20016EDBC0E1FFDCC0E2FF00C0E6FFBB
:10200C0001C0E6FF010ED827000ED923DA2336D003
:10201C00DD6BDE6BD8C0F6FFD9C0F7FFDAC0F8FF76
:10202C000900F5CF00F0000E016E00C0FDF0CDEC04
:10203C000AF0005223E0DDC000F0DEC001F00A0E11
:10204C00046E000E056E1FEC0AF0D8C0F6FFD9C066
:10205C00F7FFDAC0F8FF0900F5CF02F002500024B8
:10206C00DD6F000E0120DE6F300EDD5F000EDE5BDB
:10207C00010ED827000ED923DA23CCD703D0DD6B81
:10208C00DE6BE389D8C000F0D9C001F0DAC002F0F1
:10209C00010ED827000ED923DA2300C0F6FF01C0A9
:1020AC00F7FF02C0F8FF0900F5CFDFF005D1F5C04E
:1020BC0000F0F6C001F01200E289E4D7E38537D1D5
:1020CC00E28BE38134D1E38332D1E28D30D12FD155
:1020DC00E28BE28F2CD1DBC0E9FFDCC0EAFFEECF54
:1020EC0000F0EECF01F000C0E9FF01C0EAFFEECF37
:1020FC00EAF0EECFEBF0DBC0E9FFDCC0EAFF020E4A
:10210C00EE24006E000EEE20016EDBC0E1FFDCC0A1
:10211C00E2FF00C0E6FF01C0E6FF000EEB1902E192
:10212C00000EEA1911E1280EEE6F6E0EEF6F750EB0
:10213C00F06F6C0EF16F6C0EF26F290EF36FF46B87
:10214C00EE0EEA6F000EEB6FEC6BED6BEC51EA25CB
:10215C00E96EED51EB21EA6EEE520BE0010EEC252F
:10216C00006E000EED21016E00C0ECF001C0EDF030
:10217C00EDD7DD51DE110AE0ED51DE5D02E1EC51EF
:10218C00DD5D04E2DDC0ECF0DEC0EDF0E151ED5DB3
:10219C0002E1E051EC5D05E2EC51E05FED51E15BF9
:1021AC0002D0E06BE16BE2B716D0E0C000F0E1C00A
:1021BC0001F0010EE05F000EE15B005001100BE03E
:1021CC00D6C0E1FFD7C0E2FF200EE66ED64BD72B70
:1021DC00F54BF62BEAD7ECC002F0EDC003F0010E84
:1021EC00EC5D006E000EED59016E00C0ECF001C00C
:1021FC00EDF00250031019E0EAC0E9FFEBC0EAFF72
:10220C00D6C0E1FFD7C0E2FFEECFE6FFD64BD72B0F
:10221C00010EEA25006E000EEB21016E00C0EAF003
:10222C0001C0EBF0F54BF62BD6D7E2A716D0E0C0E9
:10223C0000F0E1C001F0010EE05F000EE15B005028
:10224C0001100BE0D6C0E1FFD7C0E2FF200EE66E16
:10225C00D64BD72BF54BF62BEAD787D5DBC0E9FF4E
:10226C00DCC0EAFFEECF00F0EECF01F000C0E9FFDA
:10227C0001C0EAFFEECFDFF0DBC0E9FFDCC0EAFF14
:10228C00020EEE24006E000EEE20016EDBC0E1FFAC
:10229C00DCC0E2FF00C0E6FF01C0E6FFDF0EEA6F24
:1022AC00000EEB6F010EEC6F000EED6F62D7C00EDF
:1022BC00E213000EE3133BD0DF51000AD8B4F7D67B
:1022CC00DF516C0AD8B4F8D6DF51660AD8B4F6D60A
:1022DC00DF51450AD8B4F4D6DF51650AD8B4F1D62B
:1022EC00DF51670AD8B4EFD6DF516F0AD8B4EDD6F8
:1022FC00DF51640AD8B4EBD6DF51690AD8B4E7D6FB
:10230C00DF51700AD8B4E4D6DF51580AD8B4E0D6FD
:10231C00DF51780AD8B4DDD6DF51730AD8B4DBD6D6
:10232C00DF51630A9BE0DF51750AC1E0B7D7000E9D
:10233C00E215006EE351070B016E00500110D8B48A
:10234C0075EF1AF0E3A904D0060EDD6F000EDE6FF8
:10235C00DBC0E9FFDCC0EAFFEECF00F0EECF01F00E
:10236C0000C0E9FF01C0EAFFEECFE4F0EECFE5F0EC
:10237C00EECFE6F0EECFE7F0DBC0E9FFDCC0EAFF22
:10238C00040EEE24006E000EEE20016EDBC0E1FFA9
:10239C00DCC0E2FF00C0E6FF01C0E6FF046A056A8C
:1023AC00066A076AE4C000F0E5C001F0E6C002F07E
:1023BC00E7C003F066EC0AF0010ED8B0000E006E18
:1023CC00005205E0E67F030EE213000EE313E86B08
:1023DC00E96BE4C000F0E5C001F0E6C002F0E7C034
:1023EC0003F0046A056A066A076A9BEC08F0000EA3
:1023FC00D8A4010E006E0052D8B48AD0E7C000F009
:10240C00016A026A036AFF0E0016000E01167E0EA8
:10241C00005E000E015A00C0E8F001C0E9F0010EA8
:10242C00005E000E015A00C0E8F001C0E9F0030E96
:10243C00046E000E056E1FEC0AF000C0E8F001C03F
:10244C00E9F00A0E046E000E056ED9EC0AF000C01D
:10245C00E8F001C0E9F0800E0118026E800E025CFB
:10246C0002E1000E005C05E2010E0001E85F000EC7
:10247C00E95B0001E8510008FD6F3DEC0BF0E4C096
:10248C0004F0E5C005F0E6C006F0E7C007F035EC57
:10249C0004F000C0EAF001C0EBF002C0ECF003C0A5
:1024AC00EDF0000E046E000E056E000E066E7F0E33
:1024BC00076EEAC000F0EBC001F0ECC002F0EDC01A
:1024CC0003F066EC0AF0010ED8B0000E006E00525C
:1024DC0005E0010EE85F000EE95B1AD0000E046EF9
:1024EC00000E056E200E066E820E076EEAC000F01E
:1024FC00EBC001F0ECC002F0EDC003F066EC0AF0AA
:10250C00000ED8B0010E006E005202E0E84BE92B31
:10251C00800E006E800EE919005C02E1E8510008A3
:10252C0003E3010EDF6F02D0E8C0DFF0E3B118D097
:10253C00E3A315D0800EE919006E7F0E005C02E15A
:10254C00FC0EE85D0BE3800EE919006E800EDE19BF
:10255C00005C02E1DD51E85D01E201D001D0F1D374
:10256C00DD51DE1106E0E3A304D0010EDD5F000EA9
:10257C00DE5B000E006EDE51005C02E1DD510808EE
:10258C0003E2080EDF6F02D0DDC0DFF0E4C000F024
:10259C00E5C001F0E6C002F0E7C003F0046A056A8A
:1025AC00066A076A9BEC08F0000ED8A4010E006EB8
:1025BC000052D8B44BD1E8C0FDF03DEC0BF000C09C
:1025CC0004F001C005F002C006F003C007F0E4C03F
:1025DC0000F0E5C001F0E6C002F0E7C003F061ECEA
:1025EC0009F000C0E4F001C0E5F002C0E6F003C061
:1025FC00E7F00001DF510008FD6F3DEC0BF000C06F
:10260C0004F001C005F002C006F003C007F0E4C0FE
:10261C0000F0E5C001F0E6C002F0E7C003F061ECA9
:10262C0009F000C0F7F001C0F8F002C0F9F003C0E7
:10263C00FAF0F7C0E4F0F8C0E5F0F9C0E6F0FAC043
:10264C00E7F0F7C000F0F8C001F0F9C002F0FAC0F2
:10265C0003F0C5EC08F0B2EC08F000C004F001C0C7
:10266C0005F002C006F003C007F0F7C000F0F8C098
:10267C0001F0F9C002F0FAC003F062EC0AF0000EAF
:10268C00046E000E056E000E066E7E0E076E66EC76
:10269C000AF0000ED8B0010E006E00521AE0E4C031
:1026AC0000F0E5C001F0E6C002F0E7C003F0000E58
:1026BC00046E000E056E000E066E7E0E076E97EC15
:1026CC0001F000C0E4F001C0E5F002C0E6F003C088
:1026DC00E7F0E4C000F0E5C001F0E6C002F0E7C0AE
:1026EC0003F0C5EC08F00001DF51010F096E0A6A16
:1026FC00000E0A2209C004F00AC005F0000E0ABE42
:10270C00FF0E066E076E0436049005360636073645
:10271C0004360490053606360736250E0424F66E6C
:10272C00480E0520F76E000E0620F86E0900F5CF56
:10273C0005F00900F5CF06F00900F5CF07F0090008
:10274C00F5CF08F00850035C08E10750025C05E186
:10275C000650015C02E10550005C1EE30001E4C080
:10276C0000F0E5C001F0E6C002F0E7C003F0CD0ECA
:10277C00046ECC0E056E4C0E066E7B0E076E35ECA1
:10278C0004F000C0E4F001C0E5F002C0E6F003C0C4
:10279C00E7F0E84BE92B5AD0E4C000F0E5C001F0BB
:1027AC00E6C002F0E7C003F0C5EC08F0DFC004F0AF
:1027BC00000E056E066E076E04360490053606365E
:1027CC00073604360490053606360736250E0424E3
:1027DC00F66E480E0520F76E000E0620F86E090006
:1027EC00F5CF05F00900F5CF06F00900F5CF07F09D
:1027FC000900F5CF08F00850035C08E10750025CB3
:10280C0005E10650015C02E10550005C1FE200018D
:10281C00E4C000F0E5C001F0E6C002F0E7C003F050
:10282C00000E046E000E056E200E066E820E076EF4
:10283C0035EC04F000C0E4F001C0E5F002C0E6F0B5
:10284C0003C0E7F0010EE85F000EE95B0001E3A3B3
:10285C0093D0E3B791D0800E000A006E800EDE1983
:10286C00005C02E1DD510A0804E20A0EDD6F000E85
:10287C00DE6FE4C000F0E5C001F0E6C002F0E7C096
:10288C0003F0C5EC08F000C0EAF001C0EBF002C0A8
:10289C00ECF003C0EDF0EA51EB11EC11ED1142E05C
:1028AC000A0E046E000E056E066E076EEAC000F08E
:1028BC00EBC001F0ECC002F0EDC003F08CEC06F0C4
:1028CC0008C000F009C001F00AC002F00BC003F010
:1028DC00000E046E031808E10450021805E10450C0
:1028EC00011802E10050000A1DE1010EDD5F000E2F
:1028FC00DE5B0A0E046E000E056E066E076EEAC0F5
:10290C0000F0EBC001F0ECC002F0EDC003F08CEC79
:10291C0006F000C0EAF001C0EBF002C0ECF003C01E
:10292C00EDF0B9D7800EDE19006E800E005C02E16E
:10293C00DF51DD5D21E2DD51DF5DFD6F3DEC0BF024
:10294C0000C004F001C005F002C006F003C007F09F
:10295C00E4C000F0E5C001F0E6C002F0E7C003F00F
:10296C0061EC09F000C0E4F001C0E5F002C0E6F053
:10297C0003C0E7F0DDC0DFF0050E0001DD25006EC1
:10298C00000EDE21016E0050E05F0150E15BDD5175
:10299C00DE1103E1E3B701D004D0010EE05F000EBD
:1029AC00E15B030EE215006EE3C001F0000E0116B0
:1029BC000050011004E0010EE05F000EE15BE2A5A7
:1029CC0039D0E2A312D0E2A103D02D0E006E02D0BA
:1029DC002B0E006ED6C0E1FFD7C0E2FF00C0E6FFB1
:1029EC00D64BD72BF54BF62B0CD0E2A10AD0D6C088
:1029FC00E1FFD7C0E2FF200EE66ED64BD72BF54B8E
:102A0C00F62B800E006E800EE119005C02E1E051A5
:102A1C0000080FE2D6C0E1FFD7C0E2FF300EE66E31
:102A2C00D64BD72BF54BF62B010EE05F000EE15B7E
:102A3C00E8D73AD0E2B718D0800E006E800EE119BC
:102A4C00005C02E1E05100080FE2D6C0E1FFD7C004
:102A5C00E2FF200EE66ED64BD72BF54BF62B010E74
:102A6C00E05F000EE15BE8D7E2A312D0E2A103D055
:102A7C002D0E006E02D02B0E006ED6C0E1FFD7C01B
:102A8C00E2FF00C0E6FFD64BD72BF54BF62B0CD054
:102A9C00E2A10AD0D6C0E1FFD7C0E2FF200EE66E5D
:102AAC00D64BD72BF54BF62BE4C000F0E5C001F06C
:102ABC00E6C002F0E7C003F0C5EC08F000C0EAF095
:102ACC0001C0EBF002C0ECF003C0EDF0DFC000F091
:102ADC00000E016E026E036E003600900136023657
:102AEC00033600360090013602360336250E0024DC
:102AFC00F66E480E0120F76E000E0220F86E0900EB
:102B0C00F5CF04F00900F5CF05F00900F5CF06F07C
:102B1C000900F5CF07F0EAC000F0EBC001F0ECC003
:102B2C0002F0EDC003F08CEC06F0300E0026D6C09F
:102B3C00E1FFD7C0E2FF00C0E6FFD64BD72BF54B29
:102B4C00F62BDD51DE1103E1E3B701D06FD0D6C017
:102B5C00E1FFD7C0E2FF2E0EE66ED64BD72BF54B1E
:102B6C00F62BDF51DD5F000EDE5BDF534DE0DF0740
:102B7C00DFC000F0000E016E026E036E0036009096
:102B8C000136023603360036009001360236033623
:102B9C00250E0024F66E480E0120F76E000E022062
:102BAC00F86E0900F5CF04F00900F5CF05F0090027
:102BBC00F5CF06F00900F5CF07F0EAC000F0EBC046
:102BCC0001F0ECC002F0EDC003F08CEC06F00A0E44
:102BDC00046E000E056E066E076E8CEC06F008C0D7
:102BEC0000F009C001F00AC002F00BC003F0300E77
:102BFC000026D6C0E1FFD7C0E2FF00C0E6FFD64BEF
:102C0C00D72BF54BF62BB1D7DD51DE110FE0D6C02B
:102C1C00E1FFD7C0E2FF300EE66ED64BD72BF54B5B
:102C2C00F62B010EDD5F000EDE5BEED7E2AB0BD0B8
:102C3C00D6C0E1FFD7C0E2FF450EE66ED64BD72BD0
:102C4C00F54BF62B0AD0D6C0E1FFD7C0E2FF650EDC
:102C5C00E66ED64BD72BF54BF62B800EE919006E92
:102C6C00800E005C02E1000EE85D11E2E851000804
:102C7C00E86FE951000EE957D6C0E1FFD7C0E2FF7B
:102C8C002D0EE66ED64BD72BF54BF62B0AD0D6C0B5
:102C9C00E1FFD7C0E2FF2B0EE66ED64BD72BF54BE0
:102CAC00F62B0A0E046E000E056EE8C000F0E9C0AB
:102CBC0001F0D9EC0AF0300E0026D6C0E1FFD7C0E7
:102CCC00E2FF00C0E6FF0001D64BD72BF54BF62BED
:102CDC000A0E046E000E056EE8C000F0E9C001F0AB
:102CEC00D9EC0AF008C000F009C001F0300E002643
:102CFC00D6C0E1FFD7C0E2FF00C0E6FF0001D64B13
:102D0C00D72BF54BF62BE2A71AD0800E006E800E57
:102D1C00E119005C02E1E051000811E2D6C0E1FFCC
:102D2C00D7C0E2FF200EE66ED64BD72BF54BF62B19
:102D3C00010EE05F000EE15BE051E111EFE1BBEF52
:102D4C000EF0E3A3F3D0800EE919006E800E005C48
:102D5C0002E1000EE85D0AE2010EE85D006E000E75
:102D6C00E959016E0050DD5F0150DE5BE4C000F0FC
:102D7C00E5C001F0E6C002F0E7C003F0C5EC08F0D6
:102D8C0000C0EAF001C0EBF002C0ECF003C0EDF0C3
:102D9C00010EDF6FDF510A0A34E0DFC000F0000ED5
:102DAC00016E026E036E0036009001360236033659
:102DBC0000360090013602360336250E0024F66EDE
:102DCC00480E0120F76E000E0220F86E0900F5CFB8
:102DDC0001F00900F5CF02F00900F5CF03F009006E
:102DEC00F5CF04F00450ED5D08E10350EC5D05E116
:102DFC000250EB5D02E10150EA5D01E202D0DF2BF3
:102E0C00C9D7DF51DD5DFB6F000EDE59FC6FFBC0D7
:102E1C00DDF0FCC0DEF0EAC000F0EBC001F0ECC06D
:102E2C0002F0EDC003F0B2EC08F000C004F001C0F9
:102E3C0005F002C006F003C007F0E4C000F0E5C0E6
:102E4C0001F0E6C002F0E7C003F062EC0AF000C04B
:102E5C00F7F001C0F8F002C0F9F003C0FAF0FBC0C3
:102E6C00FDF03DEC0BF0F7C004F0F8C005F0F9C034
:102E7C0006F0FAC007F035EC04F0000E046E000EFC
:102E8C00056E000E066E7E0E076E97EC01F0C5EC1B
:102E9C0008F000C0EAF001C0EBF002C0ECF003C097
:102EAC00EDF0DD51DE1142E00A0E046E000E056EEF
:102EBC00066E076EEAC000F0EBC001F0ECC002F049
:102ECC00EDC003F08CEC06F008C000F009C001F076
:102EDC000AC002F00BC003F0000E046E031808E1E8
:102EEC000450021805E10450011802E10050000AD8
:102EFC001DE10A0E046E000E056E066E076EEAC02A
:102F0C0000F0EBC001F0ECC002F0EDC003F08CEC73
:102F1C0006F000C0EAF001C0EBF002C0ECF003C018
:102F2C00EDF0010EDD5F000EDE5BBBD7800E006E98
:102F3C00800EDE19005C02E1DD510C0816E3DDC0E9
:102F4C00FDF0C8EC04F0E4C004F0E5C005F0E6C008
:102F5C0006F0E7C007F097EC01F000C0E4F001C008
:102F6C00E5F002C0E6F003C0E7F0E4C000F0E5C015
:102F7C0001F0E6C002F0E7C003F0046A056A066AD5
:102F8C00076A9BEC08F0000ED8A4010E006E0052EC
:102F9C00D8B477D0E4C000F0E5C001F0E6C002F090
:102FAC00E7C003F0C5EC08F0000E046E031808E14E
:102FBC000450021805E10450011802E10050000A07
:102FCC0060E1800E006E800EE919005C02E1E851B0
:102FDC00010857E2E8C0FDF03DEC0BF000C004F036
:102FEC0001C005F002C006F003C007F0E4C000F019
:102FFC00E5C001F0E6C002F0E7C003F061EC09F0B7
:10300C005F0E046E700E056E090E066E810E076E55
:10301C0066EC0AF0010ED8B0000E006E005206E00D
:10302C00090E0001E85F000EE95B05D00001080EF7
:10303C00E85F000EE95BE8C0FDF03DEC0BF000C072
:10304C0004F001C005F002C006F003C007F0E4C0B4
:10305C0000F0E5C001F0E6C002F0E7C003F061EC5F
:10306C0009F0C5EC08F000C0EAF001C0EBF002C0BA
:10307C00ECF003C0EDF00001E46BE56BE66BE76B85
:10308C0038D0E4C000F0E5C001F0E6C002F0E7C0C3
:10309C0003F0C5EC08F000C0EAF001C0EBF002C090
:1030AC00ECF003C0EDF0EAC000F0EBC001F0ECC0B6
:1030BC0002F0EDC003F0B2EC08F000C004F001C067
:1030CC0005F002C006F003C007F0E4C000F0E5C054
:1030DC0001F0E6C002F0E7C003F062EC0AF000C0B9
:1030EC00E4F001C0E5F002C0E6F003C0E7F0E86BE5
:1030FC00E96B010EDF6FDF510A0A34E0DFC000F02C
:10310C00000E016E026E036E003600900136023620
:10311C00033600360090013602360336250E0024A5
:10312C00F66E480E0120F76E000E0220F86E0900B4
:10313C00F5CF01F00900F5CF02F00900F5CF03F04F
:10314C000900F5CF04F00450ED5D08E10350EC5D8F
:10315C0005E10250EB5D02E10150EA5D01E202D0B3
:10316C00DF2BC9D7DF51DD25006E000EDE21016E8D
:10317C00E8510026E95101220050E05F0150E15B6B
:10318C00E3B704D0DD51DE1101E104D0010EE05FA4
:10319C00000EE15B030EE215006EE3C001F0000EC1
:1031AC0001160050011004E0010EE05F000EE15B1F
:1031BC00E2A539D0E2A312D0E2A103D02D0E006E0D
:1031CC0002D02B0E006ED6C0E1FFD7C0E2FF00C0CC
:1031DC00E6FFD64BD72BF54BF62B0CD0E2A10AD041
:1031EC00D6C0E1FFD7C0E2FF200EE66ED64BD72B40
:1031FC00F54BF62B800E006E800EE119005C02E19F
:10320C00E05100080FE2D6C0E1FFD7C0E2FF300E5C
:10321C00E66ED64BD72BF54BF62B010EE05F000E6E
:10322C00E15BE8D73AD0E2B718D0800E006E800E82
:10323C00E119005C02E1E05100080FE2D6C0E1FFA9
:10324C00D7C0E2FF200EE66ED64BD72BF54BF62BF4
:10325C00010EE05F000EE15BE8D7E2A312D0E2A121
:10326C0003D02D0E006E02D02B0E006ED6C0E1FFE7
:10327C00D7C0E2FF00C0E6FFD64BD72BF54BF62BA1
:10328C000CD0E2A10AD0D6C0E1FFD7C0E2FF200EDD
:10329C00E66ED64BD72BF54BF62BDFC000F0DF07D5
:1032AC0000524CE0DFC000F0000E016E026E036EA7
:1032BC000036009001360236033600360090013697
:1032CC0002360336250E0024F66E480E0120F76EEA
:1032DC00000E0220F86E0900F5CF04F00900F5CFBE
:1032EC0005F00900F5CF06F00900F5CF07F0EAC0AC
:1032FC0000F0EBC001F0ECC002F0EDC003F08CEC80
:10330C0006F00A0E046E000E056E066E076E8CEC4F
:10331C0006F008C000F009C001F00AC002F00BC0B2
:10332C0003F0300E0026D6C0E1FFD7C0E2FF00C08C
:10333C00E6FFD64BD72BF54BF62BAFD7800E006E96
:10334C00800EE919005C02E1E85100080FE2D6C0DA
:10335C00E1FFD7C0E2FF300EE66ED64BD72BF54B14
:10336C00F62B010EE85F000EE95BE8D7800E000A31
:10337C00006E800EDE19005C02E1DD51080803E2EC
:10338C00080EDF6F02D0DDC0DFF0DF51DD5F000E15
:10339C00DE5BDF5303E1E3B701D00AD0D6C0E1FF17
:1033AC00D7C0E2FF2E0EE66ED64BD72BF54BF62B85
:1033BC00DFC0FDF03DEC0BF0E4C004F0E5C005F01F
:1033CC00E6C006F0E7C007F035EC04F002EC08F0BC
:1033DC0000C0EAF001C0EBF002C0ECF003C0EDF06D
:1033EC00DF534DE0DF07DFC000F0000E016E026E10
:1033FC00036E00360090013602360336003600901C
:10340C00013602360336250E0024F66E480E0120D6
:10341C00F76E000E0220F86E0900F5CF04F00900DB
:10342C00F5CF05F00900F5CF06F00900F5CF07F050
:10343C00EAC000F0EBC001F0ECC002F0EDC003F00C
:10344C008CEC06F00A0E046E000E056E066E076E0E
:10345C008CEC06F008C000F009C001F00AC002F0C4
:10346C000BC003F0300E0026D6C0E1FFD7C0E2FF40
:10347C0000C0E6FFD64BD72BF54BF62BB1D7DD5161
:10348C00DE110FE0D6C0E1FFD7C0E2FF300EE66ED2
:10349C00D64BD72BF54BF62B010EDD5F000EDE5B0A
:1034AC00EED7E2A71AD0800E006E800EE119005CF8
:1034BC0002E1E051000811E2D6C0E1FFD7C0E2FF03
:1034CC00200EE66ED64BD72BF54BF62B010EE05F9C
:1034DC00000EE15BE051E111EFE1BBEF0EF0C00E2D
:1034EC00E215016EE3C002F0000E0216000E021887
:1034FC0002E1000E0118D8A47CD0E2A927D0DBC0D1
:10350C00E9FFDCC0EAFFEECF00F0EECF01F000C027
:10351C00E9FF01C0EAFFEECFEAF0EECFEBF0EECF21
:10352C00ECF0EECFEDF0DBC0E9FFDCC0EAFF040EFF
:10353C00EE24006E000EEE20016EDBC0E1FFDCC05D
:10354C00E2FF00C0E6FF01C0E6FF2BD0DBC0E9FFC5
:10355C00DCC0EAFFEECF00F0EECF01F000C0E9FFD7
:10356C0001C0EAFFEECF00F0EECF01F000C0EAF0B0
:10357C0001C0EBF0000E01BEFF0EEC6FED6FDBC077
:10358C00E9FFDCC0EAFF020EEE24006E000EEE2016
:10359C00016EDBC0E1FFDCC0E2FF00C0E6FF01C052
:1035AC00E6FF800EED19006E800E005C08E1000E47
:1035BC00EC5D05E1000EEB5D02E1000EEA5D18E248
:1035CC00030EE213000EE313006A016A026A036A37
:1035DC00EA51005EEB51015AEC51025AED51035A7B
:1035EC0000C0EAF001C0EBF002C0ECF003C0EDF05B
:1035FC004ED0E2A927D0DBC0E9FFDCC0EAFFEECF5A
:10360C0000F0EECF01F000C0E9FF01C0EAFFEECF01
:10361C00EAF0EECFEBF0EECFECF0EECFEDF0DBC05E
:10362C00E9FFDCC0EAFF040EEE24006E000EEE2073
:10363C00016EDBC0E1FFDCC0E2FF00C0E6FF01C0B1
:10364C00E6FF25D0DBC0E9FFDCC0EAFFEECF00F0DF
:10365C00EECF01F000C0E9FF01C0EAFFEECFEAF0C7
:10366C00EECFEBF0000EEC6FED6FDBC0E9FFDCC0D2
:10367C00EAFF020EEE24006E000EEE20016EDBC09F
:10368C00E1FFDCC0E2FF00C0E6FF01C0E6FF000E78
:10369C00DE1902E1000EDD190FE1000E006EED19CE
:1036AC0008E10050EC1905E10050EB1902E1EA5178
:1036BC00000A02E1DD4BDE2BC00EE215006E00C0ED
:1036CC0005F0AED0010EDF6FDF510A0A34E0DFC027
:1036DC0000F0000E016E026E036E00360090013693
:1036EC000236033600360090013602360336250EBC
:1036FC000024F66E480E0120F76E000E0220F86EC4
:10370C000900F5CF01F00900F5CF02F00900F5CF63
:10371C0003F00900F5CF04F00450ED5D08E103500F
:10372C00EC5D05E10250EB5D02E10150EA5D01E266
:10373C0002D0DF2BC9D782D0010EDF6FDF51080A10
:10374C0034E0DFC000F0000E016E026E036E003636
:10375C0000900136023603360036009001360236F0
:10376C0003364D0E0024F66E480E0120F76E000E47
:10377C000220F86E0900F5CF01F00900F5CF02F038
:10378C000900F5CF03F00900F5CF04F00450ED5D0E
:10379C0008E10350EC5D05E10250EB5D02E10150E4
:1037AC00EA5D01E202D0DF2BC9D748D0010EDF6FF2
:1037BC00DF510C0A34E0DFC000F0000E016E026E27
:1037CC00036E003600900136023603360036009048
:1037DC00013602360336F50E0024F66E470E012034
:1037EC00F76E000E0220F86E0900F5CF01F009000B
:1037FC00F5CF02F00900F5CF03F00900F5CF04F086
:10380C000450ED5D08E10350EC5D05E10250EB5D09
:10381C0002E10150EA5D01E202D0DF2BC9D70ED0E4
:10382C000550000AD8B44ED70550C00AD8B44AD7B0
:10383C000550800A81E00550400AB8E0800E006E09
:10384C00800EDE19005C02E1DD51DF5D03E2DDC0BC
:10385C00DFF00DD0800EDE19006E800E005C02E1F0
:10386C00DF51DD5D04E2DFC0DDF0000EDE6FE05104
:10387C00E1110EE0030EE215006EE3C001F0000E44
:10388C0001160050011004E0010EE05F000EE15B38
:10389C00800EDE19006E800EE119005C02E1E05131
:1038AC00DD5D05E2DD51E05FDE51E15B02D0E06BF6
:1038BC00E16BC40EE215016EE351080B026E02506F
:1038CC00080A02E1400E011808E1E051E11104E0A0
:1038DC00010EE05F000EE15B1CD0C00EE215016E24
:1038EC00E351080B026E0250080A02E1800E011827
:1038FC0010E1800E006E800EE119005C02E1E051D7
:10390C00020805E2020EE05F000EE15B02D0E06B04
:10391C00E16BE2A55DD0E2A312D0E2A103D02D0EA3
:10392C00006E02D02B0E006ED6C0E1FFD7C0E2FFB6
:10393C0000C0E6FFD64BD72BF54BF62B34D0E2A1CB
:10394C000BD0D6C0E1FFD7C0E2FF200EE66ED64BFF
:10395C00D72BF54BF62B27D0C00EE215016EE35199
:10396C00080B026E0250080A02E1800E01181BE1DE
:10397C00D6C0E1FFD7C0E2FF300EE66ED64BD72B98
:10398C00F54BF62BE2AB03D0580E006E02D0780E3E
:10399C00006ED6C0E1FFD7C0E2FF00C0E6FFD64BF9
:1039AC00D72BF54BF62BE051E11111E0D6C0E1FF1E
:1039BC00D7C0E2FF300EE66ED64BD72BF54BF62B6D
:1039CC00010EE05F000EE15BE051E111EFE174D01C
:1039DC00E051E11113E0E2B711D0D6C0E1FFD7C03E
:1039EC00E2FF200EE66ED64BD72BF54BF62B010ED5
:1039FC00E05F000EE15BE051E111EFE1E2A312D0D8
:103A0C00E2A103D02D0E006E02D02B0E006ED6C09C
:103A1C00E1FFD7C0E2FF00C0E6FFD64BD72BF54B3A
:103A2C00F62B0CD0E2A10AD0D6C0E1FFD7C0E2FF42
:103A3C00200EE66ED64BD72BF54BF62BC00EE215AF
:103A4C00016EE351080B026E0250080A02E1400EAF
:103A5C0001180BE1D6C0E1FFD7C0E2FF300EE66ED5
:103A6C00D64BD72BF54BF62B27D0C00EE215016E9B
:103A7C00E351080B026E0250080A02E1800E011895
:103A8C001BE1D6C0E1FFD7C0E2FF300EE66ED64B8D
:103A9C00D72BF54BF62BE2AB03D0580E006E02D0B1
:103AAC00780E006ED6C0E1FFD7C0E2FF00C0E6FF83
:103ABC00D64BD72BF54BF62B800E006E800EDE19F5
:103ACC00005C02E1DD51DF5D0BE2D6C0E1FFD7C047
:103ADC00E2FF300EE66ED64BD72BF54BF62BECD720
:103AEC00DDC000F0DEC001F0010EDD5F000EDE5B1C
:103AFC0000500110D8B42AD1C00EE215006E00C0DF
:103B0C00F7F00AD1DDC000F0DEC001F0000EDEBF20
:103B1C00FF0E026E036E003600900136023603363D
:103B2C0000360090013602360336250E0024F66E60
:103B3C00480E0120F76E000E0220F86E0900F5CF3A
:103B4C0004F00900F5CF05F00900F5CF06F00900E7
:103B5C00F5CF07F0EAC000F0EBC001F0ECC002F0CA
:103B6C00EDC003F08CEC06F00A0E046E000E056E30
:103B7C00066E076E8CEC06F008C000F009C001F070
:103B8C000AC002F00BC003F0300E0024DF6FD3D05C
:103B9C00E2AB45D0DDC000F0DEC001F0000EDEBFB0
:103BAC00FF0E026E036E00360090013602360336AD
:103BBC00003600900136023603364D0E0024F66EA8
:103BCC00480E0120F76E000E0220F86E0900F5CFAA
:103BDC0004F00900F5CF05F00900F5CF06F0090057
:103BEC00F5CF07F0EAC000F0EBC001F0ECC002F03A
:103BFC00EDC003F08CEC06F00F0E0016000E011653
:103C0C00021603167E0E0024F66E480E0120F76E87
:103C1C00000E0220F86E0900F5CFDFF044D0DDC0B5
:103C2C0000F0DEC001F0000EDEBFFF0E026E036E70
:103C3C00003600900136023603360036009001360D
:103C4C00023603364D0E0024F66E480E0120F76E38
:103C5C00000E0220F86E0900F5CF04F00900F5CF34
:103C6C0005F00900F5CF06F00900F5CF07F0EAC022
:103C7C0000F0EBC001F0ECC002F0EDC003F08CECF6
:103C8C0006F00F0E0016000E0116021603166D0E2E
:103C9C000024F66E480E0120F76E000E0220F86E1E
:103CAC000900F5CFDFF047D0DDC000F0DEC001F039
:103CBC00000EDEBFFF0E026E036E00360090013662
:103CCC000236033600360090013602360336F50E06
:103CDC000024F66E470E0120F76E000E0220F86EDF
:103CEC000900F5CF04F00900F5CF05F00900F5CF78
:103CFC0006F00900F5CF07F0EAC000F0EBC001F0C8
:103D0C00ECC002F0EDC003F08CEC06F0070E0014D2
:103D1C00DF6F300EDF270FD0F751000AD8B4F2D680
:103D2C00F751C00AD8B4EED6F751800AD8B430D7C0
:103D3C00F751400AB9E0D6C0E1FFD7C0E2FFDFC0BF
:103D4C00E6FFD64BD72BF54BF62BCAD6E2A71AD0EB
:103D5C00800E006E800EE119005C02E1E05100085B
:103D6C0011E2D6C0E1FFD7C0E2FF200EE66ED64BC3
:103D7C00D72BF54BF62B010EE05F000EE15BE0510B
:103D8C00E111EFE1BBEF0EF0F5C000F0F6C001F071
:023D9C00120013
:103D9E0000019991D6C0FDF03CEC06F0998112001D
:103DAE002CEC0EF0D00ED66F1BEC0EF0C7C0D6F07A
:103DBE001BEC0EF0B1EC0EF0D10E0001D66F1BEC29
:103DCE000EF00001D66B9BEC0EF000C0C9F0000E99
:103DDE000001CA6F4EEC0EF0C9C000F0CAC001F06F
:023DEE001200C1
:103DF000FF0E0001956FFF0E966FFF0E976FFF0E7F
:103E0000986FFF0EA26FFF0EA36F000EA46F000E3F
:103E1000A56FFF0E9E6FFF0E9F6F000EA06F000E2E
:103E2000A16FFF0E9A6FFF0E9B6F000E9C6F000E2E
:103E30009D6FAC8A900EAB6E948E949C9EAA03D01C
:083E4000AECF00F0FBD7120029
:103E48000001CD6BCE6BC7C0CFF0C8C0D0F0800EDC
:103E5800C819006E800E005C02E1000EC75D0BE21F
:103E6800010ECD6F000ECE6FC7510008CF6FC8C0CE
:103E7800D0F0000ED057CFC0D6F0D0C0D7F0C9C010
:103E8800D8F0CAC0D9F050EC0EF0060ECB6F000E79
:103E9800CC6F000E006ECC51005C02E1CB510008E3
:103EA80019E2CB51C925E16ECC51CA21E26E010E4F
:103EB800CB5D006E000ECC59016E0050C925E96E2D
:103EC8000150CA21EA6EEECFE6FF010ECB5F000E6D
:103ED800CC5BDFD7C9C0E1FFCAC0E2FF200EE66EA7
:103EE800CD51CE111AE0CB6BCC6BCB51C925E96E05
:103EF800CC51CA21EA6EEE50200A03E1CB4BCC2B01
:103F0800F4D7010ECB5F000ECC5BCB51C925E16E17
:0C3F1800CC51CA21E26E2D0EE66E1200A4
:103F2400949894968B988B9694889486C79EC79CF5
:063F3400380EC66E1200FB
:103F3A000900F5CFE6FF0006FBE10106F9E11200F0
:103F4A00CC0E0001D46F000ED56FC7C0D6F0C8C022
:103F5A00D7F0C9C0D8F0CAC0D9F0CBC0DAF0D40EB5
:103F6A00DB6F000EDC6FB6EC0EF000C0D2F001C0C1
:103F7A00D3F00050C725E16E0150C821E26EE66A0F
:0A3F8A00D2C000F0D3C001F0120015
:103F9400C7C0E9FFC8C0EAFFEECF03F0F00E031478
:103FA400026E02C000F00032009E0032009E003219
:103FB400009E0032009E0A0E0002F3CF01F00F0EA5
:103FC4000314006EC7C0E1FFC8C0E2FF0050012423
:103FD400E66EC9C0E9FFCAC0EAFFEECF03F0F00EF7
:103FE4000314026E02C000F00032009E0032009EF4
:103FF4000032009E0032009E0A0E0002F3CF01F050
:104004000F0E0314006EC9C0E1FFCAC0E2FF0050E6
:104014000124E66ECBC0E9FFCCC0EAFFEECF03F08B
:10402400F00E0314026E02C000F00032009E003253
:10403400009E0032009E0032009E0A0E0002F3CF62
:1040440001F00F0E0314006ECBC0E1FFCCC0E2FF01
:0840540000500124E66E120089
:10405C0010D0800E0001C76F1AD0C00EC76F17D0DA
:10406C00940EC76F14D0D40EC76F11D0800EC76FCB
:10407C000ED00001C751010AECE0C751020AEDE075
:10408C00C751030AEDE0C751040AEDE0EFD7C805AC
:10409C00006EC751002600C0C7F000C0FDF03CEC1C
:1040AC0006F09991CB6BCB51C925E96E000ECA2154
:1040BC00EA6EEE520BE0CB51C925E96E000ECA2117
:1040CC00EA6EEECFD6F065DECB2BEDD799811200E0
:1040DC00400E0001FD6F3CEC06F0C76BC7510708A2
:1040EC0011E39F0EC725F66E480EF76E000EF722F1
:1040FC00000EF86E000EF8220900F5CFD6F049DE5E
:10410C00C72BECD7C76BC751070811E3A70EC72500
:10411C00F66E480EF76E000EF722000EF86E000ECB
:10412C00F8220900F5CFD6F034DEC72BECD7020EFF
:08413C00FD6F3CEC06F01200DF
:104144002CEC0EF0A00ED66F1BEC0EF0C7C0D6F010
:104154001BEC0EF0C9C0D6F01BEC0EF04EEC0EF0CA
:104164001A0E0C6EF80E0D6E0D2EFED70C2EFCD70B
:044174000000120035
:10417800100E836E80AA06D080AA01D0FDD7370E14
:10418800006E120081A206D081A201D0FDD7380EA0
:10419800006E120081A406D081A401D0FDD7390E8B
:1041A800006E120081A606D081A601D0FDD7250E8B
:1041B800006E1200200E836E80AA06D080AA01D05D
:1041C800FDD7340E006E120081A206D081A201D064
:1041D800FDD7350E006E120081A406D081A401D04F
:1041E800FDD7360E006E120081A606D081A601D03A
:1041F800FDD72A0E006E1200400E836E80AA06D0EC
:1042080080AA01D0FDD7310E006E120081A206D01F
:1042180081A201D0FDD7320E006E120081A406D013
:1042280081A401D0FDD7330E006E120081A606D0FE
:1042380081A601D0FDD72D0E006E1200800E836E70
:1042480080AA06D080AA01D0FDD7430E006E1200C6
:1042580081A206D081A201D0FDD7300E006E1200D7
:1042680081A406D081A401D0FDD73D0E006E1200B6
:1042780081A606D081A601D0FDD72B0E006E1200B4
:06428800FF0E006E1200A3
:10428E002CEC0EF0A00ED66F1BEC0EF0C7C0D6F0C5
:10429E001BEC0EF0B1EC0EF0A10E0001D66F1BEC74
:1042AE000EF00001D66B9BEC0EF000C0C9F0000EB4
:1042BE000001CA6F4EEC0EF0C9C000F0CAC001F08A
:0242CE001200DC
:1042D000C7C0E9FFC8C0EAFFEECFC9F0000E000179
:1042E000CA6F000ECA6F000ECA1902E1200EC9196A
:1042F00007E0000ECA1902E1090EC91901E003D056
:10430000C74BC82BE5D7CB6BCC6BCD6BCE6B000E00
:10431000CA1902E12D0EC91905E1CD4BCE2BC74BB1
:10432000C82B08D0000ECA1902E12B0EC91902E1F0
:10433000C74BC82BC7C0E9FFC8C0EAFFEECFC9F022
:10434000000ECA6F000ECA6FC9C0FDF0CDEC0AF0B6
:10435000005219E0CBC000F0CCC001F00A0E046E90
:10436000000E056E1FEC0AF0300EC95D026E000EE5
:10437000CA59036E02500024CB6F03500120CC6F4A
:10438000C74BC82BD7D7CD51CE1108E0CB51000871
:10439000006ECCC001F0000E01561200CBC000F040
:0643A000CCC001F0120088
:1043A600969296909598959A959C959E84928490CF
:1043B600839E839C839A83987BEC01F07BEC01F0CF
:1043C6007BEC01F0838A8388848294EC01F08492EA
:1043D6007BEC01F0848294EC01F084927BEC01F09A
:1043E600848294EC01F084927BEC01F083988482C1
:1043F60094EC01F084927BEC01F0848294EC01F061
:104406008492839A838E848294EC01F084927BEC6E
:1044160001F0839E8388848294EC01F084928398D1
:10442600848294EC01F084927BEC01F0848294EC1B
:1044360001F084928388848294EC01F084927BEC70
:1044460001F08398848294EC01F08492838E838CAD
:10445600838A8388848294EC01F084927BEC01F059
:0644660000019981120023
:10446C003C0ECA6E9D82F90ECB6ED00EF26E12000F
:10447C0058EC24F0190EAF6EAC84B4DC140EC86E7C
:10448C004BDD0E0EC16E0F0E936E816A86DF210E10
:10449C00926EE6DF0C0EFD6F3CEC06F019DE010EA1
:1044AC00C76F020EC86F5D0EC96F000ECA6FD0DDEC
:1044BC005DDE00C090F000503D0A01E10DD000011E
:1044CC009051300A08E1C76BC86BFF0EC96F000E24
:1044DC00CA6F32DE01D0ECD70001C76BC86BD1DEDE
:1044EC00000E011802E1FF0E00183EE1010EC76F2D
:1044FC00020EC86F4F0EC96F000ECA6FA9DD36DEF3
:10450C0000C090F000503D0A16E1910E0001C76FFB
:10451C00000EC86FD7DE00C06EF001C06FF0C76B25
:10452C00C86B00C0C9F001C0CAF006DE6C6A6D6AC7
:10453C002A6A2B6A18D000019051FF0A0AE0910EEA
:10454C002824E16E000E2920E26E90C0E6FF284A76
:10455C00292A020EC76F050EC86F910EC96F000E87
:10456C00CA6F76DDCCD708D00001C76BC86B89DE6B
:10457C0000C06EF001C06FF00001010EC76F010E9C
:10458C00C86F210EC96F000ECA6F62DD020EC76FB5
:10459C00010EC86F380EC96F000ECA6F59DD030EBD
:1045AC00C76F010EC86F320EC96F000ECA6F50DD97
:1045BC00030EC76F050EC86F2C0EC96F000ECA6FA5
:1045CC0047DD70C0C7F071C0C8F0AA0EC96F000EED
:1045DC00CA6F34DC030EC76F090EC86FAA0EC96F01
:1045EC00000ECA6F35DD6EC0C7F06FC0C8F0AA0EE2
:1045FC00C96F000ECA6F22DC030EC76F050EC86FA1
:10460C00AA0EC96F000ECA6F23DD6C6A6D6AC76B88
:10461C00C86BD7EC1EF000C0A8F001C0A9F0010EC9
:10462C00C76F000EC86FD7EC1EF000C0A6F001C01B
:10463C00A7F0020EC76F000EC86FD7EC1EF000C0BB
:10464C00C5F001C0C6F0A80EC76F000EC86FA60E4D
:10465C00C96F000ECA6FC50ECB6F000ECC6F94DC09
:10466C00B10EC76F000EC86F8F0EC96F480ECA6FA0
:10467C00000ECB6FC5C0CCF0C6C0CDF0A6C0CEF03E
:10468C00A7C0CFF0A8C0D0F0A9C0D1F058DC010E63
:10469C00C76F070EC86FB10EC96F000ECA6FD8DC9A
:1046AC006CC0C7F06DC0C8F0AA0EC96F000ECA6FFF
:1046BC0024EC1FF0030EC76F0F0EC86FAA0EC96F44
:1046CC00000ECA6FC5DC800E7118006E800E6F185C
:1046DC00005C02E16E50705C0DE3040EC76F010EBE
:1046EC00C86F810EC96F000ECA6FB2DCD66BCFECEF
:1046FC001EF00DD0040EC76F010EC86F720EC96F7D
:10470C00000ECA6FA5DC010ED66FCFEC1EF07FD762
:02471C00FFD7C5
:1048B00010EE21F06F0E006E010E016E1E0EF66EF0
:0E48C000470EF76E000EF86E9DEC1FF0120012
:07471E00484F52413A200010
:02472500000092
:02472700000090
:0647290050524F443A001B
:06472F004D4554413A0023
:1047350051544420504543412050726F6420504FDE
:0747450052204D494E3A00DD
:0E474C004449474954452041204D4554410001
:0F475A0044494749544520412053454E484100AA
:0247690000004E
:02476B0000004C
:02476D0000004A
:0F476F0041424149584F204441204D455441009B
:0F477E004D455441204154494E47494441200084
:10478D000000007FCDCC4C7B0AD723786F120375C8
:10479D0017B75171ACC5276EBD37066B95BF566700
:1047AD0077CC2B645F700961FFE65B5D08E53C3CEF
:0447BD006042221B19
:1047C1000000007F000020820000488500007A88F8
:1047D10000401C8C0050438F0024749280961896E0
:1047E10020BC3E99286B6E9CF90215A0EC782DC176
:0447F100CAF249E2DD
:1047F5000100000008000000400000000002000069
:1048050000100000008000000000040000002000EF
:10481500000000010000000800000040000000004A
:10482500010000000A00000064000000E803000029
:1048350010270000A086010040420F0080969800D6
:0848450000E1F50500CA9A3BF1
:10484D000100000010000000000100000010000039
:10485D000000010000001000000000010000001029
:10486D0030313233343536373839616263646566D9
:01487D00003A
:10487E003031323334353637383941424344454688
:01488E000029
:10488F00253032643A253032643A253032642000C4
:08489F000000040E1F0E0E0EB6
:0848A7000E0E0E1F0E040000AE
:020000040030CA
:0D000100021F1EFF8381FF0FC00FE00F40A4
:00000001FF
