:0400000092EF02F089
:1000080000C01EF001C01DF002C01CF003C01BF0B0
:1000180004C01AF005C019F008C018F009C017F09C
:100028000AC016F00BC015F0F3CF1FF0F4CF20F084
:10003800F2A204D0214A222A8074F2929EA223D0EE
:10004800234A242A800E2418006E800E030A005CBE
:1000580002E1E80E235C16E3000E261802E1000E0A
:1000680025180DE121C000F022C001F03C0E046EFD
:10007800000E056ECAD800C025F001C026F08072B7
:10008800236A246A9E921FC0F3FF20C0F4FF1EC09B
:1000980000F01DC001F01CC002F01BC003F01AC024
:1000A80004F019C005F018C008F017C009F016C010
:0800B8000AF015C00BF0110065
:1000C0000F0E0C6E470E0D6E0D2EFED70C2EFCD7AC
:0600D00000000000120018
:0A00D600210E0D6E0D2EFED7120054
:0600E00000000000120008
:1000E60000019ABF02D0839E01D0838E9ABD02D0B2
:1000F600839C01D0838C9ABB02D0839A01D0838AD9
:100106009AB902D0839801D0838891B102D08480B5
:1001160001D084908482E1DF84929AB702D0839ED4
:1001260001D0838E9AB502D0839C01D0838C9AB37A
:1001360002D0839A01D0838A9AB102D0839801D0E3
:10014600838891B102D0848001D084908482C5DFF7
:0E015600849291A102D0B1DF01D0BADF120075
:0E016400ACB202D00000FCD79AC0ADFF120072
:100172000001996B96C0E9FF97C0EAFFEECF98F0B5
:100182009851000A0EE098C09AF0EBDF0001992B1B
:1001920099519625E96E000E9721EA6EEECF98F0FE
:0401A200EFD7120081
:1001A60010D0800E0001966F1AD0C00E966F17D031
:1001B600940E966F14D0D40E966F11D0800E966F53
:1001C6000ED000019651010AECE09651020AEDE0CC
:1001D6009651030AEDE09651040AEDE0EFD7970534
:1001E600006E9651002600C096F0918100C09AF0EC
:0E01F60077DF919198C09AF073DF918112002B
:0E0204000001919196C09AF06CDF918112007A
:100212000B6A0A6A096A00500402F4CF09F0F3CFAC
:1002220008F001500502F4CF0BF0F3CF0AF00050B2
:100232000502F3500926F4500A22E86A0B22015003
:100242000402F3500926F4500A22E86A0B2208C07D
:1002520000F009C001F00AC002F00BC003F0120066
:10026200969296909598959A959C959E8492849054
:10027200839E839C839A839822DF21DF20DF838AF7
:10028200838884822CDF84921ADF848228DF84921E
:1002920016DF848224DF849212DF839884821FDF38
:1002A20084920DDF84821BDF8492839A838E848200
:1002B20016DF849204DF839E8388848210DF849217
:1002C200839884820CDF8492FADE848208DF84922F
:1002D2008388848204DF8492F2DE83988482FFDE44
:1002E2008492838E838C838A83888482F8DE8492CC
:0802F200E6DE0001918112001B
:1002FA00640E316E010E326E9A0E336E000E346E3B
:10030A00FF0E356EFF0E366E000E376E000E386E1B
:10031A00FF0E396EFF0E3A6E000E3B6E000E3C6EFB
:10032A00FF0E3D6EFF0E3E6E000E3F6E000E406EDB
:10033A00AC8A900EAB6E948E949C9EAA03D0AECFDC
:06034A0000F0FBD71200D9
:10035000949894968B988B9694889486C79EC79C05
:06036000380EC66E12000B
:100366000900F5CFE6FF0006FBE10106F9E1120000
:10037600290E0001966F000E976FF8DE2F6A306A1D
:10038600800E3018006E800E005C02E1500E2F5C6D
:100396002EE2276A286A800E2818006E800E005CFE
:1003A60002E1140E275C20E200012F50010F966F28
:1003B6002750010F976F2FC000F030C001F0140EC8
:1003C600046E000E056E22DF410E0026000E01228D
:1003D60027500024E96E28500120EA6EEECF98F0EF
:1003E600DFDE274A282AD7D72F4A302AC9D7120054
:1003F6002F6A306A800E3018006E800E005C02E1B3
:10040600500E2F5C26E2276A286A800E2818006E96
:10041600800E005C02E1140E275C18E22FC000F08B
:1004260030C001F0140E046E000E056EEFDE410EB4
:100436000026000E012227500024E16E28500120DC
:10044600E26E2D0EE66E274A282ADFD72F4A302A7B
:06045600D1D7416A12003B
:10045C003C0ECA6E9D82F90ECB6ED00EF26E12005F
:10046C00400E00019A6F39DE926B9251070811E32E
:10047C00760E9225F66E050EF76E000EF722000E24
:10048C00F86E000EF8220900F5CF96F0B5DE922B2F
:10049C00ECD7926B9251070811E37E0E9225F66E03
:1004AC00050EF76E000EF722000EF86E000EF82205
:1004BC000900F5CF96F0A0DE922BECD7926B9251FF
:1004CC00070811E36E0E9225F66E050EF76E000E00
:1004DC00F722000EF86E000EF8220900F5CF96F008
:1004EC008BDE922BECD7926B9251070811E3660EC0
:1004FC009225F66E050EF76E000EF722000EF86EC2
:10050C00000EF8220900F5CF96F076DE922BECD790
:08051C00020E9A6FE2DD1200ED
:10052400C3EC02F0190EAF6EAC84E5DE140EC86E97
:100534000DDF0E0EC16E0F0E936E816A90DE210EDA
:10054400926E8ADF0C0E9A6FCCDD8EDF52DF11DFE4
:02055400FFD7CF
:1005860010EE21F0100E006E010E016E560EF66E84
:0E059600050EF76E000EF86EB3EC01F01200C9
:020556000000A3
:020558000000A1
:02055A0000009F
:02055C0000009D
:06055E0066647366730081
:02056400000095
:08056600000000111B1F1F1F04
:08056E001F1F1F1B11000000FC
:080576001F1E1C18181C1E1F9B
:08057E001F0F070303070F1F05
:020000040030CA
:0D000100021F1EFF8381FF0FC00FE00F40A4
:00000001FF
