:0400000096EF02F085
:1000080000C01EF001C01DF002C01CF003C01BF0B0
:1000180004C01AF005C019F008C018F009C017F09C
:100028000AC016F00BC015F0F3CF1FF0F4CF20F084
:10003800F2A204D0214A222A8074F2929EA223D0EE
:10004800234A242A800E2418006E800E030A005CBE
:1000580002E1E80E235C16E3000E291802E1000E07
:1000680028180DE121C000F022C001F03C0E046EFA
:10007800000E056EAFD800C028F001C029F08072CC
:10008800236A246A9E921FC0F3FF20C0F4FF1EC09B
:1000980000F01DC001F01CC002F01BC003F01AC024
:1000A80004F019C005F018C008F017C009F016C010
:0800B8000AF015C00BF0110065
:1000C0000F0E0C6E470E0D6E0D2EFED70C2EFCD7AC
:0600D00000000000120018
:0A00D600210E0D6E0D2EFED7120054
:0600E00000000000120008
:1000E600000198BF02D0839E01D0838E98BD02D0B6
:1000F600839C01D0838C98BB02D0839A01D0838ADB
:1001060098B902D0839801D083883EB002D084800B
:1001160001D084908482E1DF849298B702D0839ED6
:1001260001D0838E98B502D0839C01D0838C98B37E
:1001360002D0839A01D0838A98B102D0839801D0E5
:1001460083883EB002D0848001D084908482C5DF4B
:0E01560084923EA002D0B1DF01D0BADF1200C9
:0E016400ACB202D00000FCD795C0ADFF120077
:1001720010D0800E0001956F1AD0C00E956F17D067
:10018200940E956F14D0D40E956F11D0800E956F8A
:100192000ED000019551010AECE09551020AEDE002
:1001A2009551030AEDE09551040AEDE0EFD796056B
:1001B200006E9551002600C095F03E8000C098F078
:0E01C20091DF3E9097C098F08DDF3E801200D6
:0C01D0003E9095C098F087DF3E80120042
:1001DC000B6A0A6A096A00500402F4CF09F0F3CFE3
:1001EC0008F001500502F4CF0BF0F3CF0AF00050E9
:1001FC000502F3500926F4500A22E86A0B2201503A
:10020C000402F3500926F4500A22E86A0B2208C0B3
:10021C0000F009C001F00AC002F00BC003F012009C
:10022C002C6A2D6A00018F6B906B2A6A2B6A800EE8
:10023C002B18006E800E005C02E1500E2A5C26E248
:10024C00256A266A800E2618006E800E005C02E17C
:10025C00140E255C18E22AC000F02BC001F0140E1D
:10026C00046E000E056EB4DF3F0E0026000E012258
:10027C0025500024E16E26500120E26E2D0EE66E14
:10028C00254A262ADFD72A4A2B2AD1D700012CC08F
:10029C0000F02DC001F0140E046E000E056E98DFF8
:1002AC003F0E0026000E01228F510024E16E90516A
:0A02BC000120E26E27C0E6FF1200E9
:1002C6000900F5CFE6FF0006FBE10106F9E11200A1
:1002D600640E326E010E336E950E346E000E356E60
:1002E600FF0E366EFF0E376E000E386E000E396E3C
:1002F600FF0E3A6EFF0E3B6E000E3C6E000E3D6E1C
:10030600FF0E2E6EFF0E2F6E000E306E000E316E3B
:10031600AC8A900EAB6E948E949C9EAA03D0AECF00
:0603260000F0FBD71200FD
:10032C00949894968B988B9694889486C79EC79C29
:06033C00380EC66E12002F
:10034200969296909598959A959C959E8492849073
:10035200839E839C839A8398B2DEB1DEB0DE838A69
:1003620083888482BCDE8492AADE8482B8DE849290
:10037200A6DE8482B4DE8492A2DE83988482AFDE1B
:1003820084929DDE8482ABDE8492839A838E848201
:10039200A6DE849294DE839E83888482A0DE849289
:1003A200839884829CDE84928ADE848298DE8492A0
:1003B2008388848294DE849282DE839884828FDEB4
:1003C2008492838E838C838A8388848288DE84925B
:0603D20076DE3E80120001
:1003D8002A6A2B6A800E2B18006E800E005C02E1E0
:1003E800500E2A5C3AE2256A266A800E2618006EAC
:1003F800800E005C02E1140E255C2CE2610E000107
:10040800956FACDE0D0E0001956FA8DE0A0E000197
:10041800956FA4DE2A50010F0001956F2550010F3A
:10042800966F2AC000F02BC001F0140E046E000E67
:10043800056ED0DE3F0E0026000E01222550002456
:10044800E96E26500120EA6EEECF97F08EDE254A3F
:0C045800262ACBD72A4A2B2ABDD7120037
:10046400400E0001986F3DDE916B9151070811E336
:10047400820E9125F66E050EF76E000EF722000E21
:10048400F86E000EF8220900F5CF95F09FDE912B4F
:10049400ECD7916B9151070811E38A0E9125F66E02
:1004A400050EF76E000EF722000EF86E000EF8220D
:1004B4000900F5CF95F08ADE912BECD7916B915121
:1004C400070811E3720E9125F66E050EF76E000E05
:1004D400F722000EF86E000EF8220900F5CF95F011
:1004E40075DE912BECD7916B9151070811E37A0ECD
:1004F4009125F66E050EF76E000EF722000EF86ECB
:10050400000EF8220900F5CF95F060DE912BECD7B0
:08051400020E986FE6DD1200F3
:10051C003C0ECA6E9D82F90ECB6ED00EF26E12009E
:10052C00216A226A236A246A256A266A276A286A4B
:10053C00296A2A6A2B6A190EAF6EAC84C6DE140EB9
:10054C00C86EEEDE0E0EC16E0F0E936E816AF3DE78
:10055C00210E926EDDDF0C0E0001986FBEDD7CDF8C
:06056C005FDE34DFFFD763
:080572001F1F1F1B11000000F8
:08057A00000000111B1F1F1FF0
:080582001F1E1C18181C1E1F8F
:08058A001F0F070303070F1FF9
:020000040030CA
:0D000100021F1EFF8381FF0FC00FE00F40A4
:00000001FF
