:04000000C8EF03F052
:1000080000C01EF001C01DF002C01CF003C01BF0B0
:1000180004C01AF005C019F008C018F009C017F09C
:100028000AC016F00BC015F0F3CF1FF0F4CF20F084
:10003800F2A204D02A4A2B2A8074F2929EA223D0DC
:10004800264A272A800E2718006E800E030A005CB5
:1000580002E1E80E265C16E3000E291802E1000E04
:1000680028180DE12AC000F02BC001F03C0E046EE8
:10007800000E056EE4D800C028F001C029F0807297
:10008800266A276A9E921FC0F3FF20C0F4FF1EC095
:1000980000F01DC001F01CC002F01BC003F01AC024
:1000A80004F019C005F018C008F017C009F016C010
:0800B8000AF015C00BF0110065
:0A00C000210E0D6E0D2EFED712006A
:1000CA000F0E0C6E470E0D6E0D2EFED70C2EFCD7A2
:0600DA000000000012000E
:0600E00000000000120008
:1000E600086A096A100E0C6E013408360936045087
:1000F600085E0550D8A0053C095ED8B007D004506C
:1001060008260550D8B0053C0926D8900036013699
:060116000C2EEAD71200D6
:0E011C00ACB202D00000FCD7A6C0ADFF1200AE
:10012A000001A6BF02D0839E01D0838EA6BD02D055
:10013A00839C01D0838CA6BB02D0839A01D0838A88
:10014A00A6B902D0839801D083882CB002D08480CB
:10015A0001D084908482BFDF8492A6B702D0839EA6
:10016A0001D0838EA6B502D0839C01D0838CA6B31E
:10017A0002D0839A01D0838AA6B102D0839801D093
:10018A0083882CB002D0848001D084908482A3DF3B
:0E019A0084922CA002D094DF01D08DDF1200E1
:1001A8000001AA6B050EAA5D0AE2AA51A825E16E14
:1001B800000EA921E26E200EE66EAA2BF3D7AA51F3
:1001C800A825E16E000EA921E26EE66AAA07AA51E7
:1001D800A825AB6F000EA921AC6F0A0E046E000EA5
:1001E800056EA6C000F0A7C001F079DF08C000F0D6
:1001F80009C001F0300E0026ABC0E1FFACC0E2FF41
:1002080000C0E6FF0A0E046E000E056EA6C000F0E0
:10021800A7C001F064DF00C0A6F001C0A7F0000E7F
:10022800011802E1000E001801E102D0AA07CFD799
:020238001200B2
:0C023A002C909CC0A6F074DF2C801200F9
:100246000B6A0A6A096A00500402F4CF09F0F3CF78
:1002560008F001500502F4CF0BF0F3CF0AF000507E
:100266000502F3500926F4500A22E86A0B220150CF
:100276000402F3500926F4500A22E86A0B2208C049
:1002860000F009C001F00AC002F00BC003F0120032
:1002960000019F6B9CC0E9FF9DC0EAFFEECF9EF078
:1002A6009E51000A0EE09EC0A6F035DF00019F2B8E
:1002B6009F519C25E96E000E9D21EA6EEECF9EF0C1
:0402C600EFD712005C
:1002CA000001A26BA36B9CC0A4F09DC0A5F0800E98
:1002DA009D19006E800E005C02E1000E9C5D0BE22F
:1002EA00010EA26F000EA36F9C510008A46F9DC05F
:1002FA00A5F0000EA557A4C0A6F0A5C0A7F09EC001
:10030A00A8F09FC0A9F04BDF060EA06F000EA16FE8
:10031A00000E006EA151005C02E1A051000819E232
:10032A00A0519E25E16EA1519F21E26E010EA05DB2
:10033A00006E000EA159016E00509E25E96E015013
:10034A009F21EA6EEECFE6FF010EA05F000EA15BD1
:10035A00DFD79EC0E1FF9FC0E2FF200EE66EA251EA
:10036A00A3111AE0A06BA16BA0519E25E96EA151C1
:10037A009F21EA6EEE50200A03E1A04BA12BF4D78D
:10038A00010EA05F000EA15BA0519E25E16EA15156
:0A039A009F21E26E2D0EE66E1200A8
:1003A40010D0800E00019C6F1AD0C00E9C6F17D025
:1003B400940E9C6F14D0D40E9C6F11D0800E9C6F41
:1003C4000ED000019C51010AECE09C51020AEDE0C0
:1003D4009C51030AEDE09C51040AEDE0EFD79D0522
:1003E400006E9C51002600C09CF02C8000C0A6F03A
:0E03F4009ADE2C909EC0A6F096DE2C801200A1
:10040200949894968B988B9694889486C79EC79C52
:06041200380EC66E120058
:10041800969296909598959A959C959E849284909C
:10042800839E839C839A83984CDE4BDE4ADE838AC4
:100438008388848251DE849244DE84824DDE8492F5
:1004480040DE848249DE84923CDE8398848244DEE6
:10045800849237DE848240DE8492839A838E8482FB
:100468003BDE84922EDE839E8388848235DE8492EE
:100478008398848231DE849224DE84822DDE849205
:100488008388848229DE84921CDE8398848224DE19
:100498008492838E838C838A838884821DDE8492EF
:0604A80010DE2C801200A2
:1004AE000900F5CFE6FF0006FBE10106F9E11200B7
:1004BE001C0E2F6E010E306EA60E316E000E326EB9
:1004CE00FF0E376EFF0E386E000E396E000E3A6E4E
:1004DE00FF0E336EFF0E346E000E356E000E366E4E
:1004EE00FF0E0001946FFF0E956F000E966F000EBB
:1004FE00976FAC8A900EAB6E948E949C9EAA03D08E
:08050E00AECF00F0FBD7120094
:10051600226A236A800E2318006E800E000A005C91
:1005260002E1140E225CD8B07ED0246A256A800EC1
:100536002518006E800E000A005C02E1040E245CA1
:100546006FE224C09CF025C09DF03D0E00019E6F19
:10055600000E9F6FB7DE3D0E9C6F000E9D6F98DEFE
:10056600200EA66FD8DD22C09CF023C09DF03D0E64
:1005760000019E6F000E9F6FA5DE3D0E9C6F000E64
:100586009D6F86DE200EA66FC6DD22C000F023C05A
:1005960001F0140E046E000E056E52DE440E0026A7
:1005A600000E012224500024E96E25500120EA6E37
:1005B600EECF9CF0000E00019D6F000E9D6F3D0E6C
:1005C6009E6F000E9F6F7EDE3D0E9C6F000E9D6F30
:1005D6005FDE0D0EA66F9FDD0A0E0001A66F9BDD86
:1005E6002450010F00019C6F2250010F9D6F22C005
:1005F60000F023C001F0140E046E000E056E20DE1E
:10060600440E0026000E012224500024E96E2550D7
:100616000120EA6EEECF9EF0C2DE244A252A87D755
:08062600224A232A77D71200B3
:10062E002D6A2E6A3B6A3C6A226A236A800E231860
:10063E00006E800E000A005C02E1140E225C27E2BE
:10064E00246A256A800E2518006E800E000A005C52
:10065E0002E1040E245C18E222C000F023C001F077
:10066E00140E046E000E056EE7DD440E0026000E1D
:10067E00012224500024E16E25500120E26E2D0E41
:10068E00E66E244A252ADED7224A232ACFD72DC04A
:10069E0000F02EC001F0140E046E000E056ECCDDBF
:1006AE00440E0026000E01223B500024E16E3C5009
:0A06BE000120E26E21C0E6FF1200E9
:1006C8003C0ECA6E9D82F90ECB6ED00EF26E1200F1
:1006D800400E0001A66F25DD986B9851070811E3BD
:1006E800E60E9825F66E070EF76E000EF722000E3E
:1006F800F86E000EF8220900F5CF9CF09ADD982BD1
:10070800ECD7986B9851070811E3EE0E9825F66E12
:10071800070EF76E000EF722000EF86E000EF82294
:100728000900F5CF9CF085DD982BECD7986B985194
:10073800070811E3D60E9825F66E070EF76E000E21
:10074800F722000EF86E000EF8220900F5CF9CF093
:1007580070DD982BECD7986B9851070811E3DE0EE3
:100768009825F66E070EF76E000EF722000EF86E4B
:10077800000EF8220900F5CF9CF05BDD982BECD732
:08078800020EA66FCEDC120088
:10079000216A226A236A246A256A266A276A286AE5
:1007A000296A2A6A2B6A190EAF6EAC8488DE140E91
:1007B000C86E27DE0E0EC16E0F0E936E816A2CDEA0
:1007C000210E926E81DF0C0E0001A66FAEDC84DF7D
:0607D0002EDFA1DEFFD7C1
:0807D6001F1F1F1B1100000092
:0807DE00000000111B1F1F1F8A
:0807E6001F1E1C18181C1E1F29
:0807EE001F0F070303070F1F93
:020000040030CA
:0D000100021F1EFF8381FF0FC00FE00F40A4
:00000001FF
