:040000003EEF22F0BD
:1000080000C01EF001C01DF002C01CF003C01BF0B0
:1000180004C01AF005C019F008C018F009C017F09C
:100028000AC016F00BC015F0F3CF1FF0F4CF20F084
:10003800F2A204D06D4A6E2A8074F2929EA224D055
:100048002A4A2B2A800E2B18006E800E030A005CA9
:1000580002E1E80E2A5C17E3000E721802E1000EB6
:1000680071180EE16DC000F06EC001F03C0E046E18
:10007800000E056E1FEC0AF000C071F001C072F0AE
:1000880080722A6A2B6A9E921FC0F3FF20C0F4FF79
:100098001EC000F01DC001F01CC002F01BC003F020
:1000A8001AC004F019C005F018C008F017C009F00C
:0A00B80016C00AF015C00BF011008D
:1000C2000B840BAE6CEF00F0010E036E026A016A44
:0A00D200006A0A360232FF0E120027
:0E00DC00026A016A006A086A036A000E1200D6
:0800EA000AAE029E000E120096
:1000F2000B820BAE83EF00F00368026801680068B0
:080102000A360232FF0E120062
:10010A000CB0C7EF00F00CA26DEF01F00E6A000E02
:10011A000264DEEF00F0F00E0214D8A4A9EF00F09A
:10012A00023A01380F0B02260138F00B016E003833
:10013A000F0B01260038F00B006E08380F0B002653
:10014A000838F00B086E0E84D89002BEC2EF00F099
:10015A0008360036013602360E2A02BEC2EF00F019
:10016A0008360036013602360E2A02BEC2EF00F009
:10017A0008360036013602360E2A0E50036463EF43
:10018A0001F0035E0BBC08AE68EF01F0D880800E68
:10019A0008640030000E002201220222D8A068EF73
:1001AA0001F0023201320032034A6DEF01F068EFCA
:1001BA0001F001C002F000C001F008C000F0086AB6
:1001CA00000E0E86026415EF01F0F00E0214D8A498
:1001DA00FDEF00F0023A01380F0B02260138F00B4E
:1001EA00016E00380F0B01260038F00B006E0E84EA
:1001FA00D89002BEC2EF00F00036013602360E2A4F
:10020A0002BEC2EF00F00036013602360E2A02BEE6
:10021A00C2EF00F00036013602360E2AC2EF00F0B5
:10022A0001C002F000C001F0006A000E0E960E88AE
:10023A00026442EF01F0F00E0214D8A42DEF01F08F
:10024A00023A01380F0B02260138F00B016E0E84B8
:10025A00D89002BEC2EF00F0013602360E2A02BE64
:10026A00C2EF00F0013602360E2A02BEC2EF00F0DB
:10027A00013602360E2AC2EF00F001C002F0016A0E
:10028A00000E0E86026472EF01F0F00E0214D8A47A
:10029A0051EF01F0023A0E84D89002BEC2EF00F08C
:1002AA0002360E2A02BEC2EF00F002360E2A02BE43
:1002BA00C2EF00F002360E2AC2EF00F0010E0C6EF9
:1002CA00FBDE75EF01F0020E0C6E0ADF75EF01F02E
:1002DA00040E0C6E09DF75EF01F0080E0C6EF9DEE4
:0202EA00120000
:0A02EC00210E0D6E0D2EFED712003C
:1002F6000F0E0C6E470E0D6E0D2EFED70C2EFCD774
:06030600000000001200DF
:10030C000B800BAE92EF01F0026A0AAEFF0E026E8A
:0C031C00016E006E0A360232FF0E120065
:06032800000000001200BD
:10032E00025006180E6E086A096A0B6A03500764BB
:10033E008AEF02F006500A6E068E028E03500B6E86
:10034E000750036E000E0B64DAEF01F00B50075EE0
:10035E00D8B47BEF02F0070E076449EF02F0075E98
:10036E0000C008F001C000F002C001F0026A074EA2
:10037E007BEF02F007641EEF02F0075E00C008F08C
:10038E0001C000F0016A074E7BEF02F00764FCEF3C
:10039E0001F0075E00C008F0006A074E7BEF02F026
:1003AE000764E3EF01F00AC002F005C001F004C0DB
:1003BE0000F0086AA4EF03F0030E0764EEEF01F0FD
:1003CE00075E08380F0B086E074E7BEF02F0D890D1
:1003DE000832074E7BEF02F0D8900832074E7BEFC3
:1003EE0002F0D89008327BEF02F0030E07640DEF97
:1003FE0002F0075E08380F0B086E0038F00B082667
:10040E0000380F0B006E074E7BEF02F0D8900032D3
:10041E000832074E7BEF02F0D89000320832074EBA
:10042E007BEF02F0D890003208327BEF02F0030E21
:10043E00076435EF02F0075E08380F0B086E0038C0
:10044E00F00B082600380F0B006E0138F00B00265B
:10045E0001380F0B016E074E7BEF02F0D890013280
:10046E0000320832074E7BEF02F0D8900132003294
:10047E000832074E7BEF02F0D8900132003208327C
:10048E007BEF02F0030E076466EF02F0075E08389A
:10049E000F0B086E0038F00B082600380F0B006E9D
:1004AE000138F00B002601380F0B016E0238F00BED
:1004BE00012602380F0B026E074E7BEF02F0D8902A
:1004CE000232013200320832074E7BEF02F0D89032
:1004DE000232013200320832074E7BEF02F0D89022
:1004EE000232013200320832096A000E0EAE6FEF90
:1004FE0003F0081E001E011E021E082A0022012201
:10050E0002226FEF03F00750D8A490EF02F0A4EF91
:10051E0003F0096A02C00AF0028E068E0750035CD1
:10052E00076ED8B462EF03F0070E076430EF03F0E6
:10053E00075E0450096E0550046E0650056E066A7D
:10054E00074E62EF03F0070E076405EF03F0075E38
:10055E000450096E0550046E056A074E62EF03F0F3
:10056E00070E0764E3EF02F0075E0450096E046A9B
:10057E00074E62EF03F0070E0764CAEF02F00AC0DF
:10058E0002F0A4EF03F0030E0764D5EF02F0075E4E
:10059E0009380F0B096E074E62EF03F0D89009323F
:1005AE00074E62EF03F0D8900932074E62EF03F068
:1005BE00D890093262EF03F0030E0764F4EF02F0F5
:1005CE00075E09380F0B096E0438F00B0926043844
:1005DE000F0B046E074E62EF03F0D890043209320F
:1005EE00074E62EF03F0D89004320932074E62EFE5
:1005FE0003F0D8900432093262EF03F0030E076461
:10060E001CEF03F0075E09380F0B096E0438F00B70
:10061E00092604380F0B046E0538F00B0426053836
:10062E000F0B056E074E62EF03F0D89005320432C1
:10063E000932074E62EF03F0D890053204320932C8
:10064E00074E62EF03F0D89005320432093262EFA2
:10065E0003F0030E07644DEF03F0075E09380F0B2E
:10066E00096E0438F00B092604380F0B046E05389A
:10067E00F00B042605380F0B056E0638F00B052619
:10068E0006380F0B066E074E62EF03F0D890063257
:10069E00053204320932074E62EF03F0D89006326B
:1006AE00053204320932074E62EF03F0D89006325B
:1006BE00053204320932086A000E0EAE6FEF03F0F7
:1006CE00091E041E051E061E092A042205220622E4
:1006DE00095008260450002205500122065002221D
:1006EE000EBE86EF03F0D8A095EF03F00232013272
:1006FE0000320832033E95EF03F09FEF03F0D8B0BF
:10070E009AEF03F0000E081E001E011E021E082A9C
:10071E000022012202220A7E9AEF03F0010E0C6ED5
:10072E00EDDCA6EF03F0020E0C6EE8DCA6EF03F094
:10073E00040E0C6ED7DCA6EF03F0000E0C6E12004A
:10074E000134083609360450085E0550D8A0053C21
:10075E00095E003601360F0E0C6E0134083609366E
:10076E00045000A006D0085E0550D8A0053C095ED6
:10077E0005D008260550D8B0053C092600360136AE
:10078E000C2EEBD700B006D0045008260550D8B07A
:08079E00053C092600001200D1
:1007A600086A080E0C6E003408360450085ED8B08D
:0E07B60002D00826D89000360C2EF5D712007F
:1007C4000D6A086A0050D8B4000C04180A6E0ABEF8
:1007D4000D1E0B6A04AE02D0041E042A00A002D02F
:1007E400001E002A005004100A6E0ABE1FD00450D6
:1007F400085E003600340836045008260036060E1B
:100804000C6E00340836045000B0085E00A00826C0
:1008140000360C2EF6D700A008260BB015D00DAE6E
:10082400000C001E002A081E082A000C04AE09D081
:1008340000BE04D00050086E006AF1D7006A002A96
:10084400000C001E0B2AD3D7082A0450085CD8A435
:0E085400E6D7086A002A00AEE2D7FF0C1200B9
:080862000B6A0B86FF0E120069
:10086A00086A096A000E07620364BAEF04F00250CC
:10087A0006180A6E075003267E0ED8A04BEF04F026
:10088A00035ED8B0BFEF04F04FEF04F0035ED8A0C8
:10089A00C4EF04F0028E068E02C00EF001C00BF007
:1008AA0000C00DF000500402F4CF0CF00150050214
:1008BA00F4CF00F0F3CF08F00402F3500C26F45002
:1008CA000822000E00220D500502F3500C26F450A7
:1008DA000822000E002202500402F3500826F450A7
:1008EA00002202500502016A000E0122F35000267E
:1008FA00F45001220D500602F3500826F45000224B
:10090A00026A000E012202220B500602F350002650
:10091A00F4500122000E02220E500602F350012664
:10092A00F450022202BEA2EF04F008360036013665
:10093A0002360306D8B4C4EF04F0B5EF04F0D88049
:10094A00800E08640030000E002201220222D8A084
:10095A00B5EF04F0023201320032034ABFEF04F06D
:10096A000AAE029E000EC7EF04F0010E6EEC00F014
:10097A00C7EF04F0020E79EC00F0C7EF04F0040EA2
:06098A0061EC00F0120018
:100990006E0E0001FE5DD8A0C3D0640E046EFEC0D2
:1009A00000F001DF120E0024056E066A000E06221A
:1009B00005C000F006C001F0000E06BEFF0E026E7C
:1009C000036E003600900136023603360036009082
:1009D000013602360336640E0024F66E470E0120FF
:1009E000F76E000E0220F86E0900F5CF00F0090046
:1009F000F5CF01F00900F5CF02F00900F5CF03F0C3
:100A0000000E046E000E056E000E066E7E0E076E62
:100A10002CDF00C0FFF001C000F102C001F103C0F3
:100A200002F1640E046EFEC000F0BDDE08C000F0EE
:100A30000A0E046EB8DE090E0024056E066A000E6A
:100A4000062205C000F006C001F0000E06BEFF0E33
:100A5000026E036E00360090013602360336003611
:100A60000090013602360336640E0024F66E470EFF
:100A70000120F76E000E0220F86E0900F5CF00F09D
:100A80000900F5CF01F00900F5CF02F00900F5CF1C
:100A900003F0FFC004F000C105F001C106F002C17F
:100AA00007F0E3DE00C0FFF001C000F102C001F179
:100AB00003C002F10A0E046EFEC000F074DE08C02E
:100AC00000F000C001F0000E026E036E046E0136ED
:100AD00001900236033604360136019002360336A1
:100AE0000436640E0124F66E470E0220F76E000EE7
:100AF0000320F86E0900F5CF00F00900F5CF01F0F2
:100B00000900F5CF02F00900F5CF03F0FFC004F0B3
:100B100000C105F001C106F002C107F0A6DE120017
:100B2000FE510A087AE20A0E046EFEC000F03BDEB7
:100B3000090E0024056E066A000E062205C000F0AC
:100B400006C001F0000E06BEFF0E026E036E0036F8
:100B50000090013602360336003600900136023628
:100B60000336640E0024F66E470E0120F76E000E69
:100B70000220F86E0900F5CF00F00900F5CF01F072
:100B80000900F5CF02F00900F5CF03F0000E046E66
:100B9000000E056E000E066E7E0E076E66DE00C04D
:100BA000FFF001C000F102C001F103C002F10A0E22
:100BB000046EFEC000F0F7DD08C000F000C001F0D8
:100BC000000E026E036E046E01360190023603368B
:100BD000043601360190023603360436640E0124D1
:100BE000F66E470E0220F76E000E0320F86E090025
:100BF000F5CF00F00900F5CF01F00900F5CF02F0C4
:100C00000900F5CF03F0FFC004F000C105F001C1F9
:100C100006F002C107F029DE1200FEC000F0000E4F
:100C2000016E026E036E0036009001360236033606
:100C300000360090013602360336640E0024F66E4C
:100C4000470E0120F76E000E0220F86E0900F5CF66
:100C500000F00900F5CF01F00900F5CF02F009001E
:100C6000F5CF03F0000E046E000E056E000E066E4A
:080C70007E0E076EFADD120092
:100C78000001FEBF02D0839E01D0838EFEBD02D04C
:100C8800839C01D0838CFEBB02D0839A01D0838AD7
:100C9800FEB902D0839801D083889AB102D08480AB
:100CA80001D08490848294EC01F08492FEB702D043
:100CB800839E01D0838EFEB502D0839C01D0838CA5
:100CC800FEB302D0839A01D0838AFEB102D0839802
:100CD80001D083889AB102D0848001D08490848224
:100CE80094EC01F084929AA103D07BEC01F002D03D
:060CF80076EC01F0120091
:100CFE00C7B409D01F0EC514016E0150000A03E1DE
:0A0D0E00010E006E1200006A1200D0
:100D18000B6A0A6A096A086A0E6A033408360450BC
:100D2800085E0550D8A0053C095E0650D8A0063CD0
:100D38000A5E0750D8A0073C0B5EE86AD8A0010EEF
:100D48000E5E0336070E0C6E0334083609360A3673
:100D58000B360E36045003A012D0085E0550D8A0FA
:100D6800053C095E0650D8A0063C0A5E0750D8A08C
:100D7800073C0B5EE86AD8A0010E0E5E11D008266B
:100D88000550D8B0053C09260650D8B0063C0A26BE
:100D98000750D8B0073C0B26E86AD8B0010E0E26DB
:100DA80003360C2ED1D70234083609360A360B36EC
:100DB8000E36045003A012D0085E0550D8A0053C9A
:100DC800095E0650D8A0063C0A5E0750D8A0073C2A
:100DD8000B5EE86AD8A0010E0E5E11D008260550F9
:100DE800D8B0053C09260650D8B0063C0A2607505C
:100DF800D8B0073C0B26E86AD8B0010E0E2602369A
:100E0800070E0C6E0234083609360A360B360E36D3
:100E1800045002A012D0085E0550D8A0053C095E17
:100E28000650D8A0063C0A5E0750D8A0073C0B5EC7
:100E3800E86AD8A0010E0E5E11D008260550D8B079
:100E4800053C09260650D8B0063C0A260750D8B0FB
:100E5800073C0B26E86AD8B0010E0E2602360C2E87
:100E6800D1D70134083609360A360B360E36045007
:100E780002A012D0085E0550D8A0053C095E0650B5
:100E8800D8A0063C0A5E0750D8A0073C0B5EE86A6B
:100E9800D8A0010E0E5E11D008260550D8B0053C2A
:100EA80009260650D8B0063C0A260750D8B0073C99
:100EB8000B26E86AD8B0010E0E260136070E0C6E16
:100EC8000134083609360A360B360E36045001A0AE
:100ED80012D0085E0550D8A0053C095E0650D8A07F
:100EE800063C0A5E0750D8A0073C0B5EE86AD8A00B
:100EF800010E0E5E11D008260550D8B0053C092613
:100F08000650D8B0063C0A260750D8B0073C0B2636
:100F1800E86AD8B0010E0E2601360C2ED1D700345F
:100F2800083609360A360B360E36045001A012D0A0
:100F3800085E0550D8A0053C095E0650D8A0063CBE
:100F48000A5E0750D8A0073C0B5EE86AD8A0010EDD
:100F58000E5E11D008260550D8B0053C092606506B
:100F6800D8B0063C0A260750D8B0073C0B26E86ADA
:100F7800D8B0010E0E260036070E0C6E0034083667
:100F880009360A360B360E36045000A012D0085E19
:100F98000550D8A0053C095E0650D8A0063C0A5E5C
:100FA8000750D8A0073C0B5EE86AD8A0010E0E5E79
:100FB80011D008260550D8B0053C09260650D8B0EF
:100FC800063C0A260750D8B0073C0B26E86AD8B07A
:100FD800010E0E2600360C2ED1D700B00ED00450CC
:100FE80008260550D8B0053C09260650D8B0063C5E
:0C0FF8000A260750D8B0073C0B26120058
:101004000B6A0C6A086A0350D8B486EF08F002C071
:101014000AF0028E9E0E035E03AE76EF08F0036CB8
:10102400080E035CD8A043EF08F0036E083600C036
:1010340008F001C000F002C001F0026A080E035C6F
:10104400D8A043EF08F0036E083600C008F001C0D2
:1010540000F0016A080E035CD8A043EF08F0036EA9
:10106400083600C008F0006A080E035CD8A043EFFD
:1010740008F0036E0836086A0350D8A4D8904FEFDE
:1010840008F00350D8B44FEF08F0D8900232013280
:1010940000320832032E47EF08F00BBC08A060EFC3
:1010A40008F0D8A060EF08F0082AD8B4002AD8B411
:1010B400012AD8B4022A02BE8AEF08F00AAE86EFEB
:1010C40008F0021E011E001E081E082AD8B4002AB9
:1010D400D8B4012AD8B4022A86EF08F0026A016A59
:1010E400006A086A86EF08F00B800BAE91EF08F0F7
:1010F400026A0AAE91EF08F0026E016E006E086E8D
:101104000A36023291EF08F00C6A000E92EF08F0F2
:10111400010E0C6E000E86EC01F092EF08F0FF0E4B
:101124000250036E0150026E0050016E0850006EB2
:021134001200A7
:1011360003500718D8A4AFEF08F002500618D8A439
:10114600AFEF08F001500518D8A4AFEF08F0005033
:0E1156000418D8B4D8841200D89412001200E5
:101164000050086E0150006E0250016E0350026E72
:10117400036A0B6A0C6A9E0E036E0A6A020E0C6EF8
:0611840085EC00F01200F2
:10118A000B6A0C6A0A6A086A0350D8B44DEF09F070
:10119A00028E9E0E035E03BED8EF08F0D8B4D8EFD5
:1011AA0008F03DEF09F0036C080E035CD8A00AEFC3
:1011BA0009F0036E083600C008F001C000F002C052
:1011CA0001F0026A080E035CD8A00AEF09F0036E68
:1011DA00083600C008F001C000F0016A080E035C7E
:1011EA00D8A00AEF09F0036E083600C008F0006ABA
:1011FA00080E035CD8A00AEF09F0036E0836086AE5
:10120A000350D8A4D89016EF09F00350D8B416EFBB
:10121A0009F0D8900232013200320832032E0EEF62
:10122A0009F00BBC08A027EF09F0D8A027EF09F0B6
:10123A00082AD8B4002AD8B4012AD8B4022A02BE8D
:10124A0051EF09F00AAE4DEF09F0021E011E001E11
:10125A00081E082AD8B4002AD8B4012AD8B4022A07
:10126A004DEF09F0026A016A006A086A4DEF09F057
:10127A000B800BAE57EF09F0026A0AAE57EF09F07E
:10128A00026E016E006E086E0A36023257EF09F0DE
:10129A00000E0C6A58EF09F0010E0C6E86EC01F094
:1012AA0058EF09F0FF0E0250036E0150026E005013
:0812BA00016E0850006E1200E5
:1012C2000450000A12E10550000A0FE10650000A1C
:1012D2000CE10750000A09E1FF0E006EFF0E016EDD
:1012E2007F0E026EFF0E036E1200086A096A075033
:1012F200D8B40CEF0AF00350D8B411EF0AF0025040
:1013020006180A6E028E068E0E6A02C008F001C02E
:101312000CF000C00DF004500D5E0550D8A0053C45
:101322000C5E0650D8A0063C085E086A0C6A0D6A7C
:10133200D8A0A3EF09F0D89002320132003208326D
:10134200010E0E6E0750035ED8A0B0EF09F07E0EBC
:101352000E240326D8B016EF0AF0B6EF09F07E0E7F
:101362000E240326D8A01BEF0AF0180E0B6E0D36C2
:101372000C3608360036013602360E360450005E50
:101382000550D8A0053C015E0650D8A0063C025E7E
:1013920006340E120EA0D1EF09F00D80DCEF09F039
:1013A200045000260550D8B0053C01260650D8B09E
:1013B200062802260D900B2EB8EF09F002EF0AF074
:1013C200D8900036013602360E360450005E0550C3
:1013D200D8A0053C015E0650D8A0063C025E063449
:1013E2000E10010B0D26D8B00C2AD8B4082AD8A4A6
:1013F20002EF0AF008320C320D32032AD8B416EF8B
:101402000AF00AAE089E0850026E0C50016E0D5092
:10141200006E1EEF0AF0010E31EC04F01EEF0AF02E
:10142200020E6EEC00F01EEF0AF0040E79EC00F0F2
:0C1432001EEF0AF0080E61EC00F0120042
:10143E000B6A0A6A096A00500402F4CF09F0F3CF6E
:10144E0008F001500502F4CF0BF0F3CF0AF0005074
:10145E000502F3500926F4500A22E86A0B220150C5
:10146E000402F3500926F4500A22E86A0B2208C03F
:10147E0000F009C001F00AC002F00BC003F0120028
:10148E00086A096A100E0C6E0134083609360450CB
:10149E00085E0550D8A0053C095ED8B007D00450B0
:1014AE0008260550D8B0053C0926D89000360136DE
:0614BE000C2EEAD712001B
:0814C400067E97EC01F0120016
:1014CC000A6A0350D8A40A800750D8A40A820A508A
:1014DC00D8B4C9EF0AF0030AD8B482EF0AF00AB004
:1014EC007DEF0AF006AEC7EF0AF0C5EF0AF002AEC8
:1014FC00C5EF0AF0C7EF0AF00250800B0A6E029E8D
:10150C000650800B069E0A18D8B493EF0AF00A50C6
:10151C00D8B4C5EF0AF0C7EF0AF00750035CD8B493
:10152C009DEF0AF0D8A0B9EF0AF0BFEF0AF0065011
:10153C00025CD8B4A7EF0AF0D8A0B9EF0AF0BFEF5D
:10154C000AF00550015CD8B4B1EF0AF0D8A0B9EF9D
:10155C000AF0BFEF0AF00450005CD8B4C9EF0AF0EF
:10156C00D8B0BFEF0AF00A52D8B4C7EF0AF0C5EFF3
:10157C000AF00A52D8B4C5EF0AF0C7EF0AF0D880C7
:0E158C001200D8901200D880D88412001200ED
:10159A000001FE51390806E3300EFE5D03E3010E39
:0815AA00006E01D0006A12007E
:1015B2000450000A08E10550000A05E1FF0E006E22
:1015C2007F0E016E12000D6A096A086A015000104E
:1015D200D8B4000C015005180A6E0ABE0D1E0B6A23
:1015E20005AE05D0041E051E042AD8B4052A01AE94
:1015F20005D0001E011E002AD8B4012A0150051090
:101602000A6E0ABE10D0A7EC03F00BB020D00DAECC
:10161200000C001E011E002AD8B4012A081E091E51
:10162200082AD8B4092A000C05AE0DD001BE07D095
:101632000150096E0050086E016A006AE8D7016A1B
:10164200006A002A000C011E001E0B2ADDD7082AA0
:10165200D8B4092A0450085CD8A4D9D70550095C2B
:10166200D8A4D5D7096A086A002AD8B4012A01AEDB
:08167200CED70000FF0C1200AE
:10167A00800E0001FE19006E800E000A005CD8B0D0
:10168A006DD1FE510008016E01C0FEF0800E0118F6
:10169A00006E800E6E0A005CD8A0C0D0640E046E84
:1016AA00FEC000F0E2EC03F0120E0024056E000EFC
:1016BA0000BEFF0E066E000E062205C000F006C030
:1016CA0001F0000E06BEFF0E026E036E0036009099
:1016DA0001360236033600360090013602360336EA
:1016EA00640E0024F66E470E0120F76E000E0220EB
:1016FA00F86E0900F5CFFFF00900F5CF00F10900F7
:10170A00F5CF01F10900F5CF02F1640E046EFEC0B7
:10171A0000F0E2EC03F008C000F00A0E046EE2ECFE
:10172A0003F0090E0024056E000E00BEFF0E066EC1
:10173A00000E062205C000F006C001F0000E06BE2B
:10174A00FF0E026E036E0036009001360236033633
:10175A0000360090013602360336640E0024F66E17
:10176A00470E0120F76E000E0220F86E0900F5CF31
:10177A0000F00900F5CF01F00900F5CF02F00900E9
:10178A00F5CF03F0FFC004F000C105F001C106F077
:10179A0002C107F035EC04F000C0FFF001C000F10F
:1017AA0002C001F103C002F10A0E046EFEC000F08D
:1017BA00E2EC03F008C000F000C001F0000E00BE29
:1017CA00FF0E026E036E046E013601900236033676
:1017DA00043601360190023603360436640E0124BB
:1017EA00F66E470E0220F76E000E0320F86E09000F
:1017FA00F5CF00F00900F5CF01F00900F5CF02F0AE
:10180A000900F5CF03F0FFC004F000C105F001C1E3
:10181A0006F002C107F035EC04F01200800E0A0A45
:10182A00006E800EFE19005C71E20A0E046EFEC0A4
:10183A0000F0E2EC03F0090E0024056E000E00BE73
:10184A00FF0E066E000E062205C000F006C001F06B
:10185A00000E06BEFF0E026E036E003600900136C1
:10186A000236033600360090013602360336640E1D
:10187A000024F66E470E0120F76E000E0220F86E65
:10188A000900F5CFFFF00900F5CF00F10900F5CF07
:10189A0001F10900F5CF02F10A0E046EFEC000F054
:1018AA00E2EC03F008C000F000C001F0000E00BE38
:1018BA00FF0E026E036E046E013601900236033685
:1018CA00043601360190023603360436640E0124CA
:1018DA00F66E470E0220F76E000E0320F86E09001E
:1018EA00F5CF00F00900F5CF01F00900F5CF02F0BD
:1018FA000900F5CF03F0FFC004F000C105F001C1F3
:10190A0006F002C107F035EC04F01200FEC000F048
:10191A00000EFEBFFF0E016E026E036E00360090CF
:10192A000136023603360036009001360236033697
:10193A00640E0024F66E470E0120F76E000E022098
:10194A00F86E0900F5CF00F00900F5CF01F00900A3
:10195A00F5CF02F00900F5CF03F01200800EFE1950
:10196A00006E800E6E0A005CD8A0C0D0640E046EB1
:10197A00FEC000F0E2EC03F0120E0024056E000E29
:10198A0000BEFF0E066E000E062205C000F006C05D
:10199A0001F0000E06BEFF0E026E036E00360090C6
:1019AA000136023603360036009001360236033617
:1019BA00980E0024F66E470E0120F76E000E0220E4
:1019CA00F86E0900F5CFFFF00900F5CF00F1090024
:1019DA00F5CF01F10900F5CF02F1640E046EFEC0E5
:1019EA0000F0E2EC03F008C000F00A0E046EE2EC2C
:1019FA0003F0090E0024056E000E00BEFF0E066EEF
:101A0A00000E062205C000F006C001F0000E06BE58
:101A1A00FF0E026E036E0036009001360236033660
:101A2A0000360090013602360336980E0024F66E10
:101A3A00470E0120F76E000E0220F86E0900F5CF5E
:101A4A0000F00900F5CF01F00900F5CF02F0090016
:101A5A00F5CF03F0FFC004F000C105F001C106F0A4
:101A6A0002C107F035EC04F000C0FFF001C000F13C
:101A7A0002C001F103C002F10A0E046EFEC000F0BA
:101A8A00E2EC03F008C000F000C001F0000E00BE56
:101A9A00FF0E026E036E046E0136019002360336A3
:101AAA00043601360190023603360436980E0124B4
:101ABA00F66E470E0220F76E000E0320F86E09003C
:101ACA00F5CF00F00900F5CF01F00900F5CF02F0DB
:101ADA000900F5CF03F0FFC004F000C105F001C111
:101AEA0006F002C107F035EC04F01200800E0A0A73
:101AFA00006E800EFE19005C71E20A0E046EFEC0D2
:101B0A0000F0E2EC03F0090E0024056E000E00BEA0
:101B1A00FF0E066E000E062205C000F006C001F098
:101B2A00000E06BEFF0E026E036E003600900136EE
:101B3A000236033600360090013602360336980E16
:101B4A000024F66E470E0120F76E000E0220F86E92
:101B5A000900F5CFFFF00900F5CF00F10900F5CF34
:101B6A0001F10900F5CF02F10A0E046EFEC000F081
:101B7A00E2EC03F008C000F000C001F0000E00BE65
:101B8A00FF0E026E036E046E0136019002360336B2
:101B9A00043601360190023603360436980E0124C3
:101BAA00F66E470E0220F76E000E0320F86E09004B
:101BBA00F5CF00F00900F5CF01F00900F5CF02F0EA
:101BCA000900F5CF03F0FFC004F000C105F001C120
:101BDA0006F002C107F035EC04F01200FEC000F076
:101BEA00000EFEBFFF0E016E026E036E00360090FD
:101BFA0001360236033600360090013602360336C5
:101C0A00980E0024F66E470E0120F76E000E022091
:101C1A00F86E0900F5CF00F00900F5CF01F00900D0
:0C1C2A00F5CF02F00900F5CF03F0120026
:101C36009E96D7C0C9FFC7A401D0FDD79EB601D0D6
:101C4600FDD7C5BC02D0006A1200C584020E006E24
:021C560012007A
:101C58000001D76BD86BD851120802E1D7518E0812
:101C680009E37FEC06F0005201E004D00001D74BF5
:101C7800D82BF1D70001120ED85D02E18F0ED75D87
:101C880003E37B0E006E1200C580C5A001D0FDD70E
:041C9800006A1200CC
:041C9C00C5841200E9
:101CA0000001DB6B050EDB5D0AE2DB51D925E16E3D
:101CB000000EDA21E26E200EE66EDB2BF3D7DB514D
:101CC000D925E16E000EDA21E26EE66ADB07DB5110
:101CD000D925DC6F000EDA21DD6F0A0E046E000ECE
:101CE000056ED7C000F0D8C001F047EC0AF008C07C
:101CF00000F009C001F0300E0026DCC0E1FFDDC0BD
:101D0000E2FF00C0E6FF0A0E046E000E056ED7C0AB
:101D100000F0D8C001F047EC0AF000C0D7F001C0D5
:101D2000D8F0000E011802E1000E001801E102D007
:061D3000DB07CDD7120015
:101D36009E96C5869EB601D0FDD7C9CF01F000019B
:101D4600D751000A02E1C58A01D0C59A9E96C58878
:0C1D56009EB601D0FDD701C000F01200C5
:0A1D6200C582C5A201D0FDD7120012
:101D6C000001F66BF76BE36BE46BD9C000F0DAC0E3
:101D7C0001F0DBC002F0010ED927000EDA23DB23C1
:101D8C0000C0F6FF01C0F7FF02C0F8FF0900F5CF55
:101D9C0000F000C0E0F00052D8B4CAEF1EF0E051E1
:101DAC00250A0BE0D7C0E1FFD8C0E2FFE0C0E6FF98
:101DBC00D74BD82BF64BF72BD8D7E16BE26BE36BF9
:101DCC00E46B23D0E387010ED927000EDA23DB2343
:101DDC0059D0E381010ED927000EDA23DB2352D030
:101DEC00E383010ED927000EDA23DB234BD0E487E3
:101DFC00010ED927000EDA23DB2344D0E385010E34
:101E0C00D927000EDA23DB233DD0D9C0F6FFDAC088
:101E1C00F7FFDBC0F8FF0900F5CF01F001502D0AE8
:101E2C00D1E0D9C0F6FFDAC0F7FFDBC0F8FF09003C
:101E3C00F5CF01F00150200ACCE0D9C0F6FFDAC092
:101E4C00F7FFDBC0F8FF0900F5CF01F001502B0ABA
:101E5C00C7E0D9C0F6FFDAC0F7FFDBC0F8FF090016
:101E6C00F5CF01F00150230AC2E0D9C0F6FFDAC069
:101E7C00F7FFDBC0F8FF0900F5CF01F00150300A85
:101E8C00BDE001D09ED7E3A301D0E391E3A701D03D
:101E9C00E395D9C0F6FFDAC0F7FFDBC0F8FF090005
:101EAC00F5CF00F0000E016E00C0FEF0CDEC0AF094
:101EBC00005236E0E16BE26BE1C000F0E2C001F0F1
:101ECC000A0E046E000E056E1FEC0AF0D9C0F6FF68
:101EDC00DAC0F7FFDBC0F8FF0900F5CF02F00250C3
:101EEC000024E16F000E0120E26F300EE15F000E66
:101EFC00E25B010ED927000EDA23DB23D9C0F6FFF3
:101F0C00DAC0F7FFDBC0F8FF0900F5CF00F0000ED8
:101F1C00016E00C0FEF0CDEC0AF00052CDE133D0E2
:101F2C00D9C0F6FFDAC0F7FFDBC0F8FF0900F5CF28
:101F3C0001F001502A0A27E1DCC0E9FFDDC0EAFF0D
:101F4C00EECF00F0EECF01F000C0E9FF01C0EAFFD8
:101F5C00EECFE1F0EECFE2F0DCC0E9FFDDC0EAFF4E
:101F6C00020EEE24006E000EEE20016EDCC0E1FFCE
:101F7C00DDC0E2FF00C0E6FF01C0E6FF010ED9277D
:101F8C00000EDA23DB23D9C0F6FFDAC0F7FFDBC083
:101F9C00F8FF0900F5CF01F001502E0A70E1010E97
:101FAC00D927000EDA23DB23D9C0F6FFDAC0F7FFFE
:101FBC00DBC0F8FF0900F5CF01F001502A0A28E137
:101FCC00DCC0E9FFDDC0EAFFEECF00F0EECF01F0A0
:101FDC0000C0E9FF01C0EAFFEECFDEF0EECFDFF08C
:101FEC00DCC0E9FFDDC0EAFF020EEE24006E000E3D
:101FFC00EE20016EDCC0E1FFDDC0E2FF00C0E6FFB9
:10200C0001C0E6FF010ED927000EDA23DB2336D000
:10201C00DE6BDF6BD9C0F6FFDAC0F7FFDBC0F8FF71
:10202C000900F5CF00F0000E016E00C0FEF0CDEC03
:10203C000AF0005223E0DEC000F0DFC001F00A0E0F
:10204C00046E000E056E1FEC0AF0D9C0F6FFDAC064
:10205C00F7FFDBC0F8FF0900F5CF02F002500024B7
:10206C00DE6F000E0120DF6F300EDE5F000EDF5BD7
:10207C00010ED927000EDA23DB23CCD703D0DE6B7D
:10208C00DF6BE489D9C000F0DAC001F0DBC002F0EC
:10209C00010ED927000EDA23DB2300C0F6FF01C0A6
:1020AC00F7FF02C0F8FF0900F5CFE0F005D1F6C04C
:1020BC0000F0F7C001F01200E389E4D7E48537D1D2
:1020CC00E38BE48134D1E48332D1E38D30D12FD151
:1020DC00E38BE38F2CD1DCC0E9FFDDC0EAFFEECF50
:1020EC0000F0EECF01F000C0E9FF01C0EAFFEECF37
:1020FC00EBF0EECFECF0DCC0E9FFDDC0EAFF020E46
:10210C00EE24006E000EEE20016EDCC0E1FFDDC09F
:10211C00E2FF00C0E6FF01C0E6FF000EEC1902E191
:10212C00000EEB1911E1280EEF6F6E0EF06F750EAD
:10213C00F16F6C0EF26F6C0EF36F290EF46FF56B82
:10214C00EF0EEB6F000EEC6FED6BEE6BED51EB25C4
:10215C00E96EEE51EC21EA6EEE520BE0010EED252C
:10216C00006E000EEE21016E00C0EDF001C0EEF02D
:10217C00EDD7DE51DF110AE0EE51DF5D02E1ED51EA
:10218C00DE5D04E2DEC0EDF0DFC0EEF0E251EE5DAC
:10219C0002E1E151ED5D05E2ED51E15FEE51E25BF3
:1021AC0002D0E16BE26BE3B716D0E1C000F0E2C005
:1021BC0001F0010EE15F000EE25B005001100BE03C
:1021CC00D7C0E1FFD8C0E2FF200EE66ED74BD82B6C
:1021DC00F64BF72BEAD7EDC002F0EEC003F0010E80
:1021EC00ED5D006E000EEE59016E00C0EDF001C009
:1021FC00EEF00250031019E0EBC0E9FFECC0EAFF6F
:10220C00D7C0E1FFD8C0E2FFEECFE6FFD74BD82B0B
:10221C00010EEB25006E000EEC21016E00C0EBF000
:10222C0001C0ECF0F64BF72BD6D7E3A716D0E1C0E4
:10223C0000F0E2C001F0010EE15F000EE25B005025
:10224C0001100BE0D7C0E1FFD8C0E2FF200EE66E14
:10225C00D74BD82BF64BF72BEAD787D5DCC0E9FF49
:10226C00DDC0EAFFEECF00F0EECF01F000C0E9FFD9
:10227C0001C0EAFFEECFE0F0DCC0E9FFDDC0EAFF11
:10228C00020EEE24006E000EEE20016EDCC0E1FFAB
:10229C00DDC0E2FF00C0E6FF01C0E6FFE00EEB6F21
:1022AC00000EEC6F010EED6F000EEE6F62D7C00EDC
:1022BC00E313000EE4133BD0E051000AD8B4F7D678
:1022CC00E0516C0AD8B4F8D6E051660AD8B4F6D608
:1022DC00E051450AD8B4F4D6E051650AD8B4F1D629
:1022EC00E051670AD8B4EFD6E0516F0AD8B4EDD6F6
:1022FC00E051640AD8B4EBD6E051690AD8B4E7D6F9
:10230C00E051700AD8B4E4D6E051580AD8B4E0D6FB
:10231C00E051780AD8B4DDD6E051730AD8B4DBD6D4
:10232C00E051630A9BE0E051750AC1E0B7D7000E9B
:10233C00E315006EE451070B016E00500110D8B488
:10234C0075EF1AF0E4A904D0060EDE6F000EDF6FF5
:10235C00DCC0E9FFDDC0EAFFEECF00F0EECF01F00C
:10236C0000C0E9FF01C0EAFFEECFE5F0EECFE6F0EA
:10237C00EECFE7F0EECFE8F0DCC0E9FFDDC0EAFF1E
:10238C00040EEE24006E000EEE20016EDCC0E1FFA8
:10239C00DDC0E2FF00C0E6FF01C0E6FF046A056A8B
:1023AC00066A076AE5C000F0E6C001F0E7C002F07B
:1023BC00E8C003F066EC0AF0010ED8B0000E006E17
:1023CC00005205E0E77F030EE313000EE413E96B04
:1023DC00EA6BE5C000F0E6C001F0E7C002F0E8C02F
:1023EC0003F0046A056A066A076A9BEC08F0000EA3
:1023FC00D8A4010E006E0052D8B48AD0E8C000F008
:10240C00016A026A036AFF0E0016000E01167E0EA8
:10241C00005E000E015A00C0E9F001C0EAF0010EA6
:10242C00005E000E015A00C0E9F001C0EAF0030E94
:10243C00046E000E056E1FEC0AF000C0E9F001C03E
:10244C00EAF00A0E046E000E056ED9EC0AF000C01C
:10245C00E9F001C0EAF0800E0118026E800E025CF9
:10246C0002E1000E005C05E2010E0001E95F000EC6
:10247C00EA5B0001E9510008FE6F3DEC0BF0E5C092
:10248C0004F0E6C005F0E7C006F0E8C007F035EC54
:10249C0004F000C0EBF001C0ECF002C0EDF003C0A2
:1024AC00EEF0000E046E000E056E000E066E7F0E32
:1024BC00076EEBC000F0ECC001F0EDC002F0EEC016
:1024CC0003F066EC0AF0010ED8B0000E006E00525C
:1024DC0005E0010EE95F000EEA5B1AD0000E046EF7
:1024EC00000E056E200E066E820E076EEBC000F01D
:1024FC00ECC001F0EDC002F0EEC003F066EC0AF0A7
:10250C00000ED8B0010E006E005202E0E94BEA2B2F
:10251C00800E006E800EEA19005C02E1E9510008A1
:10252C0003E3010EE06F02D0E9C0E0F0E4B118D093
:10253C00E4A315D0800EEA19006E7F0E005C02E158
:10254C00FC0EE95D0BE3800EEA19006E800EDF19BC
:10255C00005C02E1DE51E95D01E201D001D0F1D372
:10256C00DE51DF1106E0E4A304D0010EDE5F000EA5
:10257C00DF5B000E006EDF51005C02E1DE510808EB
:10258C0003E2080EE06F02D0DEC0E0F0E5C000F020
:10259C00E6C001F0E7C002F0E8C003F0046A056A87
:1025AC00066A076A9BEC08F0000ED8A4010E006EB8
:1025BC000052D8B44BD1E9C0FEF03DEC0BF000C09A
:1025CC0004F001C005F002C006F003C007F0E5C03E
:1025DC0000F0E6C001F0E7C002F0E8C003F061ECE7
:1025EC0009F000C0E5F001C0E6F002C0E7F003C05E
:1025FC00E8F00001E0510008FE6F3DEC0BF000C06C
:10260C0004F001C005F002C006F003C007F0E5C0FD
:10261C0000F0E6C001F0E7C002F0E8C003F061ECA6
:10262C0009F000C0F8F001C0F9F002C0FAF003C0E4
:10263C00FBF0F8C0E5F0F9C0E6F0FAC0E7F0FBC03B
:10264C00E8F0F8C000F0F9C001F0FAC002F0FBC0ED
:10265C0003F0C5EC08F0B2EC08F000C004F001C0C7
:10266C0005F002C006F003C007F0F8C000F0F9C096
:10267C0001F0FAC002F0FBC003F062EC0AF0000EAD
:10268C00046E000E056E000E066E7E0E076E66EC76
:10269C000AF0000ED8B0010E006E00521AE0E5C030
:1026AC0000F0E6C001F0E7C002F0E8C003F0000E55
:1026BC00046E000E056E000E066E7E0E076E97EC15
:1026CC0001F000C0E5F001C0E6F002C0E7F003C085
:1026DC00E8F0E5C000F0E6C001F0E7C002F0E8C0A9
:1026EC0003F0C5EC08F00001E051010F096E0A6A15
:1026FC00000E0A2209C004F00AC005F0000E0ABE42
:10270C00FF0E066E076E0436049005360636073645
:10271C0004360490053606360736FC0E0424F66E95
:10272C00470E0520F76E000E0620F86E0900F5CF57
:10273C0005F00900F5CF06F00900F5CF07F0090008
:10274C00F5CF08F00850035C08E10750025C05E186
:10275C000650015C02E10550005C1EE30001E5C07F
:10276C0000F0E6C001F0E7C002F0E8C003F0CD0EC7
:10277C00046ECC0E056E4C0E066E7B0E076E35ECA1
:10278C0004F000C0E5F001C0E6F002C0E7F003C0C1
:10279C00E8F0E94BEA2B5AD0E5C000F0E6C001F0B6
:1027AC00E7C002F0E8C003F0C5EC08F0E0C004F0AC
:1027BC00000E056E066E076E04360490053606365E
:1027CC00073604360490053606360736FC0E04240C
:1027DC00F66E470E0520F76E000E0620F86E090007
:1027EC00F5CF05F00900F5CF06F00900F5CF07F09D
:1027FC000900F5CF08F00850035C08E10750025CB3
:10280C0005E10650015C02E10550005C1FE200018D
:10281C00E5C000F0E6C001F0E7C002F0E8C003F04C
:10282C00000E046E000E056E200E066E820E076EF4
:10283C0035EC04F000C0E5F001C0E6F002C0E7F0B2
:10284C0003C0E8F0010EE95F000EEA5B0001E4A3AF
:10285C0093D0E4B791D0800E000A006E800EDF1981
:10286C00005C02E1DE510A0804E20A0EDE6F000E83
:10287C00DF6FE5C000F0E6C001F0E7C002F0E8C091
:10288C0003F0C5EC08F000C0EBF001C0ECF002C0A6
:10289C00EDF003C0EEF0EB51EC11ED11EE1142E056
:1028AC000A0E046E000E056E066E076EEBC000F08D
:1028BC00ECC001F0EDC002F0EEC003F08CEC06F0C1
:1028CC0008C000F009C001F00AC002F00BC003F010
:1028DC00000E046E031808E10450021805E10450C0
:1028EC00011802E10050000A1DE1010EDE5F000E2E
:1028FC00DF5B0A0E046E000E056E066E076EEBC0F3
:10290C0000F0ECC001F0EDC002F0EEC003F08CEC76
:10291C0006F000C0EBF001C0ECF002C0EDF003C01B
:10292C00EEF0B9D7800EDF19006E800E005C02E16C
:10293C00E051DE5D21E2DE51E05DFE6F3DEC0BF01F
:10294C0000C004F001C005F002C006F003C007F09F
:10295C00E5C000F0E6C001F0E7C002F0E8C003F00B
:10296C0061EC09F000C0E5F001C0E6F002C0E7F050
:10297C0003C0E8F0DEC0E0F0050E0001DE25006EBD
:10298C00000EDF21016E0050E15F0150E25BDE5171
:10299C00DF1103E1E4B701D004D0010EE15F000EBA
:1029AC00E25B030EE315006EE4C001F0000E0116AD
:1029BC000050011004E0010EE15F000EE25BE3A5A4
:1029CC0039D0E3A312D0E3A103D02D0E006E02D0B8
:1029DC002B0E006ED7C0E1FFD8C0E2FF00C0E6FFAF
:1029EC00D74BD82BF64BF72B0CD0E3A10AD0D7C082
:1029FC00E1FFD8C0E2FF200EE66ED74BD82BF64B8A
:102A0C00F72B800E006E800EE219005C02E1E151A2
:102A1C0000080FE2D7C0E1FFD8C0E2FF300EE66E2F
:102A2C00D74BD82BF64BF72B010EE15F000EE25B78
:102A3C00E8D73AD0E3B718D0800E006E800EE219BA
:102A4C00005C02E1E15100080FE2D7C0E1FFD8C001
:102A5C00E2FF200EE66ED74BD82BF64BF72B010E70
:102A6C00E15F000EE25BE8D7E3A312D0E3A103D051
:102A7C002D0E006E02D02B0E006ED7C0E1FFD8C019
:102A8C00E2FF00C0E6FFD74BD82BF64BF72B0CD050
:102A9C00E3A10AD0D7C0E1FFD8C0E2FF200EE66E5A
:102AAC00D74BD82BF64BF72BE5C000F0E6C001F066
:102ABC00E7C002F0E8C003F0C5EC08F000C0EBF092
:102ACC0001C0ECF002C0EDF003C0EEF0E0C000F08D
:102ADC00000E016E026E036E003600900136023657
:102AEC00033600360090013602360336FC0E002405
:102AFC00F66E470E0120F76E000E0220F86E0900EC
:102B0C00F5CF04F00900F5CF05F00900F5CF06F07C
:102B1C000900F5CF07F0EBC000F0ECC001F0EDC000
:102B2C0002F0EEC003F08CEC06F0300E0026D7C09D
:102B3C00E1FFD8C0E2FF00C0E6FFD74BD82BF64B25
:102B4C00F72BDE51DF1103E1E4B701D06FD0D7C012
:102B5C00E1FFD8C0E2FF2E0EE66ED74BD82BF64B1A
:102B6C00F72BE051DE5F000EDF5BE0534DE0E0073A
:102B7C00E0C000F0000E016E026E036E0036009095
:102B8C000136023603360036009001360236033623
:102B9C00FC0E0024F66E470E0120F76E000E02208C
:102BAC00F86E0900F5CF04F00900F5CF05F0090027
:102BBC00F5CF06F00900F5CF07F0EBC000F0ECC044
:102BCC0001F0EDC002F0EEC003F08CEC06F00A0E42
:102BDC00046E000E056E066E076E8CEC06F008C0D7
:102BEC0000F009C001F00AC002F00BC003F0300E77
:102BFC000026D7C0E1FFD8C0E2FF00C0E6FFD74BEC
:102C0C00D82BF64BF72BB1D7DE51DF110FE0D7C025
:102C1C00E1FFD8C0E2FF300EE66ED74BD82BF64B57
:102C2C00F72B010EDE5F000EDF5BEED7E3AB0BD0B4
:102C3C00D7C0E1FFD8C0E2FF450EE66ED74BD82BCC
:102C4C00F64BF72B0AD0D7C0E1FFD8C0E2FF650ED8
:102C5C00E66ED74BD82BF64BF72B800EEA19006E8D
:102C6C00800E005C02E1000EE95D11E2E951000802
:102C7C00E96FEA51000EEA57D7C0E1FFD8C0E2FF76
:102C8C002D0EE66ED74BD82BF64BF72B0AD0D7C0B0
:102C9C00E1FFD8C0E2FF2B0EE66ED74BD82BF64BDC
:102CAC00F72B0A0E046E000E056EE9C000F0EAC0A8
:102CBC0001F0D9EC0AF0300E0026D7C0E1FFD8C0E5
:102CCC00E2FF00C0E6FF0001D74BD82BF64BF72BE9
:102CDC000A0E046E000E056EE9C000F0EAC001F0A9
:102CEC00D9EC0AF008C000F009C001F0300E002643
:102CFC00D7C0E1FFD8C0E2FF00C0E6FF0001D74B10
:102D0C00D82BF64BF72BE3A71AD0800E006E800E53
:102D1C00E219005C02E1E151000811E2D7C0E1FFC9
:102D2C00D8C0E2FF200EE66ED74BD82BF64BF72B14
:102D3C00010EE15F000EE25BE151E211EFE1BBEF4E
:102D4C000EF0E4A3F3D0800EEA19006E800E005C46
:102D5C0002E1000EE95D0AE2010EE95D006E000E73
:102D6C00EA59016E0050DE5F0150DF5BE5C000F0F8
:102D7C00E6C001F0E7C002F0E8C003F0C5EC08F0D3
:102D8C0000C0EBF001C0ECF002C0EDF003C0EEF0BF
:102D9C00010EE06FE0510A0A34E0E0C000F0000ED2
:102DAC00016E026E036E0036009001360236033659
:102DBC0000360090013602360336FC0E0024F66E07
:102DCC00470E0120F76E000E0220F86E0900F5CFB9
:102DDC0001F00900F5CF02F00900F5CF03F009006E
:102DEC00F5CF04F00450EE5D08E10350ED5D05E114
:102DFC000250EC5D02E10150EB5D01E202D0E02BF0
:102E0C00C9D7E051DE5DFC6F000EDF59FD6FFCC0D1
:102E1C00DEF0FDC0DFF0EBC000F0ECC001F0EDC067
:102E2C0002F0EEC003F0B2EC08F000C004F001C0F8
:102E3C0005F002C006F003C007F0E5C000F0E6C0E4
:102E4C0001F0E7C002F0E8C003F062EC0AF000C049
:102E5C00F8F001C0F9F002C0FAF003C0FBF0FCC0BE
:102E6C00FEF03DEC0BF0F8C004F0F9C005F0FAC030
:102E7C0006F0FBC007F035EC04F0000E046E000EFB
:102E8C00056E000E066E7E0E076E97EC01F0C5EC1B
:102E9C0008F000C0EBF001C0ECF002C0EDF003C094
:102EAC00EEF0DE51DF1142E00A0E046E000E056EEC
:102EBC00066E076EEBC000F0ECC001F0EDC002F046
:102ECC00EEC003F08CEC06F008C000F009C001F075
:102EDC000AC002F00BC003F0000E046E031808E1E8
:102EEC000450021805E10450011802E10050000AD8
:102EFC001DE10A0E046E000E056E066E076EEBC029
:102F0C0000F0ECC001F0EDC002F0EEC003F08CEC70
:102F1C0006F000C0EBF001C0ECF002C0EDF003C015
:102F2C00EEF0010EDE5F000EDF5BBBD7800E006E95
:102F3C00800EDF19005C02E1DE510C0816E3DEC0E6
:102F4C00FEF0C8EC04F0E5C004F0E6C005F0E7C004
:102F5C0006F0E8C007F097EC01F000C0E5F001C006
:102F6C00E6F002C0E7F003C0E8F0E5C000F0E6C010
:102F7C0001F0E7C002F0E8C003F0046A056A066AD3
:102F8C00076A9BEC08F0000ED8A4010E006E0052EC
:102F9C00D8B477D0E5C000F0E6C001F0E7C002F08D
:102FAC00E8C003F0C5EC08F0000E046E031808E14D
:102FBC000450021805E10450011802E10050000A07
:102FCC0060E1800E006E800EEA19005C02E1E951AE
:102FDC00010857E2E9C0FEF03DEC0BF000C004F034
:102FEC0001C005F002C006F003C007F0E5C000F018
:102FFC00E6C001F0E7C002F0E8C003F061EC09F0B4
:10300C005F0E046E700E056E090E066E810E076E55
:10301C0066EC0AF0010ED8B0000E006E005206E00D
:10302C00090E0001E95F000EEA5B05D00001080EF5
:10303C00E95F000EEA5BE9C0FEF03DEC0BF000C06E
:10304C0004F001C005F002C006F003C007F0E5C0B3
:10305C0000F0E6C001F0E7C002F0E8C003F061EC5C
:10306C0009F0C5EC08F000C0EBF001C0ECF002C0B8
:10307C00EDF003C0EEF00001E56BE66BE76BE86B7F
:10308C0038D0E5C000F0E6C001F0E7C002F0E8C0BF
:10309C0003F0C5EC08F000C0EBF001C0ECF002C08E
:1030AC00EDF003C0EEF0EBC000F0ECC001F0EDC0B1
:1030BC0002F0EEC003F0B2EC08F000C004F001C066
:1030CC0005F002C006F003C007F0E5C000F0E6C052
:1030DC0001F0E7C002F0E8C003F062EC0AF000C0B7
:1030EC00E5F001C0E6F002C0E7F003C0E8F0E96BE0
:1030FC00EA6B010EE06FE0510A0A34E0E0C000F028
:10310C00000E016E026E036E003600900136023620
:10311C00033600360090013602360336FC0E0024CE
:10312C00F66E470E0120F76E000E0220F86E0900B5
:10313C00F5CF01F00900F5CF02F00900F5CF03F04F
:10314C000900F5CF04F00450EE5D08E10350ED5D8D
:10315C0005E10250EC5D02E10150EB5D01E202D0B1
:10316C00E02BC9D7E051DE25006E000EDF21016E89
:10317C00E9510026EA5101220050E15F0150E25B67
:10318C00E4B704D0DE51DF1101E104D0010EE15FA0
:10319C00000EE25B030EE315006EE4C001F0000EBE
:1031AC0001160050011004E0010EE15F000EE25B1D
:1031BC00E3A539D0E3A312D0E3A103D02D0E006E0A
:1031CC0002D02B0E006ED7C0E1FFD8C0E2FF00C0CA
:1031DC00E6FFD74BD82BF64BF72B0CD0E3A10AD03C
:1031EC00D7C0E1FFD8C0E2FF200EE66ED74BD82B3C
:1031FC00F64BF72B800E006E800EE219005C02E19C
:10320C00E15100080FE2D7C0E1FFD8C0E2FF300E59
:10321C00E66ED74BD82BF64BF72B010EE15F000E69
:10322C00E25BE8D73AD0E3B718D0800E006E800E80
:10323C00E219005C02E1E15100080FE2D7C0E1FFA6
:10324C00D8C0E2FF200EE66ED74BD82BF64BF72BEF
:10325C00010EE15F000EE25BE8D7E3A312D0E3A11D
:10326C0003D02D0E006E02D02B0E006ED7C0E1FFE6
:10327C00D8C0E2FF00C0E6FFD74BD82BF64BF72B9C
:10328C000CD0E3A10AD0D7C0E1FFD8C0E2FF200EDA
:10329C00E66ED74BD82BF64BF72BE0C000F0E007CF
:1032AC0000524CE0E0C000F0000E016E026E036EA6
:1032BC000036009001360236033600360090013697
:1032CC0002360336FC0E0024F66E470E0120F76E14
:1032DC00000E0220F86E0900F5CF04F00900F5CFBE
:1032EC0005F00900F5CF06F00900F5CF07F0EBC0AB
:1032FC0000F0ECC001F0EDC002F0EEC003F08CEC7D
:10330C0006F00A0E046E000E056E066E076E8CEC4F
:10331C0006F008C000F009C001F00AC002F00BC0B2
:10332C0003F0300E0026D7C0E1FFD8C0E2FF00C08A
:10333C00E6FFD74BD82BF64BF72BAFD7800E006E92
:10334C00800EEA19005C02E1E95100080FE2D7C0D7
:10335C00E1FFD8C0E2FF300EE66ED74BD82BF64B10
:10336C00F72B010EE95F000EEA5BE8D7800E000A2E
:10337C00006E800EDF19005C02E1DE51080803E2EA
:10338C00080EE06F02D0DEC0E0F0E051DE5F000E10
:10339C00DF5BE05303E1E4B701D00AD0D7C0E1FF13
:1033AC00D8C0E2FF2E0EE66ED74BD82BF64BF72B80
:1033BC00E0C0FEF03DEC0BF0E5C004F0E6C005F01B
:1033CC00E7C006F0E8C007F035EC04F002EC08F0BA
:1033DC0000C0EBF001C0ECF002C0EDF003C0EEF069
:1033EC00E0534DE0E007E0C000F0000E016E026E0D
:1033FC00036E00360090013602360336003600901C
:10340C00013602360336FC0E0024F66E470E012000
:10341C00F76E000E0220F86E0900F5CF04F00900DB
:10342C00F5CF05F00900F5CF06F00900F5CF07F050
:10343C00EBC000F0ECC001F0EDC002F0EEC003F008
:10344C008CEC06F00A0E046E000E056E066E076E0E
:10345C008CEC06F008C000F009C001F00AC002F0C4
:10346C000BC003F0300E0026D7C0E1FFD8C0E2FF3E
:10347C0000C0E6FFD74BD82BF64BF72BB1D7DE515C
:10348C00DF110FE0D7C0E1FFD8C0E2FF300EE66ECF
:10349C00D74BD82BF64BF72B010EDE5F000EDF5B04
:1034AC00EED7E3A71AD0800E006E800EE219005CF6
:1034BC0002E1E151000811E2D7C0E1FFD8C0E2FF00
:1034CC00200EE66ED74BD82BF64BF72B010EE15F97
:1034DC00000EE25BE151E211EFE1BBEF0EF0C00E2A
:1034EC00E315016EE4C002F0000E0216000E021885
:1034FC0002E1000E0118D8A47CD0E3A927D0DCC0CF
:10350C00E9FFDDC0EAFFEECF00F0EECF01F000C026
:10351C00E9FF01C0EAFFEECFEBF0EECFECF0EECF1F
:10352C00EDF0EECFEEF0DCC0E9FFDDC0EAFF040EFB
:10353C00EE24006E000EEE20016EDCC0E1FFDDC05B
:10354C00E2FF00C0E6FF01C0E6FF2BD0DCC0E9FFC4
:10355C00DDC0EAFFEECF00F0EECF01F000C0E9FFD6
:10356C0001C0EAFFEECF00F0EECF01F000C0EBF0AF
:10357C0001C0ECF0000E01BEFF0EED6FEE6FDCC073
:10358C00E9FFDDC0EAFF020EEE24006E000EEE2015
:10359C00016EDCC0E1FFDDC0E2FF00C0E6FF01C050
:1035AC00E6FF800EEE19006E800E005C08E1000E46
:1035BC00ED5D05E1000EEC5D02E1000EEB5D18E245
:1035CC00030EE313000EE413006A016A026A036A35
:1035DC00EB51005EEC51015AED51025AEE51035A77
:1035EC0000C0EBF001C0ECF002C0EDF003C0EEF057
:1035FC004ED0E3A927D0DCC0E9FFDDC0EAFFEECF57
:10360C0000F0EECF01F000C0E9FF01C0EAFFEECF01
:10361C00EBF0EECFECF0EECFEDF0EECFEEF0DCC059
:10362C00E9FFDDC0EAFF040EEE24006E000EEE2072
:10363C00016EDCC0E1FFDDC0E2FF00C0E6FF01C0AF
:10364C00E6FF25D0DCC0E9FFDDC0EAFFEECF00F0DD
:10365C00EECF01F000C0E9FF01C0EAFFEECFEBF0C6
:10366C00EECFECF0000EED6FEE6FDCC0E9FFDDC0CD
:10367C00EAFF020EEE24006E000EEE20016EDCC09E
:10368C00E1FFDDC0E2FF00C0E6FF01C0E6FF000E77
:10369C00DF1902E1000EDE190FE1000E006EEE19CB
:1036AC0008E10050ED1905E10050EC1902E1EB5175
:1036BC00000A02E1DE4BDF2BC00EE315006E00C0EA
:1036CC0005F0AED0010EE06FE0510A0A34E0E0C024
:1036DC0000F0000E016E026E036E00360090013693
:1036EC000236033600360090013602360336FC0EE5
:1036FC000024F66E470E0120F76E000E0220F86EC5
:10370C000900F5CF01F00900F5CF02F00900F5CF63
:10371C0003F00900F5CF04F00450EE5D08E103500E
:10372C00ED5D05E10250EC5D02E10150EB5D01E263
:10373C0002D0E02BC9D782D0010EE06FE051080A0D
:10374C0034E0E0C000F0000E016E026E036E003635
:10375C0000900136023603360036009001360236F0
:10376C000336240E0024F66E480E0120F76E000E70
:10377C000220F86E0900F5CF01F00900F5CF02F038
:10378C000900F5CF03F00900F5CF04F00450EE5D0D
:10379C0008E10350ED5D05E10250EC5D02E10150E2
:1037AC00EB5D01E202D0E02BC9D748D0010EE06FEF
:1037BC00E0510C0A34E0E0C000F0000E016E026E25
:1037CC00036E003600900136023603360036009048
:1037DC00013602360336CC0E0024F66E470E01205D
:1037EC00F76E000E0220F86E0900F5CF01F009000B
:1037FC00F5CF02F00900F5CF03F00900F5CF04F086
:10380C000450EE5D08E10350ED5D05E10250EC5D06
:10381C0002E10150EB5D01E202D0E02BC9D70ED0E2
:10382C000550000AD8B44ED70550C00AD8B44AD7B0
:10383C000550800A81E00550400AB8E0800E006E09
:10384C00800EDF19005C02E1DE51E05D03E2DEC0B8
:10385C00E0F00DD0800EDF19006E800E005C02E1EE
:10386C00E051DE5D04E2E0C0DEF0000EDF6FE151FE
:10387C00E2110EE0030EE315006EE4C001F0000E41
:10388C0001160050011004E0010EE15F000EE25B36
:10389C00800EDF19006E800EE219005C02E1E1512E
:1038AC00DE5D05E2DE51E15FDF51E25B02D0E16BF0
:1038BC00E26BC40EE315016EE451080B026E02506C
:1038CC00080A02E1400E011808E1E151E21104E09E
:1038DC00010EE15F000EE25B1CD0C00EE315016E21
:1038EC00E451080B026E0250080A02E1800E011826
:1038FC0010E1800E006E800EE219005C02E1E151D5
:10390C00020805E2020EE15F000EE25B02D0E16B01
:10391C00E26BE3A55DD0E3A312D0E3A103D02D0E9F
:10392C00006E02D02B0E006ED7C0E1FFD8C0E2FFB4
:10393C0000C0E6FFD74BD82BF64BF72B34D0E3A1C6
:10394C000BD0D7C0E1FFD8C0E2FF200EE66ED74BFC
:10395C00D82BF64BF72B27D0C00EE315016EE45194
:10396C00080B026E0250080A02E1800E01181BE1DE
:10397C00D7C0E1FFD8C0E2FF300EE66ED74BD82B94
:10398C00F64BF72BE3AB03D0580E006E02D0780E3B
:10399C00006ED7C0E1FFD8C0E2FF00C0E6FFD74BF6
:1039AC00D82BF64BF72BE151E21111E0D7C0E1FF18
:1039BC00D8C0E2FF300EE66ED74BD82BF64BF72B68
:1039CC00010EE15F000EE25BE151E211EFE174D018
:1039DC00E151E21113E0E3B711D0D7C0E1FFD8C039
:1039EC00E2FF200EE66ED74BD82BF64BF72B010ED1
:1039FC00E15F000EE25BE151E211EFE1E3A312D0D3
:103A0C00E3A103D02D0E006E02D02B0E006ED7C09A
:103A1C00E1FFD8C0E2FF00C0E6FFD74BD82BF64B36
:103A2C00F72B0CD0E3A10AD0D7C0E1FFD8C0E2FF3E
:103A3C00200EE66ED74BD82BF64BF72BC00EE315AA
:103A4C00016EE451080B026E0250080A02E1400EAE
:103A5C0001180BE1D7C0E1FFD8C0E2FF300EE66ED3
:103A6C00D74BD82BF64BF72B27D0C00EE315016E96
:103A7C00E451080B026E0250080A02E1800E011894
:103A8C001BE1D7C0E1FFD8C0E2FF300EE66ED74B8A
:103A9C00D82BF64BF72BE3AB03D0580E006E02D0AD
:103AAC00780E006ED7C0E1FFD8C0E2FF00C0E6FF81
:103ABC00D74BD82BF64BF72B800E006E800EDF19F0
:103ACC00005C02E1DE51E05D0BE2D7C0E1FFD8C043
:103ADC00E2FF300EE66ED74BD82BF64BF72BECD71C
:103AEC00DEC000F0DFC001F0010EDE5F000EDF5B18
:103AFC0000500110D8B42AD1C00EE315006E00C0DE
:103B0C00F8F00AD1DEC000F0DFC001F0000EDFBF1C
:103B1C00FF0E026E036E003600900136023603363D
:103B2C0000360090013602360336FC0E0024F66E89
:103B3C00470E0120F76E000E0220F86E0900F5CF3B
:103B4C0004F00900F5CF05F00900F5CF06F00900E7
:103B5C00F5CF07F0EBC000F0ECC001F0EDC002F0C7
:103B6C00EEC003F08CEC06F00A0E046E000E056E2F
:103B7C00066E076E8CEC06F008C000F009C001F070
:103B8C000AC002F00BC003F0300E0024E06FD3D05B
:103B9C00E3AB45D0DEC000F0DFC001F0000EDFBFAC
:103BAC00FF0E026E036E00360090013602360336AD
:103BBC0000360090013602360336240E0024F66ED1
:103BCC00480E0120F76E000E0220F86E0900F5CFAA
:103BDC0004F00900F5CF05F00900F5CF06F0090057
:103BEC00F5CF07F0EBC000F0ECC001F0EDC002F037
:103BFC00EEC003F08CEC06F00F0E0016000E011652
:103C0C0002160316550E0024F66E480E0120F76EB0
:103C1C00000E0220F86E0900F5CFE0F044D0DEC0B3
:103C2C0000F0DFC001F0000EDFBFFF0E026E036E6E
:103C3C00003600900136023603360036009001360D
:103C4C0002360336240E0024F66E480E0120F76E61
:103C5C00000E0220F86E0900F5CF04F00900F5CF34
:103C6C0005F00900F5CF06F00900F5CF07F0EBC021
:103C7C0000F0ECC001F0EDC002F0EEC003F08CECF3
:103C8C0006F00F0E0016000E011602160316440E57
:103C9C000024F66E480E0120F76E000E0220F86E1E
:103CAC000900F5CFE0F047D0DEC000F0DFC001F036
:103CBC00000EDFBFFF0E026E036E00360090013661
:103CCC000236033600360090013602360336CC0E2F
:103CDC000024F66E470E0120F76E000E0220F86EDF
:103CEC000900F5CF04F00900F5CF05F00900F5CF78
:103CFC0006F00900F5CF07F0EBC000F0ECC001F0C6
:103D0C00EDC002F0EEC003F08CEC06F0070E0014D0
:103D1C00E06F300EE0270FD0F851000AD8B4F2D67D
:103D2C00F851C00AD8B4EED6F851800AD8B430D7BE
:103D3C00F851400AB9E0D7C0E1FFD8C0E2FFE0C0BB
:103D4C00E6FFD74BD82BF64BF72BCAD6E3A71AD0E6
:103D5C00800E006E800EE219005C02E1E151000859
:103D6C0011E2D7C0E1FFD8C0E2FF200EE66ED74BC0
:103D7C00D82BF64BF72B010EE15F000EE25BE15105
:103D8C00E211EFE1BBEF0EF0F6C000F0F7C001F06E
:023D9C00120013
:103D9E0000019A91D7C0FEF03CEC06F09A81120019
:103DAE002CEC0EF0D00ED76F1BEC0EF0C8C0D7F077
:103DBE001BEC0EF0B1EC0EF0D10E0001D76F1BEC28
:103DCE000EF00001D76B9BEC0EF000C0CAF0000E97
:103DDE000001CB6F4EEC0EF0CAC000F0CBC001F06C
:023DEE001200C1
:103DF000FF0E0001966FFF0E976FFF0E986FFF0E7C
:103E0000996FFF0EA36FFF0EA46F000EA56F000E3B
:103E1000A66FFF0E9F6FFF0EA06F000EA16F000E2A
:103E2000A26FFF0E9B6FFF0E9C6F000E9D6F000E2A
:103E30009E6FAC8A900EAB6E948E949C9EAA03D01B
:083E4000AECF00F0FBD7120029
:103E48000001CE6BCF6BC8C0D0F0C9C0D1F0800ED6
:103E5800C919006E800E005C02E1000EC85D0BE21D
:103E6800010ECE6F000ECF6FC8510008D06FC9C0C9
:103E7800D1F0000ED157D0C0D7F0D1C0D8F0CAC009
:103E8800D9F0CBC0DAF050EC0EF0060ECC6F000E75
:103E9800CD6F000E006ECD51005C02E1CC510008E0
:103EA80019E2CC51CA25E16ECD51CB21E26E010E4B
:103EB800CC5D006E000ECD59016E0050CA25E96E2A
:103EC8000150CB21EA6EEECFE6FF010ECC5F000E6B
:103ED800CD5BDFD7CAC0E1FFCBC0E2FF200EE66EA4
:103EE800CE51CF111AE0CC6BCD6BCC51CA25E96EFF
:103EF800CD51CB21EA6EEE50200A03E1CC4BCD2BFD
:103F0800F4D7010ECC5F000ECD5BCC51CA25E16E13
:0C3F1800CD51CB21E26E2D0EE66E1200A2
:103F2400949894968B988B9694889486C79EC79CF5
:063F3400380EC66E1200FB
:103F3A000900F5CFE6FF0006FBE10106F9E11200F0
:103F4A00CD0E0001D56F000ED66FC8C0D7F0C9C01C
:103F5A00D8F0CAC0D9F0CBC0DAF0CCC0DBF0D50EAD
:103F6A00DC6F000EDD6FB6EC0EF000C0D3F001C0BE
:103F7A00D4F00050C825E16E0150C921E26EE66A0C
:0A3F8A00D3C000F0D4C001F0120013
:103F9400C8C0E9FFC9C0EAFFEECF03F0F00E031476
:103FA400026E02C000F00032009E0032009E003219
:103FB400009E0032009E0A0E0002F3CF01F00F0EA5
:103FC4000314006EC8C0E1FFC9C0E2FF0050012421
:103FD400E66ECAC0E9FFCBC0EAFFEECF03F0F00EF5
:103FE4000314026E02C000F00032009E0032009EF4
:103FF4000032009E0032009E0A0E0002F3CF01F050
:104004000F0E0314006ECAC0E1FFCBC0E2FF0050E4
:104014000124E66ECCC0E9FFCDC0EAFFEECF03F089
:10402400F00E0314026E02C000F00032009E003253
:10403400009E0032009E0032009E0A0E0002F3CF62
:1040440001F00F0E0314006ECCC0E1FFCDC0E2FFFF
:0840540000500124E66E120089
:10405C0010D0800E0001C86F1AD0C00EC86F17D0D8
:10406C00940EC86F14D0D40EC86F11D0800EC86FC8
:10407C000ED00001C851010AECE0C851020AEDE073
:10408C00C851030AEDE0C851040AEDE0EFD7C905A9
:10409C00006EC851002600C0C8F000C0FEF03CEC19
:1040AC0006F09A91CC6BCC51CA25E96E000ECB214F
:1040BC00EA6EEE520BE0CC51CA25E96E000ECB2114
:1040CC00EA6EEECFD7F065DECC2BEDD79A811200DD
:1040DC00400E0001FE6F3CEC06F0C86BC85107089F
:1040EC0011E3760EC825F66E480EF76E000EF72219
:1040FC00000EF86E000EF8220900F5CFD7F049DE5D
:10410C00C82BECD7C86BC851070811E37E0EC82525
:10411C00F66E480EF76E000EF722000EF86E000ECB
:10412C00F8220900F5CFD7F034DEC82BECD7020EFD
:08413C00FE6F3CEC06F01200DE
:104144002CEC0EF0A00ED76F1BEC0EF0C8C0D7F00D
:104154001BEC0EF0CAC0D7F01BEC0EF04EEC0EF0C8
:104164001A0E0C6EF80E0D6E0D2EFED70C2EFCD70B
:044174000000120035
:10417800100E836E80AA06D080AA01D0FDD7370E14
:10418800006E120081A206D081A201D0FDD7380EA0
:10419800006E120081A406D081A401D0FDD7390E8B
:1041A800006E120081A606D081A601D0FDD7250E8B
:1041B800006E1200200E836E80AA06D080AA01D05D
:1041C800FDD7340E006E120081A206D081A201D064
:1041D800FDD7350E006E120081A406D081A401D04F
:1041E800FDD7360E006E120081A606D081A601D03A
:1041F800FDD72A0E006E1200400E836E80AA06D0EC
:1042080080AA01D0FDD7310E006E120081A206D01F
:1042180081A201D0FDD7320E006E120081A406D013
:1042280081A401D0FDD7330E006E120081A606D0FE
:1042380081A601D0FDD72D0E006E1200800E836E70
:1042480080AA06D080AA01D0FDD7430E006E1200C6
:1042580081A206D081A201D0FDD7300E006E1200D7
:1042680081A406D081A401D0FDD73D0E006E1200B6
:1042780081A606D081A601D0FDD72B0E006E1200B4
:06428800FF0E006E1200A3
:10428E002CEC0EF0A00ED76F1BEC0EF0C8C0D7F0C2
:10429E001BEC0EF0B1EC0EF0A10E0001D76F1BEC73
:1042AE000EF00001D76B9BEC0EF000C0CAF0000EB2
:1042BE000001CB6F4EEC0EF0CAC000F0CBC001F087
:0242CE001200DC
:1042D000C8C0E9FFC9C0EAFFEECFCAF0000E000176
:1042E000CB6F000ECB6F000ECB1902E1200ECA1966
:1042F00007E0000ECB1902E1090ECA1901E003D054
:10430000C84BC92BE5D7CC6BCD6BCE6BCF6B000EFA
:10431000CB1902E12D0ECA1905E1CE4BCF2BC84BAC
:10432000C92B08D0000ECB1902E12B0ECA1902E1ED
:10433000C84BC92BC8C0E9FFC9C0EAFFEECFCAF01D
:10434000000ECB6F000ECB6FCAC0FEF0CDEC0AF0B2
:10435000005219E0CCC000F0CDC001F00A0E046E8E
:10436000000E056E1FEC0AF0300ECA5D026E000EE4
:10437000CB59036E02500024CC6F03500120CD6F47
:10438000C84BC92BD7D7CE51CF1108E0CC5100086C
:10439000006ECDC001F0000E01561200CCC000F03E
:0643A000CDC001F0120087
:1043A600969296909598959A959C959E84928490CF
:1043B600839E839C839A83987BEC01F07BEC01F0CF
:1043C6007BEC01F0838A8388848294EC01F08492EA
:1043D6007BEC01F0848294EC01F084927BEC01F09A
:1043E600848294EC01F084927BEC01F083988482C1
:1043F60094EC01F084927BEC01F0848294EC01F061
:104406008492839A838E848294EC01F084927BEC6E
:1044160001F0839E8388848294EC01F084928398D1
:10442600848294EC01F084927BEC01F0848294EC1B
:1044360001F084928388848294EC01F084927BEC70
:1044460001F08398848294EC01F08492838E838CAD
:10445600838A8388848294EC01F084927BEC01F059
:0644660000019A81120022
:10446C003C0ECA6E9D82F90ECB6ED00EF26E12000F
:10447C0043EC24F0190EAF6EAC84B4DC140EC86E91
:10448C004BDD0E0EC16E0F0E936E816A86DF210E10
:10449C00926EE6DF0C0EFE6F3CEC06F019DE010EA0
:1044AC00C86F020EC96F5E0ECA6F000ECB6FD0DDE7
:1044BC005DDE00C091F000503D0A01E10DD000011D
:1044CC009151300A08E1C86BC96BFF0ECA6F000E20
:1044DC00CB6F32DE01D0ECD70001C86BC96BD1DEDB
:1044EC00000E011802E1FF0E00183EE1010EC86F2C
:1044FC00020EC96F500ECA6F000ECB6FA9DD36DEEF
:10450C0000C091F000503D0A16E1920E0001C86FF8
:10451C00000EC96FD7DE00C06FF001C070F0C86B21
:10452C00C96B00C0CAF001C0CBF006DE6D6A6E6AC2
:10453C002A6A2B6A18D000019151FF0A0AE0920EE8
:10454C002824E16E000E2920E26E91C0E6FF284A75
:10455C00292A020EC86F050EC96F920ECA6F000E83
:10456C00CB6F76DDCCD708D00001C86BC96B89DE68
:10457C0000C06FF001C070F00001010EC86F010E99
:10458C00C96F210ECA6F000ECB6F62DD020EC86FB1
:10459C00010EC96F390ECA6F000ECB6F59DD030EB9
:1045AC00C86F010EC96F320ECA6F000ECB6F50DD93
:1045BC00030EC86F050EC96F2C0ECA6F000ECB6FA1
:1045CC0047DD71C0C8F072C0C9F0AB0ECA6F000EE7
:1045DC00CB6F34DC030EC86F0A0EC96FAB0ECA6FFB
:1045EC00000ECB6F35DD6FC0C8F070C0C9F0AB0EDC
:1045FC00CA6F000ECB6F22DC030EC86F060EC96F9C
:10460C00AB0ECA6F000ECB6F23DDC86BC96BD7EC3A
:10461C001EF000C0A9F001C0AAF0010EC86F000E78
:10462C00C96FD7EC1EF000C0A7F001C0A8F0020EB5
:10463C00C86F000EC96FD7EC1EF000C0C6F001C0E9
:10464C00C7F0A90EC86F000EC96FA70ECA6F000E77
:10465C00CB6FC60ECC6F000ECD6F96DCB20EC86F52
:10466C00000EC96F660ECA6F480ECB6F000ECC6F72
:10467C00C6C0CDF0C7C0CEF0A7C0CFF0A8C0D0F058
:10468C00A9C0D1F0AAC0D2F05ADC010EC86F070E37
:10469C00C96FB20ECA6F000ECB6FDADC800E7218C7
:1046AC00006E800E7018005C02E16F50715C0DE3BF
:1046BC00040EC86F010EC96F820ECA6F000ECB6F4D
:1046CC00C7DCD76BCFEC1EF00DD0040EC86F010EFB
:1046DC00C96F730ECA6F000ECB6FBADC010ED76FA9
:0846EC00CFEC1EF092D7FFD7BE
:1048860010EE21F0700E006E010E016EF40EF66E43
:0E489600460EF76E000EF86E9DEC1FF012003D
:0746F400484F52413A20003B
:0246FB000000BD
:0246FD000000BB
:0646FF0050524F443A0046
:074705004D4554413A20002C
:10470C0051544420504543412050726F6420504F07
:07471C0052204D494E3A0006
:0E4723004449474954452041204D455441002A
:0F47310044494749544520412053454E484100D3
:02474000000077
:02474200000075
:02474400000073
:0F47460041424149584F204441204D45544100C4
:0F4755004D455441204154494E474944412000AD
:104764000000007FCDCC4C7B0AD723786F120375F1
:1047740017B75171ACC5276EBD37066B95BF566729
:1047840077CC2B645F700961FFE65B5D08E53C3C18
:044794006042221B42
:104798000000007F000020820000488500007A8821
:1047A80000401C8C0050438F002474928096189609
:1047B80020BC3E99286B6E9CF90215A0EC782DC19F
:0447C800CAF249E206
:1047CC000100000008000000400000000002000092
:1047DC000010000000800000000004000000200019
:1047EC000000000100000008000000400000000074
:1047FC00010000000A00000064000000E803000053
:10480C0010270000A086010040420F0080969800FF
:08481C0000E1F50500CA9A3B1A
:104824000100000010000000000100000010000062
:104834000000010000001000000000010000001052
:104844003031323334353637383961626364656602
:014854000063
:1048550030313233343536373839414243444546B1
:014865000052
:10486600253032643A253032643A253032642000ED
:084876000000040E1F0E0E0EDF
:08487E000E0E0E1F0E040000D7
:020000040030CA
:0D000100021F1EFF8381FF0FC00FE00F40A4
:00000001FF
