:100000008DEF00F00000000000EF00F000000000A5
:0A0010000000000000000000F3D71C
:0E001C00ACB202D00000FCD75DC1ADFF1200F7
:10002A0001015C6B59C1E9FF5AC1EAFFEECF5BF1EE
:10003A005B51000A0EE05BC15DF1EBDF01015C2B55
:10004A005C515925E96E000E5A21EA6EEECF5BF13A
:04005A00EFD71200CA
:08005E0059C15DF1DCDF120065
:1000660057C159F158C15AF1DDDF0D0E596FF4DF52
:0A0076000A0E0101596FF0DF1200BD
:0A008000000E9EBA010E006E120081
:0C008A0057C159F158C15AF1CBDF1200E8
:100096001C0E0101466F000E476F5D0E486F010E84
:1000A600496FFE0E536F000E546F000E556F000E13
:1000B600566F800E4F6F000E506F000E516F000E80
:1000C600526FFF0E4B6FFF0E4C6F000E4D6F000E02
:1000D6004E6FAC8A900EAB6E948E949C9EAA03D003
:0800E600AECF00F0FBD71200C1
:1000EE000900F5CFE6FF0006FBE10106F9E112007B
:1000FE00AECF4AF1ABA202D0AB98AB884AC100F0AA
:02010E001200DD
:0A0110000C0E0101596FA3DF12006D
:10011A0013EC02F0F00E936E0F0EC16E190EAF6E55
:10012A00AC84B4DF00019F51030A12E1ECDF030E35
:10013A000001A06F810E0101576F000E586F8EDF0C
:10014A00150E0101576F000E586F88DF00019F6B73
:10015A009F51010A12E1D7DF010E0001A06F440E80
:10016A000101576F000E586F79DF5A0E0101576F60
:10017A00000E586F73DF00019F6B9F51020A0CE15A
:10018A00C2DF020E0001A06FC30E0101576F000EFD
:10019A00586F64DF00019F6B6EDF0050010AD8A41C
:1001AA00A3D0A8DF00C045F100C059F153DF000118
:1001BA00A051040A02E1030E9F6FA051030A61E1F4
:1001CA0001014551310A04E1010E00019F6F59D026
:1001DA00D70E0101576F000E586F52DF81AE06D05D
:1001EA00A10E576F000E586F39DF06D0A80E010115
:1001FA00576F000E586F32DFB00E0101576F000EB5
:10020A00586F3EDF81AC06D0BC0E576F000E586F98
:10021A0025DF06D0970E0101576F000E586F1EDFBB
:10022A001E0E0101576F010E586F2ADF81AA06D0F0
:10023A00170E576F010E586F11DF06D00F0E01010E
:10024A00576F010E586F0ADF2A0E0101576F010E10
:10025A00586F16DF81A806D03E0E576F010E586FF1
:10026A00FDDE06D0360E0101576F010E586FF6DE1D
:10027A00E40E0101576F000E586FF0DE040E000104
:10028A00A06FA051010A04E145C1E3F0020E9F6F7D
:10029A00A051020A29E1030E9F6FE351310A06E1D8
:1002AA00010145B102D0819001D081800001E35162
:1002BA00320A06E1010145B102D0819201D0818260
:1002CA000001E351330A06E1010145B102D08194EC
:1002DA0001D081840001E351340A06E1010145B1EC
:0C02EA0002D0819601D081861DD7FFD77D
:1004260010EE15F0300E006E020E016EF60EF66E30
:0E043600020EF76E000EF86E77EC00F012006A
:1002F6004F20717565207663207175657220617473
:100306007561723F2031202D206C616D70616461D2
:0F031600206F752032202D206A616E656C6100AA
:100325004175746F6D6163616F2072657369646592
:060335006E6369616C00BB
:10033B005175616C206C616D7061646120717565C4
:10034B00726573206163657361723F20312C2032BB
:07035B002C20332C2034009C
:100362004175746F6D6163616F2072657369646555
:060372006E6369616C007E
:080378006665636861646F00B3
:010380000379
:01038100007B
:0703820061626572746F00F7
:080389006665636861646F00A2
:0C0391004A616E656C612032203D200046
:07039D0061626572746F00DC
:1003A4005175616C2065737461646F3F2031206FF7
:0403B4007520300080
:0C03B8004A616E656C612031203D200020
:0103C4000038
:1003C500546F71756520656D207175616C7175650A
:1003D50072207465636C6172207061726120636F55
:0B03E5006E74696E7561722E2E2E0082
:0803F0006665636861646F003B
:0703F80061626572746F0081
:0C03FF004A616E656C612033203D2000D7
:0C040B004A616E656C612034203D2000C9
:080417006665636861646F0013
:07041F0061626572746F0059
:020000040030CA
:0D000100021F1EFF8381FF0FC00FE00F40A4
:00000001FF
